:020000040800F2
:10000000005000204D2C0108F92C01085116010860
:10001000F92C0108F92C0108F92C01080000000056
:10002000000000000000000000000000F92C0108A2
:10003000F92C0108000000004515010841160108CF
:10004000F92C0108F92C0108F92C0108F92C0108F8
:10005000F92C0108F92C0108F92C010809150108EF
:10006000F92C0108F92C0108F92C0108F92C0108D8
:10007000F92C0108F92C0108B9140108F92C010820
:1000800011150108F92C0108F92C0108F92C0108B7
:10009000F92C0108F92C0108F92C010801150108B7
:1000A000F92C010885130108F92C0108A91301088E
:1000B00065130108411301081D130108C11501084A
:1000C000B1150108B9150108A9150108F92C010895
:1000D000F92C010869140108CD130108F92C010855
:1000E000C9150108F92C0108F92C010800000000CD
:1000F0000000000000000000000000000000000000
:0C01000000000000000000005FF808F1A3
:100110002DE9804891B002F04BFB0022964B1A70FB
:10012000964B9C6814F0080F00F0CE80924B5B68F1
:100130001B7A042B00F2C580DFE803F003030658A6
:100140008B008D4B1A7ABDE08B4B5B7A002B49D02C
:10015000894B00225A7293F8223013F0080F43D1D2
:10016000854B9A89C2F30A029A62DA68C2F3CA22FC
:10017000DA62D9891A7C02F00102920242EA9112F3
:100180001A631A8AC2F34A025A631A69C2F30A321C
:100190009A63598A1A7D02F00302520242EAD1128E
:1001A000DA639A8AC2F38A021A645A69C2F34A323B
:1001B0005A64DA7D197E01F0070142EA01229A644D
:1001C0001A8BC2F3CA02DA649A69C2F38A321A65D8
:1001D000D97E1A7F02F00F02D20142EA51025A651B
:1001E00001226FE000226DE000226BE0624B93F889
:1001F000583043B3604B002283F8582093F85D30A9
:10020000012B22D15C4B93F88130102B0BD910229B
:10021000594B83F88120584991F8816001F15C03C2
:100220008031002203E0002BF5D101224AE0DD7885
:10023000187940EA052041F8040F01320233D0B2A8
:100240008642F4D803E000223CE000223AE001229A
:1002500038E0494B93F8C4305BB3474B002283F836
:10026000C42093F8C830A82B25D1434B93F8DB303A
:100270001BBB434E1546A6F1DC0707EB450393F87D
:10028000CB0093F8CC3003EB002011F027FB36A312
:10029000D3E9002311F0C2FC35A3D3E9002311F008
:1002A000DFF911F0CBFD46F8040F0135082DE4D13C
:1002B00005E0002206E0002204E0002202E0012224
:1002C00000E000222C4B1A7014F4804F0CD02A4B03
:1002D00093F800312BB10022274B83F80021012233
:1002E00000E00022244B1A70234B1B78002B02F0F5
:1002F000B98114F4807F02F0B9811F4CD4F8043125
:100300001B681B6898471F4B1B68227832B91A4A32
:10031000D2F808219A1A002AC0F2A18303F59C435F
:100320002033154AC2F80831144B9B6813F4807FC0
:1003300004D0D2F804311B681B6998470F4B9B68A7
:1003400042F201021A421FD10B4B1B7823B30A4C15
:10035000D4F804311B681B6898470CF091F900230E
:10036000237019E0AFF300809A99999999991940EF
:100370000000000000707740700100204420002041
:100380004C020020DC260020B54B93F80C210132F2
:1003900083F80C210CF074F9B24B9B6813F4805F66
:1003A00007D0AF4BD3F8103113F0010F01D10AF091
:1003B000EBFCAD4B1C68AA4B5B681B7CD3B1A84D12
:1003C00005EB4303B3F91601A0F57A70B0F57A7F17
:1003D000A8BF4FF47A7020EAE07011F059FEA349EB
:1003E00011F05EFFA24911F0A7FE12F091F8A5F8F6
:1003F00014014CE09B4B9B6813F4004F47D0984B83
:10040000D3F83C31E31A002B41DB954B04F59C42B9
:100410002032C3F83C2193F8452103EB4202B2F8A5
:10042000500180B293F85831013303F00F038C4D23
:1004300085F85831DBB2EE1811F02AFE8D4911F023
:100440002FFF12F065F886F85C0105F25B1305F2E8
:100450006B10002213F8011F0A4492B28342F9D1B3
:1004600012B2002AB8BF0F3210116428A8BF64204E
:1004700020EAE07011F00CFE7F4911F011FF7C4979
:1004800011F05AFE12F044F8754BA3F81401754BA5
:100490009B6813F4807F15D0784B9C420CD9704B2D
:1004A000D3F86C311B681B6A984728B96C4BD3F89A
:1004B0006C311B685B6A9847694BD3F86C311B68D9
:1004C0005B699847674BB3F8DC209B6813F4805F47
:1004D0000ED0634BB3F91E316249B1F81811881A76
:1004E000834210DD0A449342C2F2C48001270BE02C
:1004F0005B4BB3F91E215B4BB3F81A319A42C2F23F
:10050000B980012700E00127564B93F8216193F849
:1005100022E1B3F81A51B3F81C41514800F58B722F
:1005200000F58F7000239B0832F9021FA942C4BF57
:1005300063F07F03DBB2A142B8BF43F040038242C5
:10054000F1D1474A92F870219A4209D1444A92F86F
:100550007121F92A08D80132414981F8712103E05B
:1005600000213F4A82F871113D4A82F87031444BB4
:100570001B78DBB9D2F8103113F0010F08D0AFB9F6
:10058000404B1B7813F0010F10D00BF0A9FA0DE0CF
:100590003C4B1B7813F0040F08D0BEF1000F02D0C3
:1005A0000AF0F2FB02E00FB90AF0EEFB2C4B93F8D5
:1005B0007131142B40F0B780003618BF0126314B43
:1005C0001B7813F0040F15D02D4B1B78002B00F077
:1005D000AA80234B93F870315F2B02D10AF0D4FB31
:1005E000A1E0002E00F09F807D2B40F09C800AF05F
:1005F000CBFB98E01A4B93F87031572B0FD14FF487
:100600007A72214B1A80164BD3F8743113F0080F0D
:1006100040F089800022124BA3F8782183E0114A30
:10062000926812F0040F36D05A2B34D10C4B93F849
:100630007A313BB10A4B002283F87A21012283F8F8
:100640007B2170E0064A92F87C3183F0010382F846
:100650007C31DBB10222024B83F87D2163E000BFD5
:100660007001002044200020DC26002000007A4495
:1006700000C07F44CDCC23420000C842404B4C0018
:1006800000000020ED260020E82600200322AC4BCD
:1006900083F87D2147E05D2B02F002805B2B02F0A6
:1006A00001805E2B42F0118001F0FEBF6F2B02D162
:1006B0000BF016FA37E026B17E2B02D10BF010FAC0
:1006C00031E0972B05D14FF4C8729D4BA3F87E21E2
:1006D00029E0A72B07D19A4B93F8802142F004021E
:1006E00083F880211FE000220D92BB2B04D102234E
:1006F000ADF8363001F0F0BFB72B05D14FF6FE73E1
:10070000ADF8363001F0E8BFBE2B04D10223ADF8BE
:10071000343001F0E1BFBD2B05D14FF6FE73ADF8CB
:10072000343001F0D9BF874BD3F808C01CF0040F58
:1007300044D0834B93F87C31CBB1834B1B7813F0BF
:10074000040F14D07E4BB3F91E217E4BB3F81A313F
:100750009A420CDD7A4BD3F8103113F0010F06D119
:10076000774B3222A3F88221002283F87C21744B3C
:10077000D3F8103113F4803F10D0714B93F88431CB
:100780003BB96F4B93F87A311BB932226C4BA3F80B
:10079000822101226A4B83F884210FE0684B93F891
:1007A0007A315BB1684B1B7813F0040F06D1644BB0
:1007B000002283F87A21012283F87B21604AD2F853
:1007C00088417D340023C2F8103115464FF0010EE8
:1007D0004FF4617740F63306E2189178D078814281
:1007E00025D2527805EB4202B2F92021B2F5617FA1
:1007F00003DBB242A8BF324600E03A4692B201EBB8
:10080000810101EB810101F561718A420FDB00EB8F
:10081000800000EB800000F56170824207DAE15C45
:100820000EFA01F1D5F810210A43C5F8102104335E
:10083000A02BD1D1424BD3F8103113F0020F09D1C4
:100840001CF4807F1FD03E4BD3F86C311B689B6833
:100850009847C0B13A4BD3F8743113F0020F12D05D
:10086000374BB3F88C3113F0010F41F04F87344A06
:100870000021C2F89011C2F8941143F00103A2F8CC
:100880008C3101F043BF2E4BB3F88C2122F00101D3
:10089000A3F88C11D3F8104114F0040F12D08BB2CE
:1008A0002749A1F88C3102F0020292B28AB90A46B5
:1008B0000021C2F89011C2F8941143F00203A2F88B
:1008C0008C3106E01E4BB3F88C2122F00202A3F813
:1008D0008C211B4BB3F88C3113F0030F4FF0100138
:1008E0001A4A14BF51611161154AD2F8745115F0BA
:1008F0000A0F3CD014F0100F0DD003F0040292B296
:1009000072B90F4A43F00403A2F88C31B2F878317F
:10091000A2F8983104E023F00403094AA2F88C31CC
:1009200014F0200F14D0064BB3F88C3103F04002C2
:1009300092B2A2B943F04003014AA2F88C310EE012
:100940007001002044200020ED260020000C014012
:10095000BC4BB3F88C2122F04002A3F88C2114F098
:10096000400F04D0B74BB3F87821A3F89A2115F0C3
:10097000200F01D00CF098FA14F4006FB14BB3F8CB
:100980008C2114BF42F4807222F48072A3F88C216F
:10099000AD4B5B79082B01D00E2B06D1A94BB3F8D8
:1009A0008C2122F04002A3F88C21A64B93F89C31B5
:1009B000002B00F0038415F0040F01F0AC8614F056
:1009C000080F08D19F4BB3F88C2122F00802A3F83E
:1009D0008C2101F0A0BE9B4BB3F88C2102F00803E0
:1009E0009BB2002B41F09786964B42F00802A3F889
:1009F0008C21D3F8A421C3F8A021B3F8B221A3F825
:100A0000A8210022C3F8B421C3F8B82101F083BEA5
:100A100014F4001F07D18B4BB3F88C2122F4007221
:100A2000A3F88C21CAE3874BB3F88C2102F400733E
:100A30009BB2002B40F0C283824B42F40072A3F8B9
:100A40008C21D3F8A421C3F8A021B3F8B221A3F8D4
:100A5000A8210022C3F8B421C3F8B821AEE3794934
:100A6000D1F8BC21501CC1F8BC01052A00F29D83BD
:100A7000DFE812F00600A4008A0317018203940342
:100A8000704AD2F8742112F0080F00F08E836D4A7C
:100A9000D2F8C0219A1A002AC0F2878303F5C33422
:100AA000A034684DC5F8C04105F5E276304610F037
:100AB00005FB30463146654B1A780AF0C9FD95F8BA
:100AC000801111F0040F1AD02B46C5F8CC4100223A
:100AD0005D4E15469019A0F8FE5003F5E270105ACD
:100AE00003F5E877D05303F5EC77D0530232062AAA
:100AF000F0D121F00401A7F5EC7383F88011514B7C
:100B000093F8DE31B3B14F4A4F4BB2F8C401B3F89A
:100B1000FE10411AA2F8C411B2F8C601B3F80011D0
:100B2000411AA2F8C611B2F8C811B3F80231CB1AB3
:100B3000A2F8C831434BD3F8CC31002B00F03583F9
:100B4000E31A434A93421FD8424BDA6882F0080204
:100B5000DA6000233B4A02F5E271595A02F5E87067
:100B60001C5E08B28442C4BF02F5E870195202F557
:100B7000EC701C5E08B28442BCBF02F5EC701952E6
:100B80000233062BE7D110E300232E4AC2F8CC3102
:100B90002D481C1802F5E8715D5E02F5EC71595E96
:100BA000294401EBD1714910A4F8FE100233062B41
:100BB000EFD10BF0DDFB0CF0DFFDF6E2214AD2F8BD
:100BC000742112F0040F00F0F0821E4AD2F8E021E6
:100BD0009A1A002AC0F2E9821A4AC2F8E03192F861
:100BE000E431012B15D013B1022B35D0DDE2154CC9
:100BF000D4F8F0319847D4F8F4319847012384F8B9
:100C0000E431B4F8EA21D4F8E0311344C4F8E03117
:100C1000CBE20C4CD4F8F8319847D4F8EC31984733
:100C2000B4F8E821D4F8E0311344C4F8E031D4F842
:100C3000FC3104F5007004F501719847022384F833
:100C4000E431B2E27001002044200020EC260020B4
:100C50007FC3C901000C01407A4B002283F8E421D4
:100C6000D3F80842D3F80012D3F80C02421CD3F890
:100C700010321B789A4204D10122724B83F814225D
:100C80000022704B03EB8000C0F81812214403EBE4
:100C90008200D0F81802091AC3F80C22C3F808120F
:100CA00083E2684AD2F8742112F0040F03D0654938
:100CB00091F8141219B912F0100F00F07682614AFF
:100CC000D2F8D8525D1B46F2A712954240F26D82CF
:100CD0005C4AC2F8D8325C4B1E88002E36D01346D0
:100CE000D2F8DC22D3F8101209780139D3F808328F
:100CF000B3FBF1F31146002AB8BFD11DA2EBE1020C
:100D00001344504AC2F8DC321846002BB8BFD81D35
:100D1000C01011F0BDF94D4911F0C2FA4C4912F062
:100D200029FB0146474C4FF07E5011F0FBF8494932
:100D300011F002FA11F0C6FBC4F8E002013E424B8A
:100D40001E800022C4F8E422C4F8E8223D4CD4F806
:100D5000106230780138D4F80832B3FBF0F011F0AB
:100D600093F93A4911F09CFA394912F003FB014614
:100D70004FF07E5011F0D6F8364911F0DDF912F03F
:100D80002BFA80467668D4F8EC0211F081F93146EE
:100D900011F0D2F90746D4F8E002C0EB080011F0D8
:100DA00077F980464FF07E50314611F0BBF801468E
:100DB000404611F0C1F90146384611F0B5F812F07D
:100DC0000BFA0646B4F9F022002AB8BF5242B4F931
:100DD000F232002BB8BF5B429A42ACBF14461C46AD
:100DE000A4B21D4B186823B2FA2B01F39A8411F0B8
:100DF0004FF9074620B211F04BF90146174811F0A0
:100E000091F80146384611F097F9144911F048FA63
:100E100011F058FB0446104B1860431EC62B06D831
:100E2000084B361AC3F8F462C3F8EC023EE0054BF7
:100E3000D3F8F432F61A002812DC024BC3F8EC6245
:100E400034E000BF70010020E026002080E6C547A6
:100E5000B1DC423ED048874AC40000200000614413
:100E6000C0F5967011F014F9B84911F019FA074657
:100E7000204611F00DF90146384611F05DF904469F
:100E8000304611F005F906464FF07E50394611F014
:100E900049F80146304611F04FF90146204611F05D
:100EA00043F811F00FFBAA4BC3F8EC02A94F3868C6
:100EB00011F0EAF80646A84911F03EF98246A44C22
:100EC000D4F8000311F0E4F88046D4F8040311F0DC
:100ED000DFF80146404611F0E3F90290D4F8081318
:100EE00011F02AF90146304611F026F90390D4F8A2
:100EF000E482D4F810620196D6F80C90D4F8EC6233
:100F00004FF07C5111F018F90146504611F014F9D8
:100F100083465046414611F00FF90146584611F0FC
:100F200003F8D4F8E81210F0FFFF494611F004F975
:100F30008246304611F0ACF883464FF07E50494669
:100F400010F0F0FF0146584611F0F6F80146504601
:100F500010F0EAFF8146C4F8E8020398414610F019
:100F6000E3FF8046C4F8E4020023C4F8F832C4F872
:100F7000FC32C4F80033C4F804333B60774B1B8861
:100F8000002B40F01281764B1B68013BC62B02D828
:100F9000C4F8A46105E0484611F094FA6C4BC3F81C
:100FA000A4016B4CD4F80C03301A11F071F86D49A0
:100FB00011F0C2F80746284611F066F80146384697
:100FC00011F06EF911F07EFAC4F80C6340F2DC53B4
:100FD0009842A8BF1846644A9042B8BF10460A21FA
:100FE00003F0C4FF0746019EB5684046294611F04C
:100FF000A3F80646384611F04BF807464FF07E50EE
:10100000294610F08FFF0146384611F095F8014649
:10101000304610F089FFC4F8E40212F0DDF806460D
:10102000052103F0A3FFC4F81003D4F81453B4F857
:10103000F02202F21F3292B240F23E639A427DD811
:10104000B4F8F22202F21F3292B240F23E639A42A8
:1010500041F28A83002372E03D4CD4F8A021D4F8F9
:10106000A431D31AB3F5FA7FA8BF4FF4FA733F48FF
:101070008342A8BF18460A2103F078FFD4F818333A
:10108000DB7803FB00F00028B8BF7F30C311B3F555
:10109000967FA8BF4FF49673354A9342B8BF134664
:1010A00002E02B4BD3F81C339B1B294AD2F81813B0
:1010B0004A7A02FB03F2002AB8BF1F325211B2F57E
:1010C000967FB4BF10464FF49670294A9042B8BF3D
:1010D0001046CE7C1E4AD2F8B44106FB0343B3F55A
:1010E000C81FA8BF4FF4C813224CA342B8BF234661
:1010F000C2F8B4311A46002BBCBF03F5FF521F32B1
:1011000000EB6234487F10F0C3FF06460298294680
:1011100010F00AFF0146304611F00EF84FF06C5106
:1011200011F00AF811F0CEF99628A8BF96206FF0BA
:1011300095039842B8BF1846231A00E00023044ADA
:10114000C2F8B831029FC2F814732EE00000C84202
:1011500070010020E4260020BD378635E0260020FF
:10116000C40000200024744924FAFFFF0CFEFFFF96
:10117000D4FEFFFF0000E7FF6F4B9B6813F0800F6A
:1011800013D006F04BFF10E06C4BD3F8743113F022
:10119000100F0AD06A4808F0FDFF06E0664B9B6816
:1011A00013F4003F01D00AF025FF644BD3F8BC31A3
:1011B000052B03DD0022614BC3F8BC2108F0B4FF0E
:1011C000604B18605C4B9B8933B15C4AD2F820239A
:1011D000821A002AC1F23D81584C0344C4F82033DE
:1011E000D4F888510395544B5B79029304F54D75FF
:1011F000D4F82833284698472846294694F83A23B5
:101200000AF026FA504B1B88002B01F0B582D4F867
:101210003C331B78049304F5507400263546DFF800
:1012200028B1BBF80030B3F57A7F03D10023474AD9
:10123000B3502361414B03F54D7203F55F73505F6B
:10124000F2580244F25010F023FF804601942769BF
:1012500001372761012F04D1606020600027A7605B
:1012600020E0D4F800A0514610F05CFE81463846DC
:1012700010F00EFF0146484611F012F801465046A4
:1012800010F052FE074660604046394610F04AFEB4
:101290000146484610F050FFA16810F045FEE0609E
:1012A0002760A060254A02F54D7100236B5202F5BC
:1012B0006272AB52BBF80030012B31D1019F38690B
:1012C000012807DD013810F0E3FE0146F86810F050
:1012D000E7FF00E0002012F0D5F90746049858B166
:1012E00010F0D6FE394611F0C5F828B14FF47A72E5
:1012F000154B1A8001F040BA104B03F5627203F5EA
:101300005F73F35803F5FA73114F87FB0371DB1713
:10131000C3EBA113AB520A200F2101220AF0B0FB4C
:10132000023504361434062D7FF47BAF064B1A8841
:10133000013A1A8001F020BA4420002070010020F8
:10134000C4000020DC260020E8260020EC04002059
:10135000D34D621001F54D7201F562709C5A185A16
:10136000201A98520233062BF4D1A2F54D73D3F80C
:10137000743113F0020F00F06483A2F54D7404F58C
:101380006775D4F89433284698472846294694F838
:10139000A2230AF05DF9B4F87E31002B58D0002367
:1013A0001946184622461F46B2F87E41B4F5C87F5A
:1013B00004BF02F569740F5102F5697502F567748F
:1013C00033F904E04E5976444E511F53D2F8B043DE
:1013D00024F810700130043102330328E4D1A5F55C
:1013E0006973B3F87E31012B2CD1A5F56973D3F85D
:1013F000B023D3F8A403C8309B4981FB00E4C01795
:10140000C0EBE4101080D3F8A803C83081FB00546F
:10141000C017C0EBE4105080D3F8AC33C83381FB65
:101420000361DB17C3EBE111904B5B88CB1A938010
:101430000023039FA7F85C30A7F85E300AF098FFFE
:101440000CF09AF98A4BB3F87E21013AA3F87E2179
:10145000884B9B6813F0040F00F09D80844BB3F819
:101460008241322C14D1D3F8B0231188A3F8B413DD
:101470005188A3F8B6139288A3F8B823039DB5F852
:101480005C20A3F8BC23B5F85E20A3F8BE2301E0DE
:10149000002C51D0002319461A4675489E46322C1E
:1014A00011D100F5707600F567755F5F8F5123F8F5
:1014B00005E0D0F8B05325F812E0013204310233D0
:1014C000032AECD134E000F5707600F5677533F946
:1014D00005C08F5967448F5123F805E0D0F8B05309
:1014E00025F812E0013204310233032AD7D1012C4E
:1014F0001ED1A6F57073002283F88421012283F89F
:101500007A21022283F87D21D3F8B023B3F8B413F3
:101510001180B3F8B6135180B3F8B8139180B3F8C3
:10152000BC23039EA6F85C20B3F8BE33A6F85E3059
:10153000013C4F4BA3F882414D4B93F87B3153B3A1
:101540004B4B002283F87B21D3F8B013D3F8C04370
:10155000454880FB0475E417C4EB25140C80D3F8D0
:10156000C44380FB04E5E417C4EB25144C80D3F896
:10157000C83380FB0340DB17C3EB20103B4B5B8879
:10158000C31A8B80039DA5F85C20A5F85E200AF0A5
:10159000EFFE0CF0F1F8364CD4F8B033B4F89C13ED
:1015A0001A888A1AA4F89C23B4F89E135A888A1AB7
:1015B000A4F89E23B4F8A0239B88D31AA4F8A033E0
:1015C00008F0B2FD0546D4F8CC33C31A049318468C
:1015D00010F05AFD0590D4F8D01310F0ADFD8346FD
:1015E000C4F8CC53D4F8D443019400252C462F469C
:1015F0001F4E4FF07E5A06F54D73185F10F048FDF0
:101600000146584610F098FD07AB5851DDF804E04C
:101610009EF8000080B310F03BFD0146504610F0EC
:101620003FFE814606F576785046494610F07AFC32
:1016300055F8081010F080FD039006F56773185FE9
:1016400010F026FD0146484610F076FD014603984D
:1016500010F06AFC48F8050006F5797810F032FFC2
:1016600028F804000EE000BF1F85EB5100000020A9
:10167000700100204420002006F5797306F567729A
:10168000A25AE25206F57973E35E03FB0377023454
:101690000435062CAFD1642606FB07F6BA4B5B88EF
:1016A00003FB03F396FBF3F6B84C04F57B7007A934
:1016B00009F032FAD4F8D4536868A6F149039BB212
:1016C0003B2B25D84FF07E5110F02EFC01464FF0F9
:1016D0007E5010F0E5FD824604F2E2370024A7F2C6
:1016E000E23909F57B76A059696810F025FD80463E
:1016F00037F9020F10F0CCFC0146404610F014FC04
:101700000146504610F018FD305104340C2CE8D13D
:101710009E4BD3F8F463B3F9F80310F0B9FC01461B
:10172000304610F0C5FE38B1984B93F8802142F056
:10173000080283F8802106E0944B93F8802122F080
:10174000080283F88021914CD4F8F003314611F05F
:101750000FFE8046C4F8FC03D4F8EC3303F10049D3
:10176000D4F8F073D4F8F4633846394610F0E4FC4A
:1017700007463046314610F0DFFC0146384610F08F
:10178000D3FB11F07FFF0146484611F0F1FD0646FC
:10179000C4F80004404610F0C3F877A3D3E900234F
:1017A00010F012F910F06AFB11F016FDA4F8F00227
:1017B000304610F0B5F870A3D3E9002310F004F917
:1017C00010F05CFB11F008FDA4F8F202D4F87431BB
:1017D00013F0080F34D004F2044007A909F09CF973
:1017E000A8684FF07E5110F09FFB01464FF07E50ED
:1017F00010F056FD824604F5E1770024A7F5E17963
:1018000009F20446A059A96810F096FC804637F901
:10181000020F10F03DFC0146404610F085FB0146EA
:10182000504610F089FC305104340C2CE8D1A6F25B
:10183000044404F2044009F01BFAA4F878013AE0E9
:10184000514C201D07A909F067F96668A568E4688E
:101850003046314610F070FC06462846294610F006
:101860006BFC0146304610F05FFB054620462146E2
:1018700010F062FC0146284610F056FB11F002FF02
:101880000546002110F0ECFD78B93F4C6068294610
:1018900010F006FD6060A068294610F001FDA06010
:1018A000E068294610F0FCFCE060394809F0E0F9F6
:1018B000364BA3F878010598364910F03DFC0646F2
:1018C000324CD4F8FC3303F100430A93D4F80034CB
:1018D00003F100430B93B4F9780110F0D9FB00F148
:1018E000004010F01DF826A3D3E9002310F06CF897
:1018F00010F0C4FA0C90B4F9E40310F0C9FB0D9099
:10190000B4F9E60310F0C4FB0E90B4F9E80310F04C
:10191000BFFB0F900DA80AA909F0FEF8D4F8D43344
:101920005B78012B3AD11C4B1B7813F0040F11D1BB
:10193000D4F810341846002BB8BF03F13F00A3EBD6
:10194000A01010F0A5FB0F9910F0EEFA10F0BAFD00
:10195000C4F810040D4BD3F810040028B8BF3F3072
:10196000801110F095FB01460F9810F0DBFA0F90F4
:101970001DE000BFAFF300803B597E90A9E7814096
:10198000399D52A246DF913F0000002070010020E7
:1019900004000020BD378635ED260020B04B588866
:1019A00010F076FB01460F9810F0BCFA0F90AD4C8A
:1019B000D4F814543046D4F8181410F0B5FA01468F
:1019C000304610F06DFC06460F98294610F0AAFA32
:1019D0000146304610F0B0FB0146284610F0A4FA4C
:1019E0000646C4F81404D4F8F8720D9811F0F4FB0C
:1019F000D4F81C54297803F0B9FA3844C4F8F80232
:101A0000D4F8FC720E9811F0E7FB297803F0AEFAD7
:101A10003844C4F8FC02D4F80073304611F0DCFB03
:101A2000697803F0A3FA3844C4F800038E4B1A68AF
:101A3000049D2A441A60D4F804330133C4F80433F3
:101A400007E0884B0022A3F89C23A3F89E23A3F869
:101A5000A023844BB3F83423A3F82024B3F836230F
:101A6000A3F82224029E012E10D1B3F92614B3F953
:101A7000382302EB41027D4981FB0271A1EBE27246
:101A800092B2A3F82424A3F8262404E0754BB3F8FB
:101A90003823A3F8242408F047FB754B1860714CD9
:101AA000D4F82C34C31AA4F82834C4F82C0403F056
:101AB0006BFF012384F89C31D4F8103113F4801F9C
:101AC00045D0B4F88C4104F080039BB2002B59D16F
:101AD000684B1B7813F0040F23D0624B93F830341B
:101AE0001BB1604B93F8313463B15E4B4FF0000E85
:101AF000C3F834E4002283F83024012058490874E4
:101B000083F83124574DD5F88831181D19780CF019
:101B100095FE44F08004A5F88C41012385F8383403
:101B200030E0504BD3F83404002110F099FC48BB4E
:101B30000AF01EFC0BF020FE4A4B0020C3F83404D0
:101B4000002283F830240122454B1A741AE0454BD9
:101B5000B3F88C4104F080039BB233B103F068FD0D
:101B600024F080043F4BA3F88C41424B1B7813F0C8
:101B7000040F07D13B4B93F838341BB10122394B8A
:101B800083F83124374BD3F8745115F0080F47D040
:101B9000B3F8B03103F1450292B28A2A3BD8314AF8
:101BA000B2F88C2102F0040292B2002A33D02D4AFE
:101BB000B2F87811B2F89821891A89B28AB210B2B3
:101BC00010F1B30FBCBF01F5B47292B211B2B329D8
:101BD000C4BFA2F5B47292B2274991F8EC00214932
:101BE00091F8801111F0080F1AD041B2494202FB5E
:101BF00001F21C4912B2D1F88801007B00FB02F20D
:101C00001E4880FB02401044D217C2EB20129B1AE0
:101C1000A1F8B03104E0134BB3F87821A3F8982170
:101C200015F0140F00F0AE800E4BB3F88C3103F4B6
:101C30000273002B00F0A6800A4B93F8803113F05A
:101C4000100F1DD0074BD3F8B8210B4991F925018E
:101C5000B3F8AE1100FB0212A3F8AE2192E000BF70
:101C60000000002070010020E42600205655555544
:101C7000DC260020ED26002044200020898888886A
:101C8000B14BD3F8883193F82021002A40D0AE4AD6
:101C9000B2F8B211B2F8A80102B293F81F310CB237
:101CA000A41A002CB8BF64429C4212DDA64A00244C
:101CB000C2F8B441012482F839448AB209B200B2B0
:101CC0008142C4BF5B429BB213449F4AA2F8B23127
:101CD00058E09D4B93F839343BB19B4BD3F8A4119A
:101CE000C3F8A011002183F83914974BD3F8B83109
:101CF0001A449649B1F8D030B1F8D2109A4203DBB9
:101D00008A42B4BF13460B468F4AA2F8B23139E07B
:101D10008D49B1F9A821B1F9B211891A81EAE170AE
:101D2000A0EBE17093F81F3198420BDD864B01EB7D
:101D3000D1714910C3F81C13012183F83A1483F8B8
:101D400039140DE0804B93F839344BB17E4BD3F806
:101D5000A411C3F8A011002183F83A1483F83914B0
:101D6000794BD3F8B8111144784AB2F8D030B2F8B0
:101D7000D220994203DB9142B4BF0B461346724A0C
:101D8000A2F8B231704BD3F8884194F82461002E48
:101D90005BD0B3F88C3113F0030F56D06A4BB3F815
:101DA000B2710297D3F8EC93D3F8F083D3F8F473BD
:101DB0003846394610F0C0F982464846494610F088
:101DC000BBF981464046414610F0B6F90146484607
:101DD00010F0AAF880464046514610F0A5F811F0E0
:101DE00051FC0146384610F05BFA0746584910F09E
:101DF0004BFB20BB384611F06BFA534BD3F83C1425
:101E000010F09AF911F0E8F9B0F5617FA8BF4FF42E
:101E100061700FF073FD4AA3D3E900230FF0FEFEBB
:101E200010F02CF811F016FA0746304610F030F991
:101E3000394610F081F911F0CFF980B200E00020AE
:101E4000029A0244404BA3F8B22115F0200F0DD0A6
:101E50003D4BB3F88C3103F030033BB13A4B93F870
:101E6000803113F0010F01D00AF0A8FC394B1D6836
:101E7000201D04F15001354BB3F8F62004F15C034A
:101E8000A847314B93F84034013B142B00F2F48106
:101E9000DFE813F04200F201F20115006400F201E4
:101EA000F2012001F201F201F201F201F2018A00D5
:101EB000F201F201F201F201F2019901C4010420E0
:101EC000022108F0EFFD204CB4F8486400FB06F056
:101ED00087B20420012108F0E5FDB4F8465400FB68
:101EE000057087B2042008F0EDFD1B4C38442081BA
:101EF0000520022108F0D6FD00FB06F086B2052081
:101F0000012108F0CFFD00FB056085B2052008F037
:101F1000D9FD28446081AFE10520012108F0C2FD10
:101F2000094BB3F8483400FB03F084B2052008F0F5
:101F3000C9FD2044084B58819EE100BFAFF30080EB
:101F4000A2EB0FE5DD169640700100204420002032
:101F50008FC2753CC8000020B4000020AA4CD4F801
:101F60004C74002008F0AEFDA84D97F90630B4F986
:101F7000F22202FB03F3A64E86FB0312DB17C3EB30
:101F8000221318442880012008F09CFD97F90E3098
:101F9000B4F9F02202FB03F386FB0326DB17C3EB45
:101FA00026131844688067E19A4B1B7813F0040FDE
:101FB00006D1954BD3F850349A88944BDA810EE0D1
:101FC000914BB3F9B221D3F850140B8849889A4247
:101FD00003DB9142B4BF0B4613468C4AD3818B4B33
:101FE000DA898D4B1A80884BD3F854341C78002C36
:101FF00037D0022008F066FD834BD3F84C24B2F9A9
:102000001030518A984203DB0BB29842B8BF0346A6
:102010007D4DD5F858144989CB1A98B2B5F85C347F
:1020200006B21DB2AE4204DD23447748A0F85C340A
:1020300007E000B21DB2A84203DA1B1B7248A0F8E9
:102040005C3492F91630704AB2F95C2402FB03F357
:102050006F4A82FB0342DB17C3EB621319446B4BDD
:102060009980694BB3F88C3103F480739BB263B1F0
:10207000654AB2F8AC11654BD9801981B2F8B0113C
:102080005981B2F8AE219A817AE35F4AB2F84414DA
:102090005E4BD9801981B2F848145981B2F84624B0
:1020A0009A816DE308EBC40393F90630B5F9062075
:1020B00002FB03F387FB03E6DB17C3EB6616EE8038
:1020C000204608F0FFFC3044E88001340235072C3C
:1020D000E8D1D1E04F4B1B7813F0040F06D14A4BE7
:1020E000D3F850349A88494BDA810EE0464BB3F965
:1020F000B221D3F850140B8849889A4203DB9142ED
:10210000B4BF0B461346414AD381404BDA89424B58
:102110001A803D4BB3F88C3103F480739BB213B338
:102120000320012108F0BEFC374CB4F8AE6100FB7F
:1021300006F087B20320022108F0B4FCB4F8AC51D9
:10214000324C00FB0570E0800420012108F0AAFC5D
:1021500000FB06F086B20420022108F0A3FC00FB7D
:102160000560208121E00320012108F09BFC264C22
:10217000B4F8466400FB06F087B20320022108F0A1
:1021800091FCB4F84454214C00FB0570E08004201D
:10219000012108F087FC00FB06F086B20420022132
:1021A00008F080FC00FB05602081032008F08AFC19
:1021B000164CE3881844E080042008F083FC23894F
:1021C0001844208158E00420012108F06BFC0E4DDA
:1021D000B5F8463400FB03F086B20C4C268104208F
:1021E00008F070FC304420810520012108F05AFCE1
:1021F000B5F8443400FB03F085B26581052008F092
:1022000061FC2844608137E070010020B4000020A8
:102210001F85EB51ED2600202C200020814BB3F8C8
:1022200048A4814D03244FF002094FF001081F46D6
:102230002046494608F036FC00FB0AF086B22046EC
:10224000414608F02FFCC4F1060323F001033B4490
:10225000B3F8443400FB036086B22E80204608F0B9
:1022600031FC304425F8020B0134072CE0D16D4BD2
:10227000B3F8B2216D4B1A806D4B9B6813F0200FA1
:1022800000F08582002008F01DFC0546694C208086
:10229000012008F017FC6080624BD3F8103113F076
:1022A000800F00F074825F4BD3F860341B7813F01A
:1022B000020F24D05B4BD3F84C4494F90E20B3F9B1
:1022C000F01201FB02F25C4981FB0276D217C2EBED
:1022D000261292B294F906406442B3F9F23203FB3B
:1022E00004F381FB03E1DB17C3EB211189B2514BEE
:1022F000541A25441D800A441044588047E2494B33
:10230000D3F84C444B4A94F90610B3F9F26206FB39
:1023100001F6494981FB06E7F617C6EB2716354457
:10232000158094F90E40B3F9F03203FB04F381FBFE
:102330000341DB17C3EB21131844508027E2B1F9A6
:102340000200E25EE5186D88904203DB2AB2824209
:10235000A8BF024621F8022F0833402BEFD1314BA2
:10236000D3F86434002B72D02E4B93F84034013BE9
:10237000142B65D8DFE803F01564640B3764642D13
:1023800064646464644464646464643A4400294C2E
:102390000020218903F052FA0120618903F04EFAEE
:1023A00055E0204BD3F868345B782BB10020214BEB
:1023B000598903F043FA4AE0204B1B7813F0040FCD
:1023C0004FF000001ABF1B4B5989014603F036FA43
:1023D0003DE0184C0020E18803F030FA012021890B
:1023E00003F02CFA33E008F089FB30E0114C0020B8
:1023F000218903F023FA0120618903F01FFA26E006
:102400000C4C0020E18803F019FA0120218903F027
:1024100015FA0220618903F011FA0320A18903F063
:102420000DFA14E070010020BA0000202C200020DA
:1024300044200020B40000201F85EB51ED26002031
:10244000BD4B9B6813F0200F01D008F057FB08F03C
:1024500027FBBA4B1B7833B9B74B9B6813F4806FDB
:1024600001D00DF047F8B44B9B6813F4803F3DF466
:1024700054AEB34B93F86C34002B3DF44EAEB14BDD
:102480001B7813F0FF0F7DF448AE07F04DFE0546B4
:10249000AB4BD3F87024821AD243D20F0292D3F8F6
:1024A0007424821AD643F60FD3F87874C71BFF43FF
:1024B000FF0F27B91EB9029C002C3DF42EAE07F089
:1024C00053FC9F4B93F87C34002B41D000219C4C53
:1024D00004F2844CDFF88CA240F267190195D4F81D
:1024E000803403EB81035B8803F480639BB243B3C6
:1024F00088002318D3F884340693604490F802B01F
:1025000090F80380B4F91E31A3F57A73C3EB03137B
:10251000DB008AFB035EDB17C3EBAE1E0EF22B1E45
:10252000894D8EFB05230EEB03024FEAEE73C3EBDE
:10253000222309FB13EE2CF821E080F802B080F88A
:1025400003800131C9B294F87C348B42C7D8019D15
:10255000002F3AD07A4A05F5C333A033C2F8783455
:1025600092F804356BBB1346012283F80425002240
:1025700083F80525704B9B6813F0020F06D009F015
:1025800045F918B101226E4B83F805256C4BD3F841
:1025900008351B689B68984730B1694B93F805254F
:1025A00042F0020283F80525684B1B7813F0050FF3
:1025B0000BD1634B93F8052542F0040283F80525FF
:1025C00003E000225E4B83F804255D4B93F805156C
:1025D00019B193F8040507F04BFB86B3584BB3F9D8
:1025E000AE110029B8BF4942594A82FB0160C917A0
:1025F000C1EB2011B3F9AC31002BB8BF5B4282FBB9
:102600000372DB17C3EB2213CAB2DBB29A4228BFB4
:1026100013461BB14F4A92FBF3F200E04D4A484B80
:102620002A44C3F8742493F80C3523B90122444B8F
:1026300083F80C2503E00022414B83F80C25404B26
:1026400093F80C050AF0A6FA029C3CB105F5434547
:1026500050353B4BC3F8705402F010FE0DF066FF8E
:10266000FDF75BBD3C4B1B68FDF751BE3A4B1B6849
:10267000FDF754BE324B0022C3F89021C3F89421D9
:10268000C3F81025C3F81425C3F818250025C3F88E
:102690001C55C3F82055C3F824551746FDF734BF21
:1026A000012302E0022300E00323DCB2621E224B7E
:1026B00083F8942609F05CFE0AF0B8FC0220282179
:1026C000224609F0DDF9FEF72EB8244A1278002AD6
:1026D0007DF4ECAFFDF7F5BF194CD4F88831BDF8A7
:1026E0003410B3F85C200A44A3F85C20BDF836101F
:1026F000B3F85E200A44A3F85E2009F039FE0BF01F
:102700003BF8002384F87131FEF70DB80C4BD3F879
:102710001041FEF7D7B815F0100F3EF44FADFEF79D
:1027200077B94FF0FF320E4B1A60054BD3F8F432F5
:10273000F61AFEF782BB00BF44200020EB260020E3
:1027400070010020EA26002035318DB6ED260020EC
:102750001F85EB51400D0300DC2600200000002007
:10276000C4000020D34D62100C4B93F83A34002B78
:102770007EF497ACFEF770BC00230849FEF7EABD73
:10278000064BD3F84C84064D0324064F8AE4034BD2
:10279000D3F84C4404490023D1E500BF7001002068
:1027A000B40000201F85EB51B2000020AFF3008081
:1027B0002DE9F04F9BB0894B894A1A6000225A607C
:1027C00002F0F4FB18B90AF0E1FF09F0D1FD0AF0BC
:1027D0002DFC844B997B00230493059306934FF4BF
:1027E000E0130793804B1A6842F480321A609A69AA
:1027F00042F010029A611A46136803F400330593FD
:10280000049B01330493059B1BB9049BB3F5A06F94
:10281000F2D1754B1B6813F4003F02D002230693DC
:102820001DE0714B1A6842F001021A600023049304
:102830006D4A136803F002030593049B013304936C
:10284000059B1BB9049BB3F5A06FF2D1664B1B68C7
:1028500013F0020F02D00123069300E0FEE7634B62
:102860001A6842F010021A601A6822F003021A6015
:102870001A6842F002021A60A3F580535A685A603F
:102880005A685A605A6842F480625A60584A10681E
:1028900020F070401060574C57480460586820F48E
:1028A0007C105860136843F000431360534BDA68A0
:1028B00022F40042DA609B6813F4004F05D0504ABE
:1028C0004D4B1A604FF4801301E04FF4E01307936F
:1028D000069B012B19D0022B1CD171B1079BB3F5BC
:1028E000801F03D14FF4A013079306E0079BB3F5B5
:1028F000E01F04BF4FF4001307933B4B5968079A3E
:102900000A4342F480325A6004E0374B5A6842F47A
:1029100060125A60344B1A6842F080721A601A468C
:10292000136813F0007FFBD02F4B5A6822F003028C
:102930005A605A6842F002025A601A46536803F01D
:102940000C03082BFAD10193274B5B6803F00C03AF
:10295000042B06D0082B09D023BB264A294B1A602A
:1029600023E0254B1A68274B1A601EE01E4B59685E
:102970005A68C1F38343023312F4803F05D1224ADF
:1029800002FB03F31F4A13600FE0174A526812F468
:10299000003F194A126818BF520802FB03F3194A94
:1029A000136002E0134A174B1A600F4B5A68C2F3C8
:1029B0000312114B1A4492F804A05FFA8AFA114AE2
:1029C000116821FA0AFAC2F800A01B68094A93426A
:1029D0001ED101220D4B1A7020E000BFB40600206A
:1029E0000DAA0008442000200010024000200240F0
:1029F0000410014000127A00140000200010014071
:102A0000001BB700D000002000093D00EE2600208A
:102A1000A74A934202D10222A64B1A70DFF8DC9239
:102A2000A54BC9F80C30A54CA36943F00103A36181
:102A3000636A43F080736362A36943F01C03A3617C
:102A400000278DF82A701AAD4FF6FF7325F8403D28
:102A50009B48294602F0F4FEDFF88C824046294666
:102A600002F0EEFE9748294602F0EAFE964B5A68BD
:102A700042F000725A60284608F0FAFB934A0A9B1B
:102A8000A2FB03139B0C924EB360924AA2FB0A3244
:102A90009209013A904B5A60F02289F823209F60F6
:102AA00007221A60642007F069FB8C48394690229F
:102AB00010F02DF94FF40073ADF8283010238DF885
:102AC0002A3001238DF82B304046294602F0B8FE0B
:102AD000E36943F00703E361A36943F4006343F050
:102AE0000C03A36106F10B0306F11A013A4603F841
:102AF000012F8B42FBD1764BFF221A775A779A77B8
:102B0000DA770AAC764B0FCB84E80F006B4B9A69EF
:102B100042F008029A619A6942F008029A61A3F5AC
:102B2000823308221A6110221A610A980BA902F056
:102B300087FE0C980DA902F083FE5E4B1B78012BDB
:102B400001F24A8501F060BD002007F045FB0AACA8
:102B5000644B93E8030084E80300584B9A6942F001
:102B600008029A610A980BA902F06AFE0EF05CFB5B
:102B70009F238DF8243000238DF825308DF82630E2
:102B80008DF82730322007F0F9FA4FF48052564B77
:102B90005A61A3F554439B8905254FF47A7309A91B
:102BA0002046FF26514A26E011B14C1C0F780AE05E
:102BB0000C46374607E0591E89B21BB94B4802F054
:102BC000C7FE1AE00B46118911F0020FF3D097816E
:102BD00007E0591E89B21BB9444802F0B9FE0CE067
:102BE0000B46118911F0010FF3D09189C9B208B1D8
:102BF000017001302146013DD6D14FF480523A4B4D
:102C00001A619DF829209DF82A301B0243EA0242EE
:102C10009DF82B301A43364B9A4217D0324C4FF462
:102C200080556561314E3046F5210EF055FB30463A
:102C3000FF210EF051FB8DF828002561702805D189
:102C400001F098BB03261B4B1E7006E0194B1E7843
:102C5000032E02D0012004F0AFFC264B986800F44C
:102C60000065254A0021134643F8041B51600433D4
:102C700043F8041B196002238DF826308DF82710C5
:102C80001023ADF82430042313700123937007231D
:102C9000D37010F4004F33D01223ADF82430134614
:102CA00001221A715A719A710722DA71022428E0FE
:102CB000001BB700EE2600200005FA0500100240B8
:102CC00000080140001001400000014083DE1B436A
:102CD000B4060020D34D621010E000E0681E002012
:102CE000F453010804540108000C0140003800406E
:102CF0001520200044200020B002002000ED00E05C
:102D00000124012E0FD9BDF8243043F02003ADF883
:102D10002430604B05221A72621C5C720121997288
:102D20000721D972D4B25C4809A908F0FFFA85B12D
:102D30001AA9022321F8443D584808F0F7FA554BE8
:102D400009221A73621C5C73012199730721D973DC
:102D5000D4B2534B5A6942F001025A619A6942F463
:102D600000729A614F4808F0ADFB4F4B0A934F4BEE
:102D70000B9300230C930D940E93022C28BF8023F9
:102D80000F934FF4807310934FF4806311932023BB
:102D900012934FF40053139300261496414D284686
:102DA0000AA908F06FFB2B6843F001032B60404B2E
:102DB0005A6822F4702222F48072012C94BF002100
:102DC000012142EA01225A6099683A4A0A4042F4D3
:102DD000602242F002029A60DA6A22F47002611EF6
:102DE000C9B242EA0152DA6230460122294F1F2459
:102DF000072600EB070E9EF8021000296BD0C15D7C
:102E0000551CEDB29EF803C0092910D9D3F80C80E7
:102E1000A1F10A0E0EEB4E0E06FA0EF928EA090889
:102E20000CFA0EFE48EA0E0EC3F80CE00DE0D3F8E3
:102E3000108001EB410E06FA0EF928EA09080CFA97
:102E40000EFE48EA0E0EC3F810E0062A0FD8D3F89B
:102E500034E0013A02EB820204FA02FC2EEA0C0E84
:102E600001FA02F24EEA02025A632A4633E00C2AC1
:102E700022D8D3F830E0073A02EB820204FA02FCCF
:102E80002EEA0C0E01FA02F24EEA02021A632A46F8
:102E900021E000BFB002002000080140000C01400A
:102EA00000100240080002404C240140C0020020F3
:102EB00000240140FDF7F1FFD3F82CE00D3A02EBBE
:102EC000820204FA02FC2EEA0C0E01FA02F24EEA29
:102ED0000202DA622A46043010288AD1B64B9A6878
:102EE00042F480729A609A6842F001029A609A688D
:102EF00042F008029A601A46936813F0080FFBD15B
:102F0000AD4B9A6842F004029A601A46936813F037
:102F1000040FFBD1A84B9A6842F4A0029A60A74B19
:102F2000B3F8E600002841F02C82B3F9E830002B1A
:102F300041F02782A14BB3F9EA30002B41F0218206
:102F40009E4B9B6813F4003F64D0142007F016F9E1
:102F5000AE200DF0C7FCA4200DF0C4FC322007F019
:102F60000DF920200DF0BEFC02200DF0BBFCA120CD
:102F70000DF0B8FCC8200DF0B5FCA6200DF0B2FC99
:102F800081200DF0AFFCAF200DF0ACFC142007F059
:102F9000F5F8AF200DF0A6FC142007F0EFF8A620FE
:102FA0000DF0A0FCAE200DF09DFC20200DF09AFC51
:102FB00000200DF097FCB0200DF094FC40200DF0A7
:102FC00091FC00200DF08EFC10200DF08BFC4FF4D6
:102FD0008064002528460DF053FC013CA4B2002C6F
:102FE000F8D181200DF07EFCC8200DF07BFCAF20D5
:102FF0000DF078FC724C734B236204F12400002125
:103000000C220FF084FE08F0F5FF07F08DF86E4BF0
:103010000344E3626D4B1A6842F00E021A60674B7C
:10302000B3F8EE4093F8ED70694B1B68B3F85AB0F3
:103030000022684B1A70684B1D78012D674B03F115
:103040000C0298BF1A465E4B1A630EF073F800909C
:10305000002801F06382624B624A1A60624A5A6039
:10306000624ADA60BB2C04D90122614B1A7501F067
:1030700023BA612C04D902225D4B1A7501F01CBAE7
:10308000292C04D903225A4B1A7501F015BA132CB6
:1030900004D90422564B1A7501F00EBA092C8CBFC4
:1030A00005220622524B1A7501F006BA374689F8F6
:1030B00000A0092F00F2F480DFE817F011001100E2
:1030C0003400BB00DB00F200F200F200F2000A0064
:1030D0003E4B1A6822F002021A6001F0FCB9012D81
:1030E00027D81AAB03F840AD53203146012204F033
:1030F00069FB002801F0EC819DF82830E52B41F0B8
:10310000E7812F4B83F834603A4B23603A4B63607E
:10311000042389F80030012388F800309F4241F0F1
:10312000D781C8E0022D354BA3F10C0238BF1346FE
:1031300000E0324B224A13630DF0FCFF002878D0E8
:10314000682006210A460AAB04F03CFB9DF82D20BE
:1031500002F001029DF82B3003F001035B0043EA0B
:1031600082029DF8293003F0010313430FD0012B95
:1031700003D1134B83F8356046E0022B04D10122C2
:103180000F4B83F835203FE0052007F02DF868202D
:103190000C21012209AB04F015FB9DF8243013F03B
:1031A0000F0302D1052007F01FF8042B28D1044B90
:1031B00083F8356028E000BF00240140442000204F
:1031C000B406002052210020404B4C00E4020020B5
:1031D000F8020020AA040020EE2600207C530108FB
:1031E00094040020CD010108290A010890C1793D0D
:1031F0001400002069010108150B0108885301081B
:103200000122CB4B83F83520CA4B2360CA4B636045
:10321000C74B93F83530002B14BF6E236F232372F6
:10322000022388F80030012389F80030022F01F0D2
:103230005281012D1DD81AAB03F840AD1C200D2181
:10324000012204F0BFFAA0B19DF828302A2B01D04A
:103250001A2B0ED1B94A2260B94A6260B44A82F888
:103260003630022389F80030032388F800309F426B
:1032700021D01AAB03F840AD18203146012204F0EA
:10328000A1FA68B19DF82830FB2B09D1AD4B236022
:10329000AD4B6360042388F80030012389F80030C7
:1032A00098F800303BB9002F7FF400AFA74B1A68A5
:1032B00022F002021A60012D06D1A54804F02AFB73
:1032C0004FF40052A34B5A610A2006F057FF7720B3
:1032D000A021012209AB04F075FA002801F0168143
:1032E00077201E2101220DF081FC4FF42F6006F0A3
:1032F00039FF002425468E4E8DF828508DF8295030
:10330000A4F160017720C9B202220AAB04F05AFA94
:103310009DF828209DF8293043EA022206F138035F
:10332000E2520234102CE7D1383BB3F8465005F096
:103330000F0405F47F45A3F84650012000231946E9
:103340007B4F019E21F001023A44128F002A18BFE0
:10335000002011F0010F1ABFD2B2534083EA1223AA
:1033600001F0C0B813F4004F18BF83F4C0535B00E2
:10337000013AF7D101311029E4D125436C4AA2F872
:103380004650002841F0C280C3F303339C4201F051
:10339000AC8001F0BBB86E4804F0BCFA4FF4804436
:1033A000ADF8244004238DF826306A4D284609A93B
:1033B00002F046FA4FF400532B61674B5A6922F42E
:1033C00070625A615A6942F400725A610A94002389
:1033D0008DF82C3008238DF82D3001248DF82E40E7
:1033E0000AA808F007F828238DF820300F238DF85D
:1033F00021308DF822308DF8234008A808F0F2F82B
:10340000142006F0BBFE7720D021224609AB04F041
:10341000D9F99DF82430464A82F85F300321A2F89A
:103420006810552B40F0A6807720D121224609ABA9
:1034300004F0C8F99DF824303D4C03F00F0284F8E5
:1034400060201B0984F861307720AA2116220AAB7C
:1034500004F0B8F99DF828209DF8293043EA0223AA
:10346000A4F848309DF82A209DF82B3043EA022327
:10347000A4F84A309DF82C209DF82D3043EA022311
:10348000A4F84C309DF82E209DF82F3043EA0223FB
:10349000A4F84E309DF830209DF8313043EA0223E5
:1034A000A4F850309DF832209DF8333043EA0223CF
:1034B000A4F852309DF834209DF8353043EA0223B9
:1034C000A4F854309DF836209DF8373043EA0223A3
:1034D000A4F856309DF838209DF8393043EA02238D
:1034E000A4F858309DF83A209DF83B3043EA022377
:1034F000A4F85A309DF83C209DF83D3043EA022361
:10350000A4F85C30012384F86C30144B41F27072E3
:103510001A8046F678125A80114A5A60114A9A6007
:10352000114ADA60114A1A61114A5A612BE000BF50
:10353000B4060020D5780008E9090108B1000108A7
:10354000690A010845010108CD0A0108E4020020CA
:103550000C540108001001400000014058030020F5
:1035600099000108AD090108710001085909010815
:103570002D4A00084FF40052B94B5A61B94B1A68F2
:1035800022F004021A60B84B93F8E2300BB1B74A4C
:103590001370B54B93F8E3300BB1B54A1370B24BCF
:1035A00093F8E4300BB1B34A1370AE4B1B6813F0C1
:1035B000020F02D0B04B1B689847B04B1B6898476E
:1035C0001AAB002203F8402D1E200A21012204F02C
:1035D000F9F838B19DF82830482B03D10322A54BC8
:1035E0001A7004E09F4B1A6822F008021A609D4B83
:1035F0001B6813F0080F1BD00FFA8BFB64259BFB95
:10360000F5F420460EF044FD064605FB14B000B26A
:103610000EF03EFD9A490EF08FFD014630460EF049
:1036200083FC98490EF088FD974B186700F079BF2E
:103630000022954B1A6700F074BFE36883F0100313
:10364000E360E36883F00803E360284606F096FD34
:10365000384606F0C1FD284606F090FD002006F031
:10366000BBFD731E13F0FF06E7D1884B08221A61D9
:1036700010221A61864B1B6893F90C000EF03EF97C
:1036800073A3D3E900230EF09FF90EF0F7FB0FF0C0
:103690006DFD05467F4C20880EF0FAFC29460EF0A1
:1036A0004BFD0FF099FD7C4B188020880EF0F0FC4C
:1036B00001467A480EF0F4FD79490EF0F1FD794BA0
:1036C00018606E4BD8680EF02BF961A3D3E9002384
:1036D0000EF07AF960A3D3E900230EF075F90EF02D
:1036E000CDFB714B1860604B5A7970490A7003F139
:1036F0001000654948676E4901EBC20292F8A510B7
:103700006C4A11609B6813F0200F02D00122694BB4
:103710001A60544B1B6813F0080F00F01881102238
:103720005A4B5A61644B1B78022B34BF4FF48051C3
:103730004FF4804134BF08241446604A9069204306
:103740009061ADF8241002228DF8272004228DF814
:103750002620434A4D48012B88BF104609A902F094
:103760006FF8322006F00AFD1E20002111220DF014
:103770003DFA1E20012160220DF038FA642006F087
:10378000FDFC0AA80DF09AFC0A27002425462646CF
:103790004FF01E0ADFF82891DFF8F0805046022132
:1037A00001220DF023FA322006F0E8FC0AA80DF001
:1037B00085FCBDF928201644BDF92A100D44BDF939
:1037C0002C301C449142B8BF0A469A42B8BF1346F7
:1037D0004B4509DBD8F80C3083F01003C8F80C30E7
:1037E000013FDBD1012700E000271E20002112222B
:1037F0000DF0FCF94FF00A084FF01E0BDFF8C0A0E7
:10380000DFF888905846022101220DF0EFF93220AE
:1038100006F0B4FC0AA80DF051FCBDF92820B61A38
:10382000BDF92A106D1ABDF92C30E41A9142B8BFC7
:103830000A469A42B8BF1346534543DBD9F80C30C9
:1038400083F01003C9F80C30B8F10108DAD13AE07E
:10385000399D52A246DF913F000000A0F7C6B03E5E
:1038600000100140E402002044200020AA040020AF
:1038700012050020EC260020000500209404002002
:103880008988883C00002041B4060020000C0140DB
:103890004405002002000020680500200AE81C41C1
:1038A00000401C467804002040050020B0050020A0
:1038B0007C530108D4050020EE26002000100240B1
:1038C00001F0FFFF0027DFF8488330460EF0E0FBF1
:1038D0000146BE480EF0E4FC20F00040C8F8180095
:1038E00028460EF0D5FB0146B8480EF0D9FC20F072
:1038F0000040C8F81C0020460EF0CAFB0146B44840
:103900000EF0CEFC20F00040C8F820001E20002160
:1039100070220DF06BF91E20012120220DF066F9B6
:103920001E20022100220DF061F9642006F026FC21
:103930003FB94FF07E52C8F81820C8F81C20C8F8CC
:1039400020201022A34B1A610122A34B1A7040239E
:10395000ADF8283010238DF82A3002238DF82B3053
:103960009C480AA901F06CFF00229C4B1A604FF0A2
:10397000FF329B4B9A679B4B03F180019A4A43F8B5
:10398000042F8B42FBD1964C0025E567F022974B24
:1039900083F82220C4F8A050C4F8C850C4F8C4501A
:1039A000934BC4F8CC30143BC4F8D030914E304621
:1039B0000E21102203F0C8FF304629462A4604F0A3
:1039C00053F88D4BC4F8D43004F1D8008B4901F082
:1039D00083FF304604F1D4012A460BF0C1FB88482E
:1039E000C4F8E00006F0FCFA04F1E400FF2116221E
:1039F0000FF08DF9012384F8FA3084F8E450814BFC
:103A00001B6813F0020F08D0012184F8E510032190
:103A100084F8FA10022184F8E61013F0040F09D09C
:103A20006F4A92F8FA10481C82F8FA000A440321FF
:103A300082F8E41013F00A0F15D0694B93F8FA20BE
:103A40009918042081F8E400511CC9B219440520DA
:103A500081F8E400D11C83F8FA100232D2B2134488
:103A6000062283F8E420684B9B6813F0200F09D0EE
:103A70005B4A92F8FA10481C82F8FA000A440721BF
:103A800082F8E41013F0800F0FD0554A92F8FA1024
:103A90005018092480F8E440881C82F8FA000131AB
:103AA000C9B20A440A2182F8E410574A5279082A16
:103AB00001D00E2A09D14A4A92F8FA10481C82F81D
:103AC000FA000A440B2182F8E410454991F8FA20E3
:103AD000501CC0B281F8FA0011440C2481F8E44073
:103AE00013F0040F07D03E49023281F8FA20014456
:103AF000102281F8E4203A4991F8FA20501CC0B213
:103B000081F8FA001144122481F8E4403E4991F80A
:103B1000451100290CBF002103F0010139B13049E2
:103B2000023281F8FA200144132281F8E4202C4962
:103B300091F8FA20501CC0B281F8FA001144142404
:103B400081F8E44013F4007F07D0254B023283F85C
:103B5000FA200344152283F8E4202C4800219822FF
:103B60000FF0D5F80027DFF8A890DFF89CB009F136
:103B70002C05DBF83031C9F830304FF00008012453
:103B80004FF4964A2046294603F0EAFA06460028F2
:103B900040F0D284B8F1000F40F0D384C9F830A0CF
:103BA000A046EFE707F101085FFA88F84C2202FB14
:103BB00007F7164C3C44204600210FF0A8F8134AA2
:103BC000D651012384F84A304746D2E700406F4679
:103BD00001C05E46000C01404E030020A01F0020E3
:103BE000B4060020A01F00203800002000ED00E0F7
:103BF000382C0140546E010825EB000835DE000822
:103C000070210020E402002044200020B0070020A2
:103C100014000020B349B44BD3F83431CB630220F5
:103C2000383103F09DFAB14BC3F89401002315938A
:103C3000169317931893ADF86430AB4B5B790E2B4A
:103C400002D0082B40F0888401238DF85D3000F00D
:103C500083BC04F11803E85C022809D004F12803AE
:103C600019461A78824207D01033B342F8D102E0E5
:103C700004F1180100E0394608F0A4FC83681B78C1
:103C8000012B04D01035602DE3D10023009300995F
:103C90008DF85710944B9A68C2F340018DF8581074
:103CA000C2F380118DF85910C2F340318DF85410D1
:103CB000C2F3C0318DF85610C2F300418DF85A108E
:103CC00002F001018DF8551089490968003118BFCB
:103CD00001218DF85B108749096891F87011C1F3D3
:103CE00080018DF85C10B3F8DE10ADF85E10B3F80B
:103CF000E030ADF860304FF47A73ADF8623012F412
:103D0000805F04D0784BB3F8DA30ADF86230B1F5AB
:103D1000FA7F84BF0023ADF862307348B0F8181101
:103D2000ADF86410714B90F8204183F8984100F58C
:103D30008770C3F89C01704CC3F8A0410024A3F81D
:103D4000A64183F8A84103F5D0746C4D2C60C3F8EC
:103D5000AC416B4B18606B4B03F1240023F8021F3E
:103D60008342FBD16849694B196012F0080F7ED07D
:103D70005D4B93F81631042B70D8DFE803F0030392
:103D80002F4D5E007BB1012B1AD1584B032283F8D3
:103D9000B021072283F8B121012283F8B2210C223D
:103DA00083F8B4210CE0514B022283F8B0210322A6
:103DB00083F8B121002283F8B221072283F8B421CD
:103DC0000820534903F0CCF9484BC3F8B801514AD5
:103DD000C3F8BC21031C18BF012340E008204E4952
:103DE00003F0BEF9414BC3F8C0013F4BB3F81811C3
:103DF000A1F5777149000022484BD1500432302A96
:103E0000FBD13A4B464AC3F8BC210C2283F8B421BB
:103E1000031C18BF012322E00820424903F0A0F947
:103E2000324AC2F8C401404BC2F8BC31102382F8B8
:103E3000B431031C18BF012311E008203B4903F0F3
:103E40008FF92A4AC2F8C801394BC2F8BC3108239D
:103E500082F8B431031C18BF012300E0002333B9FA
:103E6000082001F093F80022204BC3F8BC211E4B20
:103E70009B6813F4804F06D01C4A082182F8B411C5
:103E80002C49C2F8BC1103F0010203F4005142F2C4
:103E9000010003420DD0284C1448C0F8BC4119B1B0
:103EA0000820124981F8B4011AB10C210F4A82F896
:103EB000B4110E4A92F8B411043982F8B51113F016
:103EC000800F7FD01D4BC2F8CC31D96800231C4A2B
:103ED00038E00133DBB2042B34D90022034B83F8E2
:103EE000D12138E01400002044200020B406002036
:103EF000D4050020F8020020D8540108DC0200207C
:103F00007401002086020020540800207402002062
:103F100000550108D5AD00080C5501089801002096
:103F2000A1AE00081855010891AE000824550108FB
:103F30007DAE0008B5AE0008C1AE000870210020BB
:103F40007C53010802EB0310D0F8B8018842C0D1BD
:103F5000B64A82F8D131B54CB54DC4F8EC510020C9
:103F60000AF0EEFFB34B1B68C4F8D8310023C4F845
:103F7000D4312B78002B0CBF0122032294F8D111ED
:103F8000AD4B03EB0113D3F8B831C4F8F43184F826
:103F9000F021102004F5F87103F0E2F8C4F8FC01F8
:103FA00018B9802000F0F2FF02E001200AF0C8FFFB
:103FB000A24B186800F5B9729C4BC3F8002204307C
:103FC00001F086FA9E4B9B6813F4007F0ED013F429
:103FD000005F14BF9B489C480DF0C4F89B4B1A68C7
:103FE00042F010021A600022994B1A60994B19682E
:103FF000994B9A4A136003F180008C4AC2F804027C
:10400000974A11600021974A1170A3F5AA739B6823
:1040100013F4803F00F0A78001F0CEF801F006F91C
:1040200001F0E0F801278F4B1F70DFF85C9240F23F
:104030002A384846002142460EF069FE8A4EB3698E
:1040400043F00403B3614023ADF8203018238DF80A
:10405000233003238DF82230844808A907F066F93D
:10406000F36943F00203F361814B1A68814BB2FBA1
:10407000F3F2013A92B2804C238823F45C731B0460
:104080001B0C23801D23A3852285A782238C23F06C
:1040900001031B041B0C2384238CA18889B2228B6F
:1040A00022F073021204120C42F0600223F00203A9
:1040B0001B041B0C3B43A18022830025A58623847F
:1040C000238B23F008031B041B0C43F008032383FA
:1040D000B4F844306FEA43436FEA53439BB2A4F809
:1040E000443073693B437361A6F69476304607F01B
:1040F000E9F9624B0A93CDF82C904FF01009CDF8F6
:104100003090CDF834800E9580230F934FF4807358
:104110001093119512954FF4005313931495304654
:104120000AA907F0AFF9A3899BB243F40073A381F6
:10413000336843F0020333608DF824908DF82570C6
:1041400002238DF826308DF8277009A807F04AFA67
:104150004B4A4C4B1B6853510435802DFBD10CF05E
:10416000E5F90CF0E3F9364B9B6813F4806F00F02F
:10417000A780042007F060FB0146042008F022FA23
:1041800020B143681B7A03F0010300E00023274AB3
:1041900082F832352A4B9B6813F4806F0AD00420D2
:1041A00007F04AFB0146042008F00CFA003018BF63
:1041B000012000E000201D4B83F83305D3F834358F
:1041C0001A78032A7AD8DFE802F002062D61174A2E
:1041D000C2F8383572E0154CC4F83C352C2704F58C
:1041E000A86000213A460EF092FD7C2684F84065D6
:1041F0008E2384F84135E02384F843357D2584F807
:104200006B5504F26C5000213A460EF080FD84F8A4
:104210006C658A2384F86D35A02384F86F3584F8A3
:1042200097554BE0014AC2F8983547E0B4060020A4
:104230006A210020282000207C530108F802002079
:1042400044200020805501088C550108E40200201C
:10425000C4000020DC02002098210020F00500208E
:1042600078060020DC050020001002400008014014
:10427000D000002000366E010004004034040040ED
:10428000F405002098550108BC080020B84AC2F87F
:104290009C350024B74D286880B2A1B200F0F4FE2E
:1042A00001340B2CF7D1B24B0022C3F8A025C3F880
:1042B000A425B149C3F8B01583F8AC2502F0FCFF82
:1042C00005F032FFAD4B1860AD4B5B79052B03D188
:1042D0004FF4C872AB4B1A804FF47A72AA4B1A8013
:1042E000C822AA4B1A80AA4B1A7842F008021A7008
:1042F000A84B1A7822F002021A70A14B9B6813F0A7
:10430000020F29D0A44A9A4BC3F8B4252824019D52
:104310000BF0B2F8204605F031FF013DF8D1944B87
:1043200093F8B805964B93F80511814208D84A00D6
:104330000223824205D801330A44082BF9D100E058
:104340000123DBB2954A13708D4A92F8062102FBD5
:1043500003F3874AA2F8BA35894B9B6813F4003FF0
:1043600000F06A81824B93F8272042F0010283F823
:10437000272061E18A4B1B78022B7EF467ACFEF7A5
:1043800061BC0022874B83F8442000B20DF0B6FADE
:1043900075A3D3E900230DF017FB0DF06FFD064662
:1043A000774CB4F9E8000DF0A9FA6FA3D3E9002324
:1043B0000DF00AFB0DF062FD0546B4F9EA000DF0C0
:1043C0009DFA69A3D3E900230DF0FEFA0DF056FD26
:1043D000044630460EF0CAFE074630460EF03AFF5D
:1043E000804628460EF0C2FE064628460EF032FFF2
:1043F000054620460EF0BAFE824620460EF02AFF01
:104400008146384651460DF097FE009038464946A1
:104410000DF092FE0290404651460DF08DFE039045
:10442000404649460DF088FE8346514C3046514681
:104430000DF082FEC4F8BC0506F1004148460DF0BF
:104440007BFEC4F8C005C4F8C455284603990DF096
:1044500073FE014602980DF067FDC4F8C8052846B2
:1044600059460DF069FE014600980DF05BFDC4F859
:10447000CC0508F1004130460DF05EFEC4F8D005D1
:10448000284600990DF058FE014658460DF04AFDA9
:10449000C4F8D405284602990DF04EFE0146039853
:1044A0000DF042FDC4F8D805384631460DF044FE03
:1044B000C4F8DC05FEF744BD01223B4B1A70DFF85F
:1044C00010910026B246DFF80C81384CFEF7EFBDA4
:1044D000374BFEF72FBE98F80030002B3EF4E6ADC8
:1044E000FEF7E9BE3246FEF73DBF324B42F2107294
:1044F0001A805A80304A5A60304A9A60304ADA60EC
:10450000304A1A61304A5A61FFF73DB8184B93F8A8
:104510006C30002B3EF43FAFFFF735B8032005F0B9
:1045200063FE2A4B10225A6108221A610A261C4691
:1045300019250127FFF781B8012F3FF61AABFFF7C6
:1045400031BB022005F086FD094BC3F89401002819
:104550007FF46CABFFF75EBB0025154C04F17806C9
:104560002F46FFF776BB00BF399D52A246DF913F31
:10457000B40600202820002069BD00089C0500200A
:1045800044200020EE020020E8260020E026002043
:10459000F0020020ED26002048210020CC00002061
:1045A000EE26002014000020AA04002000050020B0
:1045B0007C530108580300206100010839090108F3
:1045C0005100010849090108A5480008000C0140F4
:1045D00012050020EF2600204FF48053ADF828305C
:1045E00010238DF82A3002238DF82B30144B9A6952
:1045F00042F004029A6113480AA901F021F9124A13
:10460000124B1A60FEF7A0BA4FF48053ADF8283071
:1046100014238DF82A3002238DF82B30084B9A6929
:1046200042F004029A6107480AA901F009F9084A10
:10463000064B1A60FEF788BA1BB0BDE8F08F00BFCA
:1046400000100240000801408D9E0008F026002066
:10465000A99E0008AFF300802DE9F001884228BF31
:10466000012404D2012400264FF030080AE001FBA7
:1046700004F4B0FBF4F58D42F9D21F46ECB1F2E739
:104680001F463B46B0FBF4F504FB1500B4FBF1F408
:104690001EB9002D01DC002CF2D15F1C092D06DDB6
:1046A000002A0CBF4FF0570C4FF0370C00E0C44607
:1046B00065441D700136002CE3D100233B70BDE83A
:1046C000F00170472DE9F001884228BF012404D28F
:1046D000012400264FF030080AE001FB04F4B0FB8F
:1046E000F4F58D42F9D21F46ECB1F2E71F463B4686
:1046F000B0FBF4F504FB1500B4FBF1F41EB9002D7A
:1047000001DC002CF2D15F1C092D06DD002A0CBF54
:104710004FF0570C4FF0370C00E0C44665441D7055
:104720000136002CE3D100233B70BDE8F001704757
:1047300038B505461446B0FBF2F010B1FFF7F8FFAC
:104740000146B5FBF4F304FB1354034B1B5D084611
:1047500000F8013B38BD00BF486F010803685A1CD0
:1047600002601970704700BF2DE9F04105460E4602
:10477000069F002B0CBF4FF020084FF030083B780D
:104780004BB1002A1CDD3B46013A13F8010F10B172
:10479000002AF9D114E0541E002A06DD28464146BD
:1047A000B047013CB4F1FF3FF8D1397851B13C46F4
:1047B0002846B04714F8011F0029F9D1BDE8F0815F
:1047C0003978F4E7BDE8F08110B40346026B5AB1C2
:1047D000C268016C541A4069005DC0B201390029F9
:1047E00008BF114619640AE0016A4269505CC0B210
:1047F0000131DA68B1FBF2F402FB14121A625DF8BF
:10480000044B7047436B13B190F844007047826AC1
:10481000436A9A4214BF002001207047036B3BB1EA
:1048200059680369013B026C881A1840C0B270478E
:104830000369013BC169026A881A1840C0B2704717
:10484000426A806A824214BF00200120704700BF84
:1048500010B4437913F0010F0ED0036AC2699A4273
:104860000CD04269D15C0133C268B3FBF2F402FBA5
:1048700014330362084602E0002000E000205DF8E7
:10488000044B7047437913F0010F07D0C368013B15
:10489000C169026A881A1840C0B270470020704788
:1048A000704700BF2DE9F00F84B003908C465B4E3B
:1048B00073895B4A1768A7EB03274FEAE779B28849
:1048C000002545EA124514043289A2FB070102FBC8
:1048D0000911C20942EA4162CB11A01845EB03015C
:1048E000CDE900017288002545EA5245D403F288DB
:1048F000A7FB020102FB0911020A42EA01620B1244
:1049000014EB020A45EB030BB289A7FB020102FB81
:104910000911C20D42EA4122CB1512F5FA6643F1A4
:104920000007B6F5FA6F77F1000157DA02FB03F4DE
:10493000A2FB020101EB44018D0045EA9075840061
:10494000001941EB05014D104FEA3004DDE9008903
:10495000B8EB040869EB0509CDE90089840844EA4D
:1049600081748D10BAEB040A6BEB050B2D484FF0E8
:10497000FF31864277EB010930DA40F6AC50002176
:10498000121843EB010302FB03F1A2FB022303EB2A
:104990004103544263EB4305E90041EA5471E000EE
:1049A000801841EB0301DDE90045241845EB0105C2
:1049B000CDE90045941843EB0305A90041EA947141
:1049C000A000001941EB0501801841EB03014910DB
:1049D0004FEA3000BAEB000A6BEB010B124B1A687E
:1049E000A2FB0A0102FB0B11420D42EAC1224B1548
:1049F000DDE90089B2EB080263EB0903D00B40EA62
:104A00004340039B03B11860BCF1000F01D0CCF808
:104A1000006004B0BDE8F00F704700BFEC06002056
:104A2000341E002024FAFFFF381E00202DE9F0017B
:104A3000364B1C88364B5A89A41A1A8902FB04F497
:104A4000E413B3F91250ED02B3F91420224495FB9C
:104A5000F2F22244DA6102EB820676000836361161
:104A6000A2F57A6202FB02F52D13B3F90EC00CFB1E
:104A700005FCB3F9028008FB02F8B3F92040B3F952
:104A8000047007FB02F2B3F90C7007FB05F52D1457
:104A900005EB62370237BF1007F50047DA8802FBE3
:104AA00007F7FF0B4FEAE82202EBEC22B3F90030E4
:104AB00002EB8302A2400232164D2D68A5EBA20242
:104AC0004CF2503545FA04F404FB02F4002CA7BF65
:104AD0006300B3FBF7F3B4FBF7F35B001A1202FBBE
:104AE00002F240F6DE3404FB02F20B4C04FB03F44A
:104AF000241404EB224202F6CF6203EB221300B12E
:104B0000036001B10E60BDE8F0017047441E002053
:104B1000FC060020401E002043E3FFFF30B587B0B5
:104B200005460C46002300930193029300210DF0EB
:104B3000BFFC20B1284636490DF0F6F903E02846BF
:104B400033490DF0EFF933490DF0F6FA0DF0BAFCE8
:104B5000054685EAE570A0EBE57000280BDA2D2309
:104B60008DF80C3040420DF10D010A22FFF7E0FDF7
:104B70000023037005E003A90A22FFF7D9FD0023F3
:104B80000370002DACBF20232D238DF8003003A827
:104B90000EF0FEF801280BD130238DF801308DF88E
:104BA00002308DF80330684603A90EF0D7F814E000
:104BB000022809D130238DF801308DF80230684683
:104BC00003A90EF0CBF808E0032804BF30238DF8CA
:104BD0000130684603A90EF0C1F868460EF0D8F817
:104BE0000338C5B2204669462A460EF0FBF800237A
:104BF000635520460EF0CCF8074B1B882352204605
:104C000000A929440EF0AAF8204607B030BD00BF25
:104C10006F12033A00007A44706F01082DE9F843DF
:104C2000024610F8013B202BFAD0092BF8D02D2B8F
:104C300002D10246554F04E02B2B08BF01324FF042
:104C40007E571478A4F13003DBB2092B1AD8551C17
:104C50000026DFF83C81304641460DF06DFA0646ED
:104C6000A4F130000DF014FA014630460DF05CF965
:104C700006462A4615F8014BA4F13003DBB2092B96
:104C8000E9D900E000262E2C24D1501C5378A3F142
:104C90003001C9B209291CD8951C3D4CA046A3F18E
:104CA00030000DF0F5F921460DF0FAFA01463046D4
:104CB0000DF03AF90646204641460DF03DFA04460D
:104CC0002A4615F8013BA3F13001C9B20929E6D9FA
:104CD00000E00246137803F0DF03452B4BD15378F5
:104CE0002D2B03D102324FF0010805E02B2B14BF0E
:104CF000013202324FF000081378A3F13001C9B23B
:104D000009292FD8002404EB840403EB4404303C2D
:104D100012F8013FA3F13001C9B20929F3D9B4F562
:104D20009A7F28BF4FF49A74072C0FD925464FF06D
:104D30007E51DFF86090084649460DF0FDF90146C6
:104D4000083D072DF7D804F0070401E04FF07E512D
:104D500054B10F4D084629460DF0EEF90146013CCD
:104D6000F8D101E04FF07E51B8F1000F05D0304688
:104D70000DF096FA04E04FF07E5130460DF0DCF96C
:104D800039460DF0D9F9BDE8F88300BF000080BFB7
:104D90000000204120BCBE4C2DE9F04F87B0814679
:104DA000884614461F460026D9E0252903D0013441
:104DB0004846C047D3E06278302A02D00234B24677
:104DC00003E0A27803344FF0010AA2F13003DBB212
:104DD000092B21D8354605E005EB850503EB450594
:104DE00014F8012BA2F13003DBB2092B02D8A2F197
:104DF00030030EE0A2F16103DBB2052B02D8A2F171
:104E0000570306E0A2F14103DBB2052B05D8A2F15E
:104E100037030A2BE0D900E035466C2A03BF22781D
:104E2000013401233346632A00F0848008D8252A00
:104E300000F09280582A5AD0002A00F094808EE028
:104E4000732A7DD002D8642A22D088E0752A02D045
:104E5000782A4CD083E04BB107F1040B38680A2163
:104E6000324603ABFFF72EFC5F4608E007F1040B68
:104E700038680A21324603ABFFF7EEFB5F4603AB0F
:104E80000093484641462A465346FFF76DFC66E0CC
:104E900093B107F1040B3868002806DA40422D234D
:104EA0008DF80C300DF10D0300E003AB0A21324602
:104EB000FFF708FC5F4611E007F1040B3868002893
:104EC00006DA40422D238DF80C300DF10D0300E081
:104ED00003AB0A213246FFF7BFFB5F4603AB0093EB
:104EE000484641462A465346FFF73EFC37E063B149
:104EF00007F1040B38681021582A14BF0022012240
:104F000003ABFFF7DFFB5F460BE007F1040B3868EC
:104F10001021582A14BF0022012203ABFFF79CFB8B
:104F20005F4603AB0093484641462A465346FFF787
:104F30001BFC14E03D1D48463978C0472F460EE063
:104F400007F1040A3B680093484641462A46334627
:104F5000FFF70AFC574602E048462521C047217862
:104F600000297FF422AF07B0BDE8F08F80EAE0733C
:104F7000A3EBE0738B4207DB002801DD401A70478A
:104F8000002802DA0844704700207047024B9A68F4
:104F900022EA00009860704744200020024B9A6883
:104FA00010439860704700BF44200020134B1B78CB
:104FB000522B1AD1114B5B88B3F5D36F17D10F4B1E
:104FC0001B79BE2B15D10D4B93F89536EF2B12D1D3
:104FD00000200A4B0A4913F8012B50408B42FAD1AA
:104FE000D0F1010038BF002070470020704700203A
:104FF0007047002070470020704700BF00F801088C
:1050000098FE010810B485B00091ADF80600102399
:105010008DF80830BDF80630ADF809300098CDF8AD
:105020000B000DF107020DF10E00002312F8011F15
:105030000B448242FAD133F0FF0205D0DAB202EB20
:10504000132333F0FF04F9D1DB438DF80F300B4B02
:105050001A68531C03F00703094909688B4209D0F9
:10506000084901EBC20204AC14E9030082E8030022
:10507000024A136005B05DF8044B7047580C0020DD
:10508000540C0020B818002030B441EA0041134B02
:105090001C68621C1A60CCB1601E4008104B53F8AB
:1050A00020305A1AB2F5803F12DB0D4D09E0421E46
:1050B000520855F822305C1AB4F5803F09DB0446EB
:1050C000104645F824300028F1D102E0204600E0E7
:1050D0002046034B43F8201030BC7047281B0020AB
:1050E0002C1B002030B40028B8BF4042164C84FB73
:1050F0000032C317C3EBA252144B03FB0200C0EBF8
:105100000010830084FB0350DD17C5EBA050104C4A
:105110002468247B3CB902EB820202EB820200EBA2
:1051200082020A8004E0C2EB021200EB82020A80D3
:10513000064A02FB0033074A82FB0302DB17C3EB7C
:10514000A2134B8030BC70476BCA5F6B806967FFEE
:10515000EC0B0020D34D6210094B1B786BB1094B4F
:105160001B685B7823B1084B1868C0F3C0407047D8
:10517000064B1878C0F3800070470120704700BFCD
:10518000E60B0020E80B002080020020ED26002026
:1051900008B508480DF0FCFDC0B2142808D8054930
:1051A0002022431CDBB20A54152B01D01846F8E725
:1051B00008BD00BF001900200023084A1370084AE8
:1051C0001068064AC118498809B9C15C29B111782B
:1051D000013111700433802BF4D17047EC050020AD
:1051E000F005002010B40C4B19785A784B085C1E5F
:1051F0000A48047001F001010B4409480370530888
:10520000581E0849087002F00102134406490B7049
:105210005DF8044B704700BF940C0020B0190020CB
:10522000B2190020B3190020B119002070B4104B3E
:1052300000225A701A700F4B1D78B5B10E4B1E68C4
:10524000D4B21346104616F823201109A142A8BF74
:105250004C1C02F00F028242A8BF501C0133DAB28C
:10526000AA42F0D3024B5C70187070BC704700BF4C
:10527000940C0020EC050020F005002010B40B4B2E
:1052800099781A788818013890FBF2F402FB140020
:10529000D8701971013191FBF2F002FB1012D2B2F9
:1052A0005A719A705DF8044B704700BF940C00204F
:1052B000F0B40478E4B10022134617462E2C03D133
:1052C0000133B9B1C418675402EB820255002A4673
:1052D000C45CA4F13006F6B2092E9CBFA5F13002E1
:1052E00012190E2B08D80133C45C002CE6D105E05E
:1052F000002004E0104602E0002000E01046F0BC70
:10530000704700BFF0B4384B1D6801786B185B78AC
:1053100013F0040F12D000F10F0398425FD2431C28
:1053200000F1100601E0B3425BD01C4613F8011BEC
:105330006A18527812F0040FF5D100E00446231ADF
:10534000022B11DD421CA21A002305E01BB103EB66
:1053500083035B00DBB2013A10F8016B303E33444B
:10536000DBB2022AF2DC00E00023A0420ED20022CF
:1053700004E01AB102EB82025200D2B210F8016BC3
:10538000303E3244D2B2A042F3D100E000222E29B6
:1053900015D101340420002101EB8101490089B2BB
:1053A0002678AF197F7817F0040F03D00134303915
:1053B000314489B2013810F0FF00EDD100E0002146
:1053C0000A4800FB02F2642000FB01210848A0FB10
:1053D0000120084A02FB03F303EB900002E00020E7
:1053E00000E00020F0BC70470001002040420F00A8
:1053F000ABAAAAAA8096980010B50CF049FE044604
:1054000000210DF055F838B120460A490CF048FF4C
:1054100009490CF091FE07E004F1004005490CF049
:105420003FFF05490CF088FE0DF0A0FE034B18600D
:1054300010BD00BF8096184B35FA8E3C98000020B6
:10544000F8B50C461E4613680068181A0CF020FECA
:10545000054630682368C01A0CF01AFE184B19680C
:105460000CF06AFE0446284629460CF065FE074605
:10547000204621460CF060FE0646384631460CF0C8
:1054800053FD0EF0FFF80F490CF056FE0DF040F8FA
:10549000069B186005F1004021460DF069FF0A499E
:1054A0000CF04AFE09490CF03FFD0DF00BF8002806
:1054B000BCBF00F50C40A030079B1860F8BD00BFD2
:1054C000980000202C7D8E3FA00CB34500A00C4618
:1054D00070B504461F4D00790CF0D6FD1E490CF046
:1054E000DFFE2860A07B0CF0CFFD1B490CF0D8FE3E
:1054F00068601A4EEE601A4D60790CF0C5FD1949CE
:105500000CF0CEFE2860E07B0CF0BEFD12490CF0E2
:10551000C7FE6860607E0CF0B7FD13490CF0C0FE5A
:10552000A860EE60114DA0790CF0AEFD0D490CF0B5
:10553000B7FE2860207C0CF0A7FD07490CF0B0FEF8
:105540006860A07E0CF0A0FD07490CF0A9FEA860E1
:10555000EE6070BD401700200000C8420000FA4411
:10556000541700200000204100007A44C817002092
:1055700044F250639842C4BFA0F50C40A038034BDE
:105580009842BCBF00F50C40A0307047B0B9FFFF97
:105590002DE9F84305460E46144699465068281AE8
:1055A0000CF076FD31680CF07BFE07462061D6F8E2
:1055B0000080A6681C4B1B6898780CF065FD0CF009
:1055C000AFF917A3D3E900230CF0FEF902460B460E
:1055D000002016490CF022FB0CF050FC014640461E
:1055E0000CF0A2FC014640460CF05AFE80463846BC
:1055F00031460CF097FC014640460CF09DFD0146FB
:1056000030460CF091FC20616560A060D9F808106C
:105610000CF092FD0CF056FFBDE8F883AFF300806C
:10562000182D4454FB211940B40800200000F03F1D
:10563000F8B51A4B1C78631EDBB2012B20D8184B2F
:105640001D68184B1E782E44174F786817490CF0C8
:1056500073FD0CF05DFFB072B86815490CF06CFD7D
:105660000CF056FF307528780CF012FD01460CF056
:105670005BFC0CF04DFFA870AB7A2B732B7DAB75E8
:10568000032C06D10022054B1A700122094B1A7017
:10569000F8BD084B1A7801321A70F8BDA005002039
:1056A000141A0020F6190020081A002000007A447D
:1056B0009A99993F10000020F0B41E4B1B6A002BF2
:1056C00035D0013B1B490B6251F8237051F8203053
:1056D0001A7922F001021A714200531C0D6AAB4282
:1056E00022D20232AA420DD251F8234051F8226050
:1056F000B4F800C03488C4EB0C0424B213EA2403C9
:1057000038BF134651F823203E881488341B24B236
:10571000002C09DD41F820205A00541CAC4202D272
:1057200018462346DDE71846024B43F82070F0BCCC
:10573000704700BF3407002010B50B4B1C6A94B1B2
:105740001B6883420AD104E052F8041F814207D14A
:1057500000E000231846FFF7AFFF10BD024A002308
:105760000133A342F0D110BD340700202DE9F843E6
:1057700006468846038A8589ADB21D403ED04FF06B
:105780000047B5FA85F327FA03F2D24391B231828A
:1057900015401B3B042B2FD8DFE803F027201912FC
:1057A0000300B6F82C901FFA89F9D8F820401CB3F2
:1057B00023682046494698476468002CF8D11BE0CE
:1057C000D8F80000B18E036889B2984714E0D8F881
:1057D0000400318F036889B298470DE0D8F80800BB
:1057E000B18F036889B2984706E0D8F80C00B6F884
:1057F0004010036889B29847002DC2D1BDE8F883F4
:10580000800A0C4B98420CD003D8B0F5801F0ED004
:105810000BE0094B984206D04933984205D100204D
:1058200070470220704703207047FF207047012017
:10583000704700BF0100100002001000704700BF59
:105840002DE9F00300230F274FF0010C0A881A41BD
:1058500012F0010F28D0DA088D7805F00F0803F058
:105860000704A40050F8229015F0100F1CBFCD784B
:1058700048EA050807FA04F529EA050508FA04F4D8
:105880002C4340F822408A78282A06D1C2680CFAB4
:1058900003F622EA0606C66006E0482A04D1C2687A
:1058A0000CFA03F61643C6600133102BCED1BDE8C7
:1058B000F003704700B583B08368ADF804308DF80D
:1058C000061002238DF80730406801A9FFF7B8FFE2
:1058D00003B05DF804FB00BF0C4B1A6892FAA2F308
:1058E000B3FA83F3002A08BF4FF0FF33002B0CDB21
:1058F00001600371064A42F82300044A012101FABB
:1059000003F3116821EA0301116070472C0700209E
:10591000A41F002030B403790949012202FA03F5DB
:105920000C6824EA05040C60064C074941F8234042
:10593000064B01798A4019681143196030BC7047E1
:10594000A01F002038000020A41F00202C070020EA
:10595000094B984205D1094BDA88013292B2DA80BC
:1059600007E0074B984204D1044B1A89013292B2E6
:105970001A814FF0FF30704700300140940C002036
:1059800000380040AFF300802DE9F04F85B0774B31
:10599000DB8818B20090764A1768B7F85820904212
:1059A00015DBB0F5FA6F0CDA97F85630811A01FB67
:1059B00003F3C2F5FA6293FBF2F2C2F164020292BF
:1059C00007E097F85630C3F16403029301E06421C5
:1059D0000291684BB3F818C193F9EC305B429BB26B
:1059E00003933C460022904613466348634DBA46F3
:1059F0005E4E975FCCEB070606F2F31140F2E639F4
:105A0000494503D8002EB8BF764201E04FF4FA763C
:105A10001946012B46D89AF81DE1BEF1000F04D0BB
:105A20007645CCBFCEEB0606002680FB06B94FEAD2
:105A3000E67ECEEB691935F819E06FF0630808FBD4
:105A4000096B09F1010935F91990CDF804900FFAA5
:105A50008EF9DDF80480C9EB080909FB0BF880FB1F
:105A6000089B4FEAE878C8EB6B18C644DFF810B122
:105A700022F80BE09AF854E006FB0EF6DFF80481FA
:105A800088FB068EF617C6EB6E16C6F16406B6B234
:105A9000DDF8089009FB06F680FB06B8F617C6EBA2
:105AA000681820E0022B1ED19AF81EE1BEF1000F0B
:105AB00004D07645CCBFCEEB06060026DDF80C8080
:105AC00006FB08FEDFF8B890A9F804E09AF855E064
:105AD000002EB8BF764206FB0EF84FF4FA7B98FB17
