:020000040800F2
:10000000005000205D11010809120108D1FB000811
:100010000912010809120108091201080000000074
:1000200000000000000000000000000009120108AC
:100030000912010800000000D9FA0008C1FB0008FD
:100040000912010809120108091201080912010820
:100050000912010809120108091201089DFA000895
:100060000912010809120108091201080912010800
:1000700009120108091201084DFA000809120108C5
:10008000A5FA00080912010809120108091201085D
:1000900009120108091201080912010895FA00085D
:1000A0000912010819F90008091201083DF90008B0
:1000B000F9F80008D5F80008B1F8000841FB00087D
:1000C00031FB000839FB000829FB00080912010870
:1000D00009120108FDF9000861F900080912010878
:1000E00049FB00080912010809120108000000007C
:1000F0000000000000000000000000000000000000
:0C01000000000000000000005FF808F1A3
:100110002DE9804891B002F06FFB00240594002285
:10012000954B1A70954B9C6814F0080F00F0CE8028
:10013000914B5B681B7A042B00F2C580DFE803F06B
:10014000030306588B008C4B1A7ABDE08A4B5B7A0E
:10015000002B49D0884B00225A7293F8223013F0BA
:10016000080F43D1844B9A89C2F30A029A62DA6873
:10017000C2F3CA22DA62D9891A7C02F00102920221
:1001800042EA91121A631A8AC2F34A025A631A693E
:10019000C2F30A329A63598A1A7D02F003025202AC
:1001A00042EAD112DA639A8AC2F38A021A645A695D
:1001B000C2F34A325A64DA7D197E01F0070142EA3D
:1001C00001229A641A8BC2F3CA02DA649A69C2F3F2
:1001D0008A321A65D97E1A7F02F00F02D20142EAF2
:1001E00051025A6501226FE000226DE000226BE0AF
:1001F000614B93F8583043B35F4B002283F858208B
:1002000093F85D30012B22D15B4B93F88130102B9A
:100210000BD91022584B83F88120574991F88160FF
:1002200001F15C038031002203E0002BF5D10122B3
:100230004AE0DD78187940EA052041F8040F0132E0
:100240000233D0B28642F4D803E000223CE0002220
:100250003AE0012238E0484B93F8C4305BB3464B98
:10026000002283F8C42093F8C830A82B25D1424B34
:1002700093F8DB301BBB424E1546A6F1DC0707EBBB
:10028000450393F8CB0093F8CC3003EB00200FF03C
:10029000E5FD35A3D3E900230FF080FF34A3D3E9B4
:1002A00000230FF09DFC10F061F846F8040F0135B3
:1002B000082DE4D105E0002206E0002204E000223F
:1002C00002E0012200E000222B4B1A7014F4804F50
:1002D0000CD0294B93F800312BB10022264B83F828
:1002E0000021012200E00022234B1A70224B1B78D0
:1002F000002B02F0E38114F4807F02F0E3811E4CB6
:10030000D4F804311B681B6898471E4B1B68227881
:1003100032B9194AD2F808219A1A002AC0F29D83EC
:1003200003F59C432033144AC2F80831134B9B68F1
:1003300013F4807F04D0D2F804311B681B699847FE
:100340000E4B9B6842F201021A421DD10A4B1B78E8
:1003500013B3094CD4F804311B681B68984706F0A6
:10036000C7FC0023237017E09A999999999919402D
:10037000000000000070774038010020001C0020C1
:1003800014020020E4200020B34B93F80C2101322A
:1003900083F80C2106F0ACFCB04B9B6813F4805F33
:1003A00005D0AD4B93F810310BB90BF0A9F8AC4B5D
:1003B0001C68A94B5B681B7CD3B1A74D05EB4303BD
:1003C000B3F92601A0F57A70B0F57A7FA8BF4FF493
:1003D0007A7020EAE07010F0F3F8A24910F0F8F912
:1003E000A14910F041F910F02BFBA5F826014CE0D3
:1003F0009A4B9B6813F4004F47D0974BD3F84C317E
:10040000E31A002B41DB944B04F59C422032C3F8E5
:100410004C2193F8552103EB4202B2F8600180B2FF
:1004200093F86831013303F00F038B4D85F8683181
:10043000DBB2EE1810F0C4F88C4910F0C9F910F0D6
:10044000FFFA86F86C0105F26B1305F27B100022AF
:1004500013F8011F0A4492B28342F9D112B2002A62
:10046000B8BF0F3210116428A8BF642020EAE070E2
:1004700010F0A6F87E4910F0ABF97B4910F0F4F8C3
:1004800010F0DEFA744BA3F82601744B9B6813F44A
:10049000807F15D0774B9C420CD96F4BD3F87C31C1
:1004A0001B681B6A984728B96B4BD3F87C311B68D3
:1004B0005B6A9847684BD3F87C311B685B69984747
:1004C000664BB3F8DC209B6813F4805F0FD0624B5F
:1004D000B3F92E316149B1F81811881A834212DD3F
:1004E0000A449342C2F2F2804FF0010E0DE05A4BE3
:1004F000B3F92E21594BB3F81A319A42C2F2E68071
:100500004FF0010E01E04FF0010E5348D0F880612A
:10051000524B93F8217193F822C1B3F81A51B3F8F2
:100520001C4100F5937200F5977000239B0832F987
:10053000021FA942C4BF63F07F03DBB2A142B8BF70
:1005400043F040038242F1D1434A92F884219A4217
:1005500009D1414A92F88521F92A08D801323E4949
:1005600081F8852103E000213B4A82F885113A4A4F
:1005700082F88431D6F88030EBB192F8103153B163
:10058000BEF1000F17D13C4B1B7813F0010F12D0B6
:1005900007F084FD0FE0384B1B7813F0040F0AD0EE
:1005A000BCF1000F02D00AF0ABFF04E0BEF1000F77
:1005B00001D10AF0A5FF284B93F88531142B40F0A8
:1005C000B980003718BF01272B4B1B7813F0040F9D
:1005D0001AD0D6F8803033B91F4B93F884315F2B93
:1005E00001D10AF08DFF002F00F0A480D6F88030F2
:1005F000002B40F09F80184B93F884317D2B40F006
:1006000099800AF07DFF95E0134B93F88431572BC6
:100610000FD14FF47A72194B1A800F4BD3F88831EF
:1006200013F0080F40F0868000220B4BA3F88C21BA
:1006300080E00A4A926812F0040F33D05A2B31D16D
:10064000054B93F88E31DBB1034B002283F88E21EA
:10065000012283F88F216DE038010020001C00206A
:10066000E420002000007A4400C07F44CDCC234227
:100670000000C842404B4C00F5200020F020002034
:10068000B24A92F8903183F0010382F8903123B19D
:100690000222AE4B83F891214CE00322AB4B83F84E
:1006A000912147E05D2B02F027805B2B02F0268032
:1006B0005E2B42F0368002F023B86F2B42F0388078
:1006C00007F0ECFC36E07E2B02D107F0E7FC31E0CE
:1006D000972B05D14FF4C8729C4BA3F8922129E0C7
:1006E000A72B07D1994B93F8942142F0040283F889
:1006F00094211FE000220D92BB2B04D10223ADF800
:10070000363002F01AB8B72B05D14FF6FE73ADF8AC
:10071000363002F012B8BE2B04D10223ADF83430CB
:1007200002F00BB8BD2B05D14FF6FE73ADF8343097
:1007300002F003B8864BD3F808B01BF0040F40D08A
:10074000824B93F89031BBB1824B1B7813F0040FAE
:1007500012D07E4BB3F92E217D4BB3F81A319A4259
:100760000ADD7A4B93F8103133B9784B3222A3F873
:100770009621002283F89021744B93F8203183B1A5
:10078000724B93F898313BB9704B93F88E311BB98B
:1007900032226E4BA3F8962101226C4B83F89821EC
:1007A0000FE06A4B93F88E315BB16A4B1B7813F004
:1007B000040F06D1654B002283F88E21012283F8B5
:1007C0008F21624BD3F88061009693F89D81B8F138
:1007D000000F01F0CC8703F5977400231A469C465E
:1007E0009E4640F2A46A40F213590CE0002B0ADD49
:1007F00013F0030F07D1ACF1040C5FFA8CFC0EF17F
:10080000100E5FFA8EFE34F8020F4FFA8CF1194485
:1008100001EB4101C9B2A0F21556B6B2B6F5C77FD9
:100820008CBF002601264D1CAE4000B25045D4BFFF
:10083000002701278D1C07FA05F535434845CCBF35
:100840000020012000FA01F1294301FA0EF10A43C8
:100850000133434581F28C87082BC7D101F088BF53
:1008600051F8040F02420CBF0020012003F8010FD1
:10087000A342F5D1354B93F811314BB91BF4807F6E
:100880001DD0324BD3F87C311B689B689847B0B1C0
:100890002E4BD3F8883113F0020F10D02B4BB3F846
:1008A0009E3113F0010F27D1284A0021C2F8A01170
:1008B000C2F8A41143F00103A2F89E311CE0234BBF
:1008C000B3F89E2122F00101A3F89E1193F8123192
:1008D00093B18BB21D49A1F89E3102F0020292B28F
:1008E0008AB90A460021C2F8A011C2F8A41143F047
:1008F0000203A2F89E3106E0144BB3F89E2122F0C9
:100900000202A3F89E21114BB3F89E3113F0030F9E
:100910004FF01001104A14BF516111610B4AD2F817
:10092000884114F00A0F3FD092F81421B2B103F0BD
:10093000040292B2BAB9054A43F00403A2F89E3108
:10094000B2F88C31A2F8A8310DE000BF38010020C8
:10095000001C0020F5200020000C014023F00403BF
:10096000B74AA2F89E31B64B93F8153163B1B44B38
:10097000B3F89E3103F0400292B262B943F04003F3
:10098000AF4AA2F89E3106E0AD4BB3F89E2122F0AB
:100990004002A3F89E21AA4B93F8163123B1A84B2D
:1009A000B3F88C21A3F8AA2114F0200F01D00EF087
:1009B00023FCA34B93F81B313BB1A14BB3F89E2111
:1009C00042F48072A3F89E2106E09D4BB3F89E216D
:1009D00022F48072A3F89E219A4B5B79082B01D0F8
:1009E0000E2B06D1964BB3F89E2122F04002A3F8BD
:1009F0009E21934B93F8AC31002B00F0928414F0BD
:100A0000040F00F08E848E4B93F81331E3B18C4BBE
:100A1000B3F89E2102F008039BB2002B40F08184C2
:100A2000874B42F00802A3F89E21D3F8B421C3F803
:100A3000B021B3F8C221A3F8B8210022C3F8C42121
:100A4000C3F8C82100F06DBC7D4BB3F89E2122F0A5
:100A50000802A3F89E2100F064BC7949D1F8CC21AA
:100A6000501CC1F8CC01052A00F25284DFE812F0D4
:100A70000600A40017012A0482034904704AD2F830
:100A8000882112F0080F00F043846D4AD2F8D0217B
:100A90009A1A002AC0F23C8403F5C334A034684D8E
:100AA000C5F8D04105F5EA7630460BF0C1FF304677
:100AB0003146654B1A7807F0C1F895F8941111F09A
:100AC000040F1AD02B46C5F8DC4100225D4E1546B6
:100AD0009019A0F8FE5003F5EA70105A03F5F0776C
:100AE000D05303F5F477D0530232062AF0D121F027
:100AF0000401A7F5F47383F89411514B93F8EE3188
:100B0000B3B14F4A4F4BB2F8D401B3F8FE10411ABB
:100B1000A2F8D411B2F8D601B3F80011411AA2F824
:100B2000D611B2F8D811B3F80231CB1AA2F8D831E5
:100B3000434BD3F8DC31002B00F0EA83E31A434A3D
:100B400093421FD8424BDA6882F00802DA60002331
:100B50003B4A02F5EA71595A02F5F0701C5E08B280
:100B60008442C4BF02F5F070195202F5F4701C5EA5
:100B700008B28442BCBF02F5F47019520233062B4E
:100B8000E7D1C5E300232E4AC2F8DC312D481C18FA
:100B900002F5F0715D5E02F5F471595E294401EBD6
:100BA000D1714910A4F8FE100233062BEFD105F0E5
:100BB00015FF0EF0DDFBABE3214AD2F8882112F0DD
:100BC000040F00F0A5831E4AD2F8F0219A1A002AD9
:100BD000C0F29E831A4AC2F8F03192F8F431012B28
:100BE00015D013B1022B35D092E3154CD4F8003256
:100BF0009847D4F804329847012384F8F431B4F8C4
:100C0000FA21D4F8F0311344C4F8F03180E30C4CED
:100C1000D4F808329847D4F8FC319847B4F8F82152
:100C2000D4F8F0311344C4F8F031D4F80C3204F5A0
:100C3000047004F505719847022384F8F43167E3E2
:100C400038010020001C0020F32000207FC3C901D0
:100C5000000C01407A4B002283F8F421D3F81842AB
:100C6000D3F81012D3F81C02421CD3F820321B78A0
:100C70009A4204D10122724B83F824220022704B45
:100C800003EB8000C0F82812214403EB8200D0F867
:100C90002802091AC3F81C22C3F8181238E3684A5C
:100CA000D2F8882112F0040F00F03283644A92F8DF
:100CB0002422002A00F02C83614AD2F8E8629E1BAD
:100CC00046F2A712964240F223835D4AC2F8E83208
:100CD0005C4B1D88002D37D01346D2F8EC22D3F898
:100CE000201209780139D3F81832B3FBF1F3114619
:100CF000002AB8BFD11DA2EBE1021344504AC2F84A
:100D0000EC321846002BB8BFD81DC0100FF058FCAD
:100D10004D490FF05DFD4D4910F0B4FD0146484CC2
:100D20004FF07E500FF096FB49490FF09DFC0FF0FD
:100D300061FEC4F8F002013D424B1D804FF0000EF1
:100D4000C4F8F4E2C4F8F8E23D4CD4F82052287814
:100D50000138D4F81832B3FBF0F00FF02DFC3A490B
:100D60000FF036FD394910F08DFD01464FF07E50F1
:100D70000FF070FB36490FF077FC10F0B5FC8046A1
:100D80006D68D4F8FC020FF01BFC29460FF06CFCD8
:100D90000746D4F8F002C0EB08000FF011FC8046C3
:100DA0004FF07E5029460FF055FB014640460FF0AC
:100DB0005BFC014638460FF04FFB10F095FC0546F2
:100DC000B4F90023002AB8BF5242B4F90233002B11
:100DD000B8BF5B429A42ACBF14461C46A4B21D4B3E
:100DE000186823B2FA2B01F3CD840FF0E9FB074614
:100DF00020B20FF0E5FB014617480FF02BFB014630
:100E000038460FF031FC14490FF0E2FC0FF0F2FD10
:100E10000446104B1860431EC62B06D8084B2D1AEB
:100E2000C3F80453C3F8FC023EE0054BD3F8043387
:100E3000ED1A002812DC024BC3F8FC5234E000BF6C
:100E400038010020E820002080E6C547B1DC423EA2
:100E5000D048874AA800002000006144C0F5967081
:100E60000FF0AEFBB8490FF0B3FC074620460FF079
:100E7000A7FB014638460FF0F7FB044628460FF063
:100E80009FFB05464FF07E5039460FF0E3FA0146CE
:100E900028460FF0E9FB014620460FF0DDFA0FF07F
:100EA000A9FDAA4BC3F8FC02A94F38680FF084FBD8
:100EB0000546A8490FF0D8FB8246A44CD4F810038D
:100EC0000FF07EFB8046D4F814030FF079FB014647
:100ED00040460FF07DFC0090D4F818130FF0C4FBCF
:100EE000014628460FF0C0FB0290D4F8F482D4F8F3
:100EF00020520195D5F80C90D4F8FC524FF07C515B
:100F00000FF0B2FB014650460FF0AEFB8346504651
:100F100041460FF0A9FB014658460FF09DFAD4F860
:100F2000F8120FF099FA49460FF09EFB82462846C8
:100F30000FF046FB83464FF07E5049460FF08AFA89
:100F4000014658460FF090FB014650460FF084FAD8
:100F50008146C4F8F802029841460FF07DFA8046B7
:100F6000C4F8F4020023C4F80833C4F80C33C4F8FE
:100F70001033C4F814333B60774B1B88002B40F0D0
:100F8000C781764B1B68013BC62B02D8C4F8B4510D
:100F900005E048460FF02EFD6C4BC3F8B4016B4CD6
:100FA000D4F81C03281A0FF00BFB6D490FF05CFB03
:100FB000074630460FF000FB014638460FF008FCAC
:100FC0000FF018FDC4F81C5340F2DC539842A8BF40
:100FD0001846644A9042B8BF10460A210AF070FAD7
:100FE0000746019EB568404629460FF03DFB064680
:100FF00038460FF0E5FA07464FF07E5029460FF0CD
:1010000029FA014638460FF02FFB014630460FF013
:1010100023FAC4F8F40210F067FB054605210AF034
:101020004FFAC4F82003D4F82463B4F8002302F282
:101030001F3292B240F23E639A427DD8B4F8022346
:1010400002F21F3292B240F23E639A4241F2A4830E
:10105000002372E03D4CD4F8B021D4F8B431D31A57
:10106000B3F5FA7FA8BF4FF4FA733F488342A8BF95
:1010700018460A210AF024FAD4F82833DB7803FB57
:1010800000F00028B8BF7F30C311B3F5967FA8BF2A
:101090004FF49673354A9342B8BF134602E02B4B88
:1010A000D3F82C33581B294BD3F82823537A03FB4E
:1010B00000F3002BB8BF1F335B11B3F5967FB4BFAD
:1010C0001D464FF49675294B9D42B8BF1D46D47CF2
:1010D0001E49D1F8C43104FB0034B4F5C81FA8BFC1
:1010E0004FF4C814224B9C42B8BF1C46C1F8C441FF
:1010F000507F0FF065FA0746009831460FF0ACF9C3
:10110000014638460FF0B0FA4FF06C510FF0ACFAD0
:101110000FF070FC9628A8BF96206FF095039842B8
:10112000B8BF1846281A2346002CBCBF04F5FF534D
:101130001F3300EB633300E00023044AC2F8C831D8
:10114000009FC2F82473E3E00000C8423801002089
:10115000EC200020BD378635E8200020A8000020C4
:101160000024744924FAFFFF0CFEFFFFD4FEFFFFAA
:101170000000E7FF944B9B6813F0800F00F0C880DD
:10118000924BD3F83033002B36D0904C00263546A6
:101190002CE0D4F8300309F0A7FDD4F834331B78E1
:1011A00013B1012B03D005E004F062F803E004F072
:1011B000A9F900E02846C8B1D4F84033C4F8443354
:1011C000834B1B68C4F84033D4F8883143F02003C4
:1011D000C4F888317F4B1B78012B02D17D4B1E70E8
:1011E00002E001227B4B1A700DF090FCD4F8300322
:1011F00009F080FD0028CCD1744B93F838335A1E87
:10120000042A00F28580DFE802F00303034824008B
:101210006E4AD2F83423127812B1012A12D013E0A8
:10122000013B012B10D8694B93F839136A4A02EB42
:101230000112D3F83003516809F050FD042005F085
:10124000C3FE01E005F0CEFE0022604BC3F83C2354
:101250005EE05E4BD3F83C230132C3F83C2393F8A5
:1012600039230132D2B25D49A1FB0201890801EBA9
:101270008101521A83F83923554A1268C3F8402372
:10128000002283F8542393F8942122F0020283F879
:101290009421012005F098FE3AE04D4B1A684B4B23
:1012A000D3F84033D21A40F6C4139A4230D9474B90
:1012B000D3F8882122F02002C3F88821052005F008
:1012C00083FE25E0414BD3F8883113F0100F1FD077
:1012D0003F4B1A683D4BD3F858333C33934217D8F1
:1012E0003A4BC3F858233E4AC3F85C23D3F8605303
:1012F0002B883C4C23610B2009F074FB2B88636125
:1013000006E0314B9B6813F4003F01D008F0D8F998
:101310002E4BD3F8CC31052B03DD00222B4BC3F829
:10132000CC2109F041FB304B1860274B9B8933B12E
:10133000264AD2F86423821A002AC1F28781234CFC
:101340001844C4F86403D4F8805102951E4B5B79AD
:10135000009304F55E75D4F86C3328469847284608
:10136000294694F87E2306F069FC204B1B88002B4D
:1013700001F01A82D4F880331B78039304F561746A
:1013800000263546DFF864B0BBF80030B3F57A7F4D
:1013900003D10023164AB35023610C4B03F55E7250
:1013A00003F57073505FF2580244F2500FF008F9E1
:1013B00080460194276901372761012F1AD16060A7
:1013C00020600027A76036E0001C002038010020C4
:1013D000E41B0020F22000208C380108CDCCCCCCBE
:1013E000A8000020000C0140E4200020F020002094
:1013F000F8040020D4F800A051460FF02BF88146E5
:1014000038460FF0DDF8014648460FF0E1F9014695
:1014100050460FF021F807466060404639460FF00D
:1014200019F8014648460FF01FF9A1680FF014F8AB
:10143000E0602760A060814A02F55E7100236B5274
:1014400002F57372AB52BBF80030012B31D1019F12
:101450003869012807DD01380FF0B2F80146F86855
:101460000FF0B6F900E0059810F094FB07460398DA
:1014700058B10FF0A5F839460FF094FA28B14FF49F
:101480007A726F4B1A8001F08FB96C4B03F573724F
:1014900003F57073F35803F5FA736A4F87FB037112
:1014A000DB17C3EBA113AB520A200F21012206F078
:1014B000C5FD023504361434062D7FF465AF604B4C
:1014C0001A88013A1A8001F06FB901F55E7201F5D0
:1014D00073709C5A185A201A98520233062BF4D172
:1014E000A2F55E73D3F8883113F0020F00F05E832B
:1014F000A2F55E7404F57875D4F8D8332846984779
:101500002846294694F8E62306F098FBB4F8923171
:10151000002B58D000231946184622461F46B2F821
:101520009241B4F5C87F04BF02F57A740F5102F5F9
:101530007A7502F5787433F904E04E5976444E51C9
:101540001F53D2F8F44324F81070013004310233F1
:101550000328E4D1A5F57A73B3F89231012B2CD18D
:10156000A5F57A73D3F8F423D3F8E803C8303649E5
:1015700081FB00E4C017C0EBE4101080D3F8EC034B
:10158000C83081FB0054C017C0EBE4105080D3F882
:10159000F033C83381FB0361DB17C3EBE1112B4B45
:1015A0001B88CB1A93800023029FA7F85C30A7F812
:1015B0005E3005F013FA0DF0DBFE204BB3F89221FC
:1015C000013AA3F89221224B9B6813F0040F00F01C
:1015D000A9801A4BB3F89641322C14D1D3F8F423D6
:1015E0001188A3F8F8135188A3F8FA139288A3F886
:1015F000FC23029DB5F85C20A3F80024B5F85E201A
:10160000A3F8022401E0002C5DD0002319461A46FD
:101610000A489E46322C1DD100F2044600F578752A
:101620005F5F8F5123F805E0D0F8F45325F812E0FE
:10163000013204310233032AECD140E038010020AA
:10164000F0200020D34D62101F85EB5100000020D8
:10165000001C002000F2044600F5787533F905C03F
:101660008F5967448F5123F805E0D0F8F45325F8DB
:1016700012E0013204310233032ACBD1012C1ED1F6
:10168000A6F20443002283F89821012283F88E21D8
:10169000022283F89121D3F8F423B3F8F8131180D0
:1016A000B3F8FA135180B3F8FC139180B3F8002417
:1016B000029EA6F85C20B3F80234A6F85E30013C26
:1016C000C14BA3F89641C04B93F88F3153B3BE4B37
:1016D000002283F88F21D3F8F413D3F80444BB48D5
:1016E00080FB0475E417C4EB25140C80D3F8084480
:1016F00080FB04E5E417C4EB25144C80D3F80C34CC
:1017000080FB0340DB17C3EB2010B14B1B88C31ACF
:101710008B80029DA5F85C20A5F85E2005F05EF99F
:101720000DF026FEA84CD4F8F433B4F8E0131A8870
:101730008A1AA4F8E023B4F8E2135A888A1AA4F8A3
:10174000E223B4F8E4239B88D31AA4F8E43309F025
:101750002BF90546D4F81034C31A039318460EF03B
:101760002BFF0490D4F814140EF07EFF8246C4F8C8
:101770001054D4F81844019400252C462F46924E5C
:101780004FF07E5B06F55E73185F0EF019FF0146A1
:1017900050460EF069FF07AB5851DDF804E09EF8A3
:1017A000000038B30EF00CFF014658460FF010F859
:1017B000814606F21C48584649460EF04BFE55F845
:1017C00008100EF051FF029006F57873185F0EF0C6
:1017D000F7FE014648460EF047FF014602980EF01C
:1017E0003BFE48F8050006F585680FF003F928F878
:1017F000040005E006F5856306F57872A25AE25208
:1018000006F58563E35E03FB037702340435062C9B
:10181000B8D1642303FB07F76D4B1B8803FB03F36D
:1018200097FBF3F7684C04F5866007A909F01EFDE5
:10183000D4F818546868493FBFB23B2F25D84FF001
:101840007E510EF009FE01464FF07E500EF0C0FFB3
:10185000824604F226470024A7F2264909F5866647
:10186000A05969680EF000FF804637F9020F0EF0AC
:10187000A7FE014640460EF0EFFD014650460EF031
:10188000F3FE305104340C2CE8D14F4BD3F83864BC
:10189000B3F93C040EF094FE014630460FF0A0F878
:1018A00038B1494B93F8942142F0080283F894210F
:1018B00006E0454B93F8942122F0080283F8942126
:1018C000414CD4F8340431460FF0DAFF8046C4F8B6
:1018D0004004D4F8303403F10049D4F83474D4F817
:1018E0003864384639460EF0BFFE0746304631466A
:1018F0000EF0BAFE014638460EF0AEFD10F04AF981
:10190000014648460FF0BCFF0646C4F84404404672
:101910000EF0C6FA2AA3D3E900230EF015FB0EF051
:1019200045FD0FF0E1FEA4F8000330460EF0B8FAD2
:1019300023A3D3E900230EF007FB0EF037FD0FF0D1
:10194000D3FEA4F80203D4F8883113F0080F41D075
:1019500004F5896007A909F089FCA8684FF07E5159
:101960000EF07AFD01464FF07E500EF031FF8246B8
:1019700004F5E9770024A7F5E97909F58966A05906
:10198000A9680EF071FE804637F9020F0EF018FEBE
:10199000014640460EF060FD014650460EF064FEE2
:1019A000305104340C2CE8D1A6F5896404F5896023
:1019B00009F008FDA4F88C0147E000BFAFF30080F8
:1019C0003B597E90A9E78140380100201F85EB51EB
:1019D00000000020BC4C201D07A909F047FC6668E8
:1019E000A568E468304631460EF03EFE06462846BD
:1019F00029460EF039FE014630460EF02DFD054613
:101A0000204621460EF030FE014628460EF024FD09
:101A100010F0C0F8054605990EF0BAFF78B9AA4C47
:101A2000606829460EF0D4FE6060A06829460EF07A
:101A3000CFFEA060E06829460EF0CAFEE060A34831
:101A400009F0C0FCA24BA3F88C010498A1490EF048
:101A50000BFE06469E4CD4F8403403F100430A9333
:101A6000D4F8443403F100430B93B4F98C010EF025
:101A7000A7FD00F100400EF013FA91A3D3E9002373
:101A80000EF062FA0EF092FC0C90B4F928040EF0FD
:101A900097FD0D90B4F92A040EF092FD0E90B4F962
:101AA0002C040EF08DFD0F900DA80AA909F0DEFBA5
:101AB000D4F818345B78012B25D1874B1B7813F0B1
:101AC000040F11D1D4F854341846002BB8BF03F1D9
:101AD0003F00A3EBA0100EF073FD0F990EF0BCFCBD
:101AE0000EF088FFC4F85404794BD3F8540400284E
:101AF000B8BF3F3080110EF063FD01460F980EF025
:101B0000A9FC0F9008E0704B18880EF059FD0146B3
:101B10000F980EF09FFC0F906D4CD4F8585430463F
:101B2000D4F85C140EF098FC014630460EF050FEDE
:101B300006460F9829460EF08DFC014630460EF001
:101B400093FD014628460EF087FC0646C4F858046B
:101B5000D4F808730D980FF0C7FDD4F860542978B5
:101B600009F0AEFC3844C4F80803D4F80C730E989E
:101B70000FF0BAFD297809F0A3FC3844C4F80C032F
:101B8000D4F8107330460FF0AFFD697809F098FC77
:101B90003844C4F81003514B1A68039D2A441A6054
:101BA000D4F814330133C4F8143307E0484B00224F
:101BB000A3F8E023A3F8E223A3F8E423444BB3F80B
:101BC0007823A3F86424B3F87A23A3F86624009E4C
:101BD000012E10D1B3F96A14B3F97C2302EB410250
:101BE0003F4981FB0271A1EBE27292B2A3F8682433
:101BF000A3F86A2404E0364BB3F87C23A3F86824E6
:101C000008F0D2FE374B1860314CD4F87034C31A48
:101C1000A4F86C34C4F8700406F086FB012384F841
:101C2000AC3194F82431002B5ED0B4F89E4104F01E
:101C300080039BB2002B40F0AB80274B1B7813F046
:101C4000040F23D0224B93F874341BB1204B93F82C
:101C5000753463B11E4B4FF0000EC3F878E40022D8
:101C600083F8742401201849087483F87524184DEA
:101C7000D5F88031181D19780CF09CFD44F08004D3
:101C8000A5F89E41012385F87C3481E0104BD3F800
:101C9000780405990EF07CFE002879D104F09EFEB0
:101CA0000DF066FB0A4B0020C3F87804002283F88D
:101CB00074240122044B1A746AE000BFAFF3008061
:101CC000399D52A246DF913F000000200400002011
:101CD00038010020BD378635F5200020EC2000209B
:101CE00056555555E4200020914BB3F89E3103F032
:101CF00080039BB2002B3ED08D4B93F87444631E3F
:101D0000DBB2012B22D88A4ED6F8805496F8847420
:101D10002F44D6F88C0487490EF0A6FC0EF090FEF6
:101D2000B872D6F8900484490EF09EFC0EF088FE3E
:101D3000387528780EF044FC01460EF08DFB0EF04D
:101D40007FFEA870AB7A2B732B7DAB75032C07D16C
:101D50000022774B83F874240122784B1A7403E035
:101D6000764B1A7C01321A74714BB3F89E2122F023
:101D70008002A3F89E21724B1B7813F0040F07D149
:101D80006B4B93F87C341BB10122694B83F87524AB
:101D9000674BD3F8885115F0080F47D0B3F8C0311E
:101DA00003F1450292B28A2A3BD8614AB2F89E21D9
:101DB00002F0040292B2002A33D05D4AB2F88C11CC
:101DC000B2F8A821891A89B28AB210B210F1B30F01
:101DD000BCBF01F5B47292B211B2B329C4BFA2F56F
:101DE000B47292B2574991F8EC00514991F89411AC
:101DF00011F0080F1AD041B2494202FB01F24C49DE
:101E000012B2D1F88001007B00FB02F24E4880FB49
:101E100002401044D217C2EB20129B1AA1F8C03125
:101E200004E0434BB3F88C21A3F8A82115F0040F6C
:101E300000F0AC803E4BB3F89E3103F008039BB238
:101E4000002B00F0A3803A4B93F8943113F0100F5D
:101E50000CD0374BD3F8C8213A4991F92501B3F892
:101E6000BE1100FB0212A3F8BE218FE0304BD3F865
:101E7000803193F8D720002A40D02D4AB2F8C21101
:101E8000B2F8B80102B293F8D6300CB2A41A002C02
:101E9000B8BF64429C4212DD254A0024C2F8C44106
:101EA000012482F894448AB209B200B28142C4BFCC
:101EB0005B429BB213441E4AA2F8C23166E01C4B3F
:101EC00093F894343BB11A4BD3F8B411C3F8B01162
:101ED000002183F89414164BD3F8C8311A441949D9
:101EE000B1F8D030B1F8D2109A4203DB8A42B4BFC5
:101EF00013460B460E4AA2F8C23147E00C49B1F92D
:101F0000B821B1F9C211891A81EAE170A0EBE17040
:101F100093F8D630984219DD054B01EBD171491089
:101F2000C3F82C13012183F8951483F894141BE053
:101F30003801002000007A449A99993F000000205F
:101F4000F5200020001C002089888888B44B93F875
:101F500094344BB1B24BD3F8B411C3F8B011002193
:101F600083F8951483F89414AD4BD3F8C811114439
:101F7000AC4AB2F8D030B2F8D220994203DB914299
:101F8000B4BF0B461346A64AA2F8C231A44BD3F8FD
:101F9000804194F8DA60002E5BD0B3F89E3113F0E4
:101FA000030F56D09E4BB3F8C2710097D3F830940C
:101FB000D3F83484D3F83874384639460EF054FBDD
:101FC0008246484649460EF04FFB81464046414610
:101FD0000EF04AFB014648460EF03EFA8046404667
:101FE00051460EF039FA0FF0D5FD014638460EF095
:101FF000EFFB07468C490EF0DFFC20BB38460FF0A4
:10200000EFFB874BD3F898140EF02EFB0FF06CFB10
:10201000B0F5617FA8BF4FF461700DF02FFF7EA374
:10202000D3E900230EF0BAF80EF0C0F90FF09AFBD6
:10203000074630460EF0C4FA39460EF015FB0FF095
:1020400053FB80B200E00020009A0244744BA3F8D6
:10205000C22115F0200F0DD0714BB3F89E3103F063
:1020600030033BB16E4B93F8943113F0010F01D064
:1020700004F0DCFE6D4B1D68201D04F15001694B1E
:10208000B3F8F62004F15C03A847654B93F89C3441
:10209000013B142B00F2ED81DFE813F04200EB016D
:1020A000EB0115005300EB01EB012301EB01EB0108
:1020B000EB01EB01EB017900EB01EB01EB01EB0133
:1020C000EB019C01BD010420022109F095F8544C5C
:1020D000B4F8A46400FB06F087B20420012109F0E3
:1020E0008BF8B4F8A25400FB057087B2042009F005
:1020F00093F84F4C384420810520022109F07CF8E8
:1021000000FB06F086B20520012109F075F800FBFE
:10211000056085B2052009F07FF828446081A8E1B8
:102120000520012109F068F83D4BB3F8A43400FB09
:1021300003F084B2052009F06FF820443C4B58812D
:1021400097E1374CD4F8A874002009F065F8384DB1
:1021500097F90630B4F9022302FB03F3354E86FBF0
:102160000312DB17C3EB221318442880012009F067
:1021700053F897F90E30B4F9002302FB03F386FB02
:102180000326DB17C3EB26131844688071E12A4B42
:102190001B7813F0040F06D1214BD3F8AC349A8886
:1021A000234BDA810EE01E4BB3F9C211D3F8AC24F5
:1021B00013885288994203DB8A42B4BF13460B4608
:1021C0001B4AD3811A4BDA891C4B1A80144BD3F863
:1021D000B0341C78002C4BD0022009F01DF8104BB5
:1021E000D3F8A834B3F91020598A904203DB0AB21D
:1021F0009042B8BF02460A48D0F8B41449898A1AF6
:1022000095B2B0F8B8242EB210B2864218DD22443E
:102210000348A0F8B8241BE0A2EB0FE5DD169640BA
:1022200038010020001C00208FC2753CA400002053
:10223000940000201F85EB51F5200020E81B0020B2
:102240002DB210B2854203DA121BBB48A0F8B824A5
:1022500093F91630B84AB2F9B82402FB03F3B74A2F
:1022600082FB0342DB17C3EB62131944B44B998022
:10227000B14BB3F89E3103F480739BB263B1AE4AA5
:10228000B2F8BC11AE4BD9801981B2F8C011598196
:10229000B2F8BE219A818BE2A74AB2F8A014A84BEB
:1022A000D9801981B2F8A4145981B2F8A2249A8174
:1022B0007EE208EBC40393F90630B5F9062002FB71
:1022C00003F387FB03E6DB17C3EB6616EE802046BD
:1022D00008F0A2FF3044E88001340235072CE8D131
:1022E000C7E0984B1B7813F0040F06D1924BD3F83C
:1022F000AC349A88924BDA810EE08F4BB3F9C2115D
:10230000D3F8AC2413885288994203DB8A42B4BFC5
:1023100013460B468A4AD381894BDA898A4B1A8045
:10232000854BB3F89E3103F480739BB213B3032043
:10233000012108F061FF804CB4F8BE6100FB06F09B
:1023400087B20320022108F057FFB4F8BC517C4C3F
:1023500000FB0570E0800420012108F04DFF00FB28
:1023600006F086B20420022108F046FF00FB05605B
:10237000208121E00320012108F03EFF6E4CB4F8DB
:10238000A26400FB06F087B20320022108F034FFAC
:10239000B4F8A0546A4C00FB0570E08004200121D1
:1023A00008F02AFF00FB06F086B20420022108F0A4
:1023B00023FF00FB05602081032008F02DFF604C07
:1023C000E3881844E080042008F026FF238918449D
:1023D00020814EE00420012108F00EFF564DB5F893
:1023E000A23400FB03F086B2554C2681042008F08D
:1023F00013FF304420810520012108F0FDFEB5F8CF
:10240000A03400FB03F085B26581052008F004FFCD
:10241000284460812DE0484BB3F8A4A44B4D03241D
:102420004FF002094FF001081F462046494608F0C8
:10243000E3FE00FB0AF086B22046414608F0DCFECF
:10244000C4F1060323F001033B44B3F8A03400FBBE
:10245000036086B22E80204608F0DEFE304425F868
:10246000020B0134072CE0D1334BB3F8C221364BB9
:102470001A80374B9B6813F0200F00F0A0810020DA
:1024800008F0CAFE05462E4C2080012008F0C4FE4C
:102490006080294B93F81731002B00F09081264B78
:1024A000D3F8BC341B7813F0020F24D0224BD3F89E
:1024B000A84494F90E20B3F9001301FB02F21F495E
:1024C00081FB0276D217C2EB261292B294F9064033
:1024D0006442B3F9023303FB04F381FB03E1DB172E
:1024E000C3EB211189B2164B541A25441D800A44AE
:1024F0001044588063E1104BD3F8A844104A94F973
:102500000610B3F9026306FB01F60C4981FB06E7EE
:10251000F617C6EB27163544158094F90E40B3F92B
:10252000003303FB04F381FB0341DB17C3EB2113EF
:102530001844508043E100BF380100201F85EB5153
:1025400094000020F5200020E81B00209A000020C5
:10255000001C0020B1F90200E25EE5186D8890428F
:1025600003DB2AB28242A8BF024621F8022F0833B9
:10257000402BEFD1954BD3F8C034002B64D0934B54
:1025800093F89C34013B142B57D8DFE803F0155621
:10259000560B3756562D5656565656445656565680
:1025A000563A44008A4C0020218903F015FB012093
:1025B000618903F011FB47E0844BD3F8C4345B78A6
:1025C0002BB10020824B598903F006FB3CE0814B84
:1025D0001B7813F0040F4FF000001ABF7C4B598991
:1025E000014603F0F9FA2FE0794C0020E18803F06E
:1025F000F3FA0120218903F0EFFA25E008F028FE24
:1026000022E0734C0020218903F0E6FA0120618961
:1026100003F0E2FA18E06E4C0020E18803F0DCFAE7
:102620000120218903F0D8FA0220618903F0D4FA4D
:102630000320A18903F0D0FA06E0674B9B6813F0F2
:10264000200F01D008F004FE08F0D4FD634B1B7886
:1026500033B9614B9B6813F4806F01D00AF034FEEC
:102660005A4BD3F8C80400283DF459AD5C4BDA68E6
:1026700082F00102DA6008F001FA60B1594B1B6880
:10268000524AD2F8CC249A4205D2564B1A68643288
:102690004E4BC3F8CC244D4C08E0D4F8C80408F0E5
:1026A00023FB0146D4F8C80408F038FBD4F8C8046A
:1026B00008F020FB0028F0D1FDF731BD4A4B1B6824
:1026C000FDF727BE484B1B68FDF72ABE3F4B002293
:1026D000C3F8A021C3F8A421C3F8D024C3F8D4249C
:1026E000C3F8D8240026C3F8DC64C3F8E064C3F858
:1026F000E4649646FDF709BF012402E0022400E0ED
:102700000324E4B2621E344B83F8E02404F066F93B
:1027100006F092FD02202821224605F08FFCFEF7EC
:1027200009B8D6F88020002A3DF4C7AFFDF7D0BF26
:10273000002F7DF4C8AFFDF7CBBF244CD4F8803117
:10274000BDF83410B3F85C200A44A3F85C20BDF84F
:102750003610B3F85E200A44A3F85E2004F03EF978
:102760000CF006FE002384F88531FDF7E3BF00225C
:10277000009F07F17C01154C04F20F1304F59274CD
:10278000FEF76EB84FF0FF32184B1A600F4BD3F8BC
:102790000433ED1AFEF74FBB0C4B93F89534002B26
:1027A0007EF47DACFEF756BC00230849FEF78DBED3
:1027B000064BD3F8A884064D03240D4F79E5034B4F
:1027C000D3F8A8440B490023C4E600BF3801002019
:1027D00094000020F5200020001C0020F4200020A0
:1027E00000080140E41B0020E4200020A800002095
:1027F0001F85EB51920000202DE9F04FA1B07B4BDB
:102800007B4A1A6000225A6002F038FC18B907F0BF
:10281000E7F804F0E3F806F00FFD764B997B002310
:10282000089309930A934FF4E0130B93724B1A68C1
:1028300042F480321A609A6942F010029A611A4694
:10284000136803F400330993089B01330893099B31
:102850001BB9089BB3F5A06FF2D1674B1B6813F44B
:10286000003F02D002230A931DE0634B1A6842F036
:1028700001021A60002308935F4A136803F0020301
:102880000993089B01330893099B1BB9089BB3F577
:10289000A06FF2D1584B1B6813F0020F02D0012336
:1028A0000A9300E0FEE7554B1A6842F010021A60E6
:1028B0001A6822F003021A601A6842F002021A60D3
:1028C000A3F580535A685A605A685A605A6842F4AD
:1028D00080625A604A4A106820F070401060494C8B
:1028E00049480460586820F47C105860136843F02D
:1028F00000431360454BDA6822F40042DA609B68BB
:1029000013F4004F05D0424A3F4B1A604FF4801336
:1029100001E04FF4E0130B930A9B012B19D0022B1B
:102920001CD171B10B9BB3F5801F03D14FF4A013E1
:102930000B9306E00B9BB3F5E01F04BF4FF40013AD
:102940000B932D4B59680B9A0A4342F480325A601C
:1029500004E0294B5A6842F460125A60264B1A6808
:1029600042F080721A601A46136813F0007FFBD0A1
:10297000214B5A6822F003025A605A6842F0020260
:102980005A605C6804F00C04082CFAD11A4B5B689E
:1029900003F00C03042B07D0082B0AD0002B3DD1E9
:1029A000184A1C4B1A603CE0174B1A68194B1A6006
:1029B00037E0114B59685A68C1F38343023312F46C
:1029C000803F05D1144A02FB03F3124A136028E04A
:1029D000094A526812F4003F0B4A126818BF5208A5
:1029E00002FB03F30B4A13601BE000BF3C06002010
:1029F00061B10008001C00200010024000200240CD
:102A00000410014000127A00140000200010014060
:102A1000001BB700B000002000093D007C4A7D4B40
:102A20001A607D4D6B68C3F30313DFF82C824344B7
:102A30001979C9B2774B1A68CA401A60774A784B3D
:102A4000DA60AB6943F00103AB616B6A43F08073FA
:102A50006B62AB6943F01C03AB6100238DF842301D
:102A600020AE4FF6FF7326F8403D6E48314603F026
:102A7000B5F86D4F3846314603F0B0F86B48314633
:102A800003F0ACF86A4B5A6842F000725A60DFF803
:102A9000CC9109F160030FCB86E80F00AB6943F0DE
:102AA0000803AB61AB6943F00803AB6108233B61EA
:102AB00010233B61109811A903F090F8129813A904
:102AC00003F08CF809F1700999E8030086E8030027
:102AD000AB6943F00403AB61D8F80020554B9A4230
:102AE00041F02B849DF84630142B41F01D841023B7
:102AF0008DF8463001F018BC002007F08BFF10AEB7
:102B00004D4B93E8030086E80300434DAB6943F067
:102B10000803AB61109811A903F060F8304604F087
:102B20009DFE464A109BA2FB03139B0C444FBB60C7
:102B3000384B1A68434BA3FB02129209013A424BED
:102B40005A60F021364A82F823104FF00008C3F88B
:102B5000088007221A60012007F0C6F8642007F0F9
:102B60004DFF3A48414690220EF059FB4FF4007356
:102B7000ADF8403010238DF8423001238DF84330FA
:102B80002948314603F02AF8EB6943F00703EB616B
:102B9000AB6943F4006343F00C03AB6107F10B0333
:102BA00007F11A01424603F8012F8B42FBD1244B57
:102BB000FF221A775A779A77DA77254B986800F4CC
:102BC0000066244A0021134643F8041B5160043375
:102BD00043F8041B196002238DF83A308DF83B103E
:102BE0001023ADF8383004231370012393700723AA
:102BF000D37010F4004F33D01223ADF838301346A1
:102C000001221A715A719A710722DA71022528E09D
:102C100000127A00B0000020001002400005FA0502
:102C200000ED00E000080140000C014000100140F0
:102C300000000140001BB7005439010883DE1B432C
:102C40003C060020D34D621010E000E0241A002062
:102C5000001C00208802002014000020DC3801083D
:102C60000125664B1A68664B9A420FD1BDF8383081
:102C700043F02003ADF83830624B05221A726A1C0B
:102C80005D72012199720721D972D5B25E480EA9F1
:102C900004F042FE86B120A9022321F8483D5B489A
:102CA00004F03AFE574B09221A736A1C5D73012126
:102CB00099730721D973D5B2554B5A6942F0010275
:102CC0005A619A6942F400729A61524804F0F0FE27
:102CD000514B1093514B119300231293139514935E
:102CE000022D28BF802315934FF4807316934FF461
:102CF00080631793202318934FF4005319930027F0
:102D00001A97444E304610A904F0B2FE336843F0DF
:102D100001033360424B5A6822F4702222F480721D
:102D2000012D94BF0021012142EA01225A609968D5
:102D30003C4A0A4042F4602242F002029A60DA6A97
:102D400022F47002691EC9B242EA0152DA623846C0
:102D50000122DFF8B0E01F25072700EB0E0C9CF8DE
:102D6000021000296FD010F80E10561CF6B29CF815
:102D70000380092910D9D3F80C90A1F10A0C0CEBAF
:102D80004C0C07FA0CFA29EA0A0908FA0CFC49EA81
:102D90000C0CC3F80CC00DE0D3F8109001EB410C03
:102DA00007FA0CFA29EA0A0908FA0CFC49EA0C0CA1
:102DB000C3F810C0062A0FD8D3F834C0013A02EB8A
:102DC000820205FA02F82CEA080C01FA02F24CEA37
:102DD00002025A63324636E00C2A25D8D3F830C0B6
:102DE000073A02EB820205FA02F82CEA080C01FA13
:102DF00002F24CEA02021A63324624E01400002078
:102E0000001BB7008802002000080140000C0140B0
:102E100000100240080002404C24014098020020AB
:102E200000240140FDF7F1FFD3F82CC00D3A02EB6E
:102E3000820205FA02F82CEA080C01FA02F24CEAC6
:102E40000202DA6232460430102886D1AC4B9A680E
:102E500042F480729A609A6842F001029A609A681D
:102E600042F008029A601A46936813F0080FFBD1EB
:102E7000A34B9A6842F004029A601A46936813F0D2
:102E8000040FFBD19E4B9A6842F4A0029A609D4BBE
:102E9000B3F8E600002841F05982B3F9E830002B7E
:102EA00041F05482974BB3F9EA30002B41F04E8247
:102EB000944B9B6813F4003F64D0142007F09EFDF0
:102EC000AE2003F0E1FBA42003F0DEFB322007F08C
:102ED00095FD202003F0D8FB022003F0D5FBA120B4
:102EE00003F0D2FBC82003F0CFFBA62003F0CCFBFD
:102EF000812003F0C9FBAF2003F0C6FB142007F0CC
:102F00007DFDAF2003F0C0FB142007F077FDA62065
:102F100003F0BAFBAE2003F0B7FB202003F0B4FBB4
:102F2000002003F0B1FBB02003F0AEFB402003F023
:102F3000ABFB002003F0A8FB102003F0A5FB4FF42F
:102F400080650026304603F06DFB013DADB2002DDB
:102F5000F8D1812003F098FBC82003F095FBAF2047
:102F600003F092FB684D694B2B6205F124000021B0
:102F70000C220EF054F906F0A3FB07F015FD644B8C
:102F80000344EB62634B1A6842F00E021A605D4B19
:102F9000B3F8EE5093F8ED805F4B1B68B3F85A70AE
:102FA00000225E4B1A7009F07FFD002801F06D824F
:102FB0005B4B5C4A1A605C4A5A605C4ADA60142DCA
:102FC00021D004D8052D28D00A2D21D016E0BC2D03
:102FD0000AD0B5F5807F02D0622D0FD109E0002222
:102FE000534B1A7501F04DBA0122514B1A7501F07D
:102FF00048BA02224E4B1A7501F043BA03224C4BD9
:103000001A7501F03EBA0422494B1A7501F039BA1B
:103010000522474B1A7501F034BA0622444B1A7543
:1030200001F02FBA3E4B434A1A60434A5A60434A62
:10303000DA604E2D0AD05D2D0ED0362D14BF002241
:103040004022314B83F8302001F02EBA80222E4BE3
:1030500083F8302001F028BAC0222B4B83F83020AF
:1030600001F022BA2E4B364A1A60364A5A60364A66
:103070009A602E4ADA60622D14D004D80A2D20D02E
:10308000142D19D013E0BC2D07D0B5F5807F0ED1DB
:103090000022274B5A7501F017BA0122244B5A75AA
:1030A00001F012BA0222224B5A7501F00DBA032226
:1030B0001F4B5A7501F008BA04221D4B5A7501F0D6
:1030C00003BA05221A4B5A7501F0FEB9B0468AF8C8
:1030D00000B0B8F1080F00F2F180DFE818F0370017
:1030E00037005A00B300D800EF00EF00EF000900EE
:1030F000084B1A6822F002021A6001F0F1B900BF11
:1031000000240140001C00203C0600200E1D002071
:10311000404B4C00C0020020B8020020B604002042
:10312000A0040020ED5E0008E9C2000890C1793DCE
:1031300014000020E55F000809C40008325C8F3DE0
:10314000955F000865C3000829C300088DF840B0EA
:10315000AE4B1A68AE4B9A4217D05320314601222B
:1031600010AB06F0C7FE80B19DF84030E52B0CD1C6
:10317000A84B83F83160A84B2B60A84B6B600123F0
:1031800089F8003004238AF80030B8F1010F01F00B
:10319000A78109F089FC002854D0682006210A463E
:1031A00010AB06F0A7FE9DF8452002F001029DF845
:1031B000433003F001035B0043EA82029DF8413093
:1031C00003F0010313430FD0012B03D1914B83F87C
:1031D000326021E0022B04D101228E4B83F8322091
:1031E0001AE0052007F01EFC68200C2101220EAB1E
:1031F00006F080FE9DF8383013F00F0302D1052051
:1032000007F010FC042B03D1824B83F8326003E0FB
:103210000122804B83F83220814B2B60814B6B6005
:103220007C4B93F83230002B14BF6E236F232B722C
:10323000022389F8003001238AF80030B8F1020F28
:1032400001F04E818DF840B0704B1A68704B9A4275
:103250001DD01C200D21012210AB06F04BFEB0B199
:103260009DF840302A2B01D01A2B10D16E4A2A60CB
:103270006E4A6A60674A82F83330032389F8003067
:1032800002238AF80030B8F1030F01F0298120AB46
:1032900003F840BD18203146012206F02BFE68B12C
:1032A0009DF84030FB2B09D1614B2B60614B6B606B
:1032B000042389F8003001238AF8003099F800309F
:1032C00043B9B8F1000F7FF401AF5B4B1A6822F0ED
:1032D00002021A604D4B1E684D4B9E4215D0574B53
:1032E0009A6942F010029A614FF40058ADF840809C
:1032F00002238DF8433010238DF84230504D28467C
:1033000010A902F06BFCC5F814800A2007F076FBC8
:103310007720A02101220EAB06F0ECFD002801F081
:10332000E98077201E21012209F01EF94FF42F6059
:1033300007F058FB0025A846DFF8D8908DF84080AC
:103340008DF84180A5F160017720C9B2022210AB4F
:1033500006F0D0FD9DF840209DF8413043EA02225E
:1033600009F13403EA520235102DE7D1343BB3F8AA
:10337000425005F00F0005F47F45A3F8425003F1D9
:1033800032014233012231F802EFBEF1000F18BFC3
:1033900000229942F7D1002A41F0AC80002319465F
:1033A000DFF870E0A44611F0010F21F00102724431
:1033B00019BF92F834205340928E83EA122301F011
:1033C00096B813F4004F18BF83F4C0535B00013A62
:1033D000F7D101311029E6D105430E4AA2F8425037
:1033E000C3F30333984241F08580164B42F21072CA
:1033F0001A805A80144A5A60144A9A60144ADA6051
:10340000144A1A61144A5A6114E100BF14000020E2
:10341000001BB7003C060020895E000891C400082C
:10342000F54B0008A9C20008D15D0008A5C300083B
:10343000655E000849C40008C00200200010024078
:103440000010014030030020815D0008F9C1000830
:10345000715D000809C200087D490008A24B93F87D
:103460004430002B40F0E68003F1804303F5043341
:103470009A6942F010029A614FF40058ADF8348016
:1034800002238DF8373010238DF83630974D2846BB
:103490000DA902F0A3FB4FF48046ADF8346004237D
:1034A0008DF8363028460DA902F098FBC5F810803B
:1034B0008F4B5A6922F470625A615A6942F4007261
:1034C0005A610E9600238DF83C3008238DF83D306C
:1034D00001258DF83E500EA804F082FA28238DF8BD
:1034E00030300F238DF831308DF832308DF8335075
:1034F0000CA804F06DFB142007F080FA7720D0218F
:103500002A460DF11F0306F0F5FC9DF81F30764AA0
:1035100082F85F300321A2F86810552B40F08480B8
:103520007720D1212A460DF11F0306F0E3FC9DF818
:103530001F306D4D03F00F0285F860201B0985F8E0
:1035400061307720AA21162210AB06F0D3FC9DF83B
:1035500040209DF8413043EA0223A5F848309DF809
:1035600042209DF8433043EA0223A5F84A309DF8F3
:1035700044209DF8453043EA0223A5F84C309DF8DD
:1035800046209DF8473043EA0223A5F84E309DF8C7
:1035900048209DF8493043EA0223A5F850309DF8B1
:1035A0004A209DF84B3043EA0223A5F852309DF89B
:1035B0004C209DF84D3043EA0223A5F854309DF885
:1035C0004E209DF84F3043EA0223A5F856309DF86F
:1035D00050209DF8513043EA0223A5F858309DF859
:1035E00052209DF8533043EA0223A5F85A309DF843
:1035F00054209DF8553043EA0223A5F85C3001239E
:1036000085F844303B4B41F270721A8046F67812CE
:103610005A80394A5A60394A9A60394ADA60394AD6
:103620001A61394A5A6105E04FF400522F4B5A6132
:1036300000F064BF354B93F8E2300BB1344A13709D
:10364000324B93F8E3300BB1324A13702F4B93F89F
:10365000E4300BB1304A1370304B1B6813F0020F8B
:1036600002D02F4B1B6898472E4B1B68984720AB06
:10367000002203F8402D1E200A21012206F03AFC08
:1036800038B19DF84030482B03D10322224B1A70E9
:1036900004E0224B1A6822F008021A601F4B1B68D4
:1036A00013F0080F1AD03FB2642697FBF6F52846B0
:1036B0000CF086FF804606FB157000B20CF080FF10
:1036C00019490CF0D1FF014640460CF0C5FE1749E0
:1036D0000CF0CAFF044BD86600F017BF0022024B63
:1036E000DA6600F012BF00BF3C0600200010014067
:1036F0000000014030030020B95D00086DC20008E1
:10370000915D000819C20008054B0008001C00204C
:10371000B60400201E050020F3200020C002002077
:103720000C050020A00400208988883C000020416E
:10373000EB6883F01003EB60EB6883F00803EB6049
:10374000304607F05BF9404607F064F9304607F071
:1037500055F9002007F05EF97B1E13F0FF07E7D153
:10376000854B08221A6110221A61844B1B6893F959
:103770000C000CF083FB7CA3D3E900230CF0E4FBEA
:103780000CF014FE0DF07AFF06467D4D28880CF0F3
:1037900017FF31460CF068FF0DF0A6FF794B18803B
:1037A00028880CF00DFF014677480DF011F8774995
:1037B0000DF00EF8764B1860764BD8680CF070FB65
:1037C00069A3D3E900230CF0BFFB69A3D3E900236D
:1037D0000CF0BAFB0CF0EAFD6F4B18606F4B5A7996
:1037E0006F490A7003F110006E4908676E4901EBDA
:1037F000C20292F881106D4A11609B6813F0200F8D
:1038000002D00122694B1A60694B1B6813F0080F44
:1038100000F024811022584B5A61664B1B68664A9F
:10382000934213D1654B9A6942F008029A614FF4B2
:103830008053ADF8383002238DF83B3004238DF8E7
:103840003A304D480EA902F0C9F90FE05C4A9342A4
:103850000CD15A4B9A6942F010029A6120A94FF498
:10386000804321F8483D574802F0B8F9322007F06C
:10387000C5F81E200021112208F076FE1E2001212D
:10388000602208F071FE642007F0B8F810A809F073
:10389000CFF84FF00A0800252E462F464FF01E0B9A
:1038A000DFF824A1DFF8D09058460221012208F069
:1038B0005BFE322007F0A2F810A809F0B9F8BDF9B4
:1038C00040201744BDF942100E44BDF944301D4458
:1038D0009142B8BF0A469A42B8BF1346534509DB26
:1038E000D9F80C3083F01003C9F80C30B8F1010896
:1038F000DAD102E04FF0000801E04FF001081E208D
:103900000021122208F030FE4FF00A094FF01E0B82
:10391000DFF864A058460221012208F025FE32207B
:1039200007F06CF810A809F083F8BDF94020BF1A21
:10393000BDF94210761ABDF94430ED1A9142B8BF74
:103940000A469A42B8BF13461F498B423EDBDAF85B
:103950000C3083F01003CAF80C30B9F10109D9D149
:1039600036E000BFAFF30080399D52A246DF913FA1
:10397000000000A0F7C6B03E000C0140500500203A
:1039800000000020740500200AE81C4100401C468D
:1039900050040020A00400204C050020001C002042
:1039A000D40500203C060020DC380108F805002082
:1039B000C00200201400002000127A000010024013
:1039C000001BB7000010014001F0FFFF4FF000089E
:1039D000DFF8249338460CF0F3FD0146B5480CF0AF
:1039E000F7FE20F00040C9F8180030460CF0E8FD62
:1039F0000146B0480CF0ECFE20F00040C9F81C0075
:103A000028460CF0DDFD0146AB480CF0E1FE20F04D
:103A10000040C9F820001E200021702208F0A4FDFB
:103A20001E200121202208F09FFD1E2002210022DD
:103A300008F09AFD642006F0E1FFB8F1000F07D10D
:103A40004FF07E52C9F81820C9F81C20C9F8202070
:103A500010229A4B1A610122994B1A704023ADF83B
:103A6000403010238DF8423002238DF843309348C4
:103A700010A902F0B3F80022924B1A60924B03F1A6
:103A80008001924A43F8042F8B42FBD1904D0026CF
:103A90006E67F0228F4B83F82220C5F89860C5F836
:103AA000C060C5F8BC608C4BC5F8C430143BC5F889
:103AB000C8308A4F38460E21102206F081FD384664
:103AC0003146324606F08AFC854BC5F8CC3005F10C
:103AD000D000844902F012F9384605F1CC01324693
:103AE00002F008FB8048C5F8D80006F0B5FE05F1E5
:103AF000DC00FF2115220DF092FB012385F8F13047
:103B000085F8DC60794B1B6813F0020F08D00121A7
:103B100085F8DD10032185F8F110022185F8DE100B
:103B200013F0040F09D06A4A92F8F110481C82F889
:103B3000F1000A44032182F8DC1013F00A0F15D0BB
:103B4000634B93F8F1209918042081F8DC00511C94
:103B5000C9B21944052081F8DC00D11C83F8F110AA
:103B60000232D2B21344062283F8DC20604B9B68F9
:103B700013F0200F09D0564A92F8F110481C82F831
:103B8000F1000A44072182F8DC1013F0800F0FD0F7
:103B90004F4A92F8F1105018092580F8DC50881C23
:103BA00082F8F1000131C9B20A440A2182F8DC101E
:103BB0004F4A5279082A01D00E2A09D1444A92F874
:103BC000F110481C82F8F1000A440B2182F8DC1045
:103BD0003F4991F8F120501CC0B281F8F100114426
:103BE0000C2581F8DC5013F0040F07D0384902325D
:103BF00081F8F1200144102281F8DC20344991F849
:103C0000F120501CC0B281F8F1001144122581F856
:103C1000DC50374991F8411100290CBF002303F013
:103C200001033BB12A4B023283F8F12003441322F3
:103C300083F8DC20264890F8F1305A1C80F8F120F7
:103C40000344142283F8DC20F430002198220DF084
:103C5000E6FA4FF00009DFF898B0DBF82C214FF0BE
:103C6000000A5546012603270095304629463B4663
:103C700009F0AAF88046002840F05684BAF1000FF7
:103C800040F058844FF49642B246EDE709F1010640
:103C9000F6B24C2202FB09F9164D4D44284600218C
:103CA0000DF0BDFA134A42F80980012385F84A3025
:103CB000B146D2E700406F4601C05E46000C0140AD
:103CC000260300205C1B00205C1B00203800002025
:103CD0003C06002000ED00E0382C01400C520108A9
:103CE000955C0008D5F30008281D0020C0020020C4
:103CF000001C00203007002014000020002100914B
:103D00000220B268032309F05FF89A4BC3F88C01D4
:103D100000231B931C931D931E93ADF87C30964B90
:103D20005B790E2B01D0082B02D101238DF8753061
:103D3000914B9B6813F4005F23D100268F4D05F152
:103D400060083746705D022809D005F11003194656
:103D50001A78824206D010334345F8D101E0294653
:103D600000E0394602F05EFF83681B78012B03D028
:103D70001036602EE6D101E0012300E000238DF82B
:103D80006F307D4B9A68C2F340018DF87010C2F31A
:103D900080118DF87110C2F340318DF86C10C2F3B0
:103DA000C0318DF86E10C2F300418DF8721002F030
:103DB00001018DF86D1072490968003118BF0121A9
:103DC0008DF873106F49096891F82611C1F38001CD
:103DD0008DF87410B3F8DE10ADF87610B3F8E0305B
:103DE000ADF878304FF47A73ADF87A3012F4805F22
:103DF00004D0614BB3F8DA30ADF87A30B1F5FA7F20
:103E000084BF0023ADF87A305B48B0F81811ADF8E4
:103E10007C10584B90F8205183F8905100F5877032
:103E2000C3F89401584DC3F898510025A3F89E514A
:103E300083F8A05103F5CC75544E3560C3F8A451F6
:103E4000534B1860534B03F1240023F8021F8342A5
:103E5000FBD15149514B196012F0080F00F0BF809F
:103E6000454B93F81631042B00F2B080DFE803F0E5
:103E7000030334566C007BB1012B1AD13D4B032256
:103E800083F8A821072283F8A921012283F8AA2117
:103E90000C22434B1A700CE0364B022283F8A82107
:103EA000032283F8A921002283F8AA2107223C4B90
:103EB0001A700023009308203A494FF4E13201239D
:103EC00008F082FF2B4BC3F8AC01374AC3F8B0218E
:103ED000031C18BF01237AE0012300930820334913
:103EE000334A052308F070FF224BC3F8B401224B7C
:103EF000B3F81811A1F57771490000222D4BD1506C
:103F00000432302AFBD12C4A1A4BC3F8B0210C22C0
:103F1000234B1A70031C18BF012358E000230093A1
:103F2000082026494FF4E132012308F04DFF114BE0
:103F3000C3F8B801224AC3F8B0211022184B1A70F6
:103F4000031C18BF012342E00023009308201D49F1
:103F50004FF4E132012308F037FF064BC3F8BC01F0
:103F6000194AC3F8B02108220D4B1A70031C18BF60
:103F700001232CE03C060020001C0020DC38010856
:103F8000F8050020B8020020143A0108B40200200D
:103F90003C0100205E020020D40700203C020020EB
:103FA000D4020020B1740008C1730008CD75000868
:103FB000A0860100600100208D7400085175000882
:103FC0007D7400080175000869740008002333B986
:103FD000082001F04BF80022AD4BC3F8B021AD4BE7
:103FE0009B6813F4804F06D00821AB4A1170AB498F
:103FF000A74AC2F8B01103F0010203F4005142F2E3
:10400000010003420BD0A64DA148C0F8B05111B138
:104010000820A149087012B10C219F4A11709E4AD4
:1040200011780439517013F0800F49D09D4B984A94
:10403000C2F8C031D96800239B4A07E00133DBB2E4
:10404000042B03D90022994B5A7006E002EB0310AF
:1040500040688842F2D1954A5370954D954B2B603C
:10406000002002F0B1FF944B1A68904B9A60002236
:104070005A602B681B7893428C4B5A788A4B03EB1F
:1040800002134FF0000100914FF010005A680CBF6E
:104090000123032308F098FE884B186018B980208C
:1040A00000F0E4FF02E0012002F08EFF844B18686C
:1040B00000F59472764BC3F8C421043001F036FC4D
:1040C000744B9B6813F4007F0ED013F4005F14BF91
:1040D0007C487D4804F0C0F87C4B1A6842F010021E
:1040E0001A6000227A4B1A606A4B9B6813F4806F47
:1040F00072D0042003F080FE0146042002F092FDFD
:1041000020B143681B7A03F0010300E00023604AFA
:1041100082F8C8315F4B9B6813F4806F0AD004208B
:1041200003F06AFE0146042002F07CFD003018BF57
:10413000012000E00020564B83F8C901D3F8CC31B0
:104140001A78032A46D8DFE802F002062E32504AD7
:10415000C2F8D0313EE04E4DC5F8D4314FF02C08B6
:1041600005F5EC70002142460DF059F87C2785F8E2
:10417000D8718E2385F8D931E02385F8DB317D268F
:1041800085F8036205F50170002142460DF047F8FD
:1041900085F804728A2385F80532A02385F8073252
:1041A00085F82F6216E03A4AC2F8303212E0384AF7
:1041B000C2F834320025404E306880B2A9B200F017
:1041C000CBFF01350B2DF7D1314B0022C3F838223C
:1041D000C3F83C2208F082FE06F0E6FB3D4B186077
:1041E0002C4B5B79052B03D14FF4C8723A4B1A80E4
:1041F0004FF47A72394B1A80C822394B1A80394BE6
:104200001A7842F008021A70374B1A7822F002022C
:104210001A701F4B03F51071344A1160D3F8403205
:10422000002B40F094810021009108464FF4E132C8
:10423000032308F051FC2D4B186088E1304606F04E
:104240006DFD15F8011F0029F8D1124B9B6813F082
:10425000020F5BD0264A0E4BC3F8402A282508F0EF
:10426000F1FF284606F0CAFB013CF8D1084B93F851
:10427000440A084B93F8051181423BD84A000223B7
:10428000824238D801330A44082BF9D133E000BF09
:104290003C060020001C0020D4020020A17400086D
:1042A000AD740008281D00208C380108700400201F
:1042B0006C040020261D0020E41B00206804002060
:1042C000B80200203C3A0108483A0108C002002028
:1042D000A8000020A8050020CA020020F02000202D
:1042E000E8200020CC020020F5200020000600205D
:1042F000041D00200123DBB29B4A13709B4A92F8F5
:10430000062102FB03F39A4AA2F8463A974B9B68B0
:1043100013F4003F00F02081954B93F8272042F0E2
:10432000010283F8272017E1109811A901F056FC2B
:10433000904A914B1A60FEF7DFBB109811A901F06B
:104340004DFC8E4A8C4B1A60FEF7D6BB00228C4B7C
:1043500083F82C2000B20BF091FD81A3D3E9002358
:104360000BF0F2FD0CF022F80746804DB5F9E8009D
:104370000BF084FD7AA3D3E900230BF0E5FD0CF0EC
:1043800015F80646B5F9EA000BF078FD74A3D3E9F9
:1043900000230BF0D9FD0CF009F8054638460DF066
:1043A0006DF9804638460DF0DDF9814630460DF056
:1043B00065F9074630460DF0D5F9064628460DF05A
:1043C0005DF9834628460DF0CDF9824640465946B0
:1043D0000CF04AF90290404651460CF045F9039022
:1043E000484659460CF040F90490484651460CF0B6
:1043F0003BF905905E4D384659460CF035F9C5F845
:10440000480A07F1004150460CF02EF9C5F84C0A55
:10441000C5F8506A304604990CF026F90146039815
:104420000CF01AF8C5F8540A304605990CF01CF93E
:10443000014602980CF00EF8C5F8580A09F100413F
:1044400038460CF011F9C5F85C0A304602990CF0B8
:104450000BF9014605980BF0FDFFC5F8600A3046E0
:1044600003990CF001F9014604980BF0F5FFC5F82B
:10447000640A404639460CF0F7F8C5F8680AFEF7BA
:1044800017BD01223F4B1A7021E0192006F0B6FA41
:1044900068200F21012210AB05F02CFD9DF8403063
:1044A000D32B05D1FEF7BEBD0122364B1A700EE0AC
:1044B000192006F0A3FA68201521002208F054F80C
:1044C00000287EF4CFAD2CE001222E4B1A70DFF8CD
:1044D000D0A00026B346DFF8CC902B4DFEF7F7BDF9
:1044E00099F80030002B3EF4F1ADFEF7F3BE6246C2
:1044F000FEF767BF254B9E427EF4B0AF244B1A688F
:1045000022F004021A60FFF795B8224B10225A617C
:1045100008221A610A271D4619264FF00108FFF7E5
:1045200007B9032006F07EFAB9F1010F3FF695AB0B
:10453000FFF7ACBB0E4DD5F8D860022006F0C6F9E7
:10454000C5F88C0100287FF4E3ABFFF7D7BB124B13
:104550001E68124D5F2171E621B0BDE8F08F00BFEB
:10456000399D52A246DF913FAC000020001C002084
:104570003C06002005A70008F820002021A700081D
:1045800014000020B60400200C050020001BB7001A
:10459000C0020020000C0140000600201C5201084F
:1045A0001E050020F62000202DE9F001884228BFDA
:1045B000012404D2012400264FF030080AE001FB58
:1045C00004F4B0FBF4F58D42F9D21F46ECB1F2E7EA
:1045D0001F463B46B0FBF4F504FB1500B4FBF1F4B9
:1045E0001EB9002D01DC002CF2D15F1C092D06DD67
:1045F000002A0CBF4FF0570C4FF0370C00E0C446B8
:1046000065441D700136002CE3D100233B70BDE8EA
:10461000F00170472DE9F001884228BF012404D23F
:10462000012400264FF030080AE001FB04F4B0FB3F
:10463000F4F58D42F9D21F46ECB1F2E71F463B4636
:10464000B0FBF4F504FB1500B4FBF1F41EB9002D2A
:1046500001DC002CF2D15F1C092D06DD002A0CBF05
:104660004FF0570C4FF0370C00E0C44665441D7006
:104670000136002CE3D100233B70BDE8F001704708
:1046800038B505461446B0FBF2F010B1FFF7F8FF5D
:104690000146B5FBF4F304FB1354034B1B5D0846C2
:1046A00000F8013B38BD00BF2052010803685A1CC6
:1046B00002601970704700BF2DE9F04105460E46B3
:1046C000069F002B0CBF4FF020084FF030083B78BE
:1046D0004BB1002A1CDD3B46013A13F8010F10B123
:1046E000002AF9D114E0541E002A06DD284641466E
:1046F000B047013CB4F1FF3FF8D1397851B13C46A5
:104700002846B04714F8011F0029F9D1BDE8F0810F
:104710003978F4E7BDE8F081F0B40478E4B1002220
:10472000134617462E2C03D10133B9B1C418675470
:1047300002EB820255002A46C45CA4F13006F6B2B0
:10474000092E9CBFA5F1300212190E2B08D8013397
:10475000C45C002CE6D105E0002004E0104602E035
:10476000002000E01046F0BC704700BFF0B4384BAA
:104770001D6801786B185B7813F0040F12D000F1FC
:104780000F0398425FD2431C00F1100601E0B342D0
:104790005BD01C4613F8011B6A18527812F0040F04
:1047A000F5D100E00446231A022B11DD421CA21AA7
:1047B000002305E01BB103EB83035B00DBB2013A8E
:1047C00010F8016B303E3344DBB2022AF2DC00E029
:1047D0000023A0420ED2002204E01AB102EB8202B2
:1047E0005200D2B210F8016B303E3244D2B2A04235
:1047F000F3D100E000222E2915D10134042000213C
:1048000001EB8101490089B22678AF197F7817F052
:10481000040F03D001343039314489B2013810F02B
:10482000FF00EDD100E000210A4800FB02F2642005
:1048300000FB01210848A0FB0120084A02FB03F30A
:1048400003EB900002E0002000E00020F0BC704785
:10485000CC00002040420F00ABAAAAAA8096980084
:1048600010B40346026B5AB1C268016C541A406915
:10487000005DC0B20139002908BF114619640AE081
:10488000016A4269505CC0B20131DA68B1FBF2F4EE
:1048900002FB14121A625DF8044B7047436B13B1AC
:1048A00090F844007047826A436A9A4214BF00201D
:1048B00001207047036B3BB159680369013B026CEF
:1048C000881A1840C0B270470369013BC169026A87
:1048D000881A1840C0B27047704700BF426A806AA9
:1048E000824214BF00200120704700BF4171704711
:1048F00010B504468160094BB3FBF1F3C0F83832C0
:10490000002343EA11430A0410461946044A0023CF
:104910000CF0B6F8C4F83C0210BD00BF0040420FD6
:1049200040420F0010B4437913F0010F0ED0036A18
:10493000C2699A420CD04269D15C0133C268B3FBB0
:10494000F2F402FB14330362084602E0002000E0A8
:1049500000205DF8044B7047437913F0010F09D034
:10496000C269036AD21AC368B2FBF3F003FB1020DA
:10497000C0B2704700207047704700BF2DE9F00FAC
:1049800084B003908C465B4E73895B4A1768A7EB33
:1049900003274FEAE779B288002545EA1245140457
:1049A0003289A2FB070102FB0911C20942EA4162F6
:1049B000CB11A01845EB0301CDE900017288002559
:1049C00045EA5245D403F288A7FB020102FB091114
:1049D000020A42EA01620B1214EB020A45EB030BD6
:1049E000B289A7FB020102FB0911C20D42EA412272
:1049F000CB1512F5FA6643F10007B6F5FA6F77F1B9
:104A0000000157DA02FB03F4A2FB020101EB4401AF
:104A10008D0045EA90758400001941EB05014D10A9
:104A20004FEA3004DDE90089B8EB040869EB0509B9
:104A3000CDE90089840844EA81748D10BAEB040A38
:104A40006BEB050B2D484FF0FF31864277EB0109E8
:104A500030DA40F6AC500021121843EB010302FBA0
:104A600003F1A2FB022303EB4103544263EB430532
:104A7000E90041EA5471E000801841EB0301DDE9EF
:104A80000045241845EB0105CDE90045941843EB9A
:104A90000305A90041EA9471A000001941EB05014A
:104AA000801841EB030149104FEA3000BAEB000ACD
:104AB0006BEB010B124B1A68A2FB0A0102FB0B11F4
:104AC000420D42EAC1224B15DDE90089B2EB080232
:104AD00063EB0903D00B40EA4340039B03B118602A
:104AE000BCF1000F01D0CCF8006004B0BDE8F00FBD
:104AF000704700BF70060020F016002024FAFFFF68
:104B0000F41600202DE9F001364B1C88364B5A89EB
:104B1000A41A1A8902FB04F4E413B3F91250ED024B
:104B2000B3F91420224495FBF2F22244DA6102EB3D
:104B30008206760008363611A2F57A6202FB02F58B
:104B40002D13B3F90EC00CFB05FCB3F9028008FB72
:104B500002F8B3F92040B3F9047007FB02F2B3F98D
:104B60000C7007FB05F52D1405EB62370237BF10FB
:104B700007F50047DA8802FB07F7FF0B4FEAE82248
:104B800002EBEC22B3F9003002EB8302A2400232C6
:104B9000164D2D68A5EBA2024CF2503545FA04F4EF
:104BA00004FB02F4002CA7BF6300B3FBF7F3B4FBD4
:104BB000F7F35B001A1202FB02F240F6DE3404FB4C
:104BC00002F20B4C04FB03F4241404EB224202F621
:104BD000CF6203EB221300B1036001B10E60BDE8A8
:104BE000F00170470017002084060020FC1600200A
:104BF00043E3FFFF074B1B7813B1012B05D0704730
:104C00004FF40062044B1A8070474FF48052024BFD
:104C10001A8070476E0600200000002030B587B073
:104C200005460C46002300930193029300210BF0EC
:104C3000D7FE20B1284636490BF00EFC03E028468B
:104C400033490BF007FC33490BF00EFD0BF0D2FE9D
:104C5000054685EAE570A0EBE57000280BDA2D2308
:104C60008DF80C3040420DF10D010A22FFF708FDCE
:104C70000023037005E003A90A22FFF701FD0023CA
:104C80000370002DACBF20232D238DF8003003A826
:104C90000CF006FB01280BD130238DF801308DF884
:104CA00002308DF80330684603A90CF0DFFA14E0F7
:104CB000022809D130238DF801308DF80230684682
:104CC00003A90CF0D3FA08E0032804BF30238DF8C1
:104CD0000130684603A90CF0C9FA68460CF0E0FA06
:104CE0000338C5B2204669462A460CF003FB002370
:104CF000635520460CF0D4FA074B1B8823522046FC
:104D000000A929440CF0B2FA204607B030BD00BF1C
:104D10006F12033A00007A44485201082DE9F84323
:104D2000024610F8013B202BFAD0092BF8D02D2B8E
:104D300002D10246554F04E02B2B08BF01324FF041
:104D40007E571478A4F13003DBB2092B1AD8551C16
:104D50000026DFF83C81304641460BF085FC0646D4
:104D6000A4F130000BF02CFC014630460BF074FB34
:104D700006462A4615F8014BA4F13003DBB2092B95
:104D8000E9D900E000262E2C24D1501C5378A3F141
:104D90003001C9B209291CD8951C3D4CA046A3F18D
:104DA00030000BF00DFC21460BF012FD01463046A1
:104DB0000BF052FB0646204641460BF055FC0446DC
:104DC0002A4615F8013BA3F13001C9B20929E6D9F9
:104DD00000E00246137803F0DF03452B4BD15378F4
:104DE0002D2B03D102324FF0010805E02B2B14BF0D
:104DF000013202324FF000081378A3F13001C9B23A
:104E000009292FD8002404EB840403EB4404303C2C
:104E100012F8013FA3F13001C9B20929F3D9B4F561
:104E20009A7F28BF4FF49A74072C0FD925464FF06C
:104E30007E51DFF86090084649460BF015FC0146AC
:104E4000083D072DF7D804F0070401E04FF07E512C
:104E500054B10F4D084629460BF006FC0146013CB3
:104E6000F8D101E04FF07E51B8F1000F05D0304687
:104E70000BF0AEFC04E04FF07E5130460BF0F4FB3B
:104E800039460BF0F1FBBDE8F88300BF000080BF9E
:104E90000000204120BCBE4C2DE9F04F87B0814678
:104EA000884614461F460026D9E0252903D0013440
:104EB0004846C047D3E06278302A02D00234B24676
:104EC00003E0A27803344FF0010AA2F13003DBB211
:104ED000092B21D8354605E005EB850503EB450593
:104EE00014F8012BA2F13003DBB2092B02D8A2F196
:104EF00030030EE0A2F16103DBB2052B02D8A2F170
:104F0000570306E0A2F14103DBB2052B05D8A2F15D
:104F100037030A2BE0D900E035466C2A03BF22781C
:104F2000013401233346632A00F0848008D8252AFF
:104F300000F09280582A5AD0002A00F094808EE027
:104F4000732A7DD002D8642A22D088E0752A02D044
:104F5000782A4CD083E04BB107F1040B38680A2162
:104F6000324603ABFFF756FB5F4608E007F1040B40
:104F700038680A21324603ABFFF716FB5F4603ABE6
:104F80000093484641462A465346FFF795FB66E0A4
:104F900093B107F1040B3868002806DA40422D234C
:104FA0008DF80C300DF10D0300E003AB0A21324601
:104FB000FFF730FB5F4611E007F1040B386800286B
:104FC00006DA40422D238DF80C300DF10D0300E080
:104FD00003AB0A213246FFF7E7FA5F4603AB0093C3
:104FE000484641462A465346FFF766FB37E063B121
:104FF00007F1040B38681021582A14BF002201223F
:1050000003ABFFF707FB5F460BE007F1040B3868C3
:105010001021582A14BF0022012203ABFFF7C4FA63
:105020005F4603AB0093484641462A465346FFF786
:1050300043FB14E03D1D48463978C0472F460EE03B
:1050400007F1040A3B680093484641462A46334626
:10505000FFF732FB574602E048462521C04721783A
:1050600000297FF422AF07B0BDE8F08F024B9A68A9
:1050700022EA000098607047001C0020134B1B7848
:105080004F2B1BD1114B5A8840F2E4439A4217D15F
:105090000E4B1B79BE2B15D10C4B93F8E134EF2B43
:1050A00012D10020094B0A4913F8012B50408B42C2
:1050B000FAD1D0F1010038BF0020704700207047BE
:1050C00000207047002070470020704700F801085A
:1050D000E4FC010810B485B00091ADF8060010237F
:1050E0008DF80830BDF80630ADF809300098CDF8DD
:1050F0000B000DF107020DF10E00002312F8011F45
:105100000B448242FAD133F0FF0205D0DAB202EB4F
:10511000132333F0FF04F9D1DB438DF80F300B4B31
:105120001A68531C03F00703094909688B4209D028
:10513000084901EBC20204AC14E9030082E8030051
:10514000024A136005B05DF8044B704778080020F0
:10515000740800207014002030B441EA0041134B61
:105160001C68621C1A60CCB1601E4008104B53F8DA
:1051700020305A1AB2F5803F12DB0D4D09E0421E75
:10518000520855F822305C1AB4F5803F09DB04461A
:10519000104645F824300028F1D102E0204600E016
:1051A0002046034B43F8201030BC7047A417002062
:1051B000A817002070B40028B8BF4042114D85FBED
:1051C0000032C317C3EBA2520F4C04FB0200C0EB2A
:1051D0000010830085FB0360DE17C6EBA05002EBD6
:1051E000820202EB820200EB82020A8004FB00339F
:1051F000064A82FB0302DB17C3EBA2134B8070BC91
:10520000704700BF6BCA5F6B806967FFD34D621048
:10521000094B1B7873B1094B1B685B782BB1084BAA
:10522000D87C003018BF01207047064B1878C0F3B7
:105230008000704701207047040800200808002003
:1052400048020020F520002008B508480CF028F896
:10525000C0B2142808D805492022431CDBB20A54E6
:10526000152B01D01846F8E708BD00BF84160020B2
:1052700070B50446A0F10A03222B00F21E81DFE87C
:1052800013F0CF001C011C01CF001C011C011C01EC
:105290001C011C011C011C011C011C011C011C0126
:1052A0001C011C011C011C011C011C011C011C0116
:1052B0001C011C011C0123001C011C011C011C0100
:1052C0001C0129001C012900864B00201870587011
:1052D000987070BD834B5A781A44002111711D7863
:1052E00055BBD9741B79472B40F088807D4B5B7987
:1052F000502B21D17B4B9B79472B0DD1794BDB79FF
:10530000472B09D1774B1B7A412B05D1754B0122D5
:10531000DA745B79502B0FD1724B9B79522B0BD1E6
:10532000704BDB794D2B07D16E4B1B7A432B03D18E
:1053300002226C4BDA7461E06A4BDB7C012B02D0F9
:10534000022B41D05AE0AB1E072B57D8DFE803F001
:10535000040A1319222E5635624E301DFFF706FA45
:1053600070614BE05F4B1B79532B47D15D4B5A6902
:1053700052425A6142E05B4E301DFFF7F7F9B061CF
:105380003CE0584B1B79572B38D1564B9A69524207
:105390009A6133E0534B1B79302B534B1A788CBFF7
:1053A00042F0020222F002021A7027E04D4E301D38
:1053B0000021FFF7B1F9307720E04A4E301D00217F
:1053C000FFF7AAF9F08319E0072D02D0082D0FD0BE
:1053D00014E0444E301D0121FFF79EF941F21843BD
:1053E00003FB00F0414AA2FB00139B09338405E054
:1053F0003C4E301D0121FFF78FF97084394B013588
:105400001D7000225A702A2C04D1012283F8242016
:10541000002070BD334B9A7854409C70002070BDC2
:10542000304B93F82430002B3BD02E4B1B79402B74
:1054300004D9A3F137021201D2B202E01B0103F03A
:10544000F002284B5B79402B8CBF373B303BDBB203
:105450001344244A9278DBB29A4224D1214BDB7C5C
:10546000012B02D0022B13D01FE01F4B1B7813F02F
:10547000020F1CD01E4A1B4B59691160996951607B
:10548000197F1C4A1170DA8B1B4B1A8001200FE028
:10549000144B198C194A11805A8C194B1A80002010
:1054A00006E0002004E0002002E0002000E00120EF
:1054B00000220C4B83F8242070BD0A4B5B780E2B26
:1054C00004D8084A591C517013441871054B93F8BD
:1054D00024302BB9034B9A7854409C70002070BD47
:1054E000002070BDA8100020CC020020D34D621017
:1054F0003C1600208C040020441600204616002094
:10550000A2160020F0B49C4B93F82530082B00F233
:105510007381DFE803F011051C283B4D6D8E9C0064
:10552000622805D10222944B83F8252000208BE1CC
:105530000022914B83F82520B52840F05F818E4BE7
:1055400093F82520013283F8252000207CE18A4B46
:10555000032283F8252083F8260083F8270083F8A8
:105560002800002070E1844B042283F8252093F862
:1055700027200244D2B283F8272093F828100A4447
:1055800083F8282083F8290000205DE17A4B05226A
:1055900083F8252093F827200244D2B283F82720ED
:1055A00093F828100A4483F82820588500204BE1FE
:1055B000714B062283F8252093F827200244D2B2AB
:1055C00083F8272093F828100A4483F828205B8D5D
:1055D00003EB002080B2B0F5007F674B91BF588588
:1055E00000225A8583F825200020634B98852BE103
:1055F000614B93F827200244D2B283F8272093F816
:1056000028100A4483F828209B8DC72B03D85A4AB8
:105610001A4482F8300001339BB2574A9385528D69
:105620009A4240F0ED800722534B83F8252000205A
:105630000AE1514B082283F8252093F82730834252
:1056400000F0E08000204C4B83F82500FCE04A4B42
:10565000002283F8252093F82830834240F0D4803C
:10566000454B93F82930023B2E2B00F2BF80DFE838
:1056700003F0183ABDBD48BDBDBDBDBDBDBDBDBD7E
:10568000BDBD5CBDBDBDBDBDBDBDBDBDBDBDBDBDAB
:10569000BDBDBDBDBDBDBDBDBDBDBDBDBDBDBDBD3A
:1056A0006D00364A344B596B5160996B11601A6C1E
:1056B000334981FB0201D217C2EBA111314A11809B
:1056C00093F8F8302BB1304B1A7842F002021A707E
:1056D00004E02D4B1A7822F002021A700122264BA8
:1056E00083F8F92076E0244B93F8353013F0010F5E
:1056F00000F09180204B93F83430032B40F08B80E6
:1057000084E01D4B93F83B3013F0010F00F08D80C7
:10571000194B93F83A30032B40F087808FE0164BFB
:1057200093F85F20194B1A7050E0134B5A6C1849CC
:105730000A809A6C174981FB0201D217C2EB213112
:10574000154A1180012283F8FA203FE00A4B93F8B2
:105750003430124A1370102B0BD910220F4B1A70D1
:105760000E4B1F780E4A00230E4E0F4D0F4C104863
:1057700020E0002BF4D129E0A81000203C160020E6
:10578000D34D621044160020CC0200208C0400206F
:1057900046160020AD8BDB68A2160020A416002060
:1057A000D8100020A8160020B8160020C816002027
:1057B000D8160020117A9955517A5955D17A195530
:1057C00012F80C1F19540133BB42F3DB1F4B93F843
:1057D000F9306BB11D4B93F8FA305BB11B4B0022D3
:1057E00083F8F92083F8FA2001202DE000202BE037
:1057F000002029E0002027E0002025E0002023E011
:10580000002021E000201FE000201DE001220F4BBE
:1058100083F8F820DAE700220C4B83F8F8200C4BD1
:105820001A7822F002021A70D0E70022074B83F8A0
:10583000F820074B1A7822F002021A706FE7012253
:10584000024B83F8F8206AE7F0BC7047A8100020EC
:10585000CC02002010B50AF0B3FE044600210BF084
:10586000BFF838B120460A490AF0B2FF09490AF0E8
:10587000FBFE07E004F1004005490AF0A9FF0549D5
:105880000AF0F2FE0BF0FAFE034B186010BD00BFE9
:105890008096184B35FA8E3C8C000020F8B50C46EB
:1058A0001E4613680068181A0AF08AFE054630681A
:1058B0002368C01A0AF084FE184B19680AF0D4FE57
:1058C0000446284629460AF0CFFE074620462146D0
:1058D0000AF0CAFE0646384631460AF0BDFD0CF015
:1058E00059F90F490AF0C0FE0BF0AAF8069B1860A0
:1058F00005F1004021460BF0C3FF0A490AF0B4FE4F
:1059000009490AF0A9FD0BF075F80028BCBF00F5A5
:105910000C40A030079B1860F8BD00BF8C00002031
:105920002C7D8E3FA00CB34500A00C4670B50446FC
:105930001F4D00790AF040FE1E490AF049FF286019
:10594000A07B0AF039FE1B490AF042FF68601A4E3C
:10595000EE601A4D60790AF02FFE19490AF038FFFF
:105960002860E07B0AF028FE12490AF031FF6860E7
:10597000607E0AF021FE13490AF02AFFA860EE605B
:10598000114DA0790AF018FE0D490AF021FF286098
:10599000207C0AF011FE07490AF01AFF6860A07E19
:1059A0000AF00AFE07490AF013FFA860EE6070BD16
:1059B000281900200000C8420000FA443C190020C9
:1059C0000000204100007A44B019002044F25063E6
:1059D0009842C4BFA0F50C40A038034B9842BCBF0E
:1059E00000F50C40A0307047B0B9FFFF2DE9F84337
:1059F00005460E46144699465068281A0AF0E0FDFE
:105A000031680AF0E5FE07462061D6F80080A668F6
:105A10001B4B1B6898780AF0CFFD0AF041FA16A3D9
:105A2000D3E900230AF090FA02460B4600201549FC
:105A30000AF0B4FB0AF0BAFC014640460AF00CFD3D
:105A4000014640460AF0C4FE8046384631460AF018
:105A500001FD014640460AF007FE014630460AF0C5
:105A6000FBFC20616560A060D9F808100AF0FCFD1D
:105A70000AF0C0FFBDE8F883182D4454FB211940FB
:105A8000000800200000F03FF0B41E4B1B6A002B02
:105A900035D0013B1B490B6251F8237051F820307F
:105AA0001A7922F001021A714200531C0D6AAB42AE
:105AB00022D20232AA420DD251F8234051F822607C
:105AC000B4F800C03488C4EB0C0424B213EA2403F5
:105AD00038BF134651F823203E881488341B24B263
