:020000040800F2
:1000000000500020B90F0108651001082DFA000802
:100010006510010865100108651001080000000066
:100020000000000000000000000000006510010852
:10003000651001080000000035F900081DFA0008ED
:1000400065100108651001086510010865100108B8
:10005000651001086510010865100108F9F800082D
:100060006510010865100108651001086510010898
:100070006510010865100108A9F80008651001085D
:1000800001F90008651001086510010865100108F4
:10009000651001086510010865100108F1F80008F5
:1000A00065100108651001086510010899F700083E
:1000B00079F7000855F7000831F700089DF90008A6
:1000C0008DF9000895F9000885F900086510010808
:1000D0006510010859F80008BDF70008651001080F
:1000E000A5F900086510010865100108000000006E
:1000F0000000000000000000000000000000000000
:0C01000000000000000000005FF808F1A3
:100110002DE9804891B002F057FB0024059400229D
:10012000954B1A70954B9C6814F0080F00F0CE8028
:10013000914B5B681B7A042B00F2C580DFE803F06B
:10014000030306588B008C4B1A7ABDE08A4B5B7A0E
:10015000002B49D0884B00225A7293F8223013F0BA
:10016000080F43D1844B9A89C2F30A029A62DA6873
:10017000C2F3CA22DA62D9891A7C02F00102920221
:1001800042EA91121A631A8AC2F34A025A631A693E
:10019000C2F30A329A63598A1A7D02F003025202AC
:1001A00042EAD112DA639A8AC2F38A021A645A695D
:1001B000C2F34A325A64DA7D197E01F0070142EA3D
:1001C00001229A641A8BC2F3CA02DA649A69C2F3F2
:1001D0008A321A65D97E1A7F02F00F02D20142EAF2
:1001E00051025A6501226FE000226DE000226BE0AF
:1001F000614B93F8583043B35F4B002283F858208B
:1002000093F85D30012B22D15B4B93F88130102B9A
:100210000BD91022584B83F88120574991F88160FF
:1002200001F15C038031002203E0002BF5D10122B3
:100230004AE0DD78187940EA052041F8040F0132E0
:100240000233D0B28642F4D803E000223CE0002220
:100250003AE0012238E0484B93F8C4305BB3464B98
:10026000002283F8C42093F8C830A82B25D1424B34
:1002700093F8DB301BBB424E1546A6F1DC0707EBBB
:10028000450393F8CB0093F8CC3003EB00200FF03C
:1002900013FD35A3D3E900230FF0AEFE34A3D3E959
:1002A00000230FF0CBFB0FF08FFF46F8040F013552
:1002B000082DE4D105E0002206E0002204E000223F
:1002C00002E0012200E000222B4B1A7014F4804F50
:1002D0000CD0294B93F800312BB10022264B83F828
:1002E0000021012200E00022234B1A70224B1B78D0
:1002F000002B02F0CB8114F4807F02F0CB811E4CE6
:10030000D4F804311B681B6898471E4B1B68227881
:1003100032B9194AD2F808219A1A002AC0F29D83EC
:1003200003F59C432033144AC2F80831134B9B68F1
:1003300013F4807F04D0D2F804311B681B699847FE
:100340000E4B9B6842F201021A421DD10A4B1B78E8
:1003500013B3094CD4F804311B681B6898470DF09F
:1003600041FD0023237017E09A99999999991940B2
:10037000000000000070774038010020201B0020A2
:100380001402002004200020B34B93F80C2101320A
:1003900083F80C210DF026FDB04B9B6813F4805FB1
:1003A00005D0AD4B93F810310BB90BF05DFAAC4BA7
:1003B0001C68A94B5B681B7CD3B1A74D05EB4303BD
:1003C000B3F92601A0F57A70B0F57A7FA8BF4FF493
:1003D0007A7020EAE07010F021F8A24910F026F9B6
:1003E000A14910F06FF810F059FAA5F826014CE079
:1003F0009A4B9B6813F4004F47D0974BD3F84C317E
:10040000E31A002B41DB944B04F59C422032C3F8E5
:100410004C2193F8552103EB4202B2F8600180B2FF
:1004200093F86831013303F00F038B4D85F8683181
:10043000DBB2EE180FF0F2FF8C4910F0F7F810F075
:100440002DFA86F86C0105F26B1305F27B10002281
:1004500013F8011F0A4492B28342F9D112B2002A62
:10046000B8BF0F3210116428A8BF642020EAE070E2
:100470000FF0D4FF7E4910F0D9F87B4910F022F834
:1004800010F00CFA744BA3F82601744B9B6813F41C
:10049000807F15D0774B9C420CD96F4BD3F87C31C1
:1004A0001B681B6A984728B96B4BD3F87C311B68D3
:1004B0005B6A9847684BD3F87C311B685B69984747
:1004C000664BB3F8DC209B6813F4805F0FD0624B5F
:1004D000B3F92E316149B1F81811881A834212DD3F
:1004E0000A449342C2F2DA804FF0010E0DE05A4BFB
:1004F000B3F92E21594BB3F81A319A42C2F2CE8089
:100500004FF0010E01E04FF0010E5348D0F880612A
:10051000524B93F8217193F822C1B3F81A51B3F8F2
:100520001C4100F5937200F5977000239B0832F987
:10053000021FA942C4BF63F07F03DBB2A142B8BF70
:1005400043F040038242F1D1434A92F884219A4217
:1005500009D1414A92F88521F92A08D801323E4949
:1005600081F8852103E000213B4A82F885113A4A4F
:1005700082F88431D6F88030EBB192F8103153B163
:10058000BEF1000F17D13C4B1B7813F0010F12D0B6
:1005900008F0AAFE0FE0384B1B7813F0040F0AD0C6
:1005A000BCF1000F02D00BF05FF904E0BEF1000FC8
:1005B00001D10BF059F9284B93F88531142B40F0F9
:1005C000B980003718BF01272B4B1B7813F0040F9D
:1005D0001AD0D6F8803033B91F4B93F884315F2B93
:1005E00001D10BF041F9002F00F0A480D6F8803043
:1005F000002B40F09F80184B93F884317D2B40F006
:1006000099800BF031F995E0134B93F88431572B17
:100610000FD14FF47A72194B1A800F4BD3F88831EF
:1006200013F0080F40F0868000220B4BA3F88C21BA
:1006300080E00A4A926812F0040F33D05A2B31D16D
:10064000054B93F88E31DBB1034B002283F88E21EA
:10065000012283F88F216DE038010020201B00204B
:100660000420002000007A4400C07F44CDCC234207
:100670000000C842404B4C001520002010200020F4
:10068000B24A92F8903183F0010382F8903123B19D
:100690000222AE4B83F891214CE00322AB4B83F84E
:1006A000912147E05D2B02F00F805B2B02F00E8062
:1006B0005E2B42F01E8002F00BB86F2B42F02080C0
:1006C00008F012FE36E07E2B02D108F00DFE31E07C
:1006D000972B05D14FF4C8729C4BA3F8922129E0C7
:1006E000A72B07D1994B93F8942142F0040283F889
:1006F00094211FE000220D92BB2B04D10223ADF800
:10070000363002F002B8B72B05D14FF6FE73ADF8C4
:10071000363001F0FABFBE2B04D10223ADF83430DD
:1007200001F0F3BFBD2B05D14FF6FE73ADF83430A9
:1007300001F0EBBF864BD3F808B01BF0040F40D09C
:10074000824B93F89031BBB1824B1B7813F0040FAE
:1007500012D07E4BB3F92E217D4BB3F81A319A4259
:100760000ADD7A4B93F8103133B9784B3222A3F873
:100770009621002283F89021744B93F8203183B1A5
:10078000724B93F898313BB9704B93F88E311BB98B
:1007900032226E4BA3F8962101226C4B83F89821EC
:1007A0000FE06A4B93F88E315BB16A4B1B7813F004
:1007B000040F06D1654B002283F88E21012283F8B5
:1007C0008F21624BD3F88061009693F89D81B8F138
:1007D000000F01F0B48703F5977400221346944686
:1007E000964640F2A46A40F213590CE0002B0ADD51
:1007F00013F0030F07D1ACF1040C5FFA8CFC0EF17F
:10080000100E5FFA8EFE34F8020F4FFA8CF1194485
:1008100001EB4101C9B2A0F21556B6B2B6F5C77FD9
:100820008CBF002601264D1CAE4000B25045D4BFFF
:10083000002701278D1C07FA05F535434845CCBF35
:100840000020012000FA01F1294301FA0EF10A43C8
:100850000133434581F27487082BC7D101F070BF83
:1008600051F8040F02420CBF0020012003F8010FD1
:10087000A342F5D1354B93F811314BB91BF4807F6E
:100880001DD0324BD3F87C311B689B689847B0B1C0
:100890002E4BD3F8883113F0020F10D02B4BB3F846
:1008A0009E3113F0010F27D1284A0021C2F8A01170
:1008B000C2F8A41143F00103A2F89E311CE0234BBF
:1008C000B3F89E2122F00101A3F89E1193F8123192
:1008D00093B18BB21D49A1F89E3102F0020292B28F
:1008E0008AB90A460021C2F8A011C2F8A41143F047
:1008F0000203A2F89E3106E0144BB3F89E2122F0C9
:100900000202A3F89E21114BB3F89E3113F0030F9E
:100910004FF01001104A14BF516111610B4AD2F817
:10092000884114F00A0F3FD092F81421B2B103F0BD
:10093000040292B2BAB9054A43F00403A2F89E3108
:10094000B2F88C31A2F8A8310DE000BF38010020C8
:10095000201B002015200020000C014023F0040380
:10096000B74AA2F89E31B64B93F8153163B1B44B38
:10097000B3F89E3103F0400292B262B943F04003F3
:10098000AF4AA2F89E3106E0AD4BB3F89E2122F0AB
:100990004002A3F89E21AA4B93F8163123B1A84B2D
:1009A000B3F88C21A3F8AA2114F0200F01D00EF087
:1009B000F9FDA34B93F81B313BB1A14BB3F89E213A
:1009C00042F48072A3F89E2106E09D4BB3F89E216D
:1009D00022F48072A3F89E219A4B5B79082B01D0F8
:1009E0000E2B06D1964BB3F89E2122F04002A3F8BD
:1009F0009E21934B93F8AC31002B00F07C8414F0D3
:100A0000040F00F078848E4B93F81331E3B18C4BD4
:100A1000B3F89E2102F008039BB2002B40F06B84D8
:100A2000874B42F00802A3F89E21D3F8B421C3F803
:100A3000B021B3F8C221A3F8B8210022C3F8C42121
:100A4000C3F8C82100F057BC7D4BB3F89E2122F0BB
:100A50000802A3F89E2100F04EBC7949D1F8CC21C0
:100A6000501CC1F8CC01052A00F23C84DFE812F0EA
:100A70000600A4001701290482033304704AD2F847
:100A8000882112F0080F00F02D846D4AD2F8D02191
:100A90009A1A002AC0F2268403F5C334A034684DA4
:100AA000C5F8D04105F5EA7630460CF027FE304611
:100AB0003146654B1A7808F0E7F995F8941111F072
:100AC000040F1AD02B46C5F8DC4100225D4E1546B6
:100AD0009019A0F8FE5003F5EA70105A03F5F0776C
:100AE000D05303F5F477D0530232062AF0D121F027
:100AF0000401A7F5F47383F89411514B93F8EE3188
:100B0000B3B14F4A4F4BB2F8D401B3F8FE10411ABB
:100B1000A2F8D411B2F8D601B3F80011411AA2F824
:100B2000D611B2F8D811B3F80231CB1AA2F8D831E5
:100B3000434BD3F8DC31002B00F0D483E31A434A53
:100B400093421FD8424BDA6882F00802DA60002331
:100B50003B4A02F5EA71595A02F5F0701C5E08B280
:100B60008442C4BF02F5F070195202F5F4701C5EA5
:100B700008B28442BCBF02F5F47019520233062B4E
:100B8000E7D1AFE300232E4AC2F8DC312D481C1810
:100B900002F5F0715D5E02F5F471595E294401EBD6
:100BA000D1714910A4F8FE100233062BEFD10CF0DE
:100BB0008FFF0EF0B3FD95E3214AD2F8882112F0A1
:100BC000040F00F08F831E4AD2F8F0219A1A002AEF
:100BD000C0F288831A4AC2F8F03192F8F431012B3E
:100BE00015D013B1022B35D07CE3154CD4F800326C
:100BF0009847D4F804329847012384F8F431B4F8C4
:100C0000FA21D4F8F0311344C4F8F0316AE30C4C03
:100C1000D4F808329847D4F8FC319847B4F8F82152
:100C2000D4F8F0311344C4F8F031D4F80C3204F5A0
:100C3000047004F505719847022384F8F43151E3F8
:100C400038010020201B0020132000207FC3C90191
:100C5000000C01407A4B002283F8F421D3F81842AB
:100C6000D3F81012D3F81C02421CD3F820321B78A0
:100C70009A4204D10122724B83F824220022704B45
:100C800003EB8000C0F82812214403EB8200D0F867
:100C90002802091AC3F81C22C3F8181222E3684A72
:100CA000D2F8882112F0040F00F01C83644A92F8F5
:100CB0002422002A00F01683614AD2F8E8629E1BC3
:100CC00046F2A712964240F20D835D4AC2F8E8321E
:100CD0005C4B1D88002D37D01346D2F8EC22D3F898
:100CE000201209780139D3F81832B3FBF1F3114619
:100CF000002AB8BFD11DA2EBE1021344504AC2F84A
:100D0000EC321846002BB8BFD81DC0100FF086FB80
:100D10004D490FF08BFC4D4910F0E2FC0146484C68
:100D20004FF07E500FF0C4FA49490FF0CBFB0FF0A3
:100D30008FFDC4F8F002013D424B1D804FF0000EC4
:100D4000C4F8F4E2C4F8F8E23D4CD4F82052287814
:100D50000138D4F81832B3FBF0F00FF05BFB3A49DE
:100D60000FF064FC394910F0BBFC01464FF07E5097
:100D70000FF09EFA36490FF0A5FB10F0E3FB80461A
:100D80006D68D4F8FC020FF049FB29460FF09AFB7E
:100D90000746D4F8F002C0EB08000FF03FFB804696
:100DA0004FF07E5029460FF083FA014640460FF07F
:100DB00089FB014638460FF07DFA10F0C3FB05466B
:100DC000B4F90023002AB8BF5242B4F90233002B11
:100DD000B8BF5B429A42ACBF14461C46A4B21D4B3E
:100DE000186823B2FA2B01F3B5840FF017FB0746FE
:100DF00020B20FF013FB014617480FF059FA0146D5
:100E000038460FF05FFB14490FF010FC0FF020FD87
:100E10000446104B1860431EC62B06D8084B2D1AEB
:100E2000C3F80453C3F8FC023EE0054BD3F8043387
:100E3000ED1A002812DC024BC3F8FC5234E000BF6C
:100E4000380100200820002080E6C547B1DC423E82
:100E5000D048874AA800002000006144C0F5967081
:100E60000FF0DCFAB8490FF0E1FB074620460FF01F
:100E7000D5FA014638460FF025FB044628460FF008
:100E8000CDFA05464FF07E5039460FF011FA014673
:100E900028460FF017FB014620460FF00BFA0FF023
:100EA000D7FCAA4BC3F8FC02A94F38680FF0B2FA7E
:100EB0000546A8490FF006FB8246A44CD4F810035F
:100EC0000FF0ACFA8046D4F814030FF0A7FA0146ED
:100ED00040460FF0ABFB0090D4F818130FF0F2FA75
:100EE000014628460FF0EEFA0290D4F8F482D4F8C6
:100EF00020520195D5F80C90D4F8FC524FF07C515B
:100F00000FF0E0FA014650460FF0DCFA83465046F7
:100F100041460FF0D7FA014658460FF0CBF9D4F806
:100F2000F8120FF0C7F949460FF0CCFA824628466E
:100F30000FF074FA83464FF07E5049460FF0B8F92F
:100F4000014658460FF0BEFA014650460FF0B2F97E
:100F50008146C4F8F802029841460FF0ABF980468A
:100F6000C4F8F4020023C4F80833C4F80C33C4F8FE
:100F70001033C4F814333B60774B1B88002B40F0D0
:100F8000B181764B1B68013BC62B02D8C4F8B45123
:100F900005E048460FF05CFC6C4BC3F8B4016B4CA9
:100FA000D4F81C03281A0FF039FA6D490FF08AFAA9
:100FB000074630460FF02EFA014638460FF036FB52
:100FC0000FF046FCC4F81C5340F2DC539842A8BF13
:100FD0001846644A9042B8BF10460A210AF024FC21
:100FE0000746019EB568404629460FF06BFA064653
:100FF00038460FF013FA07464FF07E5029460FF09F
:1010000057F9014638460FF05DFA014630460FF0B9
:1010100051F9C4F8F40210F095FA054605210AF0DA
:1010200003FCC4F82003D4F82463B4F8002302F2CC
:101030001F3292B240F23E639A427DD8B4F8022346
:1010400002F21F3292B240F23E639A4241F28C8326
:10105000002372E03D4CD4F8B021D4F8B431D31A57
:10106000B3F5FA7FA8BF4FF4FA733F488342A8BF95
:1010700018460A210AF0D8FBD4F82833DB7803FBA2
:1010800000F00028B8BF7F30C311B3F5967FA8BF2A
:101090004FF49673354A9342B8BF134602E02B4B88
:1010A000D3F82C33581B294BD3F82823537A03FB4E
:1010B00000F3002BB8BF1F335B11B3F5967FB4BFAD
:1010C0001D464FF49675294B9D42B8BF1D46D47CF2
:1010D0001E49D1F8C43104FB0034B4F5C81FA8BFC1
:1010E0004FF4C814224B9C42B8BF1C46C1F8C441FF
:1010F000507F0FF093F90746009831460FF0DAF869
:10110000014638460FF0DEF94FF06C510FF0DAF976
:101110000FF09EFB9628A8BF96206FF0950398428B
:10112000B8BF1846281A2346002CBCBF04F5FF534D
:101130001F3300EB633300E00023044AC2F8C831D8
:10114000009FC2F82473CDE00000C842380100209F
:101150000C200020BD37863508200020A800002084
:101160000024744924FAFFFF0CFEFFFFD4FEFFFFAA
:101170000000E7FFA64B9B6813F0800F00F0B280E1
:10118000A44BD3F83033002B36D0A24C0026354682
:101190002CE0D4F8300309F04DFFD4F834331B7839
:1011A00013B1012B03D005E004F0BEF803E004F016
:1011B00005FA00E02846C8B1D4F84033C4F84433F7
:1011C000954B1B68C4F84033D4F8883143F02003B2
:1011D000C4F88831914B1B78012B02D18F4B1E70C4
:1011E00002E001228D4B1A700DF066FED4F8300338
:1011F00009F026FF0028CCD1864B93F838335A1ECD
:10120000042A6FD8DFE802F0030303482400814A70
:10121000D2F83423127812B1012A12D013E0013B24
:10122000012B10D87B4B93F839137D4A02EB011246
:10123000D3F83003516809F0F7FE04200CF03EFFAC
:1012400001E00CF049FF0022724BC3F83C2349E057
:10125000704BD3F83C230132C3F83C2393F8392375
:101260000132D2B26F49A1FB0201890801EB810171
:10127000521A83F83923684A1268C3F840230022BF
:1012800083F8542393F8942122F0020283F89421E6
:1012900001200CF013FF25E05F4B1A685D4BD3F87B
:1012A0004033D21A40F6C4139A421BD9594BD3F893
:1012B000882122F02002C3F8882105200CF0FEFED0
:1012C00010E0544BD3F8883113F0100F0AD0564871
:1012D00009F024FD06E04E4B9B6813F4003F01D05B
:1012E00009F06EF84B4BD3F8CC31052B03DD00220F
:1012F000484BC3F8CC2109F0DBFC4C4B1860444B45
:101300009B8933B1434AD2F85823821A002AC1F28A
:101310008581404C1844C4F85803D4F88051029594
:101320003B4B5B79009304F55B75D4F8603328463A
:1013300098472846294694F8722307F0A5FD3C4BB0
:101340001B88002B01F01882D4F874331B780393A8
:1013500004F55E7400263546DFF8D4B0BBF80030E3
:10136000B3F57A7F03D10023324AB3502361294B6E
:1013700003F55B7203F56D73505FF2580244F2504F
:101380000FF04CF880460194276901372761012F3F
:1013900004D1606020600027A76020E0D4F800A09E
:1013A00051460EF085FF814638460FF037F801466A
:1013B00048460FF03BF9014650460EF07BFF0746CA
:1013C0006060404639460EF073FF014648460FF014
:1013D00079F8A1680EF06EFFE0602760A0600D4A0A
:1013E00002F55B7100236B5202F57072AB52BBF8D1
:1013F0000030012B46D1019F386901281CDD0138DE
:101400000FF00CF80146F8680FF010F915E000BF76
:10141000201B002038010020041B00201220002087
:10142000E8360108CDCCCCCCA80000200420002058
:1014300010200020EC040020059810F0D9FA07468F
:10144000039858B10EF0EAFF39460FF0D9F928B1E8
:101450004FF47A726E4B1A8001F08EB96D4B03F522
:10146000707203F56D73F35803F5FA736A4F87FBD7
:101470000371DB17C3EBA113AB520A200F2101222A
:1014800007F002FF023504361434062D7FF466AFF0
:101490005F4B1A88013A1A8001F06EB901F55B7250
:1014A00001F570709C5A185A201A98520233062B74
:1014B000F4D1A2F55B73D3F8883113F0020F00F07A
:1014C0005D83A2F55B7404F57575D4F8CC332846BA
:1014D00098472846294694F8DA2307F0D5FCB4F853
:1014E0009231002B58D000231946184622461F4639
:1014F000B2F89241B4F5C87F04BF02F577740F517A
:1015000002F5777502F5757433F904E04E597644A7
:101510004E511F53D2F8E84324F8107001300431C3
:1015200002330328E4D1A5F57773B3F89231012B88
:101530002CD1A5F57773D3F8E823D3F8DC03C830B2
:10154000364981FB00E4C017C0EBE4101080D3F8EB
:10155000E003C83081FB0054C017C0EBE41050809A
:10156000D3F8E433C83381FB0361DB17C3EBE1112C
:101570002B4B1B88CB1A93800023029FA7F85C306B
:10158000A7F85E300CF0A4FA0EF0C8F8214BB3F8BF
:101590009221013AA3F89221224B9B6813F0040F89
:1015A00000F0AA801B4BB3F89641322C14D1D3F82B
:1015B000E8231188A3F8EC135188A3F8EE1392885E
:1015C000A3F8F023029DB5F85C20A3F8F423B5F846
:1015D0005E20A3F8F62301E0002C5ED0002319461C
:1015E0001A460C489E46322C1ED100F57E7600F538
:1015F00075755F5F8F5123F805E0D0F8E85325F843
:1016000012E0013204310233032AECD141E000BF81
:101610001020002038010020D34D62101F85EB51AF
:1016200000000020201B002000F57E7600F5757577
:1016300033F905C08F5967448F5123F805E0D0F87E
:10164000E85325F812E0013204310233032ACAD1EB
:10165000012C1ED1A6F57E73002283F89821012269
:1016600083F88E21022283F89121D3F8E823B3F87E
:10167000EC131180B3F8EE135180B3F8F01391809E
:10168000B3F8F423029EA6F85C20B3F8F633A6F86C
:101690005E30013CC04BA3F89641BF4B93F88F31AD
:1016A00053B3BD4B002283F88F21D3F8E813D3F84E
:1016B000F843BA4880FB0475E417C4EB25140C808A
:1016C000D3F8FC4380FB04E5E417C4EB25144C80FD
:1016D000D3F8003480FB0340DB17C3EB2010B04B82
:1016E0001B88C31A8B80029DA5F85C20A5F85E209C
:1016F0000CF0EEF90EF012F8A74CD4F8E833B4F879
:10170000D4131A888A1AA4F8D423B4F8D6135A88A2
:101710008A1AA4F8D623B4F8D8239B88D31AA4F83D
:10172000D83309F0C5FA0546D4F80434C31A039334
:1017300018460EF06FFE0490D4F808140EF0C2FEA6
:101740008246C4F80454D4F80C44019400252C4675
:101750002F46914E4FF07E5B06F55B73185F0EF0DF
:101760005DFE014650460EF0ADFE07AB5851DDF868
:1017700004E09EF8000038B30EF050FE01465846D3
:101780000EF054FF814606F58268584649460EF031
:101790008FFD55F808100EF095FE029006F5757352
:1017A000185F0EF03BFE014648460EF08BFE0146E8
:1017B00002980EF07FFD48F8050006F21C480FF075
:1017C00047F828F8040005E006F21C4306F5757298
:1017D000A25AE25206F21C43E35E03FB0377023493
:1017E0000435062CB8D1642303FB07F76C4B1B8828
:1017F00003FB03F397FBF3F7674C04F2244007A9BC
:1018000009F0E8FED4F80C546868493FBFB23B2F9A
:1018100025D84FF07E510EF04DFD01464FF07E5021
:101820000EF004FF824604F21A470024A7F21A4978
:1018300009F22446A05969680EF044FE804637F943
:10184000020F0EF0EBFD014640460EF033FD01465F
:1018500050460EF037FE305104340C2CE8D14E4B7C
:10186000D3F82C64B3F930040EF0D8FD01463046AD
:101870000EF0E4FF38B1484B93F8942142F008028F
:1018800083F8942106E0444B93F8942122F0080257
:1018900083F89421404CD4F8280431460FF01EFF01
:1018A0008046C4F83404D4F8243403F10049D4F851
:1018B0002874D4F82C64384639460EF003FE0746E7
:1018C000304631460EF0FEFD014638460EF0F2FC81
:1018D00010F08EF8014648460FF000FF0646C4F8A7
:1018E000380440460EF00AFA29A3D3E900230EF08B
:1018F00059FA0EF089FC0FF025FEA4F800033046DB
:101900000EF0FCF922A3D3E900230EF04BFA0EF0FF
:101910007BFC0FF017FEA4F80203D4F8883113F013
:10192000080F3FD004F23C4007A909F053FEA86815
:101930004FF07E510EF0BEFC01464FF07E500EF08F
:1019400075FE824604F5E9770024A7F5E97909F2E6
:101950003C46A059A9680EF0B5FD804637F9020F44
:101960000EF05CFD014640460EF0A4FC01465046D8
:101970000EF0A8FD305104340C2CE8D1A6F23C4402
:1019800004F23C4009F0D2FEA4F88C0145E000BF0F
:101990003B597E90A9E78140380100201F85EB511B
:1019A00000000020BC4C201D07A909F013FE66684A
:1019B000A568E468304631460EF084FD06462846A8
:1019C00029460EF07FFD014630460EF073FC0546B9
:1019D000204621460EF076FD014628460EF06AFCB0
:1019E00010F006F8054605990EF000FF78B9AA4CEC
:1019F000606829460EF01AFE6060A06829460EF065
:101A000015FEA060E06829460EF010FEE060A348D5
:101A100009F08CFEA24BA3F88C010498A1490EF0AA
:101A200051FD06469E4CD4F8343403F100430A932A
:101A3000D4F8383403F100430B93B4F98C010EF061
:101A4000EDFC00F100400EF059F991A3D3E9002319
:101A50000EF0A8F90EF0D8FB0C90B4F91C040EF0AF
:101A6000DDFC0D90B4F91E040EF0D8FC0E90B4F914
:101A700020040EF0D3FC0F900DA80AA909F0AAFDCE
:101A8000D4F80C345B78012B25D1874B1B7813F0ED
:101A9000040F11D1D4F848341846002BB8BF03F115
:101AA0003F00A3EBA0100EF0B9FC0F990EF002FC62
:101AB0000EF0CEFEC4F84804794BD3F84804002851
:101AC000B8BF3F3080110EF0A9FC01460F980EF010
:101AD000EFFB0F9008E0704B18880EF09FFC01465A
:101AE0000F980EF0E5FB0F906D4CD4F84C54304637
:101AF000D4F850140EF0DEFB014630460EF096FD91
:101B000006460F9829460EF0D3FB014630460EF0EC
:101B1000D9FC014628460EF0CDFB0646C4F84C041D
:101B2000D4F808730D980FF00DFDD4F854542978AB
:101B300009F07AFE3844C4F80803D4F80C730E9800
:101B40000FF000FD297809F06FFE3844C4F80C034B
:101B5000D4F8107330460FF0F5FC697809F064FE94
:101B60003844C4F81003514B1A68039D2A441A6084
:101B7000D4F814330133C4F8143307E0484B00227F
:101B8000A3F8D423A3F8D623A3F8D823444BB3F85F
:101B90006C23A3F85824B3F86E23A3F85A24009EAC
:101BA000012E10D1B3F95E14B3F9702302EB410298
:101BB0003F4981FB0271A1EBE27292B2A3F85C246F
:101BC000A3F85E2404E0364BB3F87023A3F85C243A
:101BD00009F06EF8374B1860314CD4F86434C31AEE
:101BE000A4F86034C4F8640404F058FE012384F8B7
:101BF000AC3194F82431002B5ED0B4F89E4104F04F
:101C000080039BB2002B40F0AB80274B1B7813F076
:101C1000040F23D0224B93F868341BB1204B93F868
:101C2000693463B11E4B4FF0000EC3F86CE4002220
:101C300083F8682401201849087483F86924184D32
:101C4000D5F88031181D197806F05EFC44F0800448
:101C5000A5F89E41012385F8703481E0104BD3F83C
:101C60006C0405990EF0C2FD002879D10BF030FF0D
:101C70000DF054FD0A4B0020C3F86C04002283F8D9
:101C800068240122044B1A746AE000BFAFF300809D
:101C9000399D52A246DF913F000000200400002041
:101CA00038010020BD378635152000200C2000208B
:101CB0005655555504200020914BB3F89E3103F042
:101CC00080039BB2002B3ED08D4B93F86844631E7B
:101CD000DBB2012B22D88A4ED6F8745496F8787469
:101CE0002F44D6F8800487490EF0ECFB0EF0D6FDA9
:101CF000B872D6F8840484490EF0E4FB0EF0CEFDF1
:101D0000387528780EF08AFB01460EF0D3FA0EF0F3
:101D1000C5FDA870AB7A2B732B7DAB75032C07D157
:101D20000022774B83F868240122784B1A7403E071
:101D3000764B1A7C01321A74714BB3F89E2122F053
:101D40008002A3F89E21724B1B7813F0040F07D179
:101D50006B4B93F870341BB10122694B83F86924F3
:101D6000674BD3F8885115F0080F47D0B3F8C0314E
:101D700003F1450292B28A2A3BD8614AB2F89E2109
:101D800002F0040292B2002A33D05D4AB2F88C11FC
:101D9000B2F8A821891A89B28AB210B210F1B30F31
:101DA000BCBF01F5B47292B211B2B329C4BFA2F59F
:101DB000B47292B2574991F8EC00514991F89411DC
:101DC00011F0080F1AD041B2494202FB01F24C490E
:101DD00012B2D1F88001007B00FB02F24E4880FB7A
:101DE00002401044D217C2EB20129B1AA1F8C03156
:101DF00004E0434BB3F88C21A3F8A82115F0040F9D
:101E000000F0AC803E4BB3F89E3103F008039BB268
:101E1000002B00F0A3803A4B93F8943113F0100F8D
:101E20000CD0374BD3F8C8213A4991F92501B3F8C2
:101E3000BE1100FB0212A3F8BE218FE0304BD3F895
:101E4000803193F8D720002A40D02D4AB2F8C21131
:101E5000B2F8B80102B293F8D6300CB2A41A002C32
:101E6000B8BF64429C4212DD254A0024C2F8C44136
:101E7000012482F888448AB209B200B28142C4BF08
:101E80005B429BB213441E4AA2F8C23166E01C4B6F
:101E900093F888343BB11A4BD3F8B411C3F8B0119E
:101EA000002183F88814164BD3F8C8311A44194915
:101EB000B1F8D030B1F8D2109A4203DB8A42B4BFF5
:101EC00013460B460E4AA2F8C23147E00C49B1F95D
:101ED000B821B1F9C211891A81EAE170A0EBE17071
:101EE00093F8D630984219DD054B01EBD1714910BA
:101EF000C3F82C13012183F8891483F888141BE09C
:101F00003801002000007A449A99993F000000208F
:101F100015200020201B002089888888B44B93F866
:101F200088344BB1B24BD3F8B411C3F8B0110021CF
:101F300083F8891483F88814AD4BD3F8C811114481
:101F4000AC4AB2F8D030B2F8D220994203DB9142C9
:101F5000B4BF0B461346A64AA2F8C231A44BD3F82D
:101F6000804194F8DA60002E5BD0B3F89E3113F014
:101F7000030F56D09E4BB3F8C2710097D3F8249448
:101F8000D3F82884D3F82C74384639460EF09AFAE0
:101F90008246484649460EF095FA814640464146FB
:101FA0000EF090FA014648460EF084F9804640460D
:101FB00051460EF07FF90FF01BFD014638460EF03A
:101FC00035FB07468C490EF025FC20BB38460FF048
:101FD00035FB874BD3F88C140EF074FA0FF0B2FA7D
:101FE000B0F5617FA8BF4FF461700DF075FE7EA360
:101FF000D3E900230EF000F80EF006F90FF0E0FA36
:10200000074630460EF00AFA39460EF05BFA0FF03A
:1020100099FA80B200E00020009A0244744BA3F8C1
:10202000C22115F0200F0DD0714BB3F89E3103F093
:1020300030033BB16E4B93F8943113F0010F01D094
:102040000BF06EFF6D4B1D68201D04F15001694BB4
:10205000B3F8F62004F15C03A847654B93F890347D
:10206000013B142B00F2ED81DFE813F04200EB019D
:10207000EB0115005300EB01EB012301EB01EB0138
:10208000EB01EB01EB017900EB01EB01EB01EB0163
:10209000EB019C01BD010420022109F061FA544CBE
:1020A000B4F8986400FB06F087B20420012109F01F
:1020B00057FAB4F8965400FB057087B2042009F073
:1020C0005FFA4F4C384420810520022109F048FA7C
:1020D00000FB06F086B20520012109F041FA00FB61
:1020E000056085B2052009F04BFA28446081A8E11B
:1020F0000520012109F034FA3D4BB3F8983400FB78
:1021000003F084B2052009F03BFA20443C4B58818F
:1021100097E1374CD4F89C74002009F031FA384D1F
:1021200097F90630B4F9022302FB03F3354E86FB20
:102130000312DB17C3EB221318442880012009F097
:102140001FFA97F90E30B4F9002302FB03F386FB64
:102150000326DB17C3EB26131844688071E12A4B72
:102160001B7813F0040F06D1214BD3F8A0349A88C2
:10217000234BDA810EE01E4BB3F9C211D3F8A02431
:1021800013885288994203DB8A42B4BF13460B4638
:102190001B4AD3811A4BDA891C4B1A80144BD3F893
:1021A000A4341C78002C4BD0022009F0E9F9104B24
:1021B000D3F89C34B3F91020598A904203DB0AB259
:1021C0009042B8BF02460A48D0F8A81449898A1A32
:1021D00095B2B0F8AC242EB210B2864218DD22447B
:1021E0000348A0F8AC241BE0A2EB0FE5DD169640F7
:1021F00038010020201B00208FC2753CA400002065
:10220000940000201F85EB5115200020081B0020A2
:102210002DB210B2854203DA121BBB48A0F8AC24E1
:1022200093F91630B84AB2F9AC2402FB03F3B74A6B
:1022300082FB0342DB17C3EB62131944B44B998052
:10224000B14BB3F89E3103F480739BB263B1AE4AD5
:10225000B2F8BC11AE4BD9801981B2F8C0115981C6
:10226000B2F8BE219A818BE2A74AB2F89414A84B27
:10227000D9801981B2F898145981B2F896249A81BC
:102280007EE208EBC40393F90630B5F9062002FBA1
:1022900003F387FB03E6DB17C3EB6616EE802046ED
:1022A00009F06EF93044E88001340235072CE8D19A
:1022B000C7E0984B1B7813F0040F06D1924BD3F86C
:1022C000A0349A88924BDA810EE08F4BB3F9C21199
:1022D000D3F8A02413885288994203DB8A42B4BF02
:1022E00013460B468A4AD381894BDA898A4B1A8076
:1022F000854BB3F89E3103F480739BB213B3032074
:10230000012109F02DF9804CB4F8BE6100FB06F004
:1023100087B20320022109F023F9B4F8BC517C4CA8
:1023200000FB0570E0800420012109F019F900FB91
:1023300006F086B20420022109F012F900FB0560C4
:10234000208121E00320012109F00AF96E4CB4F844
:10235000966400FB06F087B20320022109F000F921
:10236000B4F894546A4C00FB0570E080042001210D
:1023700009F0F6F800FB06F086B20420022109F00D
:10238000EFF800FB05602081032009F0F9F8604CAC
:10239000E3881844E080042009F0F2F82389184407
:1023A00020814EE00420012109F0DAF8564DB5F8FD
:1023B000963400FB03F086B2554C2681042009F0C8
:1023C000DFF8304420810520012109F0C9F8B5F873
:1023D000943400FB03F085B26581052009F0D0F844
:1023E000284460812DE0484BB3F898A44B4D03245A
:1023F0004FF002094FF001081F462046494609F0F8
:10240000AFF800FB0AF086B22046414609F0A8F872
:10241000C4F1060323F001033B44B3F8943400FBFA
:10242000036086B22E80204609F0AAF8304425F8D1
:10243000020B0134072CE0D1334BB3F8C221364BE9
:102440001A80374B9B6813F0200F00F0A08100200A
:1024500009F096F805462E4C2080012009F090F8EE
:102460006080294B93F81731002B00F09081264BA8
:10247000D3F8B0341B7813F0020F24D0224BD3F8DA
:102480009C4494F90E20B3F9001301FB02F21F499A
:1024900081FB0276D217C2EB261292B294F9064063
:1024A0006442B3F9023303FB04F381FB03E1DB175E
:1024B000C3EB211189B2164B541A25441D800A44DE
:1024C0001044588063E1104BD3F89C44104A94F9AF
:1024D0000610B3F9026306FB01F60C4981FB06E71F
:1024E000F617C6EB27163544158094F90E40B3F95C
:1024F000003303FB04F381FB0341DB17C3EB211320
:102500001844508043E100BF380100201F85EB5183
:102510009400002015200020081B00209A000020B5
:10252000201B0020B1F90200E25EE5186D889042A0
:1025300003DB2AB28242A8BF024621F8022F0833E9
:10254000402BEFD1954BD3F8B434002B64D0934B90
:1025500093F89034013B142B57D8DFE803F015565D
:10256000560B3756562D56565656564456565656B0
:10257000563A44008A4C0020218903F047FB012091
:10258000618903F043FB47E0844BD3F8B8345B78B0
:102590002BB10020824B598903F038FB3CE0814B82
:1025A0001B7813F0040F4FF000001ABF7C4B5989C1
:1025B000014603F02BFB2FE0794C0020E18803F06B
:1025C00025FB0120218903F021FB25E008F0F4FF21
:1025D00022E0734C0020218903F018FB012061895F
:1025E00003F014FB18E06E4C0020E18803F00EFBB2
:1025F0000120218903F00AFB0220618903F006FB18
:102600000320A18903F002FB06E0674B9B6813F0EF
:10261000200F01D008F0D0FF08F0A0FF634B1B781B
:1026200033B9614B9B6813F4806F01D00BF04EFE01
:102630005A4BD3F8BC0400283DF471AD08F0C4FB3C
:1026400088B15B4B1B68554AD2F8C0249A420AD223
:10265000574B1A68514B6432C3F8C024D3F8BC04FA
:10266000544908F023FF4D4C08E0D4F8BC0408F0AE
:10267000E1FC0146D4F8BC0408F0F6FCD4F8BC0434
:1026800008F0DEFC0028F0D1FDF749BD4A4B1B687D
:10269000FDF73FBE484B1B68FDF742BE3F4B002293
:1026A000C3F8A021C3F8A421C3F8C424C3F8C824E4
:1026B000C3F8CC240026C3F8D064C3F8D464C3F8AC
:1026C000D8649646FDF721BF012402E0022400E011
:1026D0000324E4B2621E344B83F8E0240BF0F8F9D3
:1026E00007F02AFC02202821224606F0CDFDFEF745
:1026F00021B8D6F88020002A3DF4DFAFFDF7E8BF0F
:10270000002F7DF4E0AFFDF7E3BF244CD4F8803117
:10271000BDF83410B3F85C200A44A3F85C20BDF87F
:102720003610B3F85E200A44A3F85E200BF0D0F90F
:102730000CF0F4FF002384F88531FDF7FBBF002285
:10274000009F07F17C01154C04F20F1304F59274FD
:10275000FEF786B84FF0FF32184B1A600F4BD3F8D4
:102760000433ED1AFEF767BB0C4B93F88934002B4A
:102770007EF495ACFEF76EBC00230849FEF78EBED2
:10278000064BD3F89C84064D03240D4F79E5034B8B
:10279000D3F89C440B490023C4E600BF3801002055
:1027A0009400002015200020201B00201420002071
:1027B000041B0020A44E010804200020A8000020D3
:1027C0001F85EB51920000202DE9F04FA1B07B4B0B
:1027D0007B4A1A6000225A6002F0ACFC18B907F07C
:1027E0007FFF0BF075F907F0A7FB764B997B002371
:1027F000089309930A934FF4E0130B93724B1A68F2
:1028000042F480321A609A6942F010029A611A46C4
:10281000136803F400330993089B01330893099B61
:102820001BB9089BB3F5A06FF2D1674B1B6813F47B
:10283000003F02D002230A931DE0634B1A6842F066
:1028400001021A60002308935F4A136803F0020331
:102850000993089B01330893099B1BB9089BB3F5A7
:10286000A06FF2D1584B1B6813F0020F02D0012366
:102870000A9300E0FEE7554B1A6842F010021A6016
:102880001A6822F003021A601A6842F002021A6003
:10289000A3F580535A685A605A685A605A6842F4DD
:1028A00080625A604A4A106820F070401060494CBB
:1028B00049480460586820F47C105860136843F05D
:1028C00000431360454BDA6822F40042DA609B68EB
:1028D00013F4004F05D0424A3F4B1A604FF4801367
:1028E00001E04FF4E0130B930A9B012B19D0022B4C
:1028F0001CD171B10B9BB3F5801F03D14FF4A01312
:102900000B9306E00B9BB3F5E01F04BF4FF40013DD
:102910000B932D4B59680B9A0A4342F480325A604C
:1029200004E0294B5A6842F460125A60264B1A6838
:1029300042F080721A601A46136813F0007FFBD0D1
:10294000214B5A6822F003025A605A6842F0020290
:102950005A605C6804F00C04082CFAD11A4B5B68CE
:1029600003F00C03042B07D0082B0AD0002B3DD119
:10297000184A1C4B1A603CE0174B1A68194B1A6036
:1029800037E0114B59685A68C1F38343023312F49C
:10299000803F05D1144A02FB03F3124A136028E07A
:1029A000094A526812F4003F0B4A126818BF5208D5
:1029B00002FB03F30B4A13601BE000BF300600204C
:1029C000C9B40008201B0020001002400020024073
:1029D0000410014000127A00140000200010014091
:1029E000001BB700B000002000093D00B24AB34B05
:1029F0001A60B34D6B68C3F30313DFF800834344DD
:102A00001979C9B2AD4B1A68CA401A60AD4AAE4BCB
:102A1000DA60AB6943F00103AB616B6A43F080732A
:102A20006B62AB6943F01C03AB6100238DF842304D
:102A300020AE4FF6FF7326F8403DA448314603F020
:102A4000E7F8A34F3846314603F0E2F8A148314693
:102A500003F0DEF8A04B5A6842F000725A60DFF8CB
:102A6000B49209F160030FCB86E80F00AB6943F025
:102A70000803AB61AB6943F00803AB6108233B611A
:102A800010233B61109811A903F0C2F8129813A902
:102A900003F0BEF809F1700999E8030086E8030025
:102AA000AB6943F00403AB61D8F800208B4B9A422A
:102AB00041F0EF839DF84630142B41F0E183102361
:102AC0008DF8463001F0DCBB002008F049F910AD6C
:102AD000834B93E8030085E80300794B9A6942F041
:102AE00008029A61109811A903F092F8284605F09F
:102AF000DBFF7C4A109BA2FB03139A0C7A4B9A6073
:102B00006E4B1A68794BA3FB02129209013A784B7B
:102B10005A60F0216C4A82F8231000259D60072737
:102B20001F60012006F0BCFC642008F0EBF8714B3C
:102B3000996801F40066704A134643F8045B5560D7
:102B4000043343F8045B1D6002238DF83A308DF89E
:102B50003B501023ADF838300423137001239370D9
:102B6000D77011F4004F0AD01223ADF83830134655
:102B700001221A715A719A71DF71022500E0012554
:102B80005E4B1A68554B9A420FD1BDF8383043F06E
:102B90002003ADF83830584B05221A726A1C5D725A
:102BA000012199720721D972D5B248480EA905F0C2
:102BB000D9FF86B120A9022321F8483D444805F0F9
:102BC000D1FF4D4B09221A736A1C5D730121997361
:102BD0000721D973D5B23A4B5A6942F001025A61C2
:102BE0009A6942F400729A61454806F087F8454BAD
:102BF0001093454B11930023129313951493022DB8
:102C000028BF802315934FF4807316934FF480638D
:102C10001793202318934FF40053199300271A9702
:102C2000374E304610A906F049F8336843F00103E7
:102C30003360364B5A6822F4702222F48072012DE0
:102C400094BF0021012142EA01225A609968304A6A
:102C50000A4042F4602242F002029A60DA6A22F4E8
:102C60007002691EC9B242EA0152DA623846012294
:102C7000DFF884E01F25072700EB0E0C9CF80210FC
:102C8000002900F08A8010F80E10561CF6B29CF84D
:102C90000380092940D9D3F80C90A1F10A0C0CEB60
:102CA0004C0C07FA0CFA29EA0A0908FA0CFC49EA62
:102CB0000C0CC3F80CC03DE000127A00B0000020FC
:102CC000001002400005FA0500ED00E00008014098
:102CD000000C01400010014000000140001BB70043
:102CE000B037010883DE1B4330060020D34D62104D
:102CF00010E000E0201B00208802002014000020CB
:102D0000080002404C2401409802002000240140A9
:102D1000FDF7F1FF38370108D3F8109001EB410CB3
:102D200007FA0CFA29EA0A0908FA0CFC49EA0C0C21
:102D3000C3F810C0062A0FD8D3F834C0013A02EB0A
:102D4000820205FA02F82CEA080C01FA02F24CEAB7
:102D500002025A63324620E00C2A0FD8D3F830C062
:102D6000073A02EB820205FA02F82CEA080C01FA93
:102D700002F24CEA02021A6332460EE0D3F82CC08B
:102D80000D3A02EB820205FA02F82CEA080C01FA6D
:102D900002F24CEA0202DA623246043010287FF472
:102DA0006BAFAB4B9A6842F480729A609A6842F0BB
:102DB00001029A609A6842F008029A601A46936883
:102DC00013F0080FFBD1A24B9A6842F004029A60FC
:102DD0001A46936813F0040FFBD19D4B9A6842F496
:102DE000A0029A609B4BB3F8E600002841F05A829B
:102DF000B3F9E830002B41F05582964BB3F9EA3035
:102E0000002B41F04F82934B9B6813F4003F64D03A
:102E1000142007F077FFAE2003F088FCA42003F015
:102E200085FC322007F06EFF202003F07FFC02209B
:102E300003F07CFCA12003F079FCC82003F076FCB1
:102E4000A62003F073FC812003F070FCAF2003F098
:102E50006DFC142007F056FFAF2003F067FC142030
:102E600007F050FFA62003F061FCAE2003F05EFCEB
:102E7000202003F05BFC002003F058FCB02003F09E
:102E800055FC402003F052FC002003F04FFC1020C2
:102E900003F04CFC4FF480650026304603F014FC30
:102EA000013DADB2002DF8D1812003F03FFCC820D8
:102EB00003F03CFCAF2003F039FC674D674BEB603F
:102EC00005F1100000210C220EF0D7F807F078FA77
:102ED00007F0EEFE624B0344AB61624B1A6842F0AE
:102EE0000E021A605B4BB3F8EE5093F8ED805E4B28
:102EF0001B68B3F85A7000225C4B1A700AF03AFC57
:102F0000002801F06E825A4B5A4A1A605A4A5A6097
:102F10005A4ADA60142D21D004D8052D28D00A2D64
:102F200021D016E0BC2D0AD0B5F5807F02D0622DED
:102F30000FD109E00022524B1A7501F04EBA01225E
:102F40004F4B1A7501F049BA02224D4B1A7501F028
:102F500044BA03224A4B1A7501F03FBA0422484B87
:102F60001A7501F03ABA0522454B1A7501F035BAC7
:102F70000622434B1A7501F030BA3D4B414A1A60A4
:102F8000414A5A60414ADA604E2D09D05D2D0CD07D
:102F9000362D14BF002240222F4B1A7701F03BBA86
:102FA00080222D4B1A7701F036BAC0222A4B1A77AD
:102FB00001F031BA2E4B364A1A60364A5A60364A08
:102FC0009A602E4ADA60622D14D004D80A2D20D0DF
:102FD000142D19D013E0BC2D07D0B5F5807F0ED18C
:102FE0000022274B5A7501F01ABA0122244B5A7558
:102FF00001F015BA0222224B5A7501F010BA0322D1
:103000001F4B5A7501F00BBA04221D4B5A7501F083
:1030100006BA05221A4B5A7501F001BAB0468AF871
:1030200000B0B8F1080F00F2EA80DFE818F03700CE
:1030300037005900AD00D100E800E800E8000900C1
:10304000084B1A6822F002021A6001F0F4B900BFBE
:1030500000240140201B0020300600202E1C0020F0
:10306000404B4C00C0020020B8020020AA040020FF
:1030700094040020C15E000851CF000890C1793D42
:1030800014000020B95F000871D00008325C8F3D49
:10309000695F0008CDCF000891CF00088DF840B0DF
:1030A000A94B1A68A94B9A4216D0532031460122E7
:1030B00010AB06F0FBFA78B19DF84030E52B0BD150
:1030C000A34B5E77A34B2B60A34B6B60012389F866
:1030D000003004238AF80030B8F1010F01F0AB8111
:1030E0000AF048FB00284FD0682006210A4610ABA2
:1030F00006F0DCFA9DF8452002F001029DF843300D
:1031000003F001035B0043EA82029DF8413003F0C3
:10311000010313430DD0012B02D18D4B9E771EE08E
:10312000022B03D101228A4B9A7718E0052007F081
:103130001FFE68200C2101220EAB06F0B7FA9DF8A5
:10314000383013F00F0302D1052007F011FE042BD5
:1031500002D17F4B9E7702E001227D4B9A777F4B15
:103160002B607F4B6B607A4B9B7F002B14BF6E23D1
:103170006F232B72022389F8003001238AF8003074
:10318000B8F1020F01F057818DF840B06E4B1A680C
:103190006E4B9A421CD01C200D21012210AB06F070
:1031A00085FAA8B19DF840302A2B01D01A2B0FD1F7
:1031B0006C4A2A606C4A6A60654AD377032389F8AF
:1031C000003002238AF80030B8F1030F01F0338198
:1031D00020AB03F840BD18203146012206F066FA04
:1031E00068B19DF84030FB2B09D1604B2B60604BE0
:1031F0006B60042389F8003001238AF8003099F8C5
:10320000003043B9B8F1000F7FF408AF594B1A688A
:1032100022F002021A604C4B1E684C4B9E4215D0A5
:10322000554B9A6942F010029A614FF40058ADF87C
:10323000408002238DF8433010238DF842304F4DEB
:10324000284610A902F0E4FCC5F814800A2007F013
:1032500059FD7720A02101220EAB06F027FA0028A5
:1032600001F0F38077201E21012209F0B1FF4FF415
:103270002F6007F03BFD0025A846DFF8D4908DF8BD
:1032800040808DF84180A5F160017720C9B202220B
:1032900010AB06F00BFA9DF840209DF8413043EA50
:1032A000022209F12003EA520235102DE7D1203B1A
:1032B000DD8D05F00F0005F47F45DD8503F11E016E
:1032C0002E33012231F802EFBEF1000F18BF0022A9
:1032D0009942F7D1002A41F0B88000231946DFF85F
:1032E00070E0A44611F0010F21F00102724419BFF1
:1032F00092F820205340128C83EA122301F0A2B8E6
:1033000013F4004F18BF83F4C0535B00013AF7D1A8
:1033100001311029E6D105430D4AD585C3F30333A6
:10332000984241F09280164B42F210721A805A80F5
:10333000144A5A60144A9A60144ADA60144A1A61AC
:10334000144A5A610DE100BF14000020001BB700B1
:103350003006002079D20008F9D00008AD4C0008F2
:1033600011CF0008095E00080DD000089D5E00081E
:10337000B1D00008C002002000100240001001403F
:1033800030030020B95D000861CE0008A95D000887
:1033900071CE0008354A00089E4B93F83030002B60
:1033A00040F0DF8003F1804303F504339A6942F073
:1033B00010029A614FF40058ADF8348002238DF862
:1033C000373010238DF83630934D28460DA902F082
:1033D0001FFC4FF48046ADF8346004238DF836307E
:1033E00028460DA902F014FCC5F810808B4B5A69D1
:1033F00022F470625A615A6942F400725A610E9660
:1034000000238DF83C3008238DF83D3001258DF8E0
:103410003E500EA805F00AFC28238DF830300F230B
:103420008DF831308DF832308DF833500CA805F01E
:10343000F5FC142007F066FC7720D0212A460DF118
:103440001F0306F033F99DF81F30724A82F84B30A3
:103450000321A2F85410552B7DD17720D1212A4683
:103460000DF11F0306F022F99DF81F30694D03F09E
:103470000F0285F84C201B0985F84D307720AA21D2
:10348000162210AB06F012F99DF840209DF841304D
:1034900043EA0223AB869DF842209DF8433043EA7D
:1034A0000223EB869DF844209DF8453043EA022331
:1034B0002B879DF846209DF8473043EA02236B870F
:1034C0009DF848209DF8493043EA0223AB879DF8D8
:1034D0004A209DF84B3043EA0223EB879DF84C20AD
:1034E0009DF84D3043EA0223A5F840309DF84E2068
:1034F0009DF84F3043EA0223A5F842309DF8502052
:103500009DF8513043EA0223A5F844309DF852203B
:103510009DF8533043EA0223A5F846309DF8542025
:103520009DF8553043EA0223A5F84830012385F879
:1035300030303B4B41F270721A8046F678125A8056
:10354000384A5A60384A9A60384ADA60384A1A610A
:10355000384A5A6105E04FF400522F4B5A6100F08F
:1035600078BF354B93F8E2300BB1344A1370324BCD
:1035700093F8E3300BB1324A13702F4B93F8E430D9
:103580000BB1304A1370304B1B6813F0020F02D09E
:103590002E4B1B6898472E4B1B68984720AB002288
:1035A00003F8402D1E200A21012206F07FF838B1D1
:1035B0009DF84030482B03D10322224B1A7004E0BF
:1035C000214B1A6822F008021A601F4B1B6813F087
:1035D000080F1AD03FB2642697FBF6F528460CF088
:1035E0001DFF804606FB157000B20CF017FF19494D
:1035F0000CF068FF014640460CF05CFE16490CF0EA
:1036000061FF044B986500F02EBF0022014B9A65C4
:1036100000F029BF300600200010014000000140EA
:1036200030030020F15D0008D5CE0008C95D000818
:1036300081CE0008BD4B0008201B0020AA040020FA
:103640001205002013200020C002002000050020E9
:10365000940400208988883C00002041EB6883F0B6
:103660001003EB60EB6883F00803EB60304607F073
:1036700049FB404607F074FB304607F043FB00204F
:1036800007F06EFB7B1E13F0FF07E7D1844B082287
:103690001A6110221A61834B1B6893F90C000CF01D
:1036A0001BFB7BA3D3E900230CF07CFB0CF0ACFDEF
:1036B0000DF012FF06467C4D28880CF0AFFE314617
:1036C0000CF000FF0DF03EFF784B188028880CF0BE
:1036D000A5FE014676480CF0A9FF76490CF0A6FF3E
:1036E000754B1860754BD8680CF008FB68A3D3E9DC
:1036F00000230CF057FB68A3D3E900230CF052FB26
:103700000CF082FD6E4B18606E4B5A796E490A7050
:1037100003F110006D49C8656D4901EBC20292F8D2
:1037200081106C4A11609B6813F0200F02D00122B7
:10373000684B1A60684B1B6813F0080F00F0228179
:103740001022574B5A61654B1B68654A934213D14F
:10375000644B9A6942F008029A614FF48053ADF8C5
:10376000383002238DF83B3004238DF83A304C4832
:103770000EA902F04DFA0FE05B4A93420CD1594B6F
:103780009A6942F010029A6120A94FF4804321F80F
:10379000483D564802F03CFA322007F0B3FA1E20AA
:1037A0000021112209F014FD1E200121602209F0E0
:1037B0000FFD642007F0A6FA10A809F09FFF4FF054
:1037C0000A0800252E462F464FF01E0BDFF820A1D9
:1037D000DFF8CC9058460221012209F0F9FC322092
:1037E00007F090FA10A809F089FFBDF940201744AE
:1037F000BDF942100E44BDF944301D449142B8BF9A
:103800000A469A42B8BF1346534509DBD9F80C3033
:1038100083F01003C9F80C30B8F10108DAD102E0E6
:103820004FF0000801E04FF001081E200021122295
:1038300009F0CEFC4FF00A094FF01E0BDFF860A034
:1038400058460221012209F0C3FC322007F05AFA3F
:1038500010A809F053FFBDF94020BF1ABDF942106E
:10386000761ABDF94430ED1A9142B8BF0A469A4221
:10387000B8BF13461E498B423CDBDAF80C3083F0AC
:103880001003CAF80C30B9F10109D9D134E000BFF6
:10389000399D52A246DF913F000000A0F7C6B03E1E
:1038A000000C0140440500200000002068050020B5
:1038B0000AE81C4100401C465004002094040020EB
:1038C00040050020201B0020C805002030060020F5
:1038D00038370108EC050020C00200201400002049
:1038E00000127A0000100240001BB70000100140D7
:1038F00001F0FFFF4FF00008DFF8609338460CF04E
:103900008DFD0146C3480CF091FE20F00040C9F83F
:10391000180030460CF082FD0146BE480CF086FED1
:1039200020F00040C9F81C0028460CF077FD014645
:10393000B9480CF07BFE20F00040C9F820001E20A2
:103940000021702209F044FC1E200121202209F0F0
:103950003FFC1E200221002209F03AFC642007F0FF
:10396000D1F9B8F1000F07D14FF07E52C9F81820F5
:10397000C9F81C20C9F820201022A84B1A61012286
:10398000A74B1A704023ADF8403010238DF8423019
:1039900002238DF84330A14810A902F039F9002222
:1039A000A04B1A60A04B03F18001A04A43F8042FFA
:1039B0008B42FBD19E4D00262E66F0229D4B83F854
:1039C00022209D4831464FF4B0720DF056FB4FF463
:1039D0000073ADF8403010238DF8423002238DF88B
:1039E00043308E4810A902F013F9944BDA6942F083
:1039F0000702DA619A6942F4006242F00C029A61AD
:103A0000C5F88460C5F8AC60C5F8A860A3F5634349
:103A1000C83BC5F8B030143BC5F8B430884F3846C1
:103A200006F0B2F938463146324606F0BBF8384661
:103A30003146844A334602F03DFB05F1B800824925
:103A400002F0A0F98148C5F8C00007F089F805F137
:103A5000C400FF2115220DF010FB012385F8D93099
:103A600085F8C4607A4B1B6813F0020F08D001215F
:103A700085F8C510032185F8D910022185F8C610F4
:103A800013F0040F09D06A4A92F8D910481C82F842
:103A9000D9000A44032182F8C41013F00A0F15D08C
:103AA000634B93F8D9209918042081F8C400511C65
:103AB000C9B21944052081F8C400D11C83F8D9107B
:103AC0000232D2B21344062283F8C420614B9B68B1
:103AD00013F0200F09D0564A92F8D910481C82F8EA
:103AE000D9000A44072182F8C41013F0800F0FD0C8
:103AF0004F4A92F8D9105018092580F8C450881CF4
:103B000082F8D9000131C9B20A440A2182F8C410EE
:103B1000504A5279082A01D00E2A09D1444A92F813
:103B2000D910481C82F8D9000A440B2182F8C4102D
:103B30003F4991F8D920501CC0B281F8D9001144F6
:103B40000C2581F8C45013F0040F07D03849023215
:103B500081F8D9200144102281F8C420344991F819
:103B6000D920501CC0B281F8D9001144122581F827
:103B7000C450384991F8411100290CBF002303F0CB
:103B800001033BB12A4B023283F8D92003441322AC
:103B900083F8C420264890F8D9305A1C80F8D920E0
:103BA0000344142283F8C420DC30002198220DF055
:103BB00064FA4FF00009DFF89CB0DBF82C214FF0DD
:103BC000000A5546012603270095304629463B4604
:103BD00008F086F88046002840F05184BAF1000FC2
:103BE00040F053844FF49642B246EDE709F10106E6
:103BF000F6B24C2202FB09F9174D4D44284600212C
:103C00000DF03BFA144A42F80980012385F84A3046
:103C1000B146D2E700406F4601C05E46000C01404D
:103C2000260300207C1A00207C1A00203800002087
:103C30003006002000ED00E0741800200010024063
:103C400070380108C95C000829480008481C002099
:103C5000C0020020201B00200C07002014000020C0
:103C6000002100910220B268032308F039F89A4B32
:103C7000C3F8740100231B931C931D931E93ADF88E
:103C80007C30964B5B790E2B01D0082B02D101239F
:103C90008DF87530914B9B6813F4005F23D100269B
:103CA0008F4D05F160083746705D022809D005F197
:103CB000100319461A78824206D010334345F8D1D2
:103CC00001E0294600E039460AF026F883681B78AF
:103CD000012B03D01036602EE6D101E0012300E075
:103CE00000238DF86F307D4B9A68C2F340018DF848
:103CF0007010C2F380118DF87110C2F340318DF84D
:103D00006C10C2F3C0318DF86E10C2F300418DF813
:103D1000721002F001018DF86D10724909680031CE
:103D200018BF01218DF873106F49096891F82611A9
:103D3000C1F380018DF87410B3F8DE10ADF8761081
:103D4000B3F8E030ADF878304FF47A73ADF87A30EC
:103D500012F4805F04D0614BB3F8DA30ADF87A30FA
:103D6000B1F5FA7F84BF0023ADF87A305B48B0F834
:103D70001811ADF87C10584B90F8205183F8785109
:103D800000F58770C3F87C01584DC3F880510025B9
:103D9000A3F8865183F8885103F5C075544E3560F9
:103DA000C3F88C51534B1860534B03F1240023F894
:103DB000021F8342FBD15149514B196012F0080F89
:103DC00000F0BF80454B93F81631042B00F2B08011
:103DD000DFE803F0030334566C007BB1012B1AD1EA
:103DE0003D4B032283F89021072283F89121012281
:103DF00083F892210C22434B1A700CE0364B0222BE
:103E000083F89021032283F89121002283F89221E4
:103E100007223C4B1A700023009308203A494FF4C4
:103E2000E132012307F05CFF2B4BC3F89401374AC2
:103E3000C3F89821031C18BF01237AE001230093E3
:103E400008203349334A052307F04AFF224BC3F8C1
:103E50009C01224BB3F81811A1F57771490000229B
:103E60002D4BD1500432302AFBD12C4A1A4BC3F8C7
:103E700098210C22234B1A70031C18BF012358E011
:103E800000230093082026494FF4E132012307F074
:103E900027FF114BC3F8A001224AC3F89821102232
:103EA000184B1A70031C18BF012342E00023009333
:103EB00008201D494FF4E132012307F011FF064BA2
:103EC000C3F8A401194AC3F8982108220D4B1A70AF
:103ED000031C18BF01232CE030060020201B00200B
:103EE00038370108EC050020B802002080380108AE
:103EF000B40200203C0100205E020020B007002038
:103F00003C020020D4020020FD8600080D86000837
:103F100019880008A086010060010020D9860008E9
:103F20009D870008C98600084D870008B5860008EF
:103F3000002333B9082001F0F5F80022AA4BC3F89A
:103F40009821AA4B9B6813F4804F06D00821A84AF9
:103F50001170A849A44AC2F8981103F0010203F4B1
:103F6000005142F2010003420BD0A34D9E48C0F81D
:103F7000985111B108209E49087012B10C219C4A39
:103F800011709B4A11780439517013F0800F49D099
:103F90009A4B954AC2F8A831D9680023984A07E09D
:103FA0000133DBB2042B03D90022964B5A7006E092
:103FB00002EB031040688842F2D1924A5370924D4E
:103FC000924B2B6000200AF079F8914B1A688D4BC8
:103FD0009A6000225A602B681B789342894B5A786A
:103FE000874B03EB02134FF0000100914FF01000DC
:103FF0005A680CBF0123032307F072FE854B18603B
:1040000018B9802001F08EF802E001200AF056F87D
:10401000814B186800F59472734BC3F8AC210430DF
:1040200001F0E0FC714B9B6813F4007F0ED013F499
:10403000005F14BF79487A4802F08EFB794B1A680A
:1040400042F010021A600022774B1A60674B9B689F
:1040500013F4806F72D0042004F0F4FF01460420B2
:1040600009F05AFE20B143681B7A03F0010300E017
:1040700000235D4A82F8B0315C4B9B6813F4806F7B
:104080000AD0042004F0DEFF0146042009F044FEBB
:10409000003018BF012000E00020534B83F8B1012D
:1040A000D3F8B4311A78032A46D8DFE802F00206C2
:1040B0002E324D4AC2F8B8313EE04B4DC5F8BC3106
:1040C0004FF02C0805F5E070002142460CF0D5FFBA
:1040D0007C2785F8C0718E2385F8C131E02385F8EF
:1040E000C3317D2685F8EB6105F5F6700021424667
:1040F0000CF0C3FF85F8EC718A2385F8ED31A0231D
:1041000085F8EF3185F8176216E0374AC2F81832A1
:1041100012E0354AC2F81C3200253D4E306880B2AC
:10412000A9B201F075F801350B2DF7D12E4B002205
:10413000C3F82022C3F8242207F05EFE06F0B8FD83
:104140003A4B1860294B5B79052B03D14FF4C872A9
:10415000374B1A804FF47A72364B1A80C822364B8E
:104160001A80364B1A7842F008021A70344B1A78CB
:1041700022F002021A701C4B03F50A71314A1160D9
:10418000D3F828324BB90021009108464FF4614220
:10419000032304F085F82B4B18602A4B18682A4932
:1041A00007F084F9114B9B6813F0020F5CD0274A8B
:1041B0000D4BC3F89028282502F030FB284606F066
:1041C000A1FD013CF8D1084B93F89408074B93F8F4
:1041D000051181423CD84A000223824239D801337A
:1041E0000A44082BF9D134E030060020201B0020BF
:1041F000D4020020ED860008F9860008481C002043
:10420000E8360108700400206C040020461C0020E1
:10421000041B002068040020B8020020A838010810
:10422000B4380108C0020020A80000209C0500202E
:10423000CA0200201020002008200020CC0200200C
:1042400015200020F4050020D44F0108241C002074
:104250000123DBB2984A1370984A92F8062102FBB8
:1042600003F3974AA2F89638944B9B6813F4003FE7
:1042700000F01881924BDA7C42F00102DA7411E10D
:10428000109811A901F0C4FC8E4A8F4B1A60FEF7FA
:104290001BBC109811A901F0BBFC8C4A8A4B1A6018
:1042A000FEF712BC00228A4B83F82C2000B20BF0E0
:1042B00013FD7FA3D3E900230BF074FD0BF0A4FFE3
:1042C00007467E4DB5F9E8000BF006FD78A3D3E96B
:1042D00000230BF067FD0BF097FF0646B5F9EA00E7
:1042E0000BF0FAFC72A3D3E900230BF05BFD0BF09B
:1042F0008BFF054638460DF0EFF8804638460DF046
:104300005FF9814630460DF0E7F8074630460DF07C
:1043100057F9064628460DF0DFF8834628460DF08B
:104320004FF98246404659460CF0CCF80290404680
:1043300051460CF0C7F80390484659460CF0C2F8B5
:104340000490484651460CF0BDF805905C4D384647
:1043500059460CF0B7F8C5F8980807F100415046E7
:104360000CF0B0F8C5F89C08C5F8A0683046049970
:104370000CF0A8F8014603980BF09CFFC5F8A408C0
:10438000304605990CF09EF8014602980BF090FF1C
:10439000C5F8A80809F1004138460CF093F8C5F8B3
:1043A000AC08304602990CF08DF8014605980BF0E8
:1043B0007FFFC5F8B008304603990CF083F801463A
:1043C00004980BF077FFC5F8B408404639460CF066
:1043D00079F8C5F8B808FEF716BD01223D4B1A70F2
:1043E00020E0192006F08EFC68200F21012210AB7E
:1043F00005F05CF99DF84030D32B3EF4BEAD19209A
:1044000006F080FC68201521002208F0E1FE00285B
:104410007EF4D0AD24E001222E4B1A7002E001227E
:104420002C4B1A70DFF8C0A00026B346DFF8BC9012
:10443000294DFEF7F4BD99F80030002B3EF4EEADA7
:10444000FEF7E9BE6246FEF75BBF244B9E427EF458
:10445000A3AF234B1A6822F004021A60FFF781B859
:10446000032006F085FC1F4B10225A6108221A61B6
:104470000A271D4619264FF00108FFF7EFB8B9F1DA
:10448000010F3FF69AABFFF7B1BB0D4DD5F8C060F9
:10449000022006F09FFBC5F8740100287FF4EAAB08
:1044A000FFF7DEBB21B0BDE8F08F00BFAFF30080A7
:1044B000399D52A246DF913FAC000020201B002016
:1044C000300600200DAA00081820002029AA0008A4
:1044D00014000020AA04002000050020001BB700E3
:1044E000C0020020000C0140120500201620002010
:1044F0002DE9F001884228BF012404D201240026BE
:104500004FF030080AE001FB04F4B0FBF4F58D42F3
:10451000F9D21F46ECB1F2E71F463B46B0FBF4F57B
:1045200004FB1500B4FBF1F41EB9002D01DC002CD6
:10453000F2D15F1C092D06DD002A0CBF4FF0570C8D
:104540004FF0370C00E0C44665441D700136002C66
:10455000E3D100233B70BDE8F00170472DE9F00185
:10456000884228BF012404D2012400264FF03008DD
:104570000AE001FB04F4B0FBF4F58D42F9D21F46CA
:10458000ECB1F2E71F463B46B0FBF4F504FB150027
:10459000B4FBF1F41EB9002D01DC002CF2D15F1C3C
:1045A000092D06DD002A0CBF4FF0570C4FF0370CD9
:1045B00000E0C44665441D700136002CE3D10023A1
:1045C0003B70BDE8F001704738B505461446B0FBB6
:1045D000F2F010B1FFF7F8FF0146B5FBF4F304FB6E
:1045E0001354034B1B5D084600F8013B38BD00BF68
:1045F000D84F010803685A1C02601970704700BF49
:104600002DE9F04105460E46069F002B0CBF4FF0EA
:1046100020084FF030083B784BB1002A1CDD3B46A8
:10462000013A13F8010F10B1002AF9D114E0541E19
:10463000002A06DD28464146B047013CB4F1FF3F61
:10464000F8D1397851B13C462846B04714F8011FDB
:104650000029F9D1BDE8F0813978F4E7BDE8F081AF
:10466000F0B40478E4B10022134617462E2C03D18F
:104670000133B9B1C418675402EB820255002A46CF
:10468000C45CA4F13006F6B2092E9CBFA5F130023D
:1046900012190E2B08D80133C45C002CE6D105E0BA
:1046A000002004E0104602E0002000E01046F0BCCC
:1046B000704700BFF0B4384B1D6801786B185B7809
:1046C00013F0040F12D000F10F0398425FD2431C85
:1046D00000F1100601E0B3425BD01C4613F8011B49
:1046E0006A18527812F0040FF5D100E00446231A3C
:1046F000022B11DD421CA21A002305E01BB103EBC3
:1047000083035B00DBB2013A10F8016B303E3344A7
:10471000DBB2022AF2DC00E00023A0420ED200222B
:1047200004E01AB102EB82025200D2B210F8016B1F
:10473000303E3244D2B2A042F3D100E000222E2912
:1047400015D101340420002101EB8101490089B217
:104750002678AF197F7817F0040F03D00134303971
:10476000314489B2013810F0FF00EDD100E00021A2
:104770000A4800FB02F2642000FB01210848A0FB6C
:104780000120084A02FB03F303EB900002E0002043
:1047900000E00020F0BC7047CC00002040420F0039
:1047A000ABAAAAAA80969800F0B41E4B1B6A002BF5
:1047B00035D0013B1B490B6251F8237051F8203072
:1047C0001A7922F001021A714200531C0D6AAB42A1
:1047D00022D20232AA420DD251F8234051F822606F
:1047E000B4F800C03488C4EB0C0424B213EA2403E8
:1047F00038BF134651F823203E881488341B24B256
:10480000002C09DD41F820205A00541CAC4202D291
:1048100018462346DDE71846024B43F82070F0BCEB
:10482000704700BF94060020F8B53A4A936C526C6A
:10483000934251D0374C002604EB83035D6A2B79F9
:1048400013F0010F13D0216A89B123689D4209D169
:1048500004E053F8042F954206D100E03046FFF7FC
:10486000A3FF04E02346304601308842F1D16B8833
:104870002B80A36C013303F00703A3646E71206ADD
:10488000431C2362D8B1431E5B0854F823201788C9
:104890002988791A09B2002913DD0BE0591E49084D
:1048A00054F8212017882888381A00B2002809DD1A
:1048B00018460B4644F82020002BEFD102E00346B7
:1048C00000E0034644F823502B7943F001032B7199
:1048D000A36C626C9342AFD10E4C002505E02846D4
:1048E000FFF762FFB36830469847236A8BB12668AA
:1048F0003388226D12889A1A12F4004FEFD1E26CBD
:104900001380236D1A8823681B889B1A13F4004FA9
:10491000EBD1F8BD9406002010B40346026B5AB1E7
:10492000C268016C541A4069005DC0B201390029A7
:1049300008BF114619640AE0016A4269505CC0B2BE
:104940000131DA68B1FBF2F402FB14121A625DF86D
:10495000044B7047436B13B190F844007047826A70
:10496000436A9A4214BF002001207047036B3BB199
:1049700059680369013B026C881A1840C0B270473D
:104980000369013BC169026A881A1840C0B27047C6
:10499000704700BF426A806A824214BF0020012033
:1049A000704700BF4171704710B504468160094BE4
:1049B000B3FBF1F3C0F83832002343EA11430A0491
:1049C00010461946044A00230BF088FFC4F83C0245
:1049D00010BD00BF0040420F40420F0010B44379A9
:1049E00013F0010F0ED0036AC2699A420CD04269DB
:1049F000D15C0133C268B3FBF2F402FB14330362EF
:104A0000084602E0002000E000205DF8044B7047FB
:104A1000437913F0010F09D0C269036AD21AC3683F
:104A2000B2FBF3F003FB1020C0B2704700207047C8
:104A3000704700BF2DE9F00F84B003908C465B4EA9
:104A400073895B4A1768A7EB03274FEAE779B288B7
:104A5000002545EA124514043289A2FB070102FB36
:104A60000911C20942EA4162CB11A01845EB0301CA
:104A7000CDE900017288002545EA5245D403F28849
:104A8000A7FB020102FB0911020A42EA01620B12B2
:104A900014EB020A45EB030BB289A7FB020102FBF0
:104AA0000911C20D42EA4122CB1512F5FA6643F113
:104AB0000007B6F5FA6F77F1000157DA02FB03F44D
:104AC000A2FB020101EB44018D0045EA90758400D0
:104AD000001941EB05014D104FEA3004DDE9008972
:104AE000B8EB040869EB0509CDE90089840844EABC
:104AF00081748D10BAEB040A6BEB050B2D484FF057
:104B0000FF31864277EB010930DA40F6AC500021E4
:104B1000121843EB010302FB03F1A2FB022303EB98
:104B20004103544263EB4305E90041EA5471E0005C
:104B3000801841EB0301DDE90045241845EB010530
:104B4000CDE90045941843EB0305A90041EA9471AF
:104B5000A000001941EB0501801841EB0301491049
:104B60004FEA3000BAEB000A6BEB010B124B1A68EC
:104B7000A2FB0A0102FB0B11420D42EAC1224B15B6
:104B8000DDE90089B2EB080263EB0903D00B40EAD0
:104B90004340039B03B11860BCF1000F01D0CCF877
:104BA000006004B0BDE8F00F704700BF5006002061
:104BB000AC15002024FAFFFFB01500202DE9F0010C
:104BC000364B1C88364B5A89A41A1A8902FB04F406
:104BD000E413B3F91250ED02B3F91420224495FB0B
:104BE000F2F22244DA6102EB8206760008363611D0
:104BF000A2F57A6202FB02F52D13B3F90EC00CFB8D
:104C000005FCB3F9028008FB02F8B3F92040B3F9C0
:104C1000047007FB02F2B3F90C7007FB05F52D14C5
:104C200005EB62370237BF1007F50047DA8802FB51
:104C300007F7FF0B4FEAE82202EBEC22B3F9003052
:104C400002EB8302A2400232164D2D68A5EBA202B0
:104C50004CF2503545FA04F404FB02F4002CA7BFD3
:104C60006300B3FBF7F3B4FBF7F35B001A1202FB2C
:104C700002F240F6DE3404FB02F20B4C04FB03F4B8
:104C8000241404EB224202F6CF6203EB221300B19C
:104C9000036001B10E60BDE8F0017047BC15002053
:104CA00064060020B815002043E3FFFF074B1B7884
:104CB00013B1012B05D070474FF40062044B1A80EA
:104CC00070474FF48052024B1A8070474E06002006
:104CD0000000002030B587B005460C460023009345
:104CE0000193029300210BF0A9FD20B1284636491B
:104CF0000BF0E0FA03E0284633490BF0D9FA3349C8
:104D00000BF0E0FB0BF0A4FD054685EAE570A0EB97
:104D1000E57000280BDA2D238DF80C3040420DF1A0
:104D20000D010A22FFF750FC0023037005E003A9E0
:104D30000A22FFF749FC00230370002DACBF20239B
:104D40002D238DF8003003A80CF0D8F901280BD1E1
:104D500030238DF801308DF802308DF8033068462D
:104D600003A90CF0B1F914E0022809D130238DF821
:104D700001308DF80230684603A90CF0A5F908E06F
:104D8000032804BF30238DF80130684603A90CF0D6
:104D90009BF968460CF0B2F90338C5B22046694663
:104DA0002A460CF0D5F90023635520460CF0A6F9ED
:104DB000074B1B882352204600A929440CF084F994
:104DC000204607B030BD00BF6F12033A00007A449E
:104DD000005001082DE9F843024610F8013B202B52
:104DE000FAD0092BF8D02D2B02D10246554F04E002
:104DF0002B2B08BF01324FF07E571478A4F13003FB
:104E0000DBB2092B1AD8551C0026DFF83C8130464E
:104E100041460BF057FB0646A4F130000BF0FEFABA
:104E2000014630460BF046FA06462A4615F8014B75
:104E3000A4F13003DBB2092BE9D900E000262E2CC7
:104E400024D1501C5378A3F13001C9B209291CD8D0
:104E5000951C3D4CA046A3F130000BF0DFFA214633
:104E60000BF0E4FB014630460BF024FA06462046E0
:104E700041460BF027FB04462A4615F8013BA3F1F7
:104E80003001C9B20929E6D900E00246137803F0DF
:104E9000DF03452B4BD153782D2B03D102324FF03A
:104EA000010805E02B2B14BF013202324FF000083D
:104EB0001378A3F13001C9B209292FD8002404EBDB
:104EC000840403EB4404303C12F8013FA3F13001A9
:104ED000C9B20929F3D9B4F59A7F28BF4FF49A745F
:104EE000072C0FD925464FF07E51DFF86090084619
:104EF00049460BF0E7FA0146083D072DF7D804F0C4
:104F0000070401E04FF07E5154B10F4D0846294689
:104F10000BF0D8FA0146013CF8D101E04FF07E5188
:104F2000B8F1000F05D030460BF080FB04E04FF0E5
:104F30007E5130460BF0C6FA39460BF0C3FABDE895
:104F4000F88300BF000080BF0000204120BCBE4CA1
:104F50002DE9F04F87B08146884614461F4600264B
:104F6000D9E0252903D001344846C047D3E0627810
:104F7000302A02D00234B24603E0A27803344FF064
:104F8000010AA2F13003DBB2092B21D8354605E036
:104F900005EB850503EB450514F8012BA2F1300361
:104FA000DBB2092B02D8A2F130030EE0A2F16103BB
:104FB000DBB2052B02D8A2F1570306E0A2F14103B0
:104FC000DBB2052B05D8A2F137030A2BE0D900E0AC
:104FD00035466C2A03BF2278013401233346632A05
:104FE00000F0848008D8252A00F09280582A5AD0F0
:104FF000002A00F094808EE0732A7DD002D8642AC3
:1050000022D088E0752A02D0782A4CD083E04BB1B8
:1050100007F1040B38680A21324603ABFFF79EFA0A
:105020005F4608E007F1040B38680A21324603ABFB
:10503000FFF75EFA5F4603AB0093484641462A46B7
:105040005346FFF7DDFA66E093B107F1040B3868C9
:10505000002806DA40422D238DF80C300DF10D03A7
:1050600000E003AB0A213246FFF778FA5F4611E011
:1050700007F1040B3868002806DA40422D238DF82A
:105080000C300DF10D0300E003AB0A213246FFF7AF
:105090002FFA5F4603AB0093484641462A465346E3
:1050A000FFF7AEFA37E063B107F1040B386810215F
:1050B000582A14BF0022012203ABFFF74FFA5F46C4
:1050C0000BE007F1040B38681021582A14BF0022A6
:1050D000012203ABFFF70CFA5F4603AB009348468F
:1050E00041462A465346FFF78BFA14E03D1D4846D9
:1050F0003978C0472F460EE007F1040A3B68009359
:10510000484641462A463346FFF77AFA574602E0B8
:1051100048462521C047217800297FF422AF07B0F7
:10512000BDE8F08F024B9A6822EA00009860704751
:10513000201B0020134B1B784F2B1BD1114B5A887F
:1051400040F2E4439A4217D10E4B1B79BE2B15D186
:105150000C4B93F8E134EF2B12D10020094B0A4994
:1051600013F8012B50408B42FAD1D0F1010038BF27
:1051700000207047002070470020704700207047D3
:105180000020704700F80108E4FC010810B485B065
:105190000091ADF8060010238DF80830BDF80630F8
:1051A000ADF809300098CDF80B000DF107020DF1B4
:1051B0000E00002312F8011F0B448242FAD133F093
:1051C000FF0205D0DAB202EB132333F0FF04F9D16A
:1051D000DB438DF80F300B4B1A68531C03F00703A9
:1051E000094909688B4209D0084901EBC20204ACA5
:1051F00014E9030082E80300024A136005B05DF879
:10520000044B70475408002050080020DC15002093
:1052100030B441EA0041134B1C68621C1A60CCB1E7
:10522000601E4008104B53F820305A1AB2F5803FE8
:1052300012DB0D4D09E0421E520855F822305C1A6F
:10524000B4F5803F09DB0446104645F824300028B9
:10525000F1D102E0204600E02046034B43F8201045
:1052600030BC7047F8160020FC16002070B40028EF
:10527000B8BF4042114D85FB0032C317C3EBA252A9
:105280000F4C04FB0200C0EB0010830085FB0360A1
:10529000DE17C6EBA05002EB820202EB820200EBAB
:1052A00082020A8004FB0033064A82FB0302DB17FA
:1052B000C3EBA2134B8070BC704700BF6BCA5F6B1F
:1052C000806967FFD34D6210094B1B7873B1094B9E
:1052D0001B685B782BB1084BD87C003018BF0120CD
:1052E0007047064B1878C0F3800070470120704764
:1052F000E0070020E40700204802002015200020DD
:1053000008B508480BF0FAFEC0B2142808D80549C1
:105310002022431CDBB20A54152B01D01846F8E7B3
:1053200008BD00BFD014002070B50446A0F10A03E8
:10533000222B00F21E81DFE813F0CF001C011C01BC
:10534000CF001C011C011C011C011C011C011C01C3
:105350001C011C011C011C011C011C011C011C0165
:105360001C011C011C011C011C011C011C0123004F
:105370001C011C011C011C011C0129001C0129002D
:10538000864B002018705870987070BD834B5A7807
:105390001A44002111711D7855BBD9741B79472B14
:1053A00040F088807D4B5B79502B21D17B4B9B79E2
:1053B000472B0DD1794BDB79472B09D1774B1B7AE2
:1053C000412B05D1754B0122DA745B79502B0FD13B
:1053D000724B9B79522B0BD1704BDB794D2B07D144
:1053E0006E4B1B7A432B03D102226C4BDA7461E0C3
:1053F0006A4BDB7C012B02D0022B41D05AE0AB1E62
:10540000072B57D8DFE803F0040A1319222E56356C
:10541000624E301DFFF74EF970614BE05F4B1B7918
:10542000532B47D15D4B5A6952425A6142E05B4E61
:10543000301DFFF73FF9B0613CE0584B1B79572B0B
:1054400038D1564B9A6952429A6133E0534B1B79DB
:10545000302B534B1A788CBF42F0020222F002022A
:105460001A7027E04D4E301D0021FFF7F9F8307714
:1054700020E04A4E301D0021FFF7F2F8F08319E0DA
:10548000072D02D0082D0FD014E0444E301D01210D
:10549000FFF7E6F841F2184303FB00F0414AA2FB94
:1054A00000139B09338405E03C4E301D0121FFF7BA
:1054B000D7F87084394B01351D7000225A702A2CA0
:1054C00004D1012283F82420002070BD334B9A7848
:1054D00054409C70002070BD304B93F82430002B5A
:1054E0003BD02E4B1B79402B04D9A3F1370212017C
:1054F000D2B202E01B0103F0F002284B5B79402B93
:105500008CBF373B303BDBB21344244A9278DBB28A
:105510009A4224D1214BDB7C012B02D0022B13D0E9
:105520001FE01F4B1B7813F0020F1CD01E4A1B4BB1
:105530005969116099695160197F1C4A1170DA8BA1
:105540001B4B1A8001200FE0144B198C194A118053
:105550005A8C194B1A80002006E0002004E000203D
:1055600002E0002000E0012000220C4B83F8242000
:1055700070BD0A4B5B780E2B04D8084A591C517039
:1055800013441871054B93F824302BB9034B9A78C8
:1055900054409C70002070BD002070BDEC0E0020B7
:1055A000CC020020D34D6210341300208C04002064
:1055B0003C1300203E1300205E150020F0B49C4BED
:1055C00093F82530082B00F27381DFE803F0110512
:1055D0001C283B4D6D8E9C00622805D10222944B05
:1055E00083F8252000208BE10022914B83F82520B1
:1055F000B52840F05F818E4B93F82520013283F867
:10560000252000207CE18A4B032283F8252083F8A3
:10561000260083F8270083F82800002070E1844BDF
:10562000042283F8252093F827200244D2B283F87D
:10563000272093F828100A4483F8282083F82900AB
:1056400000205DE17A4B052283F8252093F827207E
:105650000244D2B283F8272093F828100A4483F832
:105660002820588500204BE1714B062283F8252025
:1056700093F827200244D2B283F8272093F8281009
:105680000A4483F828205B8D03EB002080B2B0F53C
:10569000007F674B91BF588500225A8583F82520EB
:1056A0000020634B98852BE1614B93F8272002443F
:1056B000D2B283F8272093F828100A4483F82820D0
:1056C0009B8DC72B03D85A4A1A4482F83000013305
:1056D0009BB2574A9385528D9A4240F0ED80072243
:1056E000534B83F8252000200AE1514B082283F810
:1056F000252093F82730834200F0E08000204C4BB7
:1057000083F82500FCE04A4B002283F8252093F81B
:105710002830834240F0D480454B93F82930023B37
:105720002E2B00F2BF80DFE803F0183ABDBD48BD64
:10573000BDBDBDBDBDBDBDBDBDBD5CBDBDBDBDBDFA
:10574000BDBDBDBDBDBDBDBDBDBDBDBDBDBDBDBD89
:10575000BDBDBDBDBDBDBDBD6D00364A344B596B31
:105760005160996B11601A6C334981FB0201D217A9
:10577000C2EBA111314A118093F8F8302BB1304BB4
:105780001A7842F002021A7004E02D4B1A7822F0C7
:1057900002021A700122264B83F8F92076E0244B8E
:1057A00093F8353013F0010F00F09180204B93F8FF
:1057B0003430032B40F08B8084E01D4B93F83B305A
:1057C00013F0010F00F08D80194B93F83A30032B42
:1057D00040F087808FE0164B93F85F20194B1A70CA
:1057E00050E0134B5A6C18490A809A6C174981FB98
:1057F0000201D217C2EB2131154A1180012283F830
:10580000FA203FE00A4B93F83430124A1370102B01
:105810000BD910220F4B1A700E4B1F780E4A002323
:105820000E4E0F4D0F4C104820E0002BF4D129E014
:10583000EC0E002034130020D34D62103C130020E6
:10584000CC0200208C0400203E130020AD8BDB68CE
:105850005E150020601500201C0F0020641500203C
:10586000741500208415002094150020117A995594
:10587000517A5955D17A195512F80C1F1954013320
:10588000BB42F3DB1F4B93F8F9306BB11D4B93F820
:10589000FA305BB11B4B002283F8F92083F8FA2021
:1058A00001202DE000202BE0002029E0002027E04F
:1058B000002025E0002023E0002021E000201FE060
:1058C00000201DE001220F4B83F8F820DAE70022C8
:1058D0000C4B83F8F8200C4B1A7822F002021A7055
:1058E000D0E70022074B83F8F820074B1A7822F004
:1058F00002021A706FE70122024B83F8F8206AE770
:10590000F0BC7047EC0E0020CC02002010B50AF06D
:1059100085FD044600210AF091FF38B120460A496E
:105920000AF084FE09490AF0CDFD07E004F10040C9
:1059300005490AF07BFE05490AF0C4FD0BF0CCFDD9
:10594000034B186010BD00BF8096184B35FA8E3C93
:105950008C000020F8B50C461E4613680068181A23
:105960000AF05CFD054630682368C01A0AF056FD4F
:10597000184B19680AF0A6FD0446284629460AF085
:10598000A1FD0746204621460AF09CFD0646384602
:1059900031460AF08FFC0CF02BF80F490AF092FD0B
:1059A0000AF07CFF069B186005F1004021460BF0D1
:1059B00095FE0A490AF086FD09490AF07BFC0AF0C7
:1059C00047FF0028BCBF00F50C40A030079B1860C3
:1059D000F8BD00BF8C0000202C7D8E3FA00CB3458D
:1059E00000A00C4670B504461F4D00790AF012FD68
:1059F0001E490AF01BFE2860A07B0AF00BFD1B4924
:105A00000AF014FE68601A4EEE601A4D60790AF0D2
:105A100001FD19490AF00AFE2860E07B0AF0FAFC51
:105A200012490AF003FE6860607E0AF0F3FC134935
:105A30000AF0FCFDA860EE60114DA0790AF0EAFCC6
:105A40000D490AF0F3FD2860207C0AF0E3FC0749C9
:105A50000AF0ECFD6860A07E0AF0DCFC07490AF061
:105A6000E5FDA860EE6070BDB01700200000C842E0
:105A70000000FA44C41700200000204100007A44CE
:105A80003818002044F250639842C4BFA0F50C407F
:105A9000A038034B9842BCBF00F50C40A0307047C3
:105AA000B0B9FFFF2DE9F84305460E461446994666
:105AB0005068281A0AF0B2FC31680AF0B7FD0746B0
:105AC0002061D6F80080A6681B4B1B6898780AF006
:105AD000A1FC0AF013F916A3D3E900230AF062F936
