:020000040800F2
:1000000000500020914901083D4A01087133010860
:100010003D4A01083D4A01083D4A01080000000030
:100020000000000000000000000000003D4A010840
:100030003D4A01080000000025330108153301087E
:100040003D4A01083D4A01083D4A01083D4A010870
:100050003D4A01083D4A01083D4A01084132010874
:100060003D4A01083D4A01083D4A01083D4A010850
:100070003D4A01083D4A0108F13101083D4A0108A5
:10008000493201083D4A01083D4A01083D4A01083C
:100090003D4A01083D4A01083D4A0108393201083C
:1000A0003D4A0108A93101083D4A0108BD31010856
:1000B00095310108813101086D310108953201083F
:1000C000853201088D3201087D3201083D4A010860
:1000D0003D4A0108E1310108D13101083D4A0108DA
:1000E0009D3201083D4A01083D4A01080000000018
:1000F0000000000000000000000000000000000000
:0C01000000000000000000005FF808F1A3
:100110002DE9804891B08E4B1A6801321A60EFF3D6
:100120001281FF2383F31288894B1A68501C1860D0
:10013000CBB283F311880232854B1A6002F0C4FB04
:10014000002405940022824B1A71824B9C6814F0A3
:10015000080F00F0E5807E4B9B681B7A042B00F2B1
:10016000DC80DFE803F00303066FA200784B1A7B04
:10017000D4E0774B5B7B002B60D0754B00225A7329
:1001800093F8263013F0080F5AD1714B1A8AC2F334
:100190000A02DA621A69C2F3CA221A63598A1A7DFC
:1001A00002F00102920242EA91125A639A8AC2F361
:1001B0004A029A635A69C2F30A32DA63D98A1A7E0A
:1001C00002F00302520242EAD1121A641A8BC2F3FD
:1001D0008A025A649A69C2F34A329A64DA7E197FB3
:1001E00001F0070142EA0122DA649A8BC2F3CA02E3
:1001F0001A65DA69C2F38A325A65D97F93F82020EA
:1002000002F00F02D20142EA51029A651A8CC2F33F
:100210000A12DA651A6AC2F3CA321A6693F8231010
:1002200093F8242002F01F02920142EA91025A66DA
:100230009A8CC2F34A129A6601226FE000226DE0A6
:1002400000226BE0424B93F86C3043B3404B0022EA
:1002500083F86C2093F87130012B22D13C4B93F83A
:100260009530102B0BD91022394B83F89520384943
:1002700091F8956001F170039431002203E0002BA6
:10028000F5D101224AE0DD78187940EA052041F8ED
:10029000040F01320233D0B28642F4D803E00022C8
:1002A0003CE000223AE0012238E0294B93F8D830B4
:1002B0005BB3274B002283F8D82093F8DC30A82BBF
:1002C00025D1234B93F8EF301BBB234E1546A6F1E7
:1002D000F00707EB450393F8DF0093F8E03003EBFA
:1002E000002013F09DF916A3D3E9002313F038FB87
:1002F00015A3D3E9002313F055F813F041FC46F899
:10030000040F0135082DE4D105E0002206E00022AB
:1003100004E0002202E0012200E000220C4B1A71EE
:1003200014F4804F1DD00A4B93F81431B3B100225E
:10033000074B83F81421012211E000BFAFF30080C6
:100340009A99999999991940000000000070774096
:100350008001002064220020700200200022A64BB1
:100360001A71A54B1B79002B02F01C8214F4807FBC
:1003700002F01482A04CD4F818311B681B6898470F
:100380009E4B1868237933B99B4BD3F81C31C31AA1
:10039000002BC0F2058500F59C402030964BC3F839
:1003A0001C01974B9B6813F4807F05D0924BD3F8C8
:1003B00018311B681B699847914B9B6842F20102F8
:1003C0001A420DD18C4B1B7993B18B4CD4F8183158
:1003D0001B681B68984709F069FD0023237107E03B
:1003E000854B93F82021013283F8202109F05EFD2E
:1003F000834B9B6813F4805F07D07F4BD3F8243185
:1004000013F0010F01D112F053FE7C4B1C687A4BA4
:100410009A68137CD3B1784D05EB4303B3F92A01F5
:10042000A0F57A70B0F57A7FA8BF4FF47A7020EA11
:10043000E07013F0CFFC734913F0D4FD724913F050
:100440001DFD13F007FFA5F8280149E06C4B9B68E0
:1004500013F4004F44D0684BD3F85031E31A002B0B
:100460003EDB654B04F59C412031C3F8501193F8F5
:10047000591103EB4101B1F8641189B2527C91FB2F
:10048000F2F2D2B293F86C31013303F00F035A4801
:1004900080F86C31DBB2034483F8702100F26F13F3
:1004A00000F27F10002213F8011F0A4492B2834227
:1004B000F9D112B2002AB8BF0F3210116428A8BFB8
:1004C000642020EAE07013F085FC504913F08AFDA7
:1004D0004D4913F0D3FC13F0BDFE474BA3F82801A0
:1004E000474B9B6813F4807F15D0494B9C420CD935
:1004F000414BD3F880311B681B6A984728B93E4BA3
:10050000D3F880311B685B6A98473B4BD3F8803146
:100510001B685B6998473A4BB3F8DC209B6813F47F
:10052000805F0ED0344BB3F932313549B1F81A112E
:10053000881A834210DD0A449342C2F237810127B0
:100540000BE02D4BB3F932212D4BB3F81C319A42FD
:10055000C2F22C81012700E00127294B93F8236187
:1005600093F824E1B3F81C51B3F81E41224800F57A
:10057000957200F5997000239B0832F9021FA94279
:10058000C4BF63F07F03DBB2A142B8BF43F04003B6
:100590008242F1D1184A92F884219A4209D1164A2E
:1005A00092F88521F92A08D80132134981F885216A
:1005B00003E00021104A82F885110F4A82F8843145
:1005C000144B1B786BBBD2F8243113F0010F08D009
:1005D0003FBB114B1B7813F0010F22D009F0D6FB63
:1005E0001FE00D4B1B7813F0040F1AD0BEF1000F63
:1005F00014D012F05DFD14E080010020F8290020E5
:100600006422002000007A4400C07F440000C842F9
:10061000404B4C00000000200D2A00200FB912F0C2
:1006200047FD764B93F88531142B40F0AC800036B3
:1006300018BF0126724B1B7813F0040F17D0714BB3
:100640001B78002B00F09F806C4B93F884315F2B5C
:1006500001D112F02DFD002E00F09580674B93F82C
:1006600084317D2B40F08F8012F022FD8BE0634BB4
:1006700093F88431572B0ED14FF47A72624B1A8063
:100680005E4BD3F8883113F0080F7CD100225B4B0E
:10069000A3F88C2177E05D4A926812F0040F1FD016
:1006A0005A2B1DD1554B93F88E313BB1534B002241
:1006B00083F88E21012283F88F2164E04F4A92F85B
:1006C000903183F0010382F8903123B104224B4B27
:1006D00083F8912157E00622484B83F8912152E09C
:1006E0005D2B02F079805B2B02F078805E2B42F06C
:1006F000888002F075B80BF035FF424B1B786BB168
:100700003E4B93F884316F2B02D109F03FFB3AE066
:1007100026B17E2B02D109F039FB34E0374B93F838
:100720008431972B05D14FF4C872344BA3F8922132
:1007300029E0A72B07D1314B93F8942142F0040212
:1007400083F894211FE000220D92BB2B04D10223D9
:10075000ADF8363002F05AB8B72B05D14FF6FE731C
:10076000ADF8363002F052B8BE2B04D10223ADF8FA
:10077000343002F04BB8BD2B05D14FF6FE73ADF807
:10078000343002F043B8214B9B6813F0040F4FD074
:100790001A4B93F89031CBB1194B1B7813F0040F1F
:1007A00014D0164BB3F93221184BB3F81C319A42CE
:1007B0000CDD124BD3F8243113F0010F06D10F4B8F
:1007C0003222A3F89621002283F890210B4BD3F814
:1007D000243113F4803F1BD0084B93F898313BB978
:1007E000064B93F88E311BB93222044BA3F89621A5
:1007F0000122024B83F898211AE000BF80010020FB
:100800000D2A002000000020042A0020642200207D
:10081000B64B93F88E315BB1B54B1B7813F0040FD8
:1008200006D1B24B002283F88E21012283F88F215A
:10083000AE4BD3F89C810025C3F8245108F177040E
:100840001E46012714F8010C214609F085FC40B131
:1008500014F8022C07FA02F2D6F824311343C6F832
:10086000243104350434A02DECD1A24B1B78002B8D
:1008700040F0878108F58B7800249F4F9B4D05F54C
:10088000D076A2464FF0010918F8010C414609F054
:1008900063FCE8B198F80230013B03EB4303F9181D
:1008A00098F803C098F8043003EB430E06EB8E0271
:1008B000506881420CD006F82EC05160C2F808A0E2
:1008C00009FA03F395F8D02122EA030385F8D03121
:1008D000063408F10608482CD6D1844DD5F8D4A1A9
:1008E000864BD3F8008005F5D0750024A5F5D076A9
:1008F0004FF00109DFF808B227462A466B68002B43
:1009000000F03A811978002900F03681A868C0EB20
:10091000080000280ADB08F5FA70A86009FA04F05C
:1009200096F8D0E12EEA000086F8D0011078043065
:100930005FFA80FE5878002840F0E48006EB4E0E07
:10094000BEF92C01BBF81AE10EF1C80C604501DDBF
:100950009B7812E0AEF1C80E704502DA9B785B42DC
:100960000BE009FA07F796F8D03123EA070386F877
:10097000D03108F5FA739360FEE096F8D0213A4141
:1009800012F0010F40F0F880002BC6BF022286F85B
:10099000912186F8919101390A2900F2E680DFE879
:1009A00001F0061422323D485D70838E99009AF85A
:1009B00000201344FA2BA8BFFA2323EAE3738AF832
:1009C000003050460DF020F9CFE09AF80120134492
:1009D000642BA8BF642323EAE3738AF801305046EE
:1009E0000DF012F9C1E09AF803201344642BA8BF5C
:1009F000642323EAE3738AF803305046D6F8D8110B
:100A00000DF0B4F8B1E09AF804201344642BA8BFA9
:100A1000642323EAE3738AF80430A6E09AF80520F9
:100A20001344642BA8BF642323EAE3738AF80530D8
:100A30009BE0D6F8DC114A781A44C82AA8BFC8221D
:100A400022EAE2724A70D6F8DC2111780B44C82BF6
:100A5000A8BFC82323EAE373137086E0D6F8DC113D
:100A6000CA7A1A44C82AA8BFC82222EAE272CA7205
:100A70008A7A1344C82BA8BFC82323EAE3738B7276
:100A800073E0D6F8DC114A7D1A44C82AA8BFC822F0
:100A900022EAE2724A750A7D1344C82BA8BFC82314
:100AA00023EAE3730B7560E0D6F8DC2191780B4400
:100AB000C82BA8BFC82323EAE373937055E0D6F888
:100AC000DC21117B0B44C82BA8BFC82323EAE373A6
:100AD00013734AE0D6F8DC21917D0B44C82BA8BFE4
:100AE000C82323EAE37393753FE000BF8001002031
:100AF0000D2A00200C2A0020C0700108DC210020F3
:100B000064220020012830D19B784FF4966292FB3A
:100B1000F3F206EB4E0EBEF92C31B3F5617F05DB27
:100B200040F633008342A8BF034601E04FF46173EF
:100B3000A3F5617393FBF2F3DBB25A1C86F89121A3
:100B40000C2912D196F8E0219A420ED0042B28BF2E
:100B5000022386F8E03103EB83030BEB430303F23C
:100B60005673C6F8D4310DF071F809FA07F796F804
:100B7000D0313B4386F8D03101340C35042C7FF45E
:100B8000BBAE904BD3F8243113F0020F0BD18E4B38
:100B90009B6813F4807F1FD08A4BD3F880311B6889
:100BA0009B689847C0B1874BD3F8883113F0020F88
:100BB00012D0844BB3F8E23113F0010F41F03E86BE
:100BC000804A0021C2F8E411C2F8E81143F00103A1
:100BD000A2F8E23101F032BE7A4BB3F8E22122F002
:100BE0000101A3F8E211D3F8244114F0040F12D04C
:100BF0008BB27449A1F8E23102F0020292B28AB9D2
:100C00000A460021C2F8E411C2F8E81143F00203D9
:100C1000A2F8E23106E06B4BB3F8E22122F00202C7
:100C2000A3F8E221674BB3F8E23113F0030F4FF062
:100C30001001664A14BF51611161624AD2F88851AD
:100C400015F00A0F34D014F0100F0DD003F0040289
:100C500092B272B95B4A43F00403A2F8E231B2F8EF
:100C60008C31A2F8EC3104E023F00403554AA2F8D9
:100C7000E23114F0200F0CD0524BB3F8E23103F004
:100C8000400292B262B943F040034E4AA2F8E23108
:100C900006E04C4BB3F8E22122F04002A3F8E22137
:100CA00014F0400F04D0474BB3F88C21A3F8EE2189
:100CB00015F0200F01D00BF00FF814F4006F414B2A
:100CC000B3F8E22114BF42F4807222F48072A3F8D8
:100CD000E2213D4B5B79082B01D00E2B06D1394B1D
:100CE000B3F8E22122F04002A3F8E221354B93F859
:100CF000F031002B00F0728315F0040F01F0A38592
:100D000014F0080F08D12F4BB3F8E22122F00802AB
:100D1000A3F8E22101F097BD2A4BB3F8E22102F0DB
:100D200008039BB2002B41F08E85264B42F008024F
:100D3000A3F8E221D3F8F821C3F8F421B3F806228E
:100D4000A3F8FC210022C3F80822C3F80C2201F00A
:100D50007ABD14F4001F07D11A4BB3F8E22122F434
:100D60000072A3F8E22139E3164BB3F8E22102F452
:100D700000739BB2002B40F03183124B42F400729F
:100D8000A3F8E221D3F8F821C3F8F421B3F806223E
:100D9000A3F8FC210022C3F80822C3F80C221DE3AB
:100DA000084AD2F81032591CC2F81012052B00F272
:100DB0000C83DFE813F00D00A900F902B300F10283
:100DC000030300BF8001002064220020000C0140CA
:100DD0009E4BD3F8883113F0080F00F0F6829B4B3E
:100DE000D3F81432C31A002BC0F2EF8200F5C334DB
:100DF000A034964DC5F8144205F5067630460EF03F
:100E00008DFD30463146924B1A780CF01BFA95F85E
:100E1000941111F0040F1AD0C5F8204200238D4E12
:100E20001D468A4A9819A0F8FE5002F50670185A15
:100E300002F50977D85302F50B77D8530233062B06
:100E4000F0D121F00401A7F50B7383F894117F4BC7
:100E500093F83232B3B17D4B7E4AB3F81802B2F840
:100E6000FE10411AA3F81812B3F81A02B2F80011D2
:100E7000411AA3F81A12B3F81C12B2F802218A1A06
:100E8000A3F81C22714BD3F82032002B00F09D8276
:100E9000E31A714A93421FD8704BDA6882F0080255
:100EA000DA600023694A02F50671595A02F50970A1
:100EB0001C5E08B28442C4BF02F50970195202F5E3
:100EC0000B701C5E08B28442BCBF02F50B70195255
:100ED0000233062BE7D178E200235C4AC2F82032C5
:100EE0005C481C1802F509715D5E02F50B71595ED4
:100EF000294401EBD1714910A4F8FE100233062BEE
:100F0000EFD10BF02FFB60E2504BD3F8883113F098
:100F1000040F00F05A8204F01DFA56E24B4BD3F84E
:100F2000883113F0040F03D0484A92F833221AB9DB
:100F300013F0100F00F04982444BD3F83452451B94
:100F400046F2A7139D4240F24082404BC3F8340260
:100F5000434B1E88002E36D03C4BD3F83822D3F8B2
:100F6000401209780139D3F83C32B3FBF1F3114652
:100F7000002AB8BFD11DA2EBE1021344334AC2F8E4
:100F800038321846002BB8BFD81DC01012F022FF0F
:100F9000344913F027F8344914F08EF801462B4CED
:100FA0004FF07E5012F060FE304912F067FF13F0F0
:100FB0002BF9C4F84402013E294B1E800022C4F8DC
:100FC0004822C4F84C2204F079F906461F4BB3F9C5
:100FD0005442002CB8BF6442B3F95632002BB8BF5C
:100FE0005B429C42B8BF1C46A4B2214B186823B296
:100FF000FA2B01F32E8412F0EDFE074620B212F018
:10100000E9FE01461B4812F02FFE0146384612F059
:1010100035FF184912F0E6FF13F0F6F80446144BBA
:101020001860431EC62B06D8084B361AC3F8586200
:10103000C3F8500246E0054BD3F85832F61A0028A0
:101040001ADC024BC3F850623CE000BF8001002074
:10105000FC290020642200207FC3C901000C01404C
:10106000FE29002080E6C547B1DC423ED048874AD1
:10107000D000002000006144C0F5967012F0AAFE76
:10108000B94912F0AFFF0746204612F0A3FE014611
:10109000384612F0F3FE0446304612F09BFE064638
:1010A0004FF07E50394612F0DFFD0146304612F017
:1010B000E5FE0146204612F0D9FD13F0A5F8AB4B32
:1010C000C3F85002AA4F386812F080FE0646A949BC
:1010D00012F0D4FE8246A54CD4F8640212F07AFED7
:1010E0008046D4F8680212F075FE0146404612F0C0
:1010F00079FF0090D4F86C1212F0C0FE0146304621
:1011000012F0BCFE0290D4F84882D4F840620196F6
:10111000D6F80C90D4F850624FF07C5112F0AEFE2D
:101120000146504612F0AAFE83465046414612F050
:10113000A5FE0146584612F099FDD4F84C1212F063
:1011400095FD494612F09AFE8246304612F042FE64
:1011500083464FF07E50494612F086FD01465846C0
:1011600012F08CFE0146504612F080FD8146C4F814
:101170004C020298414612F079FD8046C4F84802BC
:101180000023C4F85C32C4F86032C4F86432C4F896
:1011900068323B60784B1B88002B40F01681774B00
:1011A0001B68013BC62B02D8C4F8F86105E048462D
:1011B00013F02AF86D4BC3F8F8016C4CD4F87002A8
:1011C000301A12F007FE6E4912F058FE0746284604
:1011D00012F0FCFD0146384612F004FF13F014F83B
:1011E000C4F8706240F2DC539842A8BF1846654AC2
:1011F0009042B8BF10460A2104F01CF80746DDF8FB
:1012000004A0DAF808504046294612F037FE064698
:10121000384612F0DFFD07464FF07E50294612F0A7
:1012200023FD0146384612F029FE0146304612F0F1
:101230001DFDC4F8480213F071FE0646052103F0B7
:10124000F9FFC4F87402D4F87852B4F8542202F2C8
:101250001F3292B240F23E639A427CD8B4F85622D2
:1012600002F21F3292B240F23E639A4241F2FB8296
:10127000002371E03D4CD4F8F421D4F8F831D31AAE
:10128000B3F5FA7FA8BF4FF4FA733F488342A8BF73
:1012900018460A2103F0CEFFD4F87C32DB7803FB3A
:1012A00000F00028B8BF7F30C311B3F5967FA8BF08
:1012B0004FF49673354A9342B8BF134601E0344B5E
:1012C0001B689B1B294AD2F87C124A7A02FB03F264
:1012D000002AB8BF1F325211B2F5967FB4BF104634
:1012E0004FF49670294A9042B8BF1046CE7C1F4AF0
:1012F000D2F8084206FB0343B3F5C81FA8BF4FF45A
:10130000C813244CA342B8BF2346C2F808321A4679
:10131000002BBCBF03F5FF521F3200EB6234487F45
:1013200012F058FD06460098294612F09FFC01462F
:10133000304612F0A3FD4FF06C5112F09FFD12F0F9
:1013400063FF9628A8BF96206FF095039842B8BF18
:101350001846231A00E00023044AC2F80C32009C0D
:10136000C2F8784231E000BF0000C842800100208E
:10137000002A0020BD378635FE290020D00000203D
:101380000024744924FAFFFF0CFEFFFFD4FEFFFF88
:10139000082A00200000E7FF714B9B6813F0800FC4
:1013A00013D008F007FF10E06E4BD3F8883113F02C
:1013B000100F0AD06C480CF015FD06E0684B9B68D6
:1013C00013F4003F01D011F0BBF8664BD3F8103294
:1013D000052B03DD0022634BC3F810220CF0CCFC7C
:1013E000624B18605E4B9B8933B15E4AD2F8802213
:1013F000821A002AC1F2BE815A4C0344C4F88032DA
:10140000D4F89C510295564B5B79009304F52575F1
:10141000D4F88832284698472846294694F89A22D4
:101420000BF010FF524B1B88002B01F02482D4F8E4
:101430009C321B78039304F5287400263546DFF8A8
:1014400030B1BBF80030B3F57A7F03D10023494AAD
:10145000B3502361434B03F5257203F53773505F97
:10146000F2580244F25012F0B5FC8046019427690C
:1014700001372761012F04D1606020600027A76039
:1014800020E0D4F800A0514612F0EEFB8146384629
:1014900012F0A0FC0146484612F0A4FD0146504659
:1014A00012F0E4FB074660604046394612F0DCFB70
:1014B0000146484612F0E2FCA16812F0D7FBE0605A
:1014C0002760A060274A02F5257100236B5202F5C0
:1014D0003A72AB52BBF80030012B34D1DDF804A0D6
:1014E000DAF81000012808DD013812F073FC01461B
:1014F000DAF80C0012F076FD00E0059813F064FFB6
:101500000746039858B112F065FC394612F054FEB4
:1015100028B14FF47A72164B1A8001F0ACB9114B16
:1015200003F53A7203F53773F35803F5FA73124F64
:1015300087FB0371DB17C3EBA113AB520A200F210A
:1015400001220CF0BDF8023504361434062D7FF468
:1015500078AF074B1A88013A1A8001F08CB900BFA6
:101560006422002080010020D0000020F829002003
:10157000042A00205C040020D34D621001F525727E
:1015800001F53A709C5A185A201A98520233062BC9
:10159000F4D1A2F52573D3F8883113F0020F00F0CF
:1015A0004883A2F5257404F53F75D4F8F432284633
:1015B00098472846294694F802230BF043FEB4F8D6
:1015C0009231002B56D000231946184622461F465A
:1015D000B2F89241B4F5C87F04BF02F541740F51CF
:1015E00002F5417502F53F7433F904E04E59764433
:1015F0004E511F53D2F8104324F8107001300431BB
:1016000002330328E4D1A5F54173B3F89231012BDD
:101610002AD1A5F54173D3F81023D3F80403C830B9
:10162000994981FB00A4C017C0EBE4101080D3F8E7
:101630000803C83081FB00E4C017C0EBE410508001
:10164000D3F80C33C83381FB0301DB17C3EBE11183
:101650008E4B5B88CB1A93800023029CA4F85430F5
:10166000A4F856300AF07EFF894BB3F89221013A74
:10167000A3F89221874B9B6813F0040F00F09B8026
:10168000834BB3F89641322C14D1D3F81023118830
:10169000A3F814135188A3F816139288A3F81823FB
:1016A000029DB5F85420A3F81C23B5F85620A3F8E2
:1016B0001E2301E0002C51D0002319461A4674481D
:1016C0009E46322C11D100F5487600F53F755F5FDC
:1016D0008F5123F805E0D0F8105325F812E00132BD
:1016E00004310233032AECD134E000F5487600F5EA
:1016F0003F7533F905C08F5967448F5123F805E0D2
:10170000D0F8105325F812E0013204310233032AD5
:10171000D7D1012C1ED1A6F54873002283F8982159
:10172000012283F88E21052283F89121D3F810231A
:10173000B3F814131180B3F816135180B3F81813CB
:101740009180B3F81C23029EA6F85420B3F81E33F0
:10175000A6F85630013C4E4BA3F896414C4B93F8FB
:101760008F3143B34A4B002283F88F21D3F81013F3
:10177000D3F82043444880FB0475E417C4EB2514D8
:101780000C80D3F8244380FB04A5E417C4EB251494
:101790004C80D3F8283380FB03E0DB17C3EB201029
:1017A0003A4B5B88C31A8B80029CA4F85420A4F89F
:1017B00056200AF0D7FE364CD4F81033B4F8FC1299
:1017C0001A888A1AA4F8FC22B4F8FE125A888A1AD7
:1017D000A4F8FE22B4F800239B88D31AA4F800339F
:1017E0000CF0CAFA0546D4F82C33C31A03931846F2
:1017F00012F0ECFA0490D4F8301312F03FFB834659
:10180000C4F82C53D4F83443019400252C462F46B9
:101810001F4E4FF07E5A06F52573185F12F0DAFA64
:101820000146584612F02AFB07AB5851DDF804E098
:101830009EF8000080B312F0CDFA0146504612F037
:10184000D1FB814606F54E785046494612F00CFA17
:1018500055F8081012F012FB029006F53F73185F5E
:1018600012F0B8FA0146484612F008FB0146029809
:1018700012F0FCF948F8050006F5517812F0C4FCA6
:1018800028F804000EE000BF1F85EB510000002087
:10189000800100206422002006F5517306F53F7296
:1018A000A25AE25206F55173E35E03FB037702345A
:1018B0000435062CAFD1642606FB07F6AC4B5B88DB
:1018C00003FB03F396FBF3F6AA4C04F5537007A948
:1018D0000CF0E4FDD4F834536868A6F149039BB2D8
:1018E0003B2B25D84FF07E5112F0C0F901464FF046
:1018F0007E5012F077FB824604F242370024A7F2B2
:10190000423909F55376A059696812F0B7FA804652
:1019100037F9020F12F05EFA0146404612F0A6F9BE
:101920000146504612F0AAFA305104340C2CE8D18A
:10193000904BD3F85463B3F9580312F04BFA0146B5
:10194000304612F057FC38B18A4B93F8942142F09C
:10195000080283F8942106E0864B93F8942122F044
:10196000080283F89421834CD4F85003314613F0D5
:10197000A1FB8046C4F85C03D4F84C3303F1004962
:10198000D4F85073D4F854633846394612F076FAD6
:1019900007463046314612F071FA0146384612F0D9
:1019A00065F913F011FD0146484613F083FB064626
:1019B000C4F860034046704912F060FA13F0AEFAC2
:1019C000A4F8540230466C4912F058FA13F0A6FA03
:1019D000A4F85602D4F8883113F0080F34D004F577
:1019E000597007A90CF05AFDA8684FF07E5112F00B
:1019F0003DF901464FF07E5012F0F4FA824604F2AF
:101A000016270024A7F2162909F55976A059A968C6
:101A100012F034FA804637F9020F12F0DBF9014672
:101A2000404612F023F90146504612F027FA305191
:101A300004340C2CE8D1A6F5597404F559700CF057
:101A4000D9FDA4F88C013AE0494C201D07A90CF0FF
:101A500025FD6668A568E4683046314612F00EFA46
:101A600006462846294612F009FA0146304612F089
:101A7000FDF805462046214612F000FA01462846A8
:101A800012F0F4F813F0A0FC0546059912F08AFB59
:101A900078B9374C6068294612F0A4FA6060A068F3
:101AA000294612F09FFAA060E068294612F09AFADF
:101AB000E06032480CF09EFD2E4BA3F88C01049898
:101AC0002F4912F0DBF906462A4CD4F85C3303F1B7
:101AD00000430A93D4F8603303F100430B93B4F945
:101AE0008C0112F077F900F10040264912F0C6F996
:101AF0000C90B4F9440312F06DF90D90B4F946035B
:101B000012F068F90E90B4F9480312F063F90F90DF
:101B10000DA80AA90CF0C2FCD4F834335B78012B71
:101B200034D1194B1B7813F0040F11D1D4F8703352
:101B30001846002BB8BF03F13F00A3EBA01012F032
:101B400049F90F9912F092F812F05EFBC4F8700395
:101B5000084BD3F870030028B8BF3F30801112F053
:101B600039F901460F9812F07FF80F9017E000BF87
:101B700000000020800100204C3D0F4404000020A4
:101B8000BD37863535FA8E3C0D2A0020AB4B588880
:101B900012F020F901460F9812F066F80F90A84C49
:101BA000D4F874533046D4F8781312F05FF8014635
:101BB000304612F017FA06460F98294612F054F8EC
:101BC0000146304612F05AF90146284612F04EF806
:101BD0000646C4F87403D4F85C720D9813F09EF9AD
:101BE000D4F87C53297803F025FB3844C4F85C0210
:101BF000D4F860720E9813F091F9297803F01AFB6B
:101C00003844C4F86002D4F86472304613F086F9A0
:101C1000697803F00FFB3844C4F86402894B1A68F2
:101C2000039D2A441A60D4F868320133C4F868323C
:101C300007E0834B0022A3F8FC22A3F8FE22A3F8BE
:101C400000237F4BB3F89422A3F88023B3F89622A5
:101C5000A3F88223009E012E10D1B3F98613B3F9A5
:101C6000982202EB4102784981FB0271A1EBE272FA
:101C700092B2A3F88423A3F8862304E0704BB3F850
:101C80009822A3F884230CF077F8704B18606C4C02
:101C9000D4F88C33C31AA4F88833C4F88C0305F045
:101CA00067F8012384F8F03110F0E8F8D4F888518F
:101CB00015F0080F45D0B4F8043203F1450292B292
:101CC0008A2A39D8B4F8E22102F0040292B2002A3A
:101CD00032D0B4F88C11B4F8EC21891A89B28AB2E6
:101CE00010B210F1B30FBCBF01F5B47292B211B2D1
:101CF000B329C4BFA2F5B47292B2554991F8EC0071
:101D00004F4991F8941111F0080F1AD041B249428D
:101D100002FB01F24A4912B2D1F89C01007B00FBA0
:101D200002F24C4880FB02A01044D217C2EB2012F2
:101D30009B1AA1F8043204E0414BB3F88C21A3F8BC
:101D4000EC2115F0140F00F0A8803D4BB3F8E23100
:101D500003F40273002B00F0A080394B93F8943108
:101D600013F0100F0CD0364BD3F80C22384991F9F0
:101D70002701B3F8021200FB0212A3F802228CE042
:101D80002F4BD3F89033DA78002A3ED02C4AB2F8A1
:101D90000612B2F8FC0102B29B780CB2A41A002C15
:101DA000B8BF64429C4212DD254A0024C2F80842B2
:101DB000012482F894438AB209B200B28142C4BFBE
:101DC0005B429BB213441E4AA2F8063265E01C4BEC
:101DD00093F894333BB11A4BD3F8F811C3F8F411CC
:101DE000002183F89413164BD3F80C120A44D3F84D
:101DF00098130B8849889A4203DB8A42B4BF134682
:101E00000B460F4AA2F8063247E00D49B1F9FC2112
:101E1000B1F90612891A81EAE170A0EBE1709B78B2
:101E200098421BDD01EBD17149100B4B1960044B3B
:101E3000012183F89C1383F894131DE00000002017
:101E400080010020002A002056555555F829002011
:101E50006422002089888888082A0020B04B93F8E3
:101E600094334BB1AE4BD3F8F811C3F8F411002101
:101E700083F89C1383F89413A94BD3F80C121144E4
:101E8000D3F8982313885288994203DB9142B4BF58
:101E90000B461346A24AA2F80632A14BD3F89C4146
:101EA00094F86461002E57D0B3F8E23113F0030FB9
:101EB00052D09B4BB3F806720097D3F84C93D3F8EB
:101EC0005083D3F854733846394611F0D7FF824611
:101ED0004846494611F0D2FF81464046414611F03E
:101EE000CDFF0146484611F0C1FE804640465146AE
:101EF00011F0BCFE13F068FA0146384612F072F891
:101F00000746884912F062F900BB384613F082F8A0
:101F1000834BD3F8A01311F0B1FF12F0FFFFB0F51F
:101F2000617FA8BF4FF4617011F054FF7E4912F039
:101F300059F813F031F80746304611F04BFF394697
:101F400011F09CFF12F0EAFF80B200E00020009A3E
:101F50000244734BA3F8062215F0200F0DD0704BEE
:101F6000B3F8E23103F030033BB16D4B93F8943199
:101F700013F0010F01D008F037F86C4B1D68201DDD
:101F8000674BD3F8D4116A4BB3F8F62004F154032D
:101F9000A847684B93F80080B8F1030F40F27C84A7
:101FA0005F4BB3F9A823B3F904120029B8BF494223
:101FB0006FF063035B1A9A4204DB01F164039342FE
:101FC000A8BF1346564AA2F8A83300F065BC544D8A
:101FD000B5F9060211F0FEFE8346B5F9A60311F02D
:101FE000F9FE8246B5F9A40311F0F4FE0090D5F88D
:101FF000AC430194B5F9A89305F56C7405F56E75BD
:102000004D4E04EB0818584655F8081C11F036FFE1
:1020100007465046A16811F031FF0146384611F0DD
:1020200025FE0746009855F8041C11F027FF0146CD
:10203000384611F01BFE0746DDF804E09EF900006B
:10204000404209FB00F011F0C5FEE16811F016FFF7
:102050000146384611F00AFE12F0D6F826F8020FB3
:10206000103410354445CED12D4B93F87034013BDC
:10207000142B00F2F381DFE813F04200F101F101CB
:1020800015006300F101F1011F01F101F101F101FE
:10209000F101F1018900F101F101F101F101F10119
:1020A0009801C301042002210CF0BEF91C4CB4F8C5
:1020B000A86300FB06F087B2042001210CF0B4F9FC
:1020C000B4F8A65300FB057087B204200CF0BCF9ED
:1020D0001A4C38442081052002210CF0A5F900FBA0
:1020E00006F086B2052001210CF09EF900FB056088
:1020F00085B205200CF0A8F928446081AEE10520E6
:1021000001210CF091F9064BB3F8A83300FB03F062
:1021100084B205200CF098F92044084B58819DE1C9
:10212000800100208FC2753CEFB6B044D40000207F
:1021300064220020DC290020DE290020C0000020CD
:10214000AA4CD4F8747400200CF07EF9A84D97F9CD
:102150000630B4F9562202FB03F3A64E86FB0312A7
:10216000DB17C3EB22131844288001200CF06CF914
:1021700097F90E30B4F9542202FB03F386FB0326D1
:10218000DB17C3EB26131844688067E19A4B1B7872
:1021900013F0040F06D1954BD3F878349A88944BFA
:1021A000DA810EE0914BB3F90622D3F878140B884C
:1021B00049889A4203DB9142B4BF0B4613468C4ACE
:1021C000D3818B4BDA898D4B1A80884BD3F87C34C2
:1021D0001C78002C37D002200CF036F9834BD3F852
:1021E0007424B2F91030518A984203DB0BB2984242
:1021F000B8BF03467D4DD5F880144989CB1A98B2F3
:10220000B5F8843406B21DB2AE4204DD23447748EB
:10221000A0F8843407E000B21DB2A84203DA1B1B09
:102220007248A0F8843492F91630704AB2F98424C6
:1022300002FB03F36F4A82FB0342DB17C3EB62131B
:1022400019446B4B9980694BB3F8E23103F4807306
:102250009BB263B1654AB2F80012654BD98019810F
:10226000B2F804125981B2F802229A8107E35F4A58
:10227000B2F8A4135E4BD9801981B2F8A813598122
:10228000B2F8A6239A81FAE208EBC40393F9063068
:10229000B5F9062002FB03F387FB03A6DB17C3EBAC
:1022A0006616EE8020460CF0CFF83044E88001340A
:1022B0000235072CE8D1D1E04F4B1B7813F0040F07
:1022C00006D14A4BD3F878349A88494BDA810EE02C
:1022D000464BB3F90622D3F878140B8849889A4202
:1022E00003DB9142B4BF0B461346414AD381404BB6
:1022F000DA89424B1A803D4BB3F8E23103F4807324
:102300009BB213B3032001210CF08EF8374CB4F8C4
:10231000026200FB06F087B2032002210CF084F871
:10232000B4F80052324C00FB0570E080042001211B
:102330000CF07AF800FB06F086B2042002210CF0C3
:1023400073F800FB0560208121E0032001210CF0DF
:102350006BF8264CB4F8A66300FB06F087B20320A6
:1023600002210CF061F8B4F8A453214C00FB057075
:10237000E080042001210CF057F800FB06F086B243
:10238000042002210CF050F800FB0560208103209E
:102390000CF05AF8164CE3881844E08004200CF046
:1023A00053F823891844208158E0042001210CF0BF
:1023B0003BF80E4DB5F8A63300FB03F086B20C4C8B
:1023C000268104200CF040F83044208105200121B2
:1023D0000CF02AF8B5F8A43300FB03F085B2658150
:1023E00005200CF031F82844608137E0800100209E
:1023F000C00000201F85EB510D2A0020E02900209D
:10240000AA4BB3F8A8A3AA4D03244FF002094FF03A
:1024100001081F46204649460CF006F800FB0AF06A
:1024200086B2204641460BF0FFFFC4F1060323F0BD
:1024300001033B44B3F8A43300FB036086B22E8053
:1024400020460CF001F8304425F8020B0134072C2B
:10245000E0D1964BB3F80622964B1A80964B9B68B8
:1024600013F0200F00F0128200200BF0EDFF054664
:10247000924C208001200BF0E7FF60808B4BD3F85B
:10248000243113F0800F00F00182884BD3F8883498
:102490001B7813F0020F24D0844BD3F8744494F9C2
:1024A0000E20B3F9541201FB02F2854981FB02E6CA
:1024B000D217C2EB261292B294F906406442B3F9E5
:1024C000563203FB04F381FB0341DB17C3EB2111FD
:1024D00089B27A4B541A25441D800A44104458800E
:1024E000D4E1724BD3F87444744A94F90610B3F9EA
:1024F000566206FB01F6724981FB06A7F617C6EB8A
:1025000027163544158094F90E40B3F9543203FB75
:1025100004F381FB03E1DB17C3EB21131844508064
:10252000B4E1B1F90200E25EE5186D88904203DB88
:102530002AB28242A8BF024621F8022F0833402B5C
:10254000EFD15A4BD3F888341B7813F0040F19D00D
:10255000564B93F88C74043FFFB2002404237DB2E1
:10256000DFF84881EC420AD45E1CF6B2381908EB59
:102570004303C0B2B3F82C1103F066FB33460134B9
:10258000042CEFD14B4B19884E4B1E78012E0CD9E1
:10259000484B981E00EB460009B233F9022F9142D6
:1025A000B8BF114689B28342F6D1002E65D03F4BA9
:1025B000D3F87804404A926802F48058B3F932C1E3
:1025C000D3F880E4D3F8909402F0100200923E4BCE
:1025D0001F7807F00407FFB2760000230DB2354ADA
:1025E0004446884621464488A54205DDC8EB0404DC
:1025F00033F802A054449C52F1B1BEF80A40A445FD
:102600000DDD33F902A0B9F80240B0F802B0A245DE
:1026100003DBDA45B4BF54465C469C5223E033F9F1
:1026200002A08488B9F800B0A24503DBDA45B4BF44
:1026300054465C469C5216E033F902A00488B0F878
:1026400002B0A24503DBDA45B4BF54465C469C5257
:10265000BEF80C40A44506DA009C14B904889C52CC
:1026600001E084889C522FB9DFF840A00AF294441C
:102670001C5B9C520233B342B5D10C4BD3F8AC3443
:10268000002B75D0094B93F87034013B142B68D89C
:10269000DFE803F02667671C4867673E6767676780
:1026A000675567676767674B550000BF800100206B
:1026B000C6000020E029002064220020C000002085
:1026C0001F85EB51DC2900200D2A0020754C0020CD
:1026D000218903F0B9FA0120618903F0B5FA47E0D6
:1026E000714BD3F8AC335B782BB100206D4B59891B
:1026F00003F0AAFA3CE06D4B1B7813F0040F4FF087
:1027000000001ABF674B5989014603F09DFA2FE07C
:10271000644C0020E18803F097FA0120218903F03E
:1027200093FA25E00BF0ACFE22E05E4C00202189FC
:1027300003F08AFA0120618903F086FA18E0594C07
:102740000020E18803F080FA0120218903F07CFA5F
:102750000220618903F078FA0320A18903F074FA5A
:1027600006E0534B9B6813F0200F01D00BF088FE5E
:102770000BF03CFE4F4B1B7833B94D4B9B6813F469
:10278000806F01D003F0D8FA494B9B6813F4803F67
:102790003DF4D8AC0DF016F9FDF7D4BC464B1868E3
:1027A000FDF7F9BD444B1868FDF7EEBD3E4B002226
:1027B000C3F8E421C3F8E821C3F8B024C3F8B42473
:1027C000C3F8B8240020C3F8BC04C3F8C004C3F89D
:1027D000C4041746FDF7C1BE012302E0022300E056
:1027E0000323DCB2621E324B83F8542707F00AF948
:1027F00009F034FB0220282122460AF061FFFDF790
:10280000C2BF562B7DF479AFFDF775BF264CD4F8C7
:102810009C31BDF83410B3F854200A44A3F8542076
:10282000BDF83610B3F856200A44A3F8562009F034
:1028300099FE002384F88531FDF7A5BF1A4BD3F824
:102840002441FEF7E8B915F0100F3EF4C7ADFEF7CE
:1028500080BA4FF0FF32194B1A60134BD3F858323D
:10286000F61AFEF7EEBB104B93F89C33002B7EF468
:1028700026ADFEF7FFBC00230B49FEF77FBE0A4BD7
:10288000D3F87484074D03240D4FFDE4064BD3F8B1
:1028900074440C49002344E6B8F1010F3FF697ABAE
:1028A000FFF7E2BBC0000020800100200D2A0020BD
:1028B000642200200C2A0020F8290020D0000020EB
:1028C0001F85EB51BE0000202DE9F04FA1B0894BD0
:1028D000894A1A6000225A6002F0C4FC18B909F053
:1028E0004DFE07F08FF809F0B9FA844B997B00236D
:1028F0000693079308934FF4E0130993804B1A68EB
:1029000042F480321A609A6942F010029A611A46C3
:10291000136803F400330793069B01330693079B68
:102920001BB9069BB3F5A06FF2D1754B1B6813F46E
:10293000003F02D0022308931DE0714B1A6842F059
:1029400001021A60002306936D4A136803F0020324
:102950000793069B01330693079B1BB9069BB3F5B0
:10296000A06FF2D1664B1B6813F0020F02D0012357
:10297000089300E0FEE7634B1A6842F010021A6009
:102980001A6822F003021A601A6842F002021A6002
:10299000A3F580535A685A605A685A605A6842F4DC
:1029A00080625A60584A106820F070401060574C9E
:1029B00057480460586820F47C105860136843F04E
:1029C00000431360534BDA6822F40042DA609B68DC
:1029D00013F4004F05D0504A4D4B1A604FF480134A
:1029E00001E04FF4E0130993089B012B19D0022B4F
:1029F0001CD171B1099BB3F5801F03D14FF4A01313
:102A0000099306E0099BB3F5E01F04BF4FF40013E0
:102A100009933B4B5968099A0A4342F480325A6041
:102A200004E0374B5A6842F460125A60344B1A681B
:102A300042F080721A601A46136813F0007FFBD0D0
:102A40002F4B5A6822F003025A605A6842F0020281
:102A50005A601A46536803F00C03082BFAD1059309
:102A6000274B5B6803F00C03042B06D0082B09D01E
:102A700023BB264A294B1A6023E0254B1A68274BB3
:102A80001A601EE01E4B59685A68C1F38343023333
:102A900012F4803F05D1224A02FB03F31F4A136060
:102AA0000FE0174A526812F4003F194A126818BF23
:102AB000520802FB03F3194A136002E0134A174B52
:102AC0001A600F4B5A68C2F30312114B1A4492F862
:102AD00004805FFA88F8114A116821FA08F8C2F8F0
:102AE00000801B68094A93421ED101220D4B1A70C7
:102AF00020E000BF4806002039E1000864220020E1
:102B000000100240002002400410014000127A0030
:102B10001000002000100140001BB700DC00002066
:102B200000093D000E2A0020A24A934202D102224F
:102B3000A14B1A70A14FA24BFB60A24CA36943F0BA
:102B40000103A361636A43F080736362A36943F086
:102B50001C03A36100268DF8426020AD4FF6FF7381
:102B600025F8403D9848294603F07AF897482946C9
:102B700003F076F89648294603F072F8954B5A68A8
:102B800042F000725A60284605F03CFD924A109BC4
:102B9000A2FB03139A0C914B9A60914AA2FB083254
:102BA0009209013A8F4B5A60F02287F823209E60E9
:102BB00007221A6064200BF009F98B4831469022F5
:102BC00011F047FFE36943F00703E361A36943F4AE
:102BD000006343F00C03A3613346844932465A54E0
:102BE000C818427002331C2BF9D17C4BFF2283F8AA
:102BF000282083F8292083F82A2083F82B2010AC82
:102C00007B4B0FCB84E80F006E4B9A6942F00802B1
:102C10009A619A6942F008029A61A3F58233082208
:102C20001A6110221A61109811A903F019F812986C
:102C300013A903F015F8604B1B78012B01F2C68530
:102C400001F0DCBD00200BF0EFF810AC694B93E80D
:102C5000030084E803005B4B9A6942F008029A6122
:102C6000109811A902F0FCFF0EF038FB9F238DF89D
:102C7000303000238DF831308DF832308DF833301C
:102C800032200BF0A3F84FF48052504B5A61A3F559
:102C900054439B8905254FF47A730CA92046FF26DF
:102CA000554A26E011B14C1C0F780AE00C46374615
:102CB00007E0591E89B21BB94F4803F01DF81AE00E
:102CC0000B46118911F0020FF3D0978107E0591ECE
:102CD00089B21BB9484803F00FF80CE00B46118984
:102CE00011F0010FF3D09189C9B208B10170013020
:102CF0002146013DD6D14FF48052344B1A619DF8E4
:102D000041209DF842301B0243EA02429DF84330C5
:102D10001A433A4B9A4218D02C4C4FF480556561B7
:102D2000354E3046F5210EF02FFB3046FF210EF0D8
:102D30002BFB8DF840002561702806D101F017BCEF
:102D400003221D4B1A7001F071BD1B4B1C78032C24
:102D500001F06C8501200DF0C3FF294B9D6805F43F
:102D6000004605F40065274A0021134643F8041B7A
:102D70005160043343F8041B196002238DF832308C
:102D80008DF833101023ADF8303004231370012375
:102D900093700723D370012C36D93023ADF830302F
:102DA000184B05221A7201225A729A720722DA729D
:102DB00002242AE0001BB7000E2A002000ED00E0EC
:102DC0000005FA050010024000080140000C014017
:102DD000001001400000014083DE1B434806002034
:102DE000D34D621010E000E098200020540600202F
:102DF000FC7001080C71010800380040152020000B
:102E000064220020D4020020012476B1BDF83030C5
:102E100043F00203ADF83030BA4B01221A71A11809
:102E20005C719A710722DA71CCB2B7480CA905F02F
:102E300001FD85B120A9022321F8503DB34805F0DA
:102E4000F9FCB04B09221A73621C5C73012199735F
:102E50000721D973D4B2AE4B5A6942F001025A61CC
:102E60009A6942F400729A61AA480AF033F9AA4BAF
:102E70001093AA4B11930023129313941493022CD2
:102E800028BF802315934FF4807316934FF480630B
:102E90001793202318934FF40053199300261A9682
:102EA0009C4D284610A90AF0F5F82B6843F0010361
:102EB0002B609B4B5A6822F4702222F48072012C02
:102EC00094BF0021012142EA01225A609968954A83
:102ED0000A4042F4602242F002029A60DA6A22F466
:102EE0007002611EC9B242EA0152DA623046012222
:102EF000844F1F24072600EB070E9EF802100029BE
:102F000058D0C15D551CEDB29EF803C0092910D9F7
:102F1000D3F80C80A1F10A0E0EEB4E0E06FA0EF954
:102F200028EA09080CFA0EFE48EA0E0EC3F80CE077
:102F30000DE0D3F8108001EB410E06FA0EF928EAF5
:102F400009080CFA0EFE48EA0E0EC3F810E0062A35
:102F50000FD8D3F834E0013A02EB820204FA02FC03
:102F60002EEA0C0E01FA02F24EEA02025A632A46D7
:102F700020E00C2A0FD8D3F830E0073A02EB8202A7
:102F800004FA02FC2EEA0C0E01FA02F24EEA0202E8
:102F90001A632A460EE0D3F82CE00D3A02EB8202C7
:102FA00004FA02FC2EEA0C0E01FA02F24EEA0202C8
:102FB000DA622A46043010289DD1594B9A6842F4AF
:102FC00080729A609A6842F001029A609A6842F0B0
:102FD00008029A601A46936813F0080FFBD1504B11
:102FE0009A6842F004029A601A46936813F0040F3C
:102FF000FBD14B4B9A6842F4A0029A604A4BB3F85B
:10300000E600002841F0BA82B3F9E830002B41F025
:10301000B582454BB3F9EA30002B41F0AF82424B09
:103020009B6813F4003F17D0C8200AF0CFFE0FF0C2
:1030300015FAC8200AF0CAFE3C4C3D4BE36204F18D
:10304000300000210C2211F004FD0FF079FA0AF093
:1030500093FE384B0344A363374B1A6842F00E02C9
:103060001A60314BB3F8EE4093F8ED70334B1B68A8
:10307000B3F852B00022324B1A70324B1D78012D3A
:10308000314B03F10C0298BF1A46284BDA630CF05F
:1030900081FC0290002801F03E832C4B2C4A1A60E0
:1030A0002C4A5A602C4ADA604FF6FF739C4204D1D6
:1030B00000222A4B1A7501F0F0BABB2C04D9012268
:1030C000264B1A7501F0E9BA612C04D90222234B70
:1030D0001A7501F0E2BA292C04D903221F4B1A7584
:1030E00001F0DBBA132C04D904221C4B1A7501F031
:1030F000D4BA092C8CBF05220622184B1A7501F090
:10310000CCBA00BFD402002000080140000C0140EE
:1031100000100240080002404C240140E40200205C
:1031200000240140FDF7F1FF642200204806002042
:1031300074230020404B4C00080300201C03002097
:103140001A0400200E2A0020E47001080404002064
:103150008910010815F6000890C1793D1000002083
:10316000374689F800A0092F00F2CA80DFE807F08F
:103170000C0C2F91B1C8C8C8C8059F4B1A6822F023
:1031800002021A6001F09DBA012D27D820AB03F886
:1031900040AD5320314601220EF0F2FF002801F02D
:1031A0008D829DF84030E52B41F08882934B83F867
:1031B0004060934B2360934B6360042389F8003095
:1031C000012388F800309F4241F07882A3E0022D6D
:1031D0008D4BA3F10C0238BF134600E08A4B874A9F
:1031E000D3630CF0D7FB002853D0682006210A4691
:1031F00010AB0EF0C5FF9DF8452002F001029DF8CE
:10320000433003F001035B0043EA82029DF8413042
:1032100003F0010313430FD0012B03D1774B83F845
:10322000416021E0022B04D10122744B83F841203C
:103230001AE005200AF000FE68200C2101220CABE8
:103240000EF09EFF9DF8303013F00F0302D10520E1
:103250000AF0F2FD042B03D1684B83F8416003E0D0
:103260000122664B83F84120684B2360684B636002
:10327000624B93F84130002B14BF6E236F232372EF
:10328000022388F80030012389F80030022F01F072
:103290001882012D1DD820AB03F840AD1C200D2154
:1032A00001220EF06DFFA0B19DF840302A2B01D015
:1032B0001A2B0ED1574A2260574A62604F4A82F851
:1032C0004230022389F80030032388F800309F42FF
:1032D00021D020AB03F840AD1820314601220EF07A
:1032E0004FFF68B19DF84030FB2B09D14B4B236059
:1032F0004B4B6360042388F80030012389F80030C9
:1033000098F800303BB9002F7FF42AAF3A4B1A6887
:1033100022F002021A60012D06D142480BF00CFF88
:103320004FF40052404B5A610A200AF04FFD7720BB
:10333000A02101220CAB0EF023FF002801F0E38155
:1033400077201E2101220DF0E5FD4FF42F600AF0D9
:1033500031FD00242546294E8DF840508DF841500E
:10336000A4F160017720C9B2022210AB0EF008FF71
:103370009DF840209DF8413043EA022206F14403C3
:10338000E2520234102CE7D1443BB3F8525005F01E
:103390000F0405F47F45A3F852500120002319467D
:1033A000164F059E21F001023A44B2F84420002A4B
:1033B00018BF002011F0010F1ABFD2B2534083EAA8
:1033C000122301F085B913F4004F18BF83F4C053E2
:1033D0005B00013AF7D101311029E3D12543074AB7
:1033E000A2F85250002841F08E81C3F303339C426F
:1033F00001F0718101F087B9080300204806002020
:10340000BD11010885230108F0700108F9F00008DA
:10341000D5F5000805110108D92201089911010804
:103420003D23010814710108001001409A480BF077
:1034300083FE4FF48044ADF8304004238DF83230E1
:10344000964D28460CA902F00BFC4FF400532B615B
:10345000934B5A6922F470625A615A6942F40072BD
:103460005A61109400268DF8446008238DF8453089
:1034700001248DF8464010A809F0DAFD28238DF8C4
:103480002C3003258DF82D508DF82E608DF82F40AF
:103490000BA809F0AFFE14200AF098FC7720D02189
:1034A00022460CAB0EF06CFE9DF830307D4A82F85F
:1034B0006B30A2F87450552B40F089807720D121D1
:1034C00022460CAB0EF05CFE9DF83030754C03F0DC
:1034D0000F0284F86C201B0984F86D307720AA2134
:1034E000162210AB0EF04CFE9DF840209DF84130A6
:1034F00043EA0223A4F854309DF842209DF843305B
:1035000043EA0223A4F856309DF844209DF8453044
:1035100043EA0223A4F858309DF846209DF847302E
:1035200043EA0223A4F85A309DF848209DF8493018
:1035300043EA0223A4F85C309DF84A209DF84B3002
:1035400043EA0223A4F85E309DF84C209DF84D30EC
:1035500043EA0223A4F860309DF84E209DF84F30D6
:1035600043EA0223A4F862309DF850209DF85130C0
:1035700043EA0223A4F864309DF852209DF85330AA
:1035800043EA0223A4F866309DF854209DF8553094
:1035900043EA0223A4F86830012384F8783041F22A
:1035A0007073A4F87C3046F67813A4F87E303E4B56
:1035B000C4F880303D4BC4F884303D4BC4F88830AB
:1035C0003C4BC4F88C303C4BC4F8903008E04FF4CE
:1035D0000052324B5A61394B1A6822F004021A60C9
:1035E00020AB002203F8402D1E200A2101220EF0FC
:1035F000C7FD38B19DF84030482B03D10322304B32
:103600001A7004E02D4B1A6822F008021A602D4B44
:1036100093F8E2300BB12C4A13702A4B93F8E33045
:103620000BB12A4A1370274B93F8E4300BB1244AAC
:103630001370224B1B6813F0020F02D0244B1B683F
:103640009847244B1B6898471C4B1B6813F0080FC6
:103650001CD00FFA8BFB64259BFBF5F4204610F081
:10366000B9FB064605FB14B000B210F0B3FB1A49D3
:1036700010F004FC0146304610F0F8FA174910F03B
:10368000FDFB084BC3F8940001F048B80022054B3D
:10369000C3F8942001F042B81471010800100140F1
:1036A00000000140480600207110010891F5000853
:1036B0004910010835F50008C94D0008080300202D
:1036C000FC290020642200201A040020820400202B
:1036D00070040020040400208988883C00002041F8
:1036E000E36883F01003E360E36883F00803E360BA
:1036F00028460AF06BFB38460AF096FB28460AF08B
:1037000065FB00200AF090FB731E13F0FF06E7D163
:10371000734B08221A6110221A61724B1B6893F9CD
:103720000C0010F057FB704910F0A8FB11F0C0FB23
:1037300005466E4C208810F04DFB294610F09EFB8C
:1037400011F0ECFB6A4B1880208810F043FB014617
:10375000684810F047FC684910F044FC674B18605B
:10376000674BD868604910F089FB664910F086FB0A
:10377000654B1860654B5A7965490A7003F1100072
:103780006449C1F89800644901EBC20292F84510FF
:10379000624A11609B6813F0200F02D001225F4B38
:1037A0001A605F4B1B6813F0080F00F008811022AD
:1037B0004B4B5A615B4B1B78022B34BF4FF480514B
:1037C0004FF4804134BF08241446574A906920437F
:1037D0009061ADF8301002228DF8332004228DF86C
:1037E0003220524A3E48012B88BF10460CA902F0F5
:1037F00037FA32200AF0EAFA1E20002111220DF0D9
:1038000089FB1E20012160220DF084FB64200AF058
:10381000DDFA10A80CF082F80A2700242546264677
:103820004FF01E0ADFF80891DFF8B48050460221FD
:1038300001220DF06FFB32200AF0C8FA10A80CF03C
:103840006DF8BDF940201644BDF942100D44BDF994
:1038500044301C449142B8BF0A469A42B8BF13464E
:103860004B4509DBD8F80C3083F01003C8F80C3056
:10387000013FDBD1012700E000271E20002112229A
:103880000DF048FB4FF00A084FF01E0BDFF8A0A028
:10389000DFF84C905846022101220DF03BFB32200C
:1038A0000AF094FA10A80CF039F8BDF94020B61AC5
:1038B000BDF942106D1ABDF94430E41A9142B8BF07
:1038C0000A469A42B8BF1346534533DBD9F80C3049
:1038D00083F01003C9F80C30B8F10108DAD12AE0FE
:1038E000000C0140B404002035FA8E3C0200002098
:1038F000D80400200AE81C4100401C46EC030020CC
:1039000004040020BD378635B00400206422002066
:10391000F005002048060020E47001082C06002075
:10392000080300200E2A0020001002400010014071
:1039300001F0FFFF0027DFF8C882304610F04AFA96
:1039400001469B4810F04EFB20F00040C8F81800DC
:10395000284610F03FFA0146954810F043FB20F04E
:103960000040C8F81C00204610F034FA0146914887
:1039700010F038FB20F00040C8F820001E20002185
:1039800070220DF0C7FA1E20012120220DF0C2FA8C
:103990001E20022100220DF0BDFA64200AF016FA62
:1039A0003FB94FF07E52C8F81820C8F81C20C8F85C
:1039B00020201022804B1A610122804B1A700022B5
:1039C0007F4B1A604FF0FF327E4BC3F89C207E4B3A
:1039D00003F180017D4A43F8042F8B42FBD1F02292
:1039E0007B4B83F82220774D0024C5F8C040C5F8F2
:1039F000E840C5F8E440774BC5F8EC301C3BC5F80F
:103A0000F030754E754B009330460F210422102381
:103A10000AF0A0FF30462146224604F07DFD704B9F
:103A2000C5F8F43005F1F8006E490AF099FC30460B
:103A300005F1F401224608F06FF86B4D28460FF0AF
:103A400099F81C941D941E941F94A5F596756B7996
:103A50000E2B01D0082B02D101238DF87630634A5A
:103A60009368C3F340018DF87110C3F380118DF892
:103A70007210C3F340318DF86C10C3F3C0318DF870
:103A80006E10C3F3C0218DF86F10C3F300418DF8A1
:103A9000731003F001018DF86D1055480068003077
:103AA00018BF01208DF874005248006890F8B001EA
:103AB000C0F380008DF87500B2F8DE00ADF8780034
:103AC000B2F8E020ADF87A204FF47A72ADF87C209D
:103AD00013F4805F04D0454BB3F8DA30ADF87C3096
:103AE000B0F5FA7F84BF0023ADF87C303F4AB2F8CE
:103AF0001A31ADF87E30334B92F8222183F8002141
:103B00000022A3F804219DF87630934214BF0223CB
:103B1000134601B10133384A02EB8303D3F8FC00AA
:103B20000188CAB20B0A4FF6FF74A14200F04B8124
:103B300083460E2103910027DFF8C890214C04F53D
:103B4000A871049108E03BF8021FCAB20B0A4FF6B5
:103B5000FF70814200F03781110109EB01059DF8EA
:103B6000700020B1901EC0B2012840F227819DF85C
:103B7000720028B159F80100B0F1804F00F01E81A9
:103B80009DF8730028B159F801001C49884200F0E3
:103B900015819DF86E1011B1012A00F00F81022BE2
:103BA00032D19DF86C10002908BF002330E000BF1F
:103BB00000406F4601C05E46000C0140B203002089
:103BC000E021002048060020E021002034000020F1
:103BD00000ED00E040000040288C010840420F004A
:103BE00041E20008311701089023002064220020E0
:103BF0002C0600201C030020E47001080004004093
:103C000010000020F88B0108012B08BF9DF86D30D3
:103C10009DF8741049B19DF8761031B9A2F10801F0
:103C200001F0FF01012998BF04239DF8751039B1F7
:103C30009DF8761021B9043AD2B2032A40F2A78047
:103C4000012B3AD1002684F80861C4F80C61C4F84D
:103C50001061C4F81461C4F84861FF2384F84C3142
:103C600084F84D3184F84E6184F84F6184F85061D6
:103C7000C4F85C514FF00108CDF8008028460221BD
:103C8000052210230AF066FE2846E97B02F022F89E
:103C900028464146324604F0DBFAB54BC4F86031A1
:103CA000B44BC4F86431C4F86861284604F5B071B7
:103CB00004F5B27207F030FF80E0022B33D1FBB283
:103CC0001C2202FB03F3049E1E444FF0000A86F8F8
:103CD00002A086F80AA077704FF00108049A02F853
:103CE0000380F560CDF80080284641460522102368
:103CF0000AF030FE2846E97B01F0ECFF28464146F9
:103D00004FF0FF3204F0A4FA9B4B33619B4B73617D
:103D1000C6F818A0284606F1100106F1140207F0B3
:103D2000FBFE47444AE0032B2FD1BDF87830B3F5B2
:103D3000FA7F12D994F80561914AB2FBF3F2284652
:103D4000082192B2BDF87C3004F02AFB04EB860611
:103D5000C6F830028B4B836011E094F805618A4A03
:103D6000B2FBF3F22846012192B2BDF87C3004F098
:103D700017FB04EB8606C6F83002844B836094F888
:103D80000531013384F8053118E0042B16D194F87D
:103D90000461BDF87A307C4A92FBF3F22846012197
:103DA00092B2BDF87E3004F0FBFA04EB8606C6F84A
:103DB000600294F80431013384F80431039B013B21
:103DC00003937FF4C0AE724B93F80421714B1A70C9
:103DD000714B1B78162B1FD16D4BD3F89840206880
:103DE000002110F0DFF9002800F0A3842AE0D9F8C0
:103DF00098301D191859414610F0D4F910BB04EB46
:103E0000070E95E80F008EE80F003378013333700A
:103E10001034C02CEBD115E0604A02EBC30292F8DB
:103E200044305F490B70966C66B15BB14FEA031E7C
:103E300000245C4FE51933190FCB85E80F001034CF
:103E40007445F7D1584B9B6813F4805F21D0544BD5
:103E50001B789A1ED2B2FD2A1BD8544DA5F1080436
:103E600004EB03174FF07C56A068314610F006F8BB
:103E7000A06055F8040C314610F000F845F8040C29
:103E8000E06831460FF0FAFFE06010351034BC42B4
:103E9000EAD1414B1B78082B01D00E2B05D1444BA6
:103EA0001A7842F010021A7004E0414B1A7822F09E
:103EB00010021A7005F07AFE354B3E4AC3F8802294
:103EC0003D49C3F884120021A3F88A1283F88C12AA
:103ED00003F5217139480160C3F89012384B1A601C
:103EE0005189384B03F1240223F8021F9342FBD17E
:103EF000354A364B1A602C4B9B6813F0080F00F0C4
:103F0000BD80294B93F81831042B00F2AE80DFE816
:103F100003F00303638A9B007BB1012B1AD11C4B76
:103F2000032283F89422072283F89522012283F842
:103F300096220C2283F898220CE0154B022283F87B
:103F40009422032283F89522002283F896220722E6
:103F500083F8982210201E490BF050FC0C4BC3F83C
:103F60009C021C4AC3F8A022031C18BF01237DE059
:103F7000ED4A0008F54B0008395B0008BD4A00080F
:103F800000127A00154C000840420F00054C000852
:103F9000480600200C060020F0050020E47001080F
:103FA000DC29002030050020642200203805002094
:103FB0001403002074230020F07101080003002086
:103FC00088010020AA020020CC08002098020020CE
:103FD0001872010871C9000810205F490BF00EFC2F
:103FE00004465E4BC3F8A4025D4BB3F81A010FF010
:103FF000F1FE5C490FF042FF5B490FF035FE10F017
:1040000029F95A4A02F1400342F8040F9A42FBD1BF
:10401000524B574AC3F8A022102283F89822231C3F
:1040200018BF012322E0102052490BF0E7FB4B4A56
:10403000C2F8A802504BC2F8A032102382F898327E
:10404000031C18BF012311E010204C490BF0D6FBD4
:10405000424AC2F8AC024A4BC2F8A032082382F8A6
:104060009832031C18BF012300E0002333B9082055
:1040700001F0F0F80022394BC3F8A022384B9B68BE
:1040800013F4804F06D0354A082182F898123D4932
:10409000C2F8A01203F0010203F4005142F2010041
:1040A00003420DD0384C2D48C0F8A04219B1082069
:1040B0002A4981F898021AB10C21284A82F89812EC
:1040C000264A92F89812043982F8991213F0800F58
:1040D00071D02E4BC2F8B032D96800232C4A08E0C8
:1040E0000133DBB2042B04D900221C4B83F8B52228
:1040F00008E002EB0310D0F868018842F0D1174ABB
:1041000082F8B532154C234DC4F8D052002007F088
:10411000AFFB214B1B68C4F8BC320023C4F8B83293
:104120002B78002B0CBF0122032294F8B512184BF8
:1041300003EB0113D3F86831C4F8D832A4F8D422C1
:10414000202004F535710BF059FBC4F8E00228BBC0
:10415000802001F07FF824E0247201084806002046
:1041600064220020CDCCCC3F0000B044A801002048
:104170003DCA0008307201082DCA00083C720108CF
:1041800019CA000869CA000875CA000890230020EF
:10419000E47001088C230020DC210020012007F0BE
:1041A00067FBA54B186800F5D972A44BC3F8E4224D
:1041B000043001F089FBA24B9B6813F4007F0ED002
:1041C00013F4005F14BF9F489F480EF00DFF9F4BF4
:1041D0001A6842F010021A6000229D4B1A609D4B33
:1041E0001968964B9C4AC3F8E82202F18000C3F894
:1041F000EC02C3F8F012002183F8F412A2F5AA72BF
:10420000936813F4803F00F09B8001F0DFF901F028
:104210001BFA01F0F1F9894B012783F8F47203F5D9
:104220003E7940F22A3848460021424610F011FCFF
:104230008A4EB36943F00403B3614023ADF82830DC
:1042400018238DF82B3003238DF82A3084480AA9CF
:1042500004F0F0FAF36943F00203F361814B1A684A
:10426000814BB2FBF3F2013A92B2804C238823F4E3
:104270005C731B041B0C23801D23A3852285A7824E
:104280006023ADF83030ADF832700025ADF836500F
:10429000ADF8385020460CA904F03CF8238B23F0ED
:1042A00008031B041B0C43F008032383B4F84430B9
:1042B0006FEA43436FEA53439BB2A4F844307369F7
:1042C0003B437361A6F69476304608F003FF684BD3
:1042D0001093CDF844904FF01009CDF84890CDF8E8
:1042E0004C801495802315934FF480731693179583
:1042F00018954FF4005319931A95304610A908F0F9
:10430000C9FEA3899BB243F40073A381336843F0D1
:10431000020333608DF82C908DF82D708DF82E509F
:104320008DF82F700BA808F065FF524A524B1B689E
:1043300053510435802DFBD10AF062FB0AF060FB7B
:104340003F4B9B6813F4806F00F0B4803B4BD3F875
:10435000A4361B78032B0CBF08200420012105F094
:104360006DFD364B83F8A806354B9B6813F4806FC0
:104370001CD0324BD3F8A4462378032B0AD0042058
:1043800009F054F80146042005F0A2FC88B1237816
:10439000032B10D1082009F049F80146082005F048
:1043A00097FC003018BF0120029004E00022029226
:1043B00001E000230293214B029983F8A916D3F858
:1043C000A4361A78042A73D8DFE802F003072E32E5
:1043D00058001A4AC2F8AC366AE0184CC4F8B03635
:1043E0002C2704F2B46000213A4610F032FB7C2600
:1043F00084F8B4668E2384F8B536E02384F8B736A3
:104400007D2584F8DF5604F5DC6000213A4610F083
:1044100020FB84F8E0668A2384F8E136A02384F840
:10442000E33684F80B5743E0044AC2F80C373FE008
:10443000024AC2F810373BE01C0300204806002067
:104440006422002098720108A47201080803002069
:10445000D000002000030020B823002000100240FC
:1044600000080140DC00002000366E01000400401E
:10447000340400406C0C0020B0720108B64AC2F847
:1044800014370024B54D286880B2A1B201F022F89B
:1044900001340C2CF7D1B04B0022C3F81827C3F815
:1044A0001C27AF49C3F8281783F8242783F825274A
:1044B0000EF01CFC09F060FCAA4B1860AA4B5B795B
:1044C000052B03D14FF4C872A84B1A804FF47A72AF
:1044D000A74B1A80C822A74B1A80A74B1A7842F024
:1044E00008021A70A54B1A7822F002021A709E4B2D
:1044F0009B6813F0020F29D0A14A974BC3F82C27D1
:104500002824059D0CF061FF204609F05FFC013D69
:10451000F8D1914B93F83007934B93F805118142F2
:1045200008D84A000223824205D801330A44082BE6
:10453000F9D100E00123DBB2924A13708A4A92F863
:10454000062102FB03F3844AA2F83237864B9B68AC
:1045500013F4003F00F084817F4B93F8332042F046
:10456000010283F83320032283F8342078E1864B5C
:104570001B78022B7EF4E9ABFEF7E2BB0022834BF3
:1045800083F82C2000B20FF025FC81490FF076FC57
:104590000646754CB4F9E8000FF01CFC7C490FF09E
:1045A0006DFC0546B4F9EA000FF014FC78490FF0F1
:1045B00065FC0446304610F07BFC0746304610F0A0
:1045C000EBFC8046284610F073FC0646284610F0A7
:1045D000E3FC0546204610F06BFC8246204610F0B6
:1045E000DBFC8146384651460FF048FC02903846C5
:1045F00049460FF043FC0390404651460FF03EFC05
:104600000490404649460FF039FC8346524C3046F0
:1046100051460FF033FCC4F8340706F10041484618
:104620000FF02CFCC4F83807C4F83C57284604990E
:104630000FF024FC014603980FF018FBC4F8400764
:10464000284659460FF01AFC014602980FF00CFB61
:10465000C4F8440708F1004130460FF00FFCC4F8DD
:104660004807284602990FF009FC014658460FF00A
:10467000FBFAC4F84C07284603990FF0FFFB0146EC
:1046800004980FF0F3FAC4F85007384631460FF09B
:10469000F5FBC4F85407FEF7C2BC01223D4B1A706B
:1046A0003D4B1A6842F001021A60DFF818910026AB
:1046B000B246DFF81481394CFEF753BD384BFEF794
:1046C0008EBD98F80030002B3EF44AADFEF723BEB5
:1046D0003246FEF778BE204B42F21072A3F87C20DF
:1046E000A3F87E202F4AC3F880202F4AC3F88420E5
:1046F0002E4AC3F888202E4AC3F88C202D4AC3F8CE
:104700009020FEF76DBF144B93F87830002B3EF4E9
:104710008DAEFEF765BF032009F08EFB264B1022FD
:104720005A6108221A610A261C4619250127FEF73C
:10473000D7BF224D94E80F0085E80F00204B1A7870
:1047400001321A701024DFF810904FF000082F4645
:104750001E46FFF74CBB00BF48060020DC210020AE
:10476000F59300080C0500206422002012030020AD
:10477000042A0020FE290020140300200D2A002016
:1047800068230020D80000200E2A002010000020FE
:1047900035FA8E3C1A040020080300207004002023
:1047A000E4700108391001080DF50008291001080E
:1047B00021F50008414C0008000C014030050020A4
:1047C000DC290020820400200F2A00204FF48053AF
:1047D000ADF8403010238DF8423002238DF843307D
:1047E000214B9A6942F004029A61204810A901F015
:1047F00037FA1F4A1F4B1A60FEF724BA4FF4805352
:10480000ADF8403014238DF8423002238DF8433048
:10481000154B9A6942F004029A61144810A901F0FC
:104820001FFA154A134B1A60FEF70CBA134B9D681A
:1048300005F4004605F40065114C204600211022C5
:1048400010F007F902238DF8323000238DF8333051
:10485000042323700123A3700723E370FEF79DBA9E
:1048600021B0BDE8F08F00BF0010024000080140F9
:10487000B5D80008102A0020D1D8000864220020F2
:10488000D40200202DE9F001884228BF012404D27F
:10489000012400264FF030080AE001FB04F4B0FBCD
:1048A000F4F58D42F9D21F46ECB1F2E71F463B46C4
:1048B000B0FBF4F504FB1500B4FBF1F41EB9002DB8
:1048C00001DC002CF2D15F1C092D06DD002A0CBF93
:1048D0004FF0570C4FF0370C00E0C44665441D7094
:1048E0000136002CE3D100233B70BDE8F001704796
:1048F0002DE9F001884228BF012404D201240026BA
:104900004FF030080AE001FB04F4B0FBF4F58D42EF
:10491000F9D21F46ECB1F2E71F463B46B0FBF4F577
:1049200004FB1500B4FBF1F41EB9002D01DC002CD2
:10493000F2D15F1C092D06DD002A0CBF4FF0570C89
:104940004FF0370C00E0C44665441D700136002C62
:10495000E3D100233B70BDE8F001704703685A1CA7
:1049600002601970704700BF2DE9F04105460E4600
:10497000069F002B0CBF4FF020084FF030083B780B
:104980004BB1002A1CDD3B46013A13F8010F10B170
:10499000002AF9D114E0541E002A06DD28464146BB
:1049A000B047013CB4F1FF3FF8D1397851B13C46F2
:1049B0002846B04714F8011F0029F9D1BDE8F0815D
:1049C0003978F4E7BDE8F08110B40346C28802F0FC
:1049D000800292B25AB10269416C541A8069005D3A
:1049E000C0B20139002908BF1146596408E0426A83
:1049F0008169885CC0B21969013901320A405A6282
:104A00005DF8044B704700BFC38803F080039BB27E
:104A10003BB1436B59680369013B426C881A1840EB
:104A200070470369013B016A426A881A184070475F
:104A3000C38803F480739BB213B190F848007047A9
:104A4000C26A836A9A4214BF00200120704700BFE7
:104A5000C3684B60C3880B80036B8B60704700BFDB
:104A6000436A026A9A4208D08269D15C0269013ABB
:104A7000013313404362084670474FF0FF307047E0
:104A80000369013B016A426A881A1840704700BFF7
:104A9000826AC06A824214BF00200120704700BFB2
:104AA000D0F83C32044AB2FBF3F34B60C3880B806E
:104AB000036B8B60704700BF0040420F10F80A3C48
:104AC0000133DBB200F80A3C0A2B0BD910F8123C78
:104AD0002BB910F8132C0021034B23F812100023DC
:104AE00000F80A3C704700BF6814002010B43C4B2B
:104AF0009A68186C014499608A1ADA60596040F625
:104B00008C239A4248D9364B187893F9453098420D
:104B100011D1031FDBB2082B0DD8314B93F846306F
:104B2000182B04D801332E4A82F8463007E02C4B6C
:104B300083F8440003E00022294B83F84620284BE9
:104B400093F9443098421ED1254B93F84730D3B1A6
:104B500048B1244B244A03EB800453F8041F22F885
:104B6000021FA342F9D10B2809DC431E1F4901EBA8
:104B700043031631002223F8022F8B42FBD11C4B3A
:104B80001A7801321A70164B012283F8472083F8F5
:104B9000450000221A7020E0114B93F84730E3B132
:104BA000A2F2EF2140F2DA5399420AD80C4B1B785B
:104BB0000B2B06D80A49181D41F8202001330B7031
:104BC0000BE00749002381F8473001F10C033C3129
:104BD000002243F8042F8B42FBD15DF8044B704751
:104BE000500700205C070020661400206814002095
:104BF00048110020024B1A6C0132114419647047AD
:104C000050070020024B53F820301B681980704772
:104C100078080020084B53F820301A68A1F57A7103
:104C20009B8803FB01F1054B83FB0103C917C1EB13
:104C3000A31189B21180704778080020D34D62100B
:104C40002DE9F00F84B003908C465B4E73895B4A6C
:104C50001768A7EB03274FEAE779B288002545EAF2
:104C6000124514043289A2FB070102FB0911C20993
:104C700042EA4162CB11A01845EB0301CDE90001E6
:104C80007288002545EA5245D403F288A7FB020149
:104C900002FB0911020A42EA01620B1214EB020A3A
:104CA00045EB030BB289A7FB020102FB0911C20D00
:104CB00042EA4122CB1512F5FA6643F10007B6F538
:104CC000FA6F77F1000157DA02FB03F4A2FB02014D
:104CD00001EB44018D0045EA90758400001941EB19
:104CE00005014D104FEA3004DDE90089B8EB0408F6
:104CF00069EB0509CDE90089840844EA81748D10C7
:104D0000BAEB040A6BEB050B2D484FF0FF318642DE
:104D100077EB010930DA40F6AC500021121843EB72
:104D2000010302FB03F1A2FB022303EB4103544204
:104D300063EB4305E90041EA5471E000801841EB60
:104D40000301DDE90045241845EB0105CDE90045E7
:104D5000941843EB0305A90041EA9471A0000019DF
:104D600041EB0501801841EB030149104FEA300087
:104D7000BAEB000A6BEB010B124B1A68A2FB0A019B
:104D800002FB0B11420D42EAC1224B15DDE90089FD
:104D9000B2EB080263EB0903D00B40EA4340039BEC
:104DA00003B11860BCF1000F01D0CCF8006004B072
:104DB000BDE8F00F704700BF8C060020A817002048
:104DC00024FAFFFFAC1700202DE9F001364B1C88B8
:104DD000364B5A89A41A1A8902FB04F4E413B3F976
:104DE0001250ED02B3F91420224495FBF2F2224452
:104DF000DA6102EB8206760008363611A2F57A6295
:104E000002FB02F52D13B3F90EC00CFB05FCB3F940
:104E1000028008FB02F8B3F92040B3F9047007FBE5
:104E200002F2B3F90C7007FB05F52D1405EB6237A0
:104E30000237BF1007F50047DA8802FB07F7FF0BC0
:104E40004FEAE82202EBEC22B3F9003002EB8302D6
:104E5000A2400232164D2D68A5EBA2024CF250354D
:104E600045FA04F404FB02F4002CA7BF6300B3FB73
:104E7000F7F3B4FBF7F35B001A1202FB02F240F601
:104E8000DE3404FB02F20B4C04FB03F4241404EBA9
:104E9000224202F6CF6203EB221300B1036001B19C
:104EA0000E60BDE8F0017047B81700209C06002096
:104EB000B417002043E3FFFF2DE9F843024610F842
:104EC000013B202BFAD0092BF8D02D2B02D1024622
:104ED000554F04E02B2B08BF01324FF07E5714785A
:104EE000A4F13003DBB2092B1AD8551C0026DFF8D9
:104EF0003C81304641460EF0C1FF0646A4F1300029
:104F00000EF068FF014630460EF0B0FE06462A4617
:104F100015F8014BA4F13003DBB2092BE9D900E00D
:104F200000262E2C24D1501C5378A3F13001C9B295
:104F300009291CD8951C3D4CA046A3F130000EF069
:104F400049FF21460FF04EF8014630460EF08EFE26
:104F50000646204641460EF091FF04462A4615F8C3
:104F6000013BA3F13001C9B20929E6D900E00246AC
:104F7000137803F0DF03452B4BD153782D2B03D14E
:104F800002324FF0010805E02B2B14BF0132023230
:104F90004FF000081378A3F13001C9B209292FD8C6
:104FA000002404EB840403EB4404303C12F8013F7A
:104FB000A3F13001C9B20929F3D9B4F59A7F28BF0A
:104FC0004FF49A74072C0FD925464FF07E51DFF825
:104FD0006090084649460EF051FF0146083D072DF6
:104FE000F7D804F0070401E04FF07E5154B10F4DA3
:104FF000084629460EF042FF0146013CF8D101E087
:105000004FF07E51B8F1000F05D030460EF0EAFFA8
:1050100004E04FF07E5130460EF030FF39460EF07E
:105020002DFFBDE8F88300BF000080BF00002041D5
:1050300020BCBE4C2DE9F04F87B08146884614460F
:105040001F460026D9E0252903D001344846C04731
:10505000D3E06278302A02D00234B24603E0A2786C
:1050600003344FF0010AA2F13003DBB2092B21D83F
:10507000354605E005EB850503EB450514F8012BE6
:10508000A2F13003DBB2092B02D8A2F130030EE00B
:10509000A2F16103DBB2052B02D8A2F1570306E0AF
:1050A000A2F14103DBB2052B05D8A2F137030A2B8D
:1050B000E0D900E035466C2A03BF22780134012391
:1050C0003346632A00F0848008D8252A00F09280B5
:1050D000582A5AD0002A00F094808EE0732A7DD09E
:1050E00002D8642A22D088E0752A02D0782A4CD0CF
:1050F00083E04BB107F1040B38680A21324603AB59
:10510000FFF7F6FB5F4608E007F1040B38680A2159
:10511000324603ABFFF7B6FB5F4603AB009348464E
:1051200041462A465346FFF71FFC66E093B107F15C
:10513000040B3868002806DA40422D238DF80C3025
:105140000DF10D0300E003AB0A213246FFF7D0FB5F
:105150005F4611E007F1040B3868002806DA404288
:105160002D238DF80C300DF10D0300E003AB0A2167
:105170003246FFF787FB5F4603AB00934846414644
:105180002A465346FFF7F0FB37E063B107F1040B03
:1051900038681021582A14BF0022012203ABFFF700
:1051A000A7FB5F460BE007F1040B38681021582A73
:1051B00014BF0022012203ABFFF764FB5F4603AB81
:1051C0000093484641462A465346FFF7CDFB14E07C
:1051D0003D1D48463978C0472F460EE007F1040AC6
:1051E0003B680093484641462A463346FFF7BCFBDE
:1051F000574602E048462521C047217800297FF420
:1052000022AF07B0BDE8F08F38B505461446B0FBB5
:10521000F2F010B1FFF7F8FF0146B5FBF4F304FB21
:105220001354034B1B5D084600F8013B38BD00BF1B
:10523000BC8D010880EAE073A3EBE0738B4207DBCF
:10524000002801DD401A7047002802DA0844704740
:1052500000207047024B9A6822EA0000986070476D
:1052600064220020134B1B78552B1AD1114B5B88FD
:10527000B3F5EF6F17D10F4B1B79BE2B15D10D4B2B
:1052800093F87437EF2B12D100200A4B0A4913F818
:10529000012B50408B42FAD1D0F1010038BF0020E1
:1052A00070470020704700207047002070470020A2
:1052B000704700BF00F8010878FF0108F8B51E4CE0
:1052C00023681B78013B1D4A1068B0FBF3F00EF019
:1052D0007DFD1B490EF086FE1A490FF0EDFE0146DA
:1052E0004FF07E500EF0C0FC17490EF0C7FD0FF0D6
:1052F00015FE074623685D68144C20680EF06AFDB1
:1053000029460EF0BBFD0646114B1868381A0EF000
:1053100061FD07464FF07E5029460EF0A5FC014680
:1053200038460EF0ABFD014630460EF09FFC0FF004
:10533000F5FD2060F8BD00BFC0030020BC030020C5
:1053400080E6C547B1DC423ED048874AD003002002
:10535000C403002038B5254B1B68C31A002B44DB5F
:10536000224B18601B79012B10D013B1022B1FD0D8
:1053700038BD1F4CA3689847E36898471B4B012230
:105380001A7161881A680A441A6038BD184C23697A
:10539000984763689847154D22882B681344284620
:1053A00040F8083B63691349984702232B7138BDC5
:1053B0000E4B00221A71104A14689968D868431C71
:1053C0000E4A12681278934203D101220C4B1A70D4
:1053D0000023064A02EB80000161214402EB8300B6
:1053E0000069091AD360044B196038BDA00D002074
:1053F000C4060020800E0020BC030020C003002053
:10540000B30300200E4B1B78BBB10E4B1B681A7800
:10541000032A06D10C4B187802288CBF00200120EB
:1054200070475B7823B1094B1868C0F3C0407047E0
:10543000074B1878C0F3800070470120704700BF09
:10544000F00C0020EC0C002068200020A4020020BA
:105450000D2A002010B485B00091ADF8060010238D
:105460008DF80830BDF80630ADF809300098CDF859
:105470000B000DF107030DF10E00002213F8011FC0
:105480000A448342FAD1D3B203EB1222D3B203EB24
:105490001222D2438DF80F200B4B1A68531C03F0D5
:1054A00007030A4909688B4209D0094901EBC20286
:1054B00004AC14E9030082E80300034A136005B05A
:1054C0005DF8044B704700BF640D0020600D0020A4
:1054D000F410002030B441EA0041134B1C68621CF8
:1054E0001A60CCB1601E4008104B53F820305A1A95
:1054F000B2F5803F12DB0D4D09E0421E520855F80F
:1055000022305C1AB4F5803F09DB0446104645F8AA
:1055100024300028F1D102E0204600E02046034B71
:1055200043F8201030BC7047C00E0020C40E00208D
:1055300030B40028B8BF4042164C84FB0032C31779
:10554000C3EBA252144B03FB0200C0EB001083001C
:1055500084FB0350DD17C5EBA050104C2468247B5E
:105560003CB902EB820202EB820200EB82020A806B
:1055700004E0C2EB021200EB82020A80064A02FB40
:105580000033074A82FB0302DB17C3EBA2134B80F5
:1055900030BC70476BCA5F6B806967FFF40C0020FA
:1055A000D34D621008B508480FF094FAC0B2142821
:1055B00008D805492022431CDBB20A54152B01D020
:1055C0001846F8E708BD00BFFC1F00200023084A6A
:1055D0001370084A1068064AC118498809B9C15CA5
:1055E00029B11178013111700433802BF4D1704747
:1055F000781E00203009002010B40D4B19780D4B97
:1056000093F8D0204B085C1E0B48047001F0010198
:105610000B440A4803705308581E0949087002F0E9
:105620000102134407490B705DF8044B704700BF3B
:10563000851E0020A00D0020801E0020821E00205C
:10564000831E0020811E002070B40023124A82F8BD
:10565000D030124A1370124B1D78D5B1114B1E6811
:105660000D4B93F8D0000023144616F8232011099F
:105670008142A8BF481C02F00F0221788A42A4BFD1
:10568000013222700133DAB29542EED8024B83F830
:10569000D00070BC704700BFA00D0020851E002008
:1056A000781E002030090020F0B40478E4B1002214
:1056B000134617462E2C03D10133B9B1C4186754D1
:1056C00002EB820255002A46C45CA4F13006F6B211
:1056D000092E9CBFA5F1300212190E2B08D80133F8
:1056E000C45C002CE6D105E0002004E0104602E096
:1056F000002000E01046F0BC704700BFF0B4384B0B
:105700001D6801786B185B7813F0040F12D000F15C
:105710000F0398425FD2431C00F1100601E0B34230
:105720005BD01C4613F8011B6A18527812F0040F64
:10573000F5D100E00446231A022B11DD421CA21A07
:10574000002305E01BB103EB83035B00DBB2013AEE
:1057500010F8016B303E3344DBB2022AF2DC00E089
:105760000023A0420ED2002204E01AB102EB820212
:105770005200D2B210F8016B303E3244D2B2A04295
:10578000F3D100E000222E2915D10134042000219C
:1057900001EB8101490089B22678AF197F7817F0B3
:1057A000040F03D001343039314489B2013810F08C
:1057B000FF00EDD100E000210A4800FB02F2642066
:1057C00000FB01210848A0FB0120084A02FB03F36B
:1057D00003EB900002E0002000E00020F0BC7047E6
:1057E0001001002040420F00ABAAAAAA80969800A0
:1057F00010B50EF0EFFA044600210EF0FBFC38B1B4
:1058000020460A490EF0EEFB09490EF037FB07E08F
:1058100004F1004005490EF0E5FB05490EF02EFBB2
:105820000FF046FB034B186010BD00BF8096184B6D
:1058300035FA8E3C58000020F8B50C461E46136819
:105840000068181A0EF0C6FA054630682368C01AB8
:105850000EF0C0FA184B19680EF010FB04462846EB
:1058600029460EF00BFB0746204621460EF006FBAC
:105870000646384631460EF0F9F90FF0A5FD0F49FE
:105880000EF0FCFA0EF0E6FC069B186005F10040F5
:1058900021460FF00FFC0A490EF0F0FA09490EF00C
:1058A000E5F90EF0B1FC0028BCBF00F50C40A030BB
:1058B000079B1860F8BD00BF580000202C7D8E3F6C
:1058C000A00CB34500A00C4670B504461F4D0079EE
:1058D0000EF07CFA1E490EF085FB2860A07B0EF0CE
:1058E00075FA1B490EF07EFB68601A4EEE601A4D89
:1058F00060790EF06BFA19490EF074FB2860E07BBA
:105900000EF064FA12490EF06DFB6860607E0EF0D6
:105910005DFA13490EF066FBA860EE60114DA079A8
:105920000EF054FA0D490EF05DFB2860207C0EF05D
:105930004DFA07490EF056FB6860A07E0EF046FA5D
:1059400007490EF04FFBA860EE6070BD48130020C1
:105950000000C8420000FA445C130020000020410F
:1059600000007A44D013002044F250639842C4BF30
:10597000A0F50C40A038034B9842BCBF00F50C408A
:10598000A0307047B0B9FFFF2DE9F84305460E4639
:10599000144699465068281A0EF01CFA31680EF029
:1059A00021FB07462061D6F80080A668164B1B68CD
:1059B00098780EF00BFA15490EF060FA01464FF098
:1059C0007E500EF00FFB014640460EF04FF90146A7
:1059D00040460EF007FB8046384631460EF044F94B
:1059E000014640460EF04AFA014630460EF03EF9B6
:1059F00020616560A060D9F808100EF03FFA0EF043
:105A000003FCBDE8F88300BF2C090020DB0FC94070
:105A1000183021F008039BB243B94908435823F0DA
:105A20007003435043581A43425070470439C1F33E
:105A30004E010B5823F4E0430B500B58120292B264
:105A40001A430A50704700BF2DE9F84306468846BE
:105A5000038A8589ADB21D403ED04FF00047B5FAAC
:105A600085F327FA03F2D24391B2318215401B3BF2
:105A7000042B2FD8DFE803F0272019120300B6F813
:105A80002C901FFA89F9D8F820401CB323682046CF
:105A9000494698476468002CF8D11BE0D8F800000C
:105AA000B18E036889B2984714E0D8F80400318FAA
:105AB000036889B298470DE0D8F80800B18F0368F1
:105AC00089B2984706E0D8F80C00B6F84010036891
:105AD00089B29847002DC2D1BDE8F88330B404687C
