:020000040800F2
:10000000005000206D2C0108192D010871160108FF
:10001000192D0108192D0108192D010800000000F3
:10002000000000000000000000000000192D010881
:10003000192D01080000000065150108611601086E
:10004000192D0108192D0108192D0108192D010874
:10005000192D0108192D0108192D0108291501086C
:10006000192D0108192D0108192D0108192D010854
:10007000192D0108192D0108D9140108192D01089D
:1000800031150108192D0108192D0108192D010834
:10009000192D0108192D0108192D01082115010834
:1000A000192D010871140108192D01089514010872
:1000B000511401082D14010809140108E115010863
:1000C000D1150108D9150108C9150108192D010814
:1000D000192D0108C9140108B9140108192D0108C6
:1000E000E9150108192D0108192D0108000000006B
:1000F0000000000000000000000000000000000000
:0C01000000000000000000005FF808F1A3
:100110002DE9804891B002F04BFB0022964B1A70FB
:10012000964B9C6814F0080F00F0CE80924B5B68F1
:100130001B7A042B00F2C580DFE803F003030658A6
:100140008B008D4B1A7ABDE08B4B5B7A002B49D02C
:10015000894B00225A7293F8223013F0080F43D1D2
:10016000854B9A89C2F30A029A62DA68C2F3CA22FC
:10017000DA62D9891A7C02F00102920242EA9112F3
:100180001A631A8AC2F34A025A631A69C2F30A321C
:100190009A63598A1A7D02F00302520242EAD1128E
:1001A000DA639A8AC2F38A021A645A69C2F34A323B
:1001B0005A64DA7D197E01F0070142EA01229A644D
:1001C0001A8BC2F3CA02DA649A69C2F38A321A65D8
:1001D000D97E1A7F02F00F02D20142EA51025A651B
:1001E00001226FE000226DE000226BE0624B93F889
:1001F000583043B3604B002283F8582093F85D30A9
:10020000012B22D15C4B93F88130102B0BD910229B
:10021000594B83F88120584991F8816001F15C03C2
:100220008031002203E0002BF5D101224AE0DD7885
:10023000187940EA052041F8040F01320233D0B2A8
:100240008642F4D803E000223CE000223AE001229A
:1002500038E0494B93F8C4305BB3474B002283F836
:10026000C42093F8C830A82B25D1434B93F8DB303A
:100270001BBB434E1546A6F1DC0707EB450393F87D
:10028000CB0093F8CC3003EB002011F037FB36A302
:10029000D3E9002311F0D2FC35A3D3E9002311F0F8
:1002A000EFF911F0DBFD46F8040F0135082DE4D11C
:1002B00005E0002206E0002204E0002202E0012224
:1002C00000E000222C4B1A7014F4804F0CD02A4B03
:1002D00093F800312BB10022274B83F80021012233
:1002E00000E00022244B1A70234B1B78002B02F0F5
:1002F000B98114F4807F02F0B9811F4CD4F8043125
:100300001B681B6898471F4B1B68227832B91A4A32
:10031000D2F808219A1A002AC0F2A18303F59C435F
:100320002033154AC2F80831144B9B6813F4807FC0
:1003300004D0D2F804311B681B6998470F4B9B68A7
:1003400042F201021A421FD10B4B1B7823B30A4C15
:10035000D4F804311B681B6898470BF0E7FB0023B7
:10036000237019E0AFF300809A99999999991940EF
:10037000000000000070774070010020D41E0020B3
:100380004C0200206C250020B54B93F80C21013263
:1003900083F80C210BF0CAFBB24B9B6813F4805F0F
:1003A00007D0AF4BD3F8103113F0010F01D10AF091
:1003B000BBFEAD4B1C68AA4B5B681B7CD3B1A84D40
:1003C00005EB4303B3F91601A0F57A70B0F57A7F17
:1003D000A8BF4FF47A7020EAE07011F069FEA349DB
:1003E00011F06EFFA24911F0B7FE12F0A1F8A5F8C6
:1003F00014014CE09B4B9B6813F4004F47D0984B83
:10040000D3F83C31E31A002B41DB954B04F59C42B9
:100410002032C3F83C2193F8452103EB4202B2F8A5
:10042000500180B293F85831013303F00F038C4D23
:1004300085F85831DBB2EE1811F03AFE8D4911F013
:100440003FFF12F075F886F85C0105F25B1305F2C8
:100450006B10002213F8011F0A4492B28342F9D1B3
:1004600012B2002AB8BF0F3210116428A8BF64204E
:1004700020EAE07011F01CFE7F4911F021FF7C4959
:1004800011F06AFE12F054F8754BA3F81401754B85
:100490009B6813F4807F15D0784B9C420CD9704B2D
:1004A000D3F86C311B681B6A984728B96C4BD3F89A
:1004B0006C311B685B6A9847694BD3F86C311B68D9
:1004C0005B699847674BB3F8DC209B6813F4805F47
:1004D0000ED0634BB3F91E316249B1F81811881A76
:1004E000834210DD0A449342C2F2C48001270BE02C
:1004F0005B4BB3F91E215B4BB3F81A319A42C2F23F
:10050000B980012700E00127564B93F8216193F849
:1005100022E1B3F81A51B3F81C41514800F58B722F
:1005200000F58F7000239B0832F9021FA942C4BF57
:1005300063F07F03DBB2A142B8BF43F040038242C5
:10054000F1D1474A92F870219A4209D1444A92F86F
:100550007121F92A08D80132414981F8712103E05B
:1005600000213F4A82F871113D4A82F87031444BB4
:100570001B78DBB9D2F8103113F0010F08D0AFB9F6
:10058000404B1B7813F0010F10D008F09FFD0DE0D9
:100590003C4B1B7813F0040F08D0BEF1000F02D0C3
:1005A0000AF0C2FD02E00FB90AF0BEFD2C4B93F831
:1005B0007131142B40F0B780003618BF0126314B43
:1005C0001B7813F0040F15D02D4B1B78002B00F077
:1005D000AA80234B93F870315F2B02D10AF0A4FD5F
:1005E000A1E0002E00F09F807D2B40F09C800AF05F
:1005F0009BFD98E01A4B93F87031572B0FD14FF4B5
:100600007A72214B1A80164BD3F8743113F0080F0D
:1006100040F089800022124BA3F8782183E0114A30
:10062000926812F0040F36D05A2B34D10C4B93F849
:100630007A313BB10A4B002283F87A21012283F8F8
:100640007B2170E0064A92F87C3183F0010382F846
:100650007C31DBB10222024B83F87D2163E000BFD5
:1006600070010020D41E00206C25002000007A4478
:1006700000C07F44CDCC23420000C842404B4C0018
:10068000000000207D250020782500200322AC4BAF
:1006900083F87D2147E05D2B02F002805B2B02F0A6
:1006A00001805E2B42F0118001F0FEBF6F2B02D162
:1006B00008F00CFD37E026B17E2B02D108F006FDD4
:1006C00031E0972B05D14FF4C8729D4BA3F87E21E2
:1006D00029E0A72B07D19A4B93F8802142F004021E
:1006E00083F880211FE000220D92BB2B04D102234E
:1006F000ADF8363001F0F0BFB72B05D14FF6FE73E1
:10070000ADF8363001F0E8BFBE2B04D10223ADF8BE
:10071000343001F0E1BFBD2B05D14FF6FE73ADF8CB
:10072000343001F0D9BF874BD3F808C01CF0040F58
:1007300044D0834B93F87C31CBB1834B1B7813F0BF
:10074000040F14D07E4BB3F91E217E4BB3F81A313F
:100750009A420CDD7A4BD3F8103113F0010F06D119
:10076000774B3222A3F88221002283F87C21744B3C
:10077000D3F8103113F4803F10D0714B93F88431CB
:100780003BB96F4B93F87A311BB932226C4BA3F80B
:10079000822101226A4B83F884210FE0684B93F891
:1007A0007A315BB1684B1B7813F0040F06D1644BB0
:1007B000002283F87A21012283F87B21604AD2F853
:1007C00088417D340023C2F8103115464FF0010EE8
:1007D0004FF4617740F63306E2189178D078814281
:1007E00025D2527805EB4202B2F92021B2F5617FA1
:1007F00003DBB242A8BF324600E03A4692B201EBB8
:10080000810101EB810101F561718A420FDB00EB8F
:10081000800000EB800000F56170824207DAE15C45
:100820000EFA01F1D5F810210A43C5F8102104335E
:10083000A02BD1D1424BD3F8103113F0020F09D1C4
:100840001CF4807F1FD03E4BD3F86C311B689B6833
:100850009847C0B13A4BD3F8743113F0020F12D05D
:10086000374BB3F88C3113F0010F41F04F87344A06
:100870000021C2F89011C2F8941143F00103A2F8CC
:100880008C3101F043BF2E4BB3F88C2122F00101D3
:10089000A3F88C11D3F8104114F0040F12D08BB2CE
:1008A0002749A1F88C3102F0020292B28AB90A46B5
:1008B0000021C2F89011C2F8941143F00203A2F88B
:1008C0008C3106E01E4BB3F88C2122F00202A3F813
:1008D0008C211B4BB3F88C3113F0030F4FF0100138
:1008E0001A4A14BF51611161154AD2F8745115F0BA
:1008F0000A0F3CD014F0100F0DD003F0040292B296
:1009000072B90F4A43F00403A2F88C31B2F878317F
:10091000A2F8983104E023F00403094AA2F88C31CC
:1009200014F0200F14D0064BB3F88C3103F04002C2
:1009300092B2A2B943F04003014AA2F88C310EE012
:1009400070010020D41E00207D250020000C0140F5
:10095000BC4BB3F88C2122F04002A3F88C2114F098
:10096000400F04D0B74BB3F87821A3F89A2115F0C3
:10097000200F01D00CF020FB14F4006FB14BB3F842
:100980008C2114BF42F4807222F48072A3F88C216F
:10099000AD4B5B79082B01D00E2B06D1A94BB3F8D8
:1009A0008C2122F04002A3F88C21A64B93F89C31B5
:1009B000002B00F0038415F0040F01F0AC8614F056
:1009C000080F08D19F4BB3F88C2122F00802A3F83E
:1009D0008C2101F0A0BE9B4BB3F88C2102F00803E0
:1009E0009BB2002B41F09786964B42F00802A3F889
:1009F0008C21D3F8A421C3F8A021B3F8B221A3F825
:100A0000A8210022C3F8B421C3F8B82101F083BEA5
:100A100014F4001F07D18B4BB3F88C2122F4007221
:100A2000A3F88C21CAE3874BB3F88C2102F400733E
:100A30009BB2002B40F0C283824B42F40072A3F8B9
:100A40008C21D3F8A421C3F8A021B3F8B221A3F8D4
:100A5000A8210022C3F8B421C3F8B821AEE3794934
:100A6000D1F8BC21501CC1F8BC01052A00F29D83BD
:100A7000DFE812F00600A4008A0317018203940342
:100A8000704AD2F8742112F0080F00F08E836D4A7C
:100A9000D2F8C0219A1A002AC0F2878303F5C33422
:100AA000A034684DC5F8C04105F5E276304610F037
:100AB000B9F930463146654B1A7808F0BFF895F819
:100AC000801111F0040F1AD02B46C5F8CC4100223A
:100AD0005D4E15469019A0F8FE5003F5E270105ACD
:100AE00003F5E877D05303F5EC77D0530232062AAA
:100AF000F0D121F00401A7F5EC7383F88011514B7C
:100B000093F8DE31B3B14F4A4F4BB2F8C401B3F89A
:100B1000FE10411AA2F8C411B2F8C601B3F80011D0
:100B2000411AA2F8C611B2F8C811B3F80231CB1AB3
:100B3000A2F8C831434BD3F8CC31002B00F03583F9
:100B4000E31A434A93421FD8424BDA6882F0080204
:100B5000DA6000233B4A02F5E271595A02F5E87067
:100B60001C5E08B28442C4BF02F5E870195202F557
:100B7000EC701C5E08B28442BCBF02F5EC701952E6
:100B80000233062BE7D110E300232E4AC2F8CC3102
:100B90002D481C1802F5E8715D5E02F5EC71595E96
:100BA000294401EBD1714910A4F8FE100233062B41
:100BB000EFD10AF033FE0CF067FEF6E2214AD2F8DC
:100BC000742112F0040F00F0F0821E4AD2F8E021E6
:100BD0009A1A002AC0F2E9821A4AC2F8E03192F861
:100BE000E431012B15D013B1022B35D0DDE2154CC9
:100BF000D4F8F0319847D4F8F4319847012384F8B9
:100C0000E431B4F8EA21D4F8E0311344C4F8E03117
:100C1000CBE20C4CD4F8F8319847D4F8EC31984733
:100C2000B4F8E821D4F8E0311344C4F8E031D4F842
:100C3000FC3104F5007004F501719847022384F833
:100C4000E431B2E270010020D41E00207C25002097
:100C50007FC3C901000C01407A4B002283F8E421D4
:100C6000D3F80842D3F80012D3F80C02421CD3F890
:100C700010321B789A4204D10122724B83F814225D
:100C80000022704B03EB8000C0F81812214403EBE4
:100C90008200D0F81802091AC3F80C22C3F808120F
:100CA00083E2684AD2F8742112F0040F03D0654938
:100CB00091F8141219B912F0100F00F07682614AFF
:100CC000D2F8D8525D1B46F2A712954240F26D82CF
:100CD0005C4AC2F8D8325C4B1E88002E36D01346D0
:100CE000D2F8DC22D3F8101209780139D3F808328F
:100CF000B3FBF1F31146002AB8BFD11DA2EBE1020C
:100D00001344504AC2F8DC321846002BB8BFD81D35
:100D1000C01011F0CDF94D4911F0D2FA4C4912F042
:100D200039FB0146474C4FF07E5011F00BF9494911
:100D300011F012FA11F0D6FBC4F8E002013E424B6A
:100D40001E800022C4F8E422C4F8E8223D4CD4F806
:100D5000106230780138D4F80832B3FBF0F011F0AB
:100D6000A3F93A4911F0ACFA394912F013FB0146E4
:100D70004FF07E5011F0E6F8364911F0EDF912F01F
:100D80003BFA80467668D4F8EC0211F091F93146CE
:100D900011F0E2F90746D4F8E002C0EB080011F0C8
:100DA00087F980464FF07E50314611F0CBF801466E
:100DB000404611F0D1F90146384611F0C5F812F05D
:100DC0001BFA0646B4F9F022002AB8BF5242B4F921
:100DD000F232002BB8BF5B429A42ACBF14461C46AD
:100DE000A4B21D4B186823B2FA2B01F39A8411F0B8
:100DF0005FF9074620B211F05BF90146174811F080
:100E0000A1F80146384611F0A7F9144911F058FA33
:100E100011F068FB0446104B1860431EC62B06D821
:100E2000084B361AC3F8F462C3F8EC023EE0054BF7
:100E3000D3F8F432F61A002812DC024BC3F8EC6245
:100E400034E000BF700100207025002080E6C54717
:100E5000B1DC423ED048874AC40000200000614413
:100E6000C0F5967011F024F9B84911F029FA074637
:100E7000204611F01DF90146384611F06DF904467F
:100E8000304611F015F906464FF07E50394611F004
:100E900059F80146304611F05FF90146204611F03D
:100EA00053F811F01FFBAA4BC3F8EC02A94F3868A6
:100EB00011F0FAF80646A84911F04EF98246A44C02
:100EC000D4F8000311F0F4F88046D4F8040311F0CC
:100ED000EFF80146404611F0F3F90290D4F80813F8
:100EE00011F03AF90146304611F036F90390D4F882
:100EF000E482D4F810620196D6F80C90D4F8EC6233
:100F00004FF07C5111F028F90146504611F024F9B8
:100F100083465046414611F01FF90146584611F0EC
:100F200013F8D4F8E81211F00FF8494611F014F94B
:100F30008246304611F0BCF883464FF07E50494659
:100F400011F000F80146584611F006F901465046E6
:100F500010F0FAFF8146C4F8E8020398414610F009
:100F6000F3FF8046C4F8E4020023C4F8F832C4F862
:100F7000FC32C4F80033C4F804333B60774B1B8861
:100F8000002B40F01281764B1B68013BC62B02D828
:100F9000C4F8A46105E0484611F0A4FA6C4BC3F80C
:100FA000A4016B4CD4F80C03301A11F081F86D4990
:100FB00011F0D2F80746284611F076F80146384677
:100FC00011F07EF911F08EFAC4F80C6340F2DC5394
:100FD0009842A8BF1846644A9042B8BF10460A21FA
:100FE00003F0B8FF0746019EB5684046294611F058
:100FF000B3F80646384611F05BF807464FF07E50CE
:10100000294610F09FFF0146384611F0A5F8014629
:10101000304610F099FFC4F8E40212F0EDF80646ED
:10102000052103F097FFC4F81003D4F81453B4F863
:10103000F02202F21F3292B240F23E639A427DD811
:10104000B4F8F22202F21F3292B240F23E639A42A8
:1010500041F28A83002372E03D4CD4F8A021D4F8F9
:10106000A431D31AB3F5FA7FA8BF4FF4FA733F48FF
:101070008342A8BF18460A2103F06CFFD4F8183346
:10108000DB7803FB00F00028B8BF7F30C311B3F555
:10109000967FA8BF4FF49673354A9342B8BF134664
:1010A00002E02B4BD3F81C339B1B294AD2F81813B0
:1010B0004A7A02FB03F2002AB8BF1F325211B2F57E
:1010C000967FB4BF10464FF49670294A9042B8BF3D
:1010D0001046CE7C1E4AD2F8B44106FB0343B3F55A
:1010E000C81FA8BF4FF4C813224CA342B8BF234661
:1010F000C2F8B4311A46002BBCBF03F5FF521F32B1
:1011000000EB6234487F10F0D3FF06460298294670
:1011100010F01AFF0146304611F01EF84FF06C51E6
:1011200011F01AF811F0DEF99628A8BF96206FF09A
:1011300095039842B8BF1846231A00E00023044ADA
:10114000C2F8B831029FC2F814732EE00000C84202
:101150007001002074250020BD37863570250020E1
:10116000C40000200024744924FAFFFF0CFEFFFF96
:10117000D4FEFFFF0000E7FF6F4B9B6813F0800F6A
:1011800013D006F085F910E06C4BD3F8743113F0EE
:10119000100F0AD06A4809F0D1F906E0664B9B6847
:1011A00013F4003F01D00AF07BF9644BD3F8BC3153
:1011B000052B03DD0022614BC3F8BC2109F088F93F
:1011C000604B18605C4B9B8933B15C4AD2F820239A
:1011D000821A002AC1F23D81584C0344C4F82033DE
:1011E000D4F888510395544B5B79029304F54D75FF
:1011F000D4F82833284698472846294694F83A23B5
:1012000007F01CFD504B1B88002B01F0B582D4F871
:101210003C331B78049304F5507400263546DFF800
:1012200028B1BBF80030B3F57A7F03D10023474AD9
:10123000B3502361414B03F54D7203F55F73505F6B
:10124000F2580244F25010F033FF804601942769AF
:1012500001372761012F04D1606020600027A7605B
:1012600020E0D4F800A0514610F06CFE81463846CC
:1012700010F01EFF0146484611F022F80146504684
:1012800010F062FE074660604046394610F05AFE94
:101290000146484610F060FFA16810F055FEE0607E
:1012A0002760A060254A02F54D7100236B5202F5BC
:1012B0006272AB52BBF80030012B31D1019F38690B
:1012C000012807DD013810F0F3FE0146F86810F040
:1012D000F7FF00E0002012F0E5F90746049858B146
:1012E00010F0E6FE394611F0D5F828B14FF47A72C5
:1012F000154B1A8001F040BA104B03F5627203F5EA
:101300005F73F35803F5FA73114F87FB0371DB1713
:10131000C3EBA113AB520A200F21012207F0A6FE56
:10132000023504361434062D7FF47BAF064B1A8841
:10133000013A1A8001F020BAD41E0020700100206A
:10134000C40000206C25002078250020EC0400203B
:10135000D34D621001F54D7201F562709C5A185A16
:10136000201A98520233062BF4D1A2F54D73D3F80C
:10137000743113F0020F00F06483A2F54D7404F58C
:101380006775D4F89433284698472846294694F838
:10139000A22307F053FCB4F87E31002B58D0002371
:1013A0001946184622461F46B2F87E41B4F5C87F5A
:1013B00004BF02F569740F5102F5697502F567748F
:1013C00033F904E04E5976444E511F53D2F8B043DE
:1013D00024F810700130043102330328E4D1A5F55C
:1013E0006973B3F87E31012B2CD1A5F56973D3F85D
:1013F000B023D3F8A403C8309B4981FB00E4C01795
:10140000C0EBE4101080D3F8A803C83081FB00546F
:10141000C017C0EBE4105080D3F8AC33C83381FB65
:101420000361DB17C3EBE111904B5B88CB1A938010
:101430000023039FA7F85C30A7F85E300AF0EEF9AE
:101440000CF022FA8A4BB3F87E21013AA3F87E21F0
:10145000884B9B6813F0040F00F09D80844BB3F819
:101460008241322C14D1D3F8B0231188A3F8B413DD
:101470005188A3F8B6139288A3F8B823039DB5F852
:101480005C20A3F8BC23B5F85E20A3F8BE2301E0DE
:10149000002C51D0002319461A4675489E46322C1E
:1014A00011D100F5707600F567755F5F8F5123F8F5
:1014B00005E0D0F8B05325F812E0013204310233D0
:1014C000032AECD134E000F5707600F5677533F946
:1014D00005C08F5967448F5123F805E0D0F8B05309
:1014E00025F812E0013204310233032AD7D1012C4E
:1014F0001ED1A6F57073002283F88421012283F89F
:101500007A21022283F87D21D3F8B023B3F8B413F3
:101510001180B3F8B6135180B3F8B8139180B3F8C3
:10152000BC23039EA6F85C20B3F8BE33A6F85E3059
:10153000013C4F4BA3F882414D4B93F87B3153B3A1
:101540004B4B002283F87B21D3F8B013D3F8C04370
:10155000454880FB0475E417C4EB25140C80D3F8D0
:10156000C44380FB04E5E417C4EB25144C80D3F896
:10157000C83380FB0340DB17C3EB20103B4B5B8879
:10158000C31A8B80039DA5F85C20A5F85E200AF0A5
:1015900045F90CF079F9364CD4F8B033B4F89C1313
:1015A0001A888A1AA4F89C23B4F89E135A888A1AB7
:1015B000A4F89E23B4F8A0239B88D31AA4F8A033E0
:1015C00008F086FF0546D4F8CC33C31A04931846B6
:1015D00010F06AFD0590D4F8D01310F0BDFD8346DD
:1015E000C4F8CC53D4F8D443019400252C462F469C
:1015F0001F4E4FF07E5A06F54D73185F10F058FDE0
:101600000146584610F0A8FD07AB5851DDF804E03C
:101610009EF8000080B310F04BFD0146504610F0DC
:101620004FFE814606F576785046494610F08AFC12
:1016300055F8081010F090FD039006F56773185FD9
:1016400010F036FD0146484610F086FD014603982D
:1016500010F07AFC48F8050006F5797810F042FFA2
:1016600028F804000EE000BF1F85EB5100000020A9
:1016700070010020D41E002006F5797306F567720C
:10168000A25AE25206F57973E35E03FB0377023454
:101690000435062CAFD1642606FB07F6BA4B5B88EF
:1016A00003FB03F396FBF3F6B84C04F57B7007A934
:1016B00009F002FCD4F8D4536868A6F149039BB240
:1016C0003B2B25D84FF07E5110F03EFC01464FF0E9
:1016D0007E5010F0F5FD824604F2E2370024A7F2B6
:1016E000E23909F57B76A059696810F035FD80462E
:1016F00037F9020F10F0DCFC0146404610F024FCE4
:101700000146504610F028FD305104340C2CE8D12D
:101710009E4BD3F8F463B3F9F80310F0C9FC01460B
:10172000304610F0D5FE38B1984B93F8802142F046
:10173000080283F8802106E0944B93F8802122F080
:10174000080283F88021914CD4F8F003314611F05F
:101750001FFE8046C4F8FC03D4F8EC3303F10049C3
:10176000D4F8F073D4F8F4633846394610F0F4FC3A
:1017700007463046314610F0EFFC0146384610F07F
:10178000E3FB11F08FFF0146484611F001FE0646CB
:10179000C4F80004404610F0D3F877A3D3E900233F
:1017A00010F022F910F07AFB11F026FDA4F8F002F7
:1017B000304610F0C5F870A3D3E9002310F014F9F7
:1017C00010F06CFB11F018FDA4F8F202D4F874319B
:1017D00013F0080F34D004F2044007A909F06CFBA1
:1017E000A8684FF07E5110F0AFFB01464FF07E50DD
:1017F00010F066FD824604F5E1770024A7F5E17953
:1018000009F20446A059A96810F0A6FC804637F9F1
:10181000020F10F04DFC0146404610F095FB0146CA
:10182000504610F099FC305104340C2CE8D1A6F24B
:10183000044404F2044009F0EBFBA4F878013AE018
:10184000514C201D07A909F037FB6668A568E468BC
:101850003046314610F080FC06462846294610F0F6
:101860007BFC0146304610F06FFB054620462146C2
:1018700010F072FC0146284610F066FB11F012FFD2
:101880000546002110F0FCFD78B93F4C6068294600
:1018900010F016FD6060A068294610F011FDA060F0
:1018A000E068294610F00CFDE060394809F0B0FB13
:1018B000364BA3F878010598364910F04DFC0646E2
:1018C000324CD4F8FC3303F100430A93D4F80034CB
:1018D00003F100430B93B4F9780110F0E9FB00F138
:1018E000004010F02DF826A3D3E9002310F07CF877
:1018F00010F0D4FA0C90B4F9E40310F0D9FB0D9079
:10190000B4F9E60310F0D4FB0E90B4F9E80310F03C
:10191000CFFB0F900DA80AA909F0CEFAD4F8D43362
:101920005B78012B3AD11C4B1B7813F0040F11D1BB
:10193000D4F810341846002BB8BF03F13F00A3EBD6
:10194000A01010F0B5FB0F9910F0FEFA10F0CAFDD0
:10195000C4F810040D4BD3F810040028B8BF3F3072
:10196000801110F0A5FB01460F9810F0EBFA0F90D4
:101970001DE000BFAFF300803B597E90A9E7814096
:10198000399D52A246DF913F0000002070010020E7
:1019900004000020BD3786357D250020B04B5888D7
:1019A00010F086FB01460F9810F0CCFA0F90AD4C6A
:1019B000D4F814543046D4F8181410F0C5FA01467F
:1019C000304610F07DFC06460F98294610F0BAFA12
:1019D0000146304610F0C0FB0146284610F0B4FA2C
:1019E0000646C4F81404D4F8F8720D9811F004FCFB
:1019F000D4F81C54297803F0ADFA3844C4F8F8023E
:101A0000D4F8FC720E9811F0F7FB297803F0A2FAD3
:101A10003844C4F8FC02D4F80073304611F0ECFBF3
:101A2000697803F097FA3844C4F800038E4B1A68BB
:101A3000049D2A441A60D4F804330133C4F80433F3
:101A400007E0884B0022A3F89C23A3F89E23A3F869
:101A5000A023844BB3F83423A3F82024B3F836230F
:101A6000A3F82224029E012E10D1B3F92614B3F953
:101A7000382302EB41027D4981FB0271A1EBE27246
:101A800092B2A3F82424A3F8262404E0754BB3F8FB
:101A90003823A3F8242408F01BFD754B1860714C03
:101AA000D4F82C34C31AA4F82834C4F82C0404F055
:101AB00083FC012384F89C31D4F8103113F4801F87
:101AC00045D0B4F88C4104F080039BB2002B59D16F
:101AD000684B1B7813F0040F23D0624B93F830341B
:101AE0001BB1604B93F8313463B15E4B4FF0000E85
:101AF000C3F834E4002283F83024012058490874E4
:101B000083F83124574DD5F88831181D19780FF016
:101B10001BFC44F08004A5F88C41012385F838347F
:101B200030E0504BD3F83404002110F0A9FC48BB3E
:101B300009F074FE0BF0A8FE4A4B0020C3F83404F1
:101B4000002283F830240122454B1A741AE0454BD9
:101B5000B3F88C4104F080039BB233B103F05CFD19
:101B600024F080043F4BA3F88C41424B1B7813F0C8
:101B7000040F07D13B4B93F838341BB10122394B8A
:101B800083F83124374BD3F8745115F0080F47D040
:101B9000B3F8B03103F1450292B28A2A3BD8314AF8
:101BA000B2F88C2102F0040292B2002A33D02D4AFE
:101BB000B2F87811B2F89821891A89B28AB210B2B3
:101BC00010F1B30FBCBF01F5B47292B211B2B329D8
:101BD000C4BFA2F5B47292B2274991F8EC00214932
:101BE00091F8801111F0080F1AD041B2494202FB5E
:101BF00001F21C4912B2D1F88801007B00FB02F20D
:101C00001E4880FB02401044D217C2EB20129B1AE0
:101C1000A1F8B03104E0134BB3F87821A3F8982170
:101C200015F0140F00F0AE800E4BB3F88C3103F4B6
:101C30000273002B00F0A6800A4B93F8803113F05A
:101C4000100F1DD0074BD3F8B8210B4991F925018E
:101C5000B3F8AE1100FB0212A3F8AE2192E000BF70
:101C600000000020700100207425002056555555B5
:101C70006C2500207D250020D41E002089888888BE
:101C8000B14BD3F8883193F82021002A40D0AE4AD6
:101C9000B2F8B211B2F8A80102B293F81F310CB237
:101CA000A41A002CB8BF64429C4212DDA64A00244C
:101CB000C2F8B441012482F839448AB209B200B2B0
:101CC0008142C4BF5B429BB213449F4AA2F8B23127
:101CD00058E09D4B93F839343BB19B4BD3F8A4119A
:101CE000C3F8A011002183F83914974BD3F8B83109
:101CF0001A449649B1F8D030B1F8D2109A4203DBB9
:101D00008A42B4BF13460B468F4AA2F8B23139E07B
:101D10008D49B1F9A821B1F9B211891A81EAE170AE
:101D2000A0EBE17093F81F3198420BDD864B01EB7D
:101D3000D1714910C3F81C13012183F83A1483F8B8
:101D400039140DE0804B93F839344BB17E4BD3F806
:101D5000A411C3F8A011002183F83A1483F83914B0
:101D6000794BD3F8B8111144784AB2F8D030B2F8B0
:101D7000D220994203DB9142B4BF0B461346724A0C
:101D8000A2F8B231704BD3F8884194F82461002E48
:101D90005BD0B3F88C3113F0030F56D06A4BB3F815
:101DA000B2710297D3F8EC93D3F8F083D3F8F473BD
:101DB0003846394610F0D0F982464846494610F078
:101DC000CBF981464046414610F0C6F901464846E7
:101DD00010F0BAF880464046514610F0B5F811F0C0
:101DE00061FC0146384610F06BFA0746584910F07E
:101DF0005BFB20BB384611F07BFA534BD3F83C1405
:101E000010F0AAF911F0F8F9B0F5617FA8BF4FF40E
:101E100061700FF083FD4AA3D3E900230FF00EFF9A
:101E200010F03CF811F026FA0746304610F040F961
:101E3000394610F091F911F0DFF980B200E000208E
:101E4000029A0244404BA3F8B22115F0200F0DD0A6
:101E50003D4BB3F88C3103F030033BB13A4B93F870
:101E6000803113F0010F01D009F0FEFE394B1D68DF
:101E7000201D04F15001354BB3F8F62004F15C034A
:101E8000A847314B93F84034013B142B00F2F48106
:101E9000DFE813F04200F201F20115006400F201E4
:101EA000F2012001F201F201F201F201F2018A00D5
:101EB000F201F201F201F201F2019901C4010420E0
:101EC000022108F0BFFF204CB4F8486400FB06F084
:101ED00087B20420012108F0B5FFB4F8465400FB96
:101EE000057087B2042008F0BDFF1B4C38442081E8
:101EF0000520022108F0A6FF00FB06F086B20520AF
:101F0000012108F09FFF00FB056085B2052008F065
:101F1000A9FF28446081AFE10520012108F092FF6C
:101F2000094BB3F8483400FB03F084B2052008F0F5
:101F300099FF2044084B58819EE100BFAFF3008019
:101F4000A2EB0FE5DD16964070010020D41E0020A4
:101F50008FC2753CC8000020B4000020AA4CD4F801
:101F60004C74002008F07EFFA84D97F90630B4F9B4
:101F7000F22202FB03F3A64E86FB0312DB17C3EB30
:101F8000221318442880012008F06CFF97F90E30C6
:101F9000B4F9F02202FB03F386FB0326DB17C3EB45
:101FA00026131844688067E19A4B1B7813F0040FDE
:101FB00006D1954BD3F850349A88944BDA810EE0D1
:101FC000914BB3F9B221D3F850140B8849889A4247
:101FD00003DB9142B4BF0B4613468C4AD3818B4B33
:101FE000DA898D4B1A80884BD3F854341C78002C36
:101FF00037D0022008F036FF834BD3F84C24B2F9D7
:102000001030518A984203DB0BB29842B8BF0346A6
:102010007D4DD5F858144989CB1A98B2B5F85C347F
:1020200006B21DB2AE4204DD23447748A0F85C340A
:1020300007E000B21DB2A84203DA1B1B7248A0F8E9
:102040005C3492F91630704AB2F95C2402FB03F357
:102050006F4A82FB0342DB17C3EB621319446B4BDD
:102060009980694BB3F88C3103F480739BB263B1F0
:10207000654AB2F8AC11654BD9801981B2F8B0113C
:102080005981B2F8AE219A817AE35F4AB2F84414DA
:102090005E4BD9801981B2F848145981B2F84624B0
:1020A0009A816DE308EBC40393F90630B5F9062075
:1020B00002FB03F387FB03E6DB17C3EB6616EE8038
:1020C000204608F0CFFE3044E88001340235072C6A
:1020D000E8D1D1E04F4B1B7813F0040F06D14A4BE7
:1020E000D3F850349A88494BDA810EE0464BB3F965
:1020F000B221D3F850140B8849889A4203DB9142ED
:10210000B4BF0B461346414AD381404BDA89424B58
:102110001A803D4BB3F88C3103F480739BB213B338
:102120000320012108F08EFE374CB4F8AE6100FBAD
:1021300006F087B20320022108F084FEB4F8AC5107
:10214000324C00FB0570E0800420012108F07AFE8B
:1021500000FB06F086B20420022108F073FE00FBAB
:102160000560208121E00320012108F06BFE264C50
:10217000B4F8466400FB06F087B20320022108F0A1
:1021800061FEB4F84454214C00FB0570E08004204B
:10219000012108F057FE00FB06F086B20420022160
:1021A00008F050FE00FB05602081032008F05AFE75
:1021B000164CE3881844E080042008F053FE23897D
:1021C0001844208158E00420012108F03BFE0E4D08
:1021D000B5F8463400FB03F086B20C4C268104208F
:1021E00008F040FE304420810520012108F02AFE3D
:1021F000B5F8443400FB03F085B26581052008F092
:1022000031FE2844608137E070010020B4000020D6
:102210001F85EB517D250020BC1E0020814BB3F8AB
:1022200048A4814D03244FF002094FF001081F46D6
:102230002046494608F006FE00FB0AF086B220461A
:10224000414608F0FFFDC4F1060323F001033B44BF
:10225000B3F8443400FB036086B22E80204608F0B9
:1022600001FE304425F8020B0134072CE0D16D4B00
:10227000B3F8B2216D4B1A806D4B9B6813F0200FA1
:1022800000F08582002008F0EDFD0546694C2080B5
:10229000012008F0E7FD6080624BD3F8103113F0A5
:1022A000800F00F074825F4BD3F860341B7813F01A
:1022B000020F24D05B4BD3F84C4494F90E20B3F9B1
:1022C000F01201FB02F25C4981FB0276D217C2EBED
:1022D000261292B294F906406442B3F9F23203FB3B
:1022E00004F381FB03E1DB17C3EB211189B2514BEE
:1022F000541A25441D800A441044588047E2494B33
:10230000D3F84C444B4A94F90610B3F9F26206FB39
:1023100001F6494981FB06E7F617C6EB2716354457
:10232000158094F90E40B3F9F03203FB04F381FBFE
:102330000341DB17C3EB21131844508027E2B1F9A6
:102340000200E25EE5186D88904203DB2AB2824209
:10235000A8BF024621F8022F0833402BEFD1314BA2
:10236000D3F86434002B72D02E4B93F84034013BE9
:10237000142B65D8DFE803F01564640B3764642D13
:1023800064646464644464646464643A4400294C2E
:102390000020218903F046FA0120618903F042FA06
:1023A00055E0204BD3F868345B782BB10020214BEB
:1023B000598903F037FA4AE0204B1B7813F0040FD9
:1023C0004FF000001ABF1B4B5989014603F02AFA4F
:1023D0003DE0184C0020E18803F024FA0120218917
:1023E00003F020FA33E008F059FD30E0114C0020F2
:1023F000218903F017FA0120618903F013FA26E01E
:102400000C4C0020E18803F00DFA0120218903F033
:1024100009FA0220618903F005FA0320A18903F07B
:1024200001FA14E070010020BA000020BC1E002058
:10243000D41E0020B40000201F85EB517D25002014
:10244000BD4B9B6813F0200F01D008F027FD08F06A
:10245000F7FCBA4B1B7833B9B74B9B6813F4806F0A
:1024600001D00BF04BFCB44B9B6813F4803F3DF460
:1024700054AEB34B93F86C34002B3DF44EAEB14BDD
:102480001B7813F0FF0F7DF448AE08F021F80546E5
:10249000AB4BD3F87024821AD243D20F0292D3F8F6
:1024A0007424821AD643F60FD3F87874C71BFF43FF
:1024B000FF0F27B91EB9029C002C3DF42EAE07F089
:1024C00025FE9F4B93F87C34002B41D000219C4C7F
:1024D00004F2844CDFF88CA240F267190195D4F81D
:1024E000803403EB81035B8803F480639BB243B3C6
:1024F00088002318D3F884340693604490F802B01F
:1025000090F80380B4F91E31A3F57A73C3EB03137B
:10251000DB008AFB035EDB17C3EBAE1E0EF22B1E45
:10252000894D8EFB05230EEB03024FEAEE73C3EBDE
:10253000222309FB13EE2CF821E080F802B080F88A
:1025400003800131C9B294F87C348B42C7D8019D15
:10255000002F3AD07A4A05F5C333A033C2F8783455
:1025600092F804356BBB1346012283F80425002240
:1025700083F80525704B9B6813F0020F06D006F018
:102580003BFC18B101226E4B83F805256C4BD3F848
:1025900008351B689B68984730B1694B93F805254F
:1025A00042F0020283F80525684B1B7813F0050FF3
:1025B0000BD1634B93F8052542F0040283F80525FF
:1025C00003E000225E4B83F804255D4B93F805156C
:1025D00019B193F8040507F01DFD86B3584BB3F904
:1025E000AE110029B8BF4942594A82FB0160C917A0
:1025F000C1EB2011B3F9AC31002BB8BF5B4282FBB9
:102600000372DB17C3EB2213CAB2DBB29A4228BFB4
:1026100013461BB14F4A92FBF3F200E04D4A484B80
:102620002A44C3F8742493F80C3523B90122444B8F
:1026300083F80C2503E00022414B83F80C25404B26
:1026400093F80C050AF02CFB029C3CB105F54345C0
:1026500050353B4BC3F8705402F004FE0DF018FEE9
:10266000FDF75BBD3C4B1B68FDF751BE3A4B1B6849
:10267000FDF754BE324B0022C3F89021C3F89421D9
:10268000C3F81025C3F81425C3F818250025C3F88E
:102690001C55C3F82055C3F824551746FDF734BF21
:1026A000012302E0022300E00323DCB2621E224B7E
:1026B00083F8942609F0B2F80AF040FD02202821A0
:1026C000224606F0D3FCFEF72EB8244A1278002AE0
:1026D0007DF4ECAFFDF7F5BF194CD4F88831BDF8A7
:1026E0003410B3F85C200A44A3F85C20BDF836101F
:1026F000B3F85E200A44A3F85E2009F08FF80BF0CF
:10270000C3F8002384F87131FEF70DB80C4BD3F8F1
:102710001041FEF7D7B815F0100F3EF44FADFEF79D
:1027200077B94FF0FF320E4B1A60054BD3F8F432F5
:10273000F61AFEF782BB00BFD41E00207B250020C6
:10274000700100207A25002035318DB67D250020CE
:102750001F85EB51400D03006C2500200000002078
:10276000C4000020D34D62100C4B93F83A34002B78
:102770007EF497ACFEF770BC00230849FEF7EABD73
:10278000064BD3F84C84064D0324064F8AE4034BD2
:10279000D3F84C4404490023D1E500BF7001002068
:1027A000B40000201F85EB51B2000020AFF3008081
:1027B0002DE9F04F9BB0894B894A1A6000225A607C
:1027C00002F0E8FB18B90BF069F809F027F80AF0F5
:1027D000B5FC844B997B00230493059306934FF437
:1027E000E0130793804B1A6842F480321A609A69AA
:1027F00042F010029A611A46136803F400330593FD
:10280000049B01330493059B1BB9049BB3F5A06F94
:10281000F2D1754B1B6813F4003F02D002230693DC
:102820001DE0714B1A6842F001021A600023049304
:102830006D4A136803F002030593049B013304936C
:10284000059B1BB9049BB3F5A06FF2D1664B1B68C7
:1028500013F0020F02D00123069300E0FEE7634B62
:102860001A6842F010021A601A6822F003021A6015
:102870001A6842F002021A60A3F580535A685A603F
:102880005A685A605A6842F480625A60584A10681E
:1028900020F070401060574C57480460586820F48E
:1028A0007C105860136843F000431360534BDA68A0
:1028B00022F40042DA609B6813F4004F05D0504ABE
:1028C0004D4B1A604FF4801301E04FF4E01307936F
:1028D000069B012B19D0022B1CD171B1079BB3F5BC
:1028E000801F03D14FF4A013079306E0079BB3F5B5
:1028F000E01F04BF4FF4001307933B4B5968079A3E
:102900000A4342F480325A6004E0374B5A6842F47A
:1029100060125A60344B1A6842F080721A601A468C
:10292000136813F0007FFBD02F4B5A6822F003028C
:102930005A605A6842F002025A601A46536803F01D
:102940000C03082BFAD10193274B5B6803F00C03AF
:10295000042B06D0082B09D023BB264A294B1A602A
:1029600023E0254B1A68274B1A601EE01E4B59685E
:102970005A68C1F38343023312F4803F05D1224ADF
:1029800002FB03F31F4A13600FE0174A526812F468
:10299000003F194A126818BF520802FB03F3194A94
:1029A000136002E0134A174B1A600F4B5A68C2F3C8
:1029B0000312114B1A4492F804905FFA89F9114AF4
:1029C000116821FA09F9C2F800901B68094A93427C
:1029D0001ED101220D4B1A7020E000BFB40600206A
:1029E000ADAD0008D41E00200010024000200240BF
:1029F0000410014000127A00140000200010014071
:102A0000001BB700D000002000093D007E250020FB
:102A1000A34A934202D10222A24B1A70DFF8CC8261
:102A2000A14BC8F80C30A14B9A6942F001029A619F
:102A30005A6A42F080725A629A6942F01C029A61A4
:102A400000268DF82A601AAC4FF6FF7324F8403D3B
:102A50009748214602F0E8FE964F3846214602F09C
:102A6000E3FE9548214602F0DFFE944B5A6842F09F
:102A700000725A60204605F0F1FE914A0A9BA2FBC3
:102A800003139B0C8F4DAB608F4AA2FB0932920956
:102A9000013A8E4B5A60F02288F823209E6007226C
:102AA0001A60642007F03EFD89483146902210F0FC
:102AB0003EF94FF40073ADF8283010238DF82A301A
:102AC00001238DF82B303846214602F0ADFE03F08D
:102AD00017F905F10B0305F11A01324603F8012F2E
:102AE0008B42FBD1774BFF221A775A779A77DA77A6
:102AF0000AAC784B0FCB84E80F006C4B9A6942F01C
:102B000008029A619A6942F008029A61A3F5823339
:102B100008221A6110221A610A980BA902F084FE99
:102B20000C980DA902F080FE5E4B1B78012B01F280
:102B30004F8501F065BD002007F022FD0AAC664B11
:102B400093E8030084E80300584B9A6942F00802B6
:102B50009A610A980BA902F067FE0EF019FA9F23FA
:102B60008DF8243000238DF825308DF826308DF82F
:102B70002730322007F0D6FC4FF480524D4B5A617B
:102B8000A3F554439B8905254FF47A7309A9204680
:102B9000FF26524A26E011B14C1C0F780AE00C4681
:102BA000374607E0591E89B21BB94C4802F0C4FEF3
:102BB0001AE00B46118911F0020FF3D0978107E05C
:102BC000591E89B21BB9454802F0B6FE0CE00B460F
:102BD000118911F0010FF3D09189C9B208B10170C8
:102BE00001302146013DD6D14FF48052314B1A615C
:102BF0009DF829209DF82A301B0243EA02429DF8E5
:102C00002B301A43364B9A4217D02A4C4FF480553A
:102C10006561324E3046F5210EF012FA3046FF2142
:102C20000EF00EFA8DF828002561702805D101F00C
:102C30009DBB03261B4B1E7006E01A4B1E78032E0D
:102C400002D0012002F094FE264B986800F4006543
:102C5000254A0021134643F8041B5160043343F80E
:102C6000041B196002238DF826308DF827101023DD
:102C7000ADF8243004231370012393700723D3701D
:102C800010F4004F34D01223ADF824301346012243
:102C90001A715A719A710722DA71022429E000BF71
:102CA000001BB7007E2500200005FA050010024039
:102CB00000080140000C01400010014000000140EC
:102CC00083DE1B43B4060020D34D621010E000E009
:102CD000F01C00201454010824540108003800405E
:102CE00015202000D41E0020B002002000ED00E0DE
:102CF0000124012E0FD9BDF8243043F02003ADF894
:102D00002430604B05221A72621C5C720121997298
:102D10000721D972D4B25C4809A905F0FDFD85B13F
:102D20001AA9022321F8443D584805F0F5FD554BFA
:102D300009221A73621C5C73012199730721D973EC
:102D4000D4B2534B5A6942F001025A619A6942F473
:102D500000729A614F4805F0ABFE4F4B0A934F4B00
:102D60000B9300230C930D940E93022C28BF802309
:102D70000F934FF4807310934FF4806311932023CB
:102D800012934FF40053139300261496414D284696
:102D90000AA905F06DFE2B6843F001032B60404B40
:102DA0005A6822F4702222F48072012C94BF002110
:102DB000012142EA01225A6099683A4A0A4042F4E3
:102DC000602242F002029A60DA6A22F47002611E06
:102DD000C9B242EA0152DA6230460122294F1F2469
:102DE000072600EB070E9EF8021000296BD0C15D8C
:102DF000551CEDB29EF803C0092910D9D3F80C80F8
:102E0000A1F10A0E0EEB4E0E06FA0EF928EA090899
:102E10000CFA0EFE48EA0E0EC3F80CE00DE0D3F8F3
:102E2000108001EB410E06FA0EF928EA09080CFAA7
:102E30000EFE48EA0E0EC3F810E0062A0FD8D3F8AB
:102E400034E0013A02EB820204FA02FC2EEA0C0E94
:102E500001FA02F24EEA02025A632A4633E00C2AD1
:102E600022D8D3F830E0073A02EB820204FA02FCDF
:102E70002EEA0C0E01FA02F24EEA02021A632A4608
:102E800021E000BFB002002000080140000C01401A
:102E900000100240080002404C240140C002002003
:102EA00000240140FDF7F1FFD3F82CE00D3A02EBCE
:102EB000820204FA02FC2EEA0C0E01FA02F24EEA39
:102EC0000202DA622A46043010288AD1B64B9A6888
:102ED00042F480729A609A6842F001029A609A689D
:102EE00042F008029A601A46936813F0080FFBD16B
:102EF000AD4B9A6842F004029A601A46936813F048
:102F0000040FFBD1A84B9A6842F4A0029A60A74B29
:102F1000B3F8E600002841F03082B3F9E830002B26
:102F200041F02B82A14BB3F9EA30002B41F025820E
:102F30009E4B9B6813F4003F64D0142007F0F2FA14
:102F4000AE200DF083FBA4200DF080FB322007F0B3
:102F5000E9FA20200DF07AFB02200DF077FBA1208A
:102F60000DF074FBC8200DF071FBA6200DF06EFB78
:102F700081200DF06BFBAF200DF068FB142007F0F3
:102F8000D1FAAF200DF062FB142007F0CBFAA62097
:102F90000DF05CFBAE200DF059FB20200DF056FB30
:102FA00000200DF053FBB0200DF050FB40200DF041
:102FB0004DFB00200DF04AFB10200DF047FB4FF4B5
:102FC0008064002528460DF00FFB013CA4B2002CC4
:102FD000F8D181200DF03AFBC8200DF037FBAF206F
:102FE0000DF034FB724C734B236204F1240000217A
:102FF0000C220FF09CFE08F053FA07F069FA6E4BB2
:103000000344E3626D4B1A6842F00E021A60674B8C
:10301000B3F8EE4093F8ED70694B1B68B3F85AB003
:103020000022684B1A70684B1D78012D674B03F125
:103030000C0298BF1A465E4B1A630DF02FFF0090EA
:10304000002801F06782624B624A1A60624A5A6045
:10305000624ADA60BB2C04D90122614B1A7501F077
:1030600027BA612C04D902225D4B1A7501F020BAEF
:10307000292C04D903225A4B1A7501F019BA132CC2
:1030800004D90422564B1A7501F012BA092C8CBFD0
:1030900005220622524B1A7501F00ABA374689F802
:1030A00000A0092F00F2F480DFE817F011001100F2
:1030B0003400BB00DB00F200F200F200F2000A0074
:1030C0003E4B1A6822F002021A6001F000BA012D8C
:1030D00027D81AAB03F840AD53203146012202F045
:1030E0004DFD002801F0F0819DF82830E52B41F0DE
:1030F000EB812F4B83F834603A4B23603A4B63608B
:10310000042389F80030012388F800309F4241F001
:10311000DB81C8E0022D354BA3F10C0238BF13460A
:1031200000E0324B224A13630DF0B8FE002878D03D
:10313000682006210A460AAB02F020FD9DF82D20EA
:1031400002F001029DF82B3003F001035B0043EA1B
:1031500082029DF8293003F0010313430FD0012BA5
:1031600003D1134B83F8356046E0022B04D10122D2
:103170000F4B83F835203FE0052007F009FA68205F
:103180000C21012209AB02F0F9FC9DF8243013F068
:103190000F0302D1052007F0FBF9042B28D1044BC3
:1031A00083F8356028E000BF00240140D41E0020D1
:1031B000B4060020E21F0020404B4C00E402002037
:1031C000F8020020AA0400207E2500209C5301085C
:1031D0009404002011FF00089107010890C1793D77
:1031E00014000020ADFE00087D080108A853010866
:1031F0000122CB4B83F83520CA4B2360CA4B636056
:10320000C74B93F83530002B14BF6E236F23237206
:10321000022388F80030012389F80030022F01F0E2
:103220005681012D1DD81AAB03F840AD1C200D218D
:10323000012202F0A3FCA0B19DF828302A2B01D076
:103240001A2B0ED1B94A2260B94A6260B44A82F898
:103250003630022389F80030032388F800309F427B
:1032600021D01AAB03F840AD18203146012202F0FC
:1032700085FC68B19DF82830FB2B09D1AD4B23604C
:10328000AD4B6360042388F80030012389F80030D7
:1032900098F800303BB9002F7FF400AFA74B1A68B5
:1032A00022F002021A60012D06D1A54802F00EFD9F
:1032B0004FF40052A34B5A610A2007F033F97720EC
:1032C000A021012209AB02F059FC002801F01A816B
:1032D00077201E2101220DF03DFB4FF42F6007F0F7
:1032E00015F9002425468E4E8DF828508DF829506A
:1032F000A4F160017720C9B202220AAB02F03EFCC1
:103300009DF828209DF8293043EA022206F138036F
:10331000E2520234102CE7D1383BB3F8465005F0A6
:103320000F0405F47F45A3F84650012000231946F9
:103330007B4F019E21F001023A44128F002A18BFF0
:10334000002011F0010F1ABFD2B2534083EA1223BA
:1033500001F0C4B813F4004F18BF83F4C0535B00EE
:10336000013AF7D101311029E4D125436C4AA2F882
:103370004650002841F0C680C3F303339C4201F05D
:10338000B08001F0BFB86E4802F0A0FC4FF480445A
:10339000ADF8244004238DF826306A4D284609A94B
:1033A00002F042FA4FF400532B61674B5A6922F442
:1033B00070625A615A6942F400725A610A94002399
:1033C0008DF82C3008238DF82D3001248DF82E40F7
:1033D0000AA805F005FB28238DF820300F238DF86F
:1033E00021308DF822308DF8234008A805F0F0FB3D
:1033F000142007F097F87720D021224609AB02F07D
:10340000BDFB9DF82430464A82F85F300321A2F8C4
:103410006810552B40F0A6807720D121224609ABB9
:1034200002F0ACFB9DF824303D4C03F00F0284F811
:1034300060201B0984F861307720AA2116220AAB8C
:1034400002F09CFB9DF828209DF8293043EA0223D6
:10345000A4F848309DF82A209DF82B3043EA022337
:10346000A4F84A309DF82C209DF82D3043EA022321
:10347000A4F84C309DF82E209DF82F3043EA02230B
:10348000A4F84E309DF830209DF8313043EA0223F5
:10349000A4F850309DF832209DF8333043EA0223DF
:1034A000A4F852309DF834209DF8353043EA0223C9
:1034B000A4F854309DF836209DF8373043EA0223B3
:1034C000A4F856309DF838209DF8393043EA02239D
:1034D000A4F858309DF83A209DF83B3043EA022387
:1034E000A4F85A309DF83C209DF83D3043EA022371
:1034F000A4F85C30012384F86C30144B41F27072F4
:103500001A8046F678125A80114A5A60114A9A6017
:10351000114ADA60114A1A61114A5A612BE000BF60
:10352000B40600208D5C000851070108F5FD000875
:10353000D107010889FE000835080108E4020020CF
:103540002C540108001001400000014058030020E5
:10355000DDFD000815070108B5FD0008C1060108DA
:10356000154A00084FF40052B94B5A61B94B1A681A
:1035700022F004021A60B84B93F8E2300BB1B74A5C
:103580001370B54B93F8E3300BB1B54A1370B24BDF
:1035900093F8E4300BB1B34A1370AE4B1B6813F0D1
:1035A000020F02D0B04B1B689847B04B1B6898477E
:1035B0001AAB002203F8402D1E200A21012202F03E
:1035C000DDFA38B19DF82830482B03D10322A54BF2
:1035D0001A7004E09F4B1A6822F008021A609D4B93
:1035E0001B6813F0080F1BD00FFA8BFB64259BFBA5
:1035F000F5F420460EF05CFD064605FB14B000B263
:103600000EF056FD9A490EF0A7FD014630460EF029
:103610009BFC98490EF0A0FD974B186700F07DBF0A
:103620000022954B1A6700F078BFE36883F010031F
:10363000E360E36883F00803E360284606F072FF66
:10364000384606F09DFF284606F06CFF002006F085
:1036500097FF731E13F0FF06E7D1884B08221A610B
:1036600010221A61864B1B6893F90C000EF056F974
:1036700073A3D3E900230EF0B7F90EF00FFC0FF09F
:1036800085FD05467F4C20880EF012FD29460EF080
:1036900063FD0FF0B1FD7C4B188020880EF008FD13
:1036A00001467A480EF00CFE79490EF009FE794B7E
:1036B00018606E4BD8680EF043F961A3D3E900237C
:1036C0000EF092F960A3D3E900230EF08DF90EF00D
:1036D000E5FB714B1860604B5A7970490A7003F131
:1036E0001000654948676E4901EBC20292F8A510C7
:1036F0006C4A11609B6813F0200F02D00122694BC5
:103700001A60544B1B6813F0080F00F01881102248
:103710005A4B5A61644B1B78022B34BF4FF48051D3
:103720004FF4804134BF08241446604A9069204316
:103730009061ADF8241002228DF8272004228DF824
:103740002620434A4D48012B88BF104609A902F0A4
:103750006BF8322006F0E6FE1E20002111220DF04B
:10376000F9F81E20012160220DF0F4F8642006F023
:10377000D9FE0AA80DF056FB0A2700242546264646
:103780004FF01E0ADFF82891DFF8F0805046022142
:1037900001220DF0DFF8322006F0C4FE0AA80DF079
:1037A00041FBBDF928201644BDF92A100D44BDF98E
:1037B0002C301C449142B8BF0A469A42B8BF134607
:1037C0004B4509DBD8F80C3083F01003C8F80C30F7
:1037D000013FDBD1012700E000271E20002112223B
:1037E0000DF0B8F84FF00A084FF01E0BDFF8C0A03C
:1037F000DFF888905846022101220DF0ABF8322004
:1038000006F090FE0AA80DF00DFBBDF92820B61AAF
:10381000BDF92A106D1ABDF92C30E41A9142B8BFD7
:103820000A469A42B8BF1346534543DBD9F80C30D9
:1038300083F01003C9F80C30B8F10108DAD13AE08E
:10384000399D52A246DF913F000000A0F7C6B03E6E
:1038500000100140E4020020D41E0020AA04002031
:10386000120500207C250020000500209404002083
:103870008988883C00002041B4060020000C0140EB
:103880004405002002000020680500200AE81C41D1
:1038900000401C467804002040050020B0050020B0
:1038A0009C530108D40500207E2500200010024012
:1038B00001F0FFFF0027DFF8488330460EF0F8FBE9
:1038C0000146BE480EF0FCFC20F00040C8F818008D
:1038D00028460EF0EDFB0146B8480EF0F1FC20F052
:1038E0000040C8F81C0020460EF0E2FB0146B44838
:1038F0000EF0E6FC20F00040C8F820001E20002159
:1039000070220DF027F81E20012120220DF022F850
:103910001E20022100220DF01DF8642006F002FE98
:103920003FB94FF07E52C8F81820C8F81C20C8F8DC
:1039300020201022A34B1A610122A34B1A704023AE
:10394000ADF8283010238DF82A3002238DF82B3063
:103950009C480AA901F068FF00229C4B1A604FF0B6
:10396000FF329B4B9A679B4B03F180019A4A43F8C5
:10397000042F8B42FBD1964C0025E567F022974B34
:1039800083F82220C4F8A050C4F8C850C4F8C4502A
:10399000934BC4F8CC30143BC4F8D030914E304631
:1039A0000E21102202F0BAF9304629462A4602F0CA
:1039B00043FA8D4BC4F8D43004F1D8008B4901F0A0
:1039C0007FFF304604F1D4012A460BF09BFB884868
:1039D000C4F8E00006F0D8FC04F1E400FF21162250
:1039E0000FF0A5F9012384F8FA3084F8E450814BF4
:1039F0001B6813F0020F08D0012184F8E5100321A1
:103A000084F8FA10022184F8E61013F0040F09D0AC
:103A10006F4A92F8FA10481C82F8FA000A4403210F
:103A200082F8E41013F00A0F15D0694B93F8FA20CE
:103A30009918042081F8E400511CC9B219440520EA
:103A400081F8E400D11C83F8FA100232D2B2134498
:103A5000062283F8E420684B9B6813F0200F09D0FE
:103A60005B4A92F8FA10481C82F8FA000A440721CF
:103A700082F8E41013F0800F0FD0554A92F8FA1034
:103A80005018092480F8E440881C82F8FA000131BB
:103A9000C9B20A440A2182F8E410574A5279082A26
:103AA00001D00E2A09D14A4A92F8FA10481C82F82D
:103AB000FA000A440B2182F8E410454991F8FA20F3
:103AC000501CC0B281F8FA0011440C2481F8E44083
:103AD00013F0040F07D03E49023281F8FA20014466
:103AE000102281F8E4203A4991F8FA20501CC0B223
:103AF00081F8FA001144122481F8E4403E4991F81B
:103B0000451100290CBF002103F0010139B13049F2
:103B1000023281F8FA200144132281F8E4202C4972
:103B200091F8FA20501CC0B281F8FA001144142414
:103B300081F8E44013F4007F07D0254B023283F86C
:103B4000FA200344152283F8E4202C48002198220F
:103B50000FF0EDF80027DFF8A890DFF89CB009F12E
:103B60002C05DBF83031C9F830304FF00008012463
:103B70004FF4964A204629460BF0BCFD0646002825
:103B800040F0D684B8F1000F40F0D784C9F830A0D7
:103B9000A046EFE707F101085FFA88F84C2202FB24
:103BA00007F7164C3C44204600210FF0C0F8134A9A
:103BB000D651012384F84A304746D2E700406F4689
:103BC00001C05E46000C01404E030020301E002064
:103BD000B4060020301E00203800002000ED00E078
:103BE000382C01405C6E0108C9EA000829BE0008B3
:103BF00000200020E4020020D41E0020B007002096
:103C000014000020B549B64BD3F83431CB63022001
:103C100038310BF06FFDB34BC3F8940100231593BB
:103C20001693179318931993AD4B5B790E2B02D013
:103C3000082B40F08D8401238DF85E3000F088BCA5
:103C400004F11803E85C022809D004F1280319469E
:103C50001A78824207D01033B342F8D102E004F15F
:103C6000180100E0394607F003FF83681B78012B39
:103C700004D01035602DE3D10023009300998DF816
:103C80005810974B9A68C2F340018DF85910C2F34F
:103C900080118DF85A10C2F340318DF85410C2F3E0
:103CA000C0318DF85610C2F3C0218DF85710C2F301
:103CB00000418DF85B1002F001018DF855108A4922
:103CC0000968003118BF01218DF85C108749096827
:103CD00091F87011C1F380018DF85D10B3F8DE101A
:103CE000ADF86010B3F8E030ADF862304FF47A739D
:103CF000ADF8643012F4805F04D0794BB3F8DA3059
:103D0000ADF86430B1F5FA7F84BF0023ADF86430BC
:103D10007348B0F81811ADF86610724B90F8204156
:103D200083F8984100F58770C3F89C01704CC3F884
:103D3000A0410024A3F8A64183F8A84103F5D0745C
:103D40006C4D2C60C3F8AC416B4B18606B4B03F1AE
:103D5000240023F8021F8342FBD16949694B196093
:103D600012F0080F7ED05E4B93F81631042B70D8FA
:103D7000DFE803F003032F4D5E007BB1012B1AD166
:103D8000584B032283F8B021072283F8B121012286
:103D900083F8B2210C2283F8B4210CE0514B0222AB
:103DA00083F8B021032283F8B121002283F8B221E5
:103DB000072283F8B421082053490BF09BFC494BA0
:103DC000C3F8B801514AC3F8BC21031C18BF012332
:103DD00040E008204E490BF08DFC424BC3F8C00177
:103DE0003F4BB3F81811A1F5777149000022494BF8
:103DF000D1500432302AFBD13A4B474AC3F8BC2198
:103E00000C2283F8B421031C18BF012322E00820F0
:103E100042490BF06FFC334AC2F8C401404BC2F870
:103E2000BC31102382F8B431031C18BF012311E008
:103E300008203C490BF05EFC2A4AC2F8C8013A4B04
:103E4000C2F8BC31082382F8B431031C18BF012327
:103E500000E0002333B9082001F08CF80022214B48
:103E6000C3F8BC211E4B9B6813F4804F06D01D4A3B
:103E7000082182F8B4112D49C2F8BC1103F00102E7
:103E800003F4005142F2010003420DD0284C1548C2
:103E9000C0F8BC4119B10820124981F8B4011AB127
:103EA0000C21104A82F8B4110E4A92F8B411043968
:103EB00082F8B51113F0800F00F080801D4BC2F81E
:103EC000CC31D96800231C4A38E00133DBB2042B23
:103ED00034D90022034B83F8D12138E014000020AC
:103EE000D41E0020B4060020D4050020F8020020D3
:103EF000F8540108DC020020740100208602002032
:103F0000540800207402002020550108898300080D
:103F10002C550108980100205584000838550108E7
:103F2000458400084455010831840008698400086C
:103F300075840008002000209C53010802EB031048
:103F4000D0F8B8018842C0D1B64A82F8D131B54C18
:103F5000B54DC4F8EC5100200AF0C4FFB34B1B6808
:103F6000C4F8D8310023C4F8D4312B78002B0CBF0F
:103F70000122032294F8D111AD4B03EB0113D3F8C6
:103F8000B831C4F8F431A4F8F021102004F5F87128
:103F90000BF0B0FBC4F8FC0118B9802000F0EAFF78
:103FA00002E001200AF09EFFA24B186800F5B972EA
:103FB0009C4BC3F80022043001F07EFA9E4B9B68B4
:103FC00013F4007F0ED013F4005F14BF9B489C488D
:103FD0000CF07CFF9B4B1A6842F010021A60002222
:103FE000994B1A60994B1968994B9A4A136003F1DF
:103FF00080008C4AC2F80402974A11600021974A57
:104000001170A3F5AA739B6813F4803F00F0A7809A
:1040100001F0C6F801F0FEF801F0D8F801278F4B47
:104020001F70DFF85C9240F22A3848460021424671
:104030000EF07DFE8A4EB36943F00403B361402362
:10404000ADF8203018238DF8233003238DF822306B
:10405000844808A904F060FCF36943F00203F361AB
:10406000814B1A68814BB2FBF3F2013A92B2804C59
:10407000238823F45C731B041B0C23801D23A3855E
:104080002285A782238C23F001031B041B0C2384AD
:10409000238CA18889B2228B22F073021204120CA5
:1040A00042F0600223F002031B041B0C3B43A1807F
:1040B00022830025A5862384238B23F008031B0479
:1040C0001B0C43F008032383B4F844306FEA4343E6
:1040D0006FEA53439BB2A4F8443073693B43736166
:1040E000A6F69476304604F0E3FC624B0A93CDF8D2
:1040F0002C904FF01009CDF83090CDF834800E950B
:1041000080230F934FF480731093119512954FF401
:1041100000531393149530460AA904F0A9FCA3890F
:104120009BB243F40073A381336843F0020333600E
:104130008DF824908DF8257002238DF826308DF8A7
:10414000277009A804F044FD4B4A4C4B1B6853519F
:104150000435802DFBD10CF09BF80CF099F8364B10
:104160009B6813F4806F00F0A780042004F05AFECF
:104170000146042007F07CFC20B143681B7A03F061
:10418000010300E00023274A82F832352A4B9B685E
:1041900013F4806F0AD0042004F044FE014604208A
:1041A00007F066FC003018BF012000E000201D4B26
:1041B00083F83305D3F834351A78032A7AD8DFE840
:1041C00002F002062D61174AC2F8383572E0154C2C
:1041D000C4F83C352C2704F5A86000213A460EF0BF
:1041E000A6FD7C2684F840658E2384F84135E023C3
:1041F00084F843357D2584F86B5504F26C5000211A
:104200003A460EF094FD84F86C658A2384F86D3587
:10421000A02384F86F3584F897554BE0014AC2F823
:10422000983547E0B4060020FA1F0020B81E002091
:104230009C530108F8020020D41E0020A05501085C
:10424000AC550108E4020020C4000020DC0200207C
:1042500028200020F005002078060020DC05002042
:104260000010024000080140D000002000366E011E
:104270000004004034040040F4050020B855010853
:10428000BC080020B84AC2F89C350024B74D286805
:1042900080B2A1B200F0ECFE01340B2CF7D1B24B8E
:1042A0000022C3F8A025C3F8A425B149C3F8B0156E
:1042B00083F8AC250BF0CAFA06F00AF9AD4B18608A
:1042C000AD4B5B79052B03D14FF4C872AB4B1A8011
:1042D0004FF47A72AA4B1A80C822AA4B1A80AA4BB2
:1042E0001A7842F008021A70A84B1A7822F00202DB
:1042F0001A70A14B9B6813F0020F29D0A44A9A4B65
:10430000C3F8B4252824019D09F0BAFC204606F024
:1043100009F9013DF8D1944B93F8B805964B93F801
:104320000511814208D84A000223824205D8013390
:104330000A44082BF9D100E00123DBB2954A13703F
:104340008D4A92F8062102FB03F3874AA2F8BA3598
:10435000894B9B6813F4003F00F06A81824B93F80D
:10436000272042F0010283F8272061E18A4B1B7865
:10437000022B7EF462ACFEF75CBC0022874B83F814
:10438000442000B20DF0CAFA75A3D3E900230DF062
:104390002BFB0DF083FD0646774CB4F9E8000DF0D9
:1043A000BDFA6FA3D3E900230DF01EFB0DF076FDDF
:1043B0000546B4F9EA000DF0B1FA69A3D3E9002388
:1043C0000DF012FB0DF06AFD044630460EF0DEFEE5
:1043D000074630460EF04EFF804628460EF0D6FEC9
:1043E000064628460EF046FF054620460EF0CEFE55
:1043F000824620460EF03EFF8146384651460DF07B
:10440000ABFE0090384649460DF0A6FE02904046AD
:1044100051460DF0A1FE0390404649460DF09CFE2A
:104420008346514C304651460DF096FEC4F8BC050B
:1044300006F1004148460DF08FFEC4F8C005C4F8EF
:10444000C455284603990DF087FE014602980DF0E9
:104450007BFDC4F8C805284659460DF07DFE01468F
:1044600000980DF06FFDC4F8CC0508F1004130460E
:104470000DF072FEC4F8D005284600990DF06CFED0
:10448000014658460DF05EFDC4F8D4052846029951
:104490000DF062FE014603980DF056FDC4F8D805F4
:1044A000384631460DF058FEC4F8DC05FEF740BD35
:1044B00001223B4B1A70DFF810910026B246DFF85C
:1044C0000C81384CFEF7EBBD374BFEF72BBE98F84E
:1044D0000030002B3EF4E2ADFEF7E5BE3246FEF7BB
:1044E00039BF324B42F210721A805A80304A5A60F9
:1044F000304A9A60304ADA60304A1A61304A5A616A
:10450000FFF739B8184B93F86C30002B3EF43BAFF3
:10451000FFF731B8032006F03BF82A4B10225A610E
:1045200008221A610A261C4619250127FFF77DB8C3
:10453000012F3FF616ABFFF72DBB022005F05EFF03
:10454000094BC3F8940100287FF468ABFFF75ABB0E
:104550000025154C04F178062F46FFF771BB00BF0C
:10456000399D52A246DF913FB4060020B81E0020BC
:1045700011B200089C050020D41E0020EE0200208D
:104580007825002070250020F00200207D250020E5
:10459000D81F0020CC0000207E2500201400002021
:1045A000AA040020000500209C53010858030020A5
:1045B000A5FD0008A106010895FD0008B106010847
:1045C0008D480008000C0140120500207F250020C6
:1045D0004FF48053ADF8283010238DF82A30022391
:1045E0008DF82B30144B9A6942F004029A611348FB
:1045F0000AA901F019F9124A124B1A60FEF79BBA88
:104600004FF48053ADF8283014238DF82A3002235C
:104610008DF82B30084B9A6942F004029A610748E2
:104620000AA901F001F9084A064B1A60FEF783BA9D
:104630001BB0BDE8F08F00BF001002400008014031
:1046400035A200088025002051A20008AFF30080A9
:104650002DE9F001884228BF012404D2012400265C
:104660004FF030080AE001FB04F4B0FBF4F58D4292
:10467000F9D21F46ECB1F2E71F463B46B0FBF4F51A
:1046800004FB1500B4FBF1F41EB9002D01DC002C75
:10469000F2D15F1C092D06DD002A0CBF4FF0570C2C
:1046A0004FF0370C00E0C44665441D700136002C05
:1046B000E3D100233B70BDE8F00170472DE9F00124
:1046C000884228BF012404D2012400264FF030087C
:1046D0000AE001FB04F4B0FBF4F58D42F9D21F4669
:1046E000ECB1F2E71F463B46B0FBF4F504FB1500C6
:1046F000B4FBF1F41EB9002D01DC002CF2D15F1CDB
:10470000092D06DD002A0CBF4FF0570C4FF0370C77
:1047100000E0C44665441D700136002CE3D100233F
:104720003B70BDE8F001704738B505461446B0FB54
:10473000F2F010B1FFF7F8FF0146B5FBF4F304FB0C
:104740001354034B1B5D084600F8013B38BD00BF06
:10475000506F010803685A1C02601970704700BF4F
:104760002DE9F04105460E46069F002B0CBF4FF089
:1047700020084FF030083B784BB1002A1CDD3B4647
:10478000013A13F8010F10B1002AF9D114E0541EB8
:10479000002A06DD28464146B047013CB4F1FF3F00
:1047A000F8D1397851B13C462846B04714F8011F7A
:1047B0000029F9D1BDE8F0813978F4E7BDE8F0814E
:1047C00010B40346C28802F0800292B25AB1026964
:1047D000416C541A8069005DC0B20139002908BFDC
:1047E0001146596408E0426A8169885CC0B219695F
:1047F000013901320A405A625DF8044B704700BF2C
:10480000C38803F080039BB23BB1436B59680369D3
:10481000013B426C881A184070470369013B016AEA
:10482000426A881A18407047C38803F480739BB2A9
:1048300013B190F848007047C26A836A9A4214BF65
:1048400000200120704700BF436A026A9A4208D0E4
:104850008269D15C0269013A013313404362084620
:1048600070474FF0FF3070470369013B016A426AAD
:10487000881A1840704700BF826AC06A824214BF1B
:1048800000200120704700BF704700BF2DE9F00FE6
:1048900084B003908C465B4E73895B4A1768A7EB24
:1048A00003274FEAE779B288002545EA1245140448
:1048B0003289A2FB070102FB0911C20942EA4162E7
:1048C000CB11A01845EB0301CDE90001728800254A
:1048D00045EA5245D403F288A7FB020102FB091105
:1048E000020A42EA01620B1214EB020A45EB030BC7
:1048F000B289A7FB020102FB0911C20D42EA412263
:10490000CB1512F5FA6643F10007B6F5FA6F77F1A9
:10491000000157DA02FB03F4A2FB020101EB4401A0
:104920008D0045EA90758400001941EB05014D109A
:104930004FEA3004DDE90089B8EB040869EB0509AA
:10494000CDE90089840844EA81748D10BAEB040A29
:104950006BEB050B2D484FF0FF31864277EB0109D9
:1049600030DA40F6AC500021121843EB010302FB91
:1049700003F1A2FB022303EB4103544263EB430523
:10498000E90041EA5471E000801841EB0301DDE9E0
:104990000045241845EB0105CDE90045941843EB8B
:1049A0000305A90041EA9471A000001941EB05013B
:1049B000801841EB030149104FEA3000BAEB000ABE
:1049C0006BEB010B124B1A68A2FB0A0102FB0B11E5
:1049D000420D42EAC1224B15DDE90089B2EB080223
:1049E00063EB0903D00B40EA4340039B03B118601B
:1049F000BCF1000F01D0CCF8006004B0BDE8F00FAE
:104A0000704700BFEC060020481C002024FAFFFF7E
:104A10004C1C00202DE9F001364B1C88364B5A897E
:104A2000A41A1A8902FB04F4E413B3F91250ED023C
:104A3000B3F91420224495FBF2F22244DA6102EB2E
:104A40008206760008363611A2F57A6202FB02F57C
:104A50002D13B3F90EC00CFB05FCB3F9028008FB63
:104A600002F8B3F92040B3F9047007FB02F2B3F97E
:104A70000C7007FB05F52D1405EB62370237BF10EC
:104A800007F50047DA8802FB07F7FF0B4FEAE82239
:104A900002EBEC22B3F9003002EB8302A2400232B7
:104AA000164D2D68A5EBA2024CF2503545FA04F4E0
:104AB00004FB02F4002CA7BF6300B3FBF7F3B4FBC5
:104AC000F7F35B001A1202FB02F240F6DE3404FB3D
:104AD00002F20B4C04FB03F4241404EB224202F612
:104AE000CF6203EB221300B1036001B10E60BDE899
:104AF000F0017047581C0020FC060020541C0020C8
:104B000043E3FFFF30B587B005460C460023009312
:104B10000193029300210DF0DBFC20B128463649B9
:104B20000DF012FA03E0284633490DF00BFA334931
:104B30000DF012FB0DF0D6FC054685EAE570A0EB02
:104B4000E57000280BDA2D238DF80C3040420DF172
:104B50000D010A22FFF7E8FD0023037005E003A919
:104B60000A22FFF7E1FD00230370002DACBF2023D4
:104B70002D238DF8003003A80EF01AF901280BD16F
:104B800030238DF801308DF802308DF803306846FF
:104B900003A90EF0F3F814E0022809D130238DF8B0
:104BA00001308DF80230684603A90EF0E7F808E0FE
:104BB000032804BF30238DF80130684603A90EF0A6
:104BC000DDF868460EF0F4F80338C5B220466946B1
:104BD0002A460EF017F90023635520460EF0E8F838
:104BE000074B1B882352204600A929440EF0C6F823
:104BF000204607B030BD00BF6F12033A00007A4470
:104C0000786F01082DE9F843024610F8013B202B8C
:104C1000FAD0092BF8D02D2B02D10246554F04E0D3
:104C20002B2B08BF01324FF07E571478A4F13003CC
:104C3000DBB2092B1AD8551C0026DFF83C81304620
:104C400041460DF089FA0646A4F130000DF030FA25
:104C5000014630460DF078F906462A4615F8014B14
:104C6000A4F13003DBB2092BE9D900E000262E2C99
:104C700024D1501C5378A3F13001C9B209291CD8A2
:104C8000951C3D4CA046A3F130000DF011FA2146D1
:104C90000DF016FB014630460DF056F9064620464B
:104CA00041460DF059FA04462A4615F8013BA3F196
:104CB0003001C9B20929E6D900E00246137803F0B1
:104CC000DF03452B4BD153782D2B03D102324FF00C
:104CD000010805E02B2B14BF013202324FF000080F
:104CE0001378A3F13001C9B209292FD8002404EBAD
:104CF000840403EB4404303C12F8013FA3F130017B
:104D0000C9B20929F3D9B4F59A7F28BF4FF49A7430
:104D1000072C0FD925464FF07E51DFF860900846EA
:104D200049460DF019FA0146083D072DF7D804F061
:104D3000070401E04FF07E5154B10F4D084629465B
:104D40000DF00AFA0146013CF8D101E04FF07E5126
:104D5000B8F1000F05D030460DF0B2FA04E04FF084
:104D60007E5130460DF0F8F939460DF0F5F9BDE801
:104D7000F88300BF000080BF0000204120BCBE4C73
:104D80002DE9F04F87B08146884614461F4600261D
:104D9000D9E0252903D001344846C047D3E06278E2
:104DA000302A02D00234B24603E0A27803344FF036
:104DB000010AA2F13003DBB2092B21D8354605E008
:104DC00005EB850503EB450514F8012BA2F1300333
:104DD000DBB2092B02D8A2F130030EE0A2F161038D
:104DE000DBB2052B02D8A2F1570306E0A2F1410382
:104DF000DBB2052B05D8A2F137030A2BE0D900E07E
:104E000035466C2A03BF2278013401233346632AD6
:104E100000F0848008D8252A00F09280582A5AD0C1
:104E2000002A00F094808EE0732A7DD002D8642A94
:104E300022D088E0752A02D0782A4CD083E04BB18A
:104E400007F1040B38680A21324603ABFFF736FC42
:104E50005F4608E007F1040B38680A21324603ABCD
:104E6000FFF7F6FB5F4603AB0093484641462A46F0
:104E70005346FFF775FC66E093B107F1040B386801
:104E8000002806DA40422D238DF80C300DF10D0379
:104E900000E003AB0A213246FFF710FC5F4611E049
:104EA00007F1040B3868002806DA40422D238DF8FC
:104EB0000C300DF10D0300E003AB0A213246FFF781
:104EC000C7FB5F4603AB0093484641462A4653461C
:104ED000FFF746FC37E063B107F1040B3868102197
:104EE000582A14BF0022012203ABFFF7E7FB5F46FD
:104EF0000BE007F1040B38681021582A14BF002278
:104F0000012203ABFFF7A4FB5F4603AB00934846C7
:104F100041462A465346FFF723FC14E03D1D484610
:104F20003978C0472F460EE007F1040A3B6800932A
:104F3000484641462A463346FFF712FC574602E0F0
:104F400048462521C047217800297FF422AF07B0C9
:104F5000BDE8F08F80EAE073A3EBE0738B4207DBE0
:104F6000002801DD401A7047002802DA0844704723
:104F700000207047024B9A6822EA00009860704750
:104F8000D41E0020024B9A6810439860704700BFFF
:104F9000D41E0020134B1B78522B1AD1114B5B8867
:104FA000B3F5D36F17D10F4B1B79BE2B15D10D4B1A
:104FB00093F89536EF2B12D100200A4B0A4913F8CB
:104FC000012B50408B42FAD1D0F1010038BF0020B4
:104FD0007047002070470020704700207047002075
:104FE000704700BF00F8010898FE010810B485B0B2
:104FF0000091ADF8060010238DF80830BDF806309A
:10500000ADF809300098CDF80B000DF107020DF155
:105010000E00002312F8011F0B448242FAD133F034
:10502000FF0205D0DAB202EB132333F0FF04F9D10B
:10503000DB438DF80F300B4B1A68531C03F007034A
:10504000094909688B4209D0084901EBC20204AC46
:1050500014E9030082E80300024A136005B05DF81A
:10506000044B7047580C0020540C002030100020D6
:1050700030B441EA0041134B1C68621C1A60CCB189
:10508000601E4008104B53F820305A1AB2F5803F8A
:1050900012DB0D4D09E0421E520855F822305C1A11
:1050A000B4F5803F09DB0446104645F8243000285B
:1050B000F1D102E0204600E02046034B43F82010E7
:1050C00030BC7047241200202812002030B4002881
:1050D000B8BF4042164C84FB0032C317C3EBA25248
:1050E000144B03FB0200C0EB0010830084FB035051
:1050F000DD17C5EBA050104C2468247B3CB902EBB3
:10510000820202EB820200EB82020A8004E0C2EB20
:10511000021200EB82020A80064A02FB0033074AB1
:1051200082FB0302DB17C3EBA2134B8030BC70473A
:105130006BCA5F6B806967FFEC0B0020D34D621078
:10514000094B1B786BB1094B1B685B7823B1084B8B
:105150001868C0F3C0407047064B1878C0F3800051
:1051600070470120704700BFE60B0020E80B0020CD
:10517000800200207D25002008B508480DF018FEAB
:10518000C0B2142808D805492022431CDBB20A54B7
:10519000152B01D01846F8E708BD00BF7810002095
:1051A0000023084A1370084A1068064AC118498843
:1051B00009B9C15C29B11178013111700433802B18
:1051C000F4D17047EC050020F005002010B40C4B22
:1051D00019785A784B085C1E0A48047001F00101E6
:1051E0000B44094803705308581E0849087002F020
:1051F0000102134406490B705DF8044B704700BF71
:10520000940C002090110020921100209311002096
:105210009111002070B4104B00225A701A700F4B7D
:105220001D78B5B10E4B1E68D4B21346104616F861
:1052300023201109A142A8BF4C1C02F00F02824298
:10524000A8BF501C0133DAB2AA42F0D3024B5C7003
:10525000187070BC704700BF940C0020EC05002053
:10526000F005002010B40B4B99781A788818013893
:1052700090FBF2F402FB1400D8701971013191FB1C
:10528000F2F002FB1012D2B25A719A705DF8044B20
:10529000704700BF940C0020F0B40478E4B1002201
:1052A000134617462E2C03D10133B9B1C4186754E5
:1052B00002EB820255002A46C45CA4F13006F6B225
:1052C000092E9CBFA5F1300212190E2B08D801330C
:1052D000C45C002CE6D105E0002004E0104602E0AA
:1052E000002000E01046F0BC704700BFF0B4384B1F
:1052F0001D6801786B185B7813F0040F12D000F171
:105300000F0398425FD2431C00F1100601E0B34244
:105310005BD01C4613F8011B6A18527812F0040F78
:10532000F5D100E00446231A022B11DD421CA21A1B
:10533000002305E01BB103EB83035B00DBB2013A02
:1053400010F8016B303E3344DBB2022AF2DC00E09D
:105350000023A0420ED2002204E01AB102EB820226
:105360005200D2B210F8016B303E3244D2B2A042A9
:10537000F3D100E000222E2915D1013404200021B0
:1053800001EB8101490089B22678AF197F7817F0C7
:10539000040F03D001343039314489B2013810F0A0
:1053A000FF00EDD100E000210A4800FB02F264207A
:1053B00000FB01210848A0FB0120084A02FB03F37F
:1053C00003EB900002E0002000E00020F0BC7047FA
:1053D0000001002040420F00ABAAAAAA80969800C4
:1053E00010B50CF065FE044600210DF071F838B1DF
:1053F00020460A490CF064FF09490CF0ADFE07E0B5
:1054000004F1004005490CF05BFF05490CF0A4FED7
:105410000DF0BCFE034B186010BD00BF8096184B0A
:1054200035FA8E3C8C000020F8B50C461E461368F9
:105430000068181A0CF03CFE054630682368C01A54
:105440000CF036FE184B19680CF086FE0446284610
:1054500029460CF081FE0746204621460CF07CFED2
:105460000646384631460CF06FFD0EF01BF90F4929
:105470000CF072FE0DF05CF8069B186005F1004020
:1054800021460DF085FF0A490CF066FE09490CF033
:105490005BFD0DF027F80028BCBF00F50C40A030E4
:1054A000079B1860F8BD00BF8C0000202C7D8E3F4C
:1054B000A00CB34500A00C4670B504461F4D007902
:1054C0000CF0F2FD1E490CF0FBFE2860A07B0CF0F6
:1054D000EBFD1B490CF0F4FE68601A4EEE601A4DAD
:1054E00060790CF0E1FD19490CF0EAFE2860E07BE0
:1054F0000CF0DAFD12490CF0E3FE6860607E0CF0FF
:10550000D3FD13490CF0DCFEA860EE60114DA079CC
:105510000CF0CAFD0D490CF0D3FE2860207C0CF085
:10552000C3FD07490CF0CCFE6860A07E0CF0BCFD0A
:1055300007490CF0C5FEA860EE6070BDB80E0020F3
:105540000000C8420000FA44CC0E002000002041B8
:1055500000007A44400F002044F250639842C4BFD8
:10556000A0F50C40A038034B9842BCBF00F50C409E
:10557000A0307047B0B9FFFF2DE9F84305460E464D
:10558000144699465068281A0CF092FD31680CF0C8
:1055900097FE07462061D6F80080A6681C4B1B6862
:1055A00098780CF081FD0CF0CBF917A3D3E9002318
:1055B0000CF01AFA02460B46002016490CF03EFB8E
:1055C0000CF06CFC014640460CF0BEFC0146404627
:1055D0000CF076FE8046384631460CF0B3FC0146AE
:1055E00040460CF0B9FD014630460CF0ADFC2061A0
:1055F0006560A060D9F808100CF0AEFD0CF072FFE9
:10560000BDE8F883AFF30080182D4454FB21194006
:10561000B40800200000F03FF8B51A4B1C78631E58
:10562000DBB2012B20D8184B1D68184B1E782E4476
:10563000174F786817490CF08FFD0CF079FFB072A6
:10564000B86815490CF088FD0CF072FF30752878A9
:105650000CF02EFD01460CF077FC0CF069FFA870F1
:10566000AB7A2B732B7DAB75032C06D10022054B37
:105670001A700122094B1A70F8BD084B1A780132D2
:105680001A70F8BDA00500209C1C00207E1C002084
:10569000901C002000007A449A99993F1000002045
:1056A000F0B41E4B1B6A002B35D0013B1B490B622B
:1056B00051F8237051F820301A7922F001021A7142
:1056C0004200531C0D6AAB4222D20232AA420DD2D2
:1056D00051F8234051F82260B4F800C03488C4EB7C
:1056E0000C0424B213EA240338BF134651F82320D4
:1056F0003E881488341B24B2002C09DD41F8202098
:105700005A00541CAC4202D218462346DDE7184624
:10571000024B43F82070F0BC704700BF34070020F4
:1057200010B50B4B1C6A94B11B6883420AD104E08C
:1057300052F8041F814207D100E000231846FFF70A
:10574000AFFF10BD024A00230133A342F0D110BDC8
:10575000340700202DE9F84306468846038A8589E8
:10576000ADB21D403ED04FF00047B5FA85F327FAA1
:1057700003F2D24391B2318215401B3B042B2FD848
:10578000DFE803F0272019120300B6F82C901FFA67
:1057900089F9D8F820401CB3236820464946984729
:1057A0006468002CF8D11BE0D8F80000B18E0368C3
:1057B00089B2984714E0D8F80400318F036889B2A1
:1057C00098470DE0D8F80800B18F036889B2984770
:1057D00006E0D8F80C00B6F84010036889B2984784
:1057E000002DC2D1BDE8F883800A0C4B98420CD042
:1057F00003D8B0F5801F0ED00BE0094B984206D0BD
:105800004933984205D10020704702207047032099
:105810007047FF2070470120704700BF0100100053
:1058200002001000704700BF2DE9F00300230F278E
:105830004FF0010C0A881A4112F0010F28D0DA0843
:105840008D7805F00F0803F00704A40050F82290AB
:1058500015F0100F1CBFCD7848EA050807FA04F5CB
:1058600029EA050508FA04F42C4340F822408A7816
:10587000282A06D1C2680CFA03F622EA0606C66098
:1058800006E0482A04D1C2680CFA03F61643C66043
:105890000133102BCED1BDE8F003704700B583B0C3
:1058A0008368ADF804308DF8061002238DF80730B8
:1058B000406801A9FFF7B8FF03B05DF804FB00BF23
:1058C0000C4B1A6892FAA2F3B3FA83F3002A08BFCA
:1058D0004FF0FF33002B0CDB01600371064A42F8E6
:1058E0002300044A012101FA03F3116821EA0301AC
:1058F000116070472C070020341E002030B403795B
:105900000949012202FA03F50C6824EA05040C6037
:10591000064C074941F82340064B01798A40196833
:105920001143196030BC7047301E00203800002041
:10593000341E00202C070020094B984205D1094B4A
:10594000DA88013292B2DA8007E0074B984204D13C
:10595000044B1A89013292B21A814FF0FF3070471E
:1059600000300140940C002000380040AFF300806C
:105970002DE9F04F89B0012834BF82464FF0010A6B
:105980006E490AEB8A0292008B1889586C4A1160A2
:105990006C4A82F800A06C4AD06919690143D16150
:1059A0005C681D895B89019343EA050BC4F810B05C
:1059B000ADF808B002238DF80B3014238DF80A30AF
:1059C000204602A9FFF730FF08270A26A9460FE064
:1059D000304604F09BFDA3681D42F9D06561304656
:1059E00004F094FD2561304604F090FD013F03D0A2
:1059F000A3681D42F2D1EBE7019860610A2004F030
:105A000085FDC4F814900A2004F080FDC4F81090BD
:105A10000A2004F07BFD019B2361ADF808B002234E
:105A20008DF80B301C238DF80A30204602A9FFF7B1
:105A3000FBFE434B1A68454B9A420AD103F5DE330D
:105A40001A6942F400121A611A6922F400121A61EA
:105A500008E03D4B1A6942F480021A611A6922F487
:105A600080021A6136490A68938823F440731B0444
:105A70001B0C938013889BB243F0010313800C68C6
:105A8000A58825F03F052D042D0C02A802F0E6FEA6
:105A9000049A2F49A1FB0201890C0D43A58023889C
:105AA00023F001031B041B0C23802A4BA3FB0203DE
:105AB000DB0C08BF43F0010343F400434FF496723C
:105AC00001FB02F1244A82FB01029211013222847D
:105AD000A38323889BB243F00103238023889BB2D6
