:020000040800F2
:10000000005000208D160108391701080101010870
:1000100039170108391701083917010800000000D5
:100020000000000000000000000000003917010877
:10003000391701080000000009000108F10001085B
:10004000391701083917010839170108391701084C
:10005000391701083917010839170108CDFF0008C1
:10006000391701083917010839170108391701082C
:1000700039170108391701087DFF000839170108F1
:10008000D5FF000839170108391701083917010889
:10009000391701083917010839170108C5FF000889
:1000A0003917010849FE0008391701086DFE0008DC
:1000B00029FE000805FE0008E1FD000871000108A6
:1000C0006100010869000108590001083917010899
:1000D000391701082DFF000891FE000839170108A3
:1000E00079000108391701083917010800000000DC
:1000F0000000000000000000000000000000000000
:0C01000000000000000000005FF808F1A3
:100110002DE9804891B002F01BFB002405940022D9
:10012000954B1A70954B9C6814F0080F00F0CE8028
:10013000914B5B681B7A042B00F2C580DFE803F06B
:10014000030306588B008C4B1A7ABDE08A4B5B7A0E
:10015000002B49D0884B00225A7293F8223013F0BA
:10016000080F43D1844B9A89C2F30A029A62DA6873
:10017000C2F3CA22DA62D9891A7C02F00102920221
:1001800042EA91121A631A8AC2F34A025A631A693E
:10019000C2F30A329A63598A1A7D02F003025202AC
:1001A00042EAD112DA639A8AC2F38A021A645A695D
:1001B000C2F34A325A64DA7D197E01F0070142EA3D
:1001C00001229A641A8BC2F3CA02DA649A69C2F3F2
:1001D0008A321A65D97E1A7F02F00F02D20142EAF2
:1001E00051025A6501226FE000226DE000226BE0AF
:1001F000614B93F8583043B35F4B002283F858208B
:1002000093F85D30012B22D15B4B93F88130102B9A
:100210000BD91022584B83F88120574991F88160FF
:1002200001F15C038031002203E0002BF5D10122B3
:100230004AE0DD78187940EA052041F8040F0132E0
:100240000233D0B28642F4D803E000223CE0002220
:100250003AE0012238E0484B93F8C4305BB3464B98
:10026000002283F8C42093F8C830A82B25D1424B34
:1002700093F8DB301BBB424E1546A6F1DC0707EBBB
:10028000450393F8CB0093F8CC3003EB002010F03B
:100290007DF835A3D3E9002310F018FA34A3D3E98D
:1002A00000230FF035FF10F0F9FA46F8040F01357E
:1002B000082DE4D105E0002206E0002204E000223F
:1002C00002E0012200E000222B4B1A7014F4804F50
:1002D0000CD0294B93F800312BB10022264B83F828
:1002E0000021012200E00022234B1A70224B1B78D0
:1002F000002B02F0928114F4807F02F092811E4C58
:10030000D4F804311B681B6898471E4B1B68227881
:1003100032B9194AD2F808219A1A002AC0F2A183E8
:1003200003F59C432033144AC2F80831134B9B68F1
:1003300013F4807F04D0D2F804311B681B699847FE
:100340000E4B9B6842F201021A421DD10A4B1B78E8
:1003500013B3094CD4F804311B681B6898470DF09F
:100360009FFF0023237017E09A9999999999194052
:10037000000000000070774078010020501C002031
:100380005402002018220020B54B93F80C210132B2
:1003900083F80C210DF084FFB24B9B6813F4805F4F
:1003A00007D0AF4BD3F8103113F0010F01D104F097
:1003B000C5FBAD4B1C68AA4B5B681B7CD3B1A84D39
:1003C00005EB4303B3F91601A0F57A70B0F57A7F17
:1003D000A8BF4FF47A7020EAE07010F089FBA349BF
:1003E00010F08EFCA24910F0D7FB10F0C1FDA5F86B
:1003F00014014CE09B4B9B6813F4004F47D0984B83
:10040000D3F83C31E31A002B41DB954B04F59C42B9
:100410002032C3F83C2193F8452103EB4202B2F8A5
:10042000500180B293F85831013303F00F038C4D23
:1004300085F85831DBB2EE1810F05AFB8D4910F0F8
:100440005FFC10F095FD86F85C0105F25B1305F288
:100450006B10002213F8011F0A4492B28342F9D1B3
:1004600012B2002AB8BF0F3210116428A8BF64204E
:1004700020EAE07010F03CFB7F4910F041FC7C4921
:1004800010F08AFB10F074FD754BA3F81401754B46
:100490009B6813F4807F15D0784B9C420CD9704B2D
:1004A000D3F86C311B681B6A984728B96C4BD3F89A
:1004B0006C311B685B6A9847694BD3F86C311B68D9
:1004C0005B699847674BB3F8DC209B6813F4805F47
:1004D0000ED0634BB3F91E316249B1F81811881A76
:1004E000834210DD0A449342C2F29F8001270BE051
:1004F0005B4BB3F91E215B4BB3F81A319A42C2F23F
:100500009480012700E00127564B93F8216193F86E
:1005100022E1B3F81A51B3F81C41514800F58B722F
:1005200000F58F7000239B0832F9021FA942C4BF57
:1005300063F07F03DBB2A142B8BF43F040038242C5
:10054000F1D1474A92F870219A4209D1444A92F86F
:100550007121F92A08D80132414981F8712103E05B
:1005600000213F4A82F871113D4A82F87031444BB4
:100570001B78DBB9D2F8103113F0010F08D0AFB9F6
:10058000404B1B7813F0010F10D00BF08DFA0DE0EB
:100590003C4B1B7813F0040F08D0BEF1000F02D0C3
:1005A00004F0CCFA02E00FB904F0C8FA2C4B93F82F
:1005B0007131142B40F0B780003618BF0126314B43
:1005C0001B7813F0040F15D02D4B1B78002B00F077
:1005D000AA80234B93F870315F2B02D104F0AEFA5E
:1005E000A1E0002E00F09F807D2B40F09C8004F065
:1005F000A5FA98E01A4B93F87031572B0FD14FF4AE
:100600007A72214B1A80164BD3F8743113F0080F0D
:1006100040F089800022124BA3F8782183E0114A30
:10062000926812F0040F36D05A2B34D10C4B93F849
:100630007A313BB10A4B002283F87A21012283F8F8
:100640007B2170E0064A92F87C3183F0010382F846
:100650007C31DBB10222024B83F87D2163E000BFD5
:1006600078010020501C00201822002000007A444D
:1006700000C07F44CDCC23420000C842404B4C0018
:100680000000002028220020242200200322AC4B5E
:1006900083F87D2147E05D2B01F0DD875B2B01F0C6
:1006A000DC875E2B41F0EC8701F0D9BF6F2B02D1C4
:1006B0000BF0FAF937E026B17E2B02D10BF0F4F9FA
:1006C00031E0972B05D14FF4C8729D4BA3F87E21E2
:1006D00029E0A72B07D19A4B93F8802142F004021E
:1006E00083F880211FE000220D92BB2B04D102234E
:1006F000ADF8363001F0CBBFB72B05D14FF6FE7306
:10070000ADF8363001F0C3BFBE2B04D10223ADF8E3
:10071000343001F0BCBFBD2B05D14FF6FE73ADF8F0
:10072000343001F0B4BF874BD3F808C01CF0040F7D
:1007300044D0834B93F87C31CBB1834B1B7813F0BF
:10074000040F14D07E4BB3F91E217E4BB3F81A313F
:100750009A420CDD7A4BD3F8103113F0010F06D119
:10076000774B3222A3F88221002283F87C21744B3C
:10077000D3F8103113F4803F10D0714B93F88431CB
:100780003BB96F4B93F87A311BB932226C4BA3F80B
:10079000822101226A4B83F884210FE0684B93F891
:1007A0007A315BB1684B1B7813F0040F06D1644BB0
:1007B000002283F87A21012283F87B21604AD2F853
:1007C00088417D340023C2F8103115464FF0010EE8
:1007D0004FF4617740F63306E2189178D078814281
:1007E00025D2527805EB4202B2F92021B2F5617FA1
:1007F00003DBB242A8BF324600E03A4692B201EBB8
:10080000810101EB810101F561718A420FDB00EB8F
:10081000800000EB800000F56170824207DAE15C45
:100820000EFA01F1D5F810210A43C5F8102104335E
:10083000A02BD1D1424BD3F8103113F0020F09D1C4
:100840001CF4807F1FD03E4BD3F86C311B689B6833
:100850009847C0B13A4BD3F8743113F0020F12D05D
:10086000374BB3F88C3113F0010F41F02A87344A2B
:100870000021C2F89011C2F8941143F00103A2F8CC
:100880008C3101F01EBF2E4BB3F88C2122F00101F8
:10089000A3F88C11D3F8104114F0040F12D08BB2CE
:1008A0002749A1F88C3102F0020292B28AB90A46B5
:1008B0000021C2F89011C2F8941143F00203A2F88B
:1008C0008C3106E01E4BB3F88C2122F00202A3F813
:1008D0008C211B4BB3F88C3113F0030F4FF0100138
:1008E0001A4A14BF51611161154AD2F8745115F0BA
:1008F0000A0F3CD014F0100F0DD003F0040292B296
:1009000072B90F4A43F00403A2F88C31B2F878317F
:10091000A2F8983104E023F00403094AA2F88C31CC
:1009200014F0200F14D0064BB3F88C3103F04002C2
:1009300092B2A2B943F04003014AA2F88C310EE012
:1009400078010020501C002028220020000C0140CB
:10095000BD4BB3F88C2122F04002A3F88C2114F097
:10096000400F04D0B84BB3F87821A3F89A2115F0C2
:10097000200F01D00FF08EF814F4006FB24BB3F8D3
:100980008C2114BF42F4807222F48072A3F88C216F
:10099000AE4B5B79082B01D00E2B06D1AA4BB3F8D6
:1009A0008C2122F04002A3F88C21A74B93F89C31B4
:1009B000002B00F0AC8415F0040F01F0878614F0D2
:1009C000080F08D1A04BB3F88C2122F00802A3F83D
:1009D0008C2101F07BBE9C4BB3F88C2102F0080304
:1009E0009BB2002B41F07286974B42F00802A3F8AD
:1009F0008C21D3F8A421C3F8A021B3F8B221A3F825
:100A0000A8210022C3F8B421C3F8B82101F05EBECA
:100A100014F4001F08D18C4BB3F88C2122F400721F
:100A2000A3F88C2100F073BC874BB3F88C2102F43F
:100A300000739BB2002B40F06A84834B42F4007237
:100A4000A3F88C21D3F8A421C3F8A021B3F8B221D4
:100A5000A3F8A8210022C3F8B421C3F8B82100F0FC
:100A600056BC7949D1F8BC21501CC1F8BC01052AFB
:100A700000F24484DFE812F00600A40031041701FC
:100A800082033B04704AD2F8742112F0080F00F080
:100A900035846D4AD2F8C0219A1A002AC0F22E84F9
:100AA00003F5C334A034684DC5F8C04105F5E276BE
:100AB00030460DF025F830463146654B1A780AF07D
:100AC000C3FD95F8801111F0040F1AD02B46C5F81C
:100AD000CC4100225D4E15469019A0F8FE5003F55A
:100AE000E270105A03F5E877D05303F5EC77D05352
:100AF0000232062AF0D121F00401A7F5EC7383F845
:100B00008011514B93F8DE31B3B14F4A4F4BB2F8DD
:100B1000C401B3F8FE10411AA2F8C411B2F8C6011C
:100B2000B3F80011411AA2F8C611B2F8C811B3F80F
:100B30000231CB1AA2F8C831434BD3F8CC31002B89
:100B400000F0DC83E31A434A93421FD8424BDA6831
:100B500082F00802DA6000233B4A02F5E271595A3A
:100B600002F5E8701C5E08B28442C4BF02F5E8706A
:100B7000195202F5EC701C5E08B28442BCBF02F54B
:100B8000EC7019520233062BE7D1B7E300232E4A4B
:100B9000C2F8CC312D481C1802F5E8715D5E02F5F3
:100BA000EC71595E294401EBD1714910A4F8FE1093
:100BB0000233062BEFD10DF0E7F90FF02BF89DE390
:100BC000214AD2F8742112F0040F00F097831E4AD4
:100BD000D2F8E0219A1A002AC0F290831A4AC2F889
:100BE000E03192F8E431012B15D013B1022B35D04E
:100BF00084E3154CD4F8F0319847D4F8F431984791
:100C0000012384F8E431B4F8EA21D4F8E031134444
:100C1000C4F8E03172E30C4CD4F8F8319847D4F8BA
:100C2000EC319847B4F8E821D4F8E0311344C4F823
:100C3000E031D4F8FC3104F5007004F501719847F7
:100C4000022384F8E43159E378010020501C00208D
:100C5000272200207FC3C901000C01407A4B0022EB
:100C600083F8E421D3F80842D3F80012D3F80C0239
:100C7000421CD3F810321B789A4204D10122724BE5
:100C800083F814220022704B03EB8000C0F8181286
:100C9000214403EB8200D0F81802091AC3F80C2291
:100CA000C3F808122AE3684AD2F8742112F0040F3C
:100CB00003D0654991F8141219B912F0100F00F021
:100CC0001D83614AD2F8D8525D1B46F2A7129542A5
:100CD00040F214835C4AC2F8D8325C4B1E88002E66
:100CE00036D01346D2F8DC22D3F810120978013935
:100CF000D3F80832B3FBF1F31146002AB8BFD11D77
:100D0000A2EBE1021344504AC2F8DC321846002B31
:100D1000B8BFD81DC0100FF0EBFE4D490FF0F0FF2B
:100D20004C4911F047F80146474C4FF07E500FF008
:100D300029FE49490FF030FF10F0F4F8C4F8E00242
:100D4000013E424B1E800027C4F8E472C4F8E872EA
:100D50003D4CD4F8106230780138D4F80832B3FB37
:100D6000F0F00FF0C1FE3A490FF0CAFF394911F017
:100D700021F801464FF07E500FF004FE36490FF087
:100D80000BFF10F049FF80467668D4F8EC020FF0B4
:100D9000AFFE31460FF000FF0746D4F8E002C0EB8B
:100DA00008000FF0A5FE80464FF07E5031460FF050
:100DB000E9FD014640460FF0EFFE014638460FF0D0
:100DC000E3FD10F029FF0646B4F9F022002AB8BF6F
:100DD0005242B4F9F232002BB8BF5B429A42ACBF28
:100DE00014461C46A4B21D4B186823B2FA2B01F31B
:100DF00073840FF07DFE074620B20FF079FE0146A6
:100E000017480FF0BFFD014638460FF0C5FE1449E4
:100E10000FF076FF10F086F80446104B1860431E62
:100E2000C62B06D8084B361AC3F8F462C3F8EC0296
:100E30003EE0054BD3F8F432F61A002812DC024BE0
:100E4000C3F8EC6234E000BF780100201C220020CF
:100E500080E6C547B1DC423ED048874AD400002036
:100E600000006144C0F596700FF042FEB8490FF0E3
:100E700047FF074620460FF03BFE014638460FF07D
:100E80008BFE044630460FF033FE06464FF07E5090
:100E900039460FF077FD014630460FF07DFE0146E2
:100EA00020460FF071FD10F03DF8AA4BC3F8EC029C
:100EB000A94F38680FF018FE0646A8490FF06CFEDF
:100EC0008246A44CD4F800030FF012FE8046D4F8FA
:100ED00004030FF00DFE014640460FF011FF019094
:100EE000D4F808130FF058FE014630460FF054FEB8
:100EF0000290D4F8E482D4F810620096D6F80C90F0
:100F0000D4F8EC624FF07C510FF046FE014650469B
:100F10000FF042FE8346504641460FF03DFE01462B
:100F200058460FF031FDD4F8E8120FF02DFD494678
:100F30000FF032FE824630460FF0DAFD83464FF066
:100F40007E5049460FF01EFD014658460FF024FE24
:100F5000014650460FF018FD8146C4F8E802029899
:100F600041460FF011FD8046C4F8E4020023C4F8A6
:100F7000F832C4F8FC32C4F80033C4F804333B60E0
:100F8000774B1B88002B40F0B981764B1B68013BE7
:100F9000C62B02D8C4F8A46105E048460FF0C2FF92
:100FA0006C4BC3F8A4016B4CD4F80C03301A0FF04F
:100FB0009FFD6D490FF0F0FD074628460FF094FDA8
:100FC000014638460FF09CFE0FF0ACFFC4F80C63EE
:100FD00040F2DC539842A8BF1846644A9042B8BF1A
:100FE00010460A2103F0DEFF0746009EB568404622
:100FF00029460FF0D1FD064638460FF079FD074629
:101000004FF07E5029460FF0BDFC014638460FF0E8
:10101000C3FD014630460FF0B7FCC4F8E40210F0FF
:10102000FBFD0646052103F0BDFFC4F81003D4F80C
:101030001453B4F8F02202F21F3292B240F23E632F
:101040009A427DD8B4F8F22202F21F3292B240F2F4
:101050003E639A4241F24A83002372E03D4CD4F849
:10106000A021D4F8A431D31AB3F5FA7FA8BF4FF466
:10107000FA733F488342A8BF18460A2103F092FF43
:10108000D4F81833DB7803FB00F00028B8BF7F30BA
:10109000C311B3F5967FA8BF4FF49673354A9342B8
:1010A000B8BF134602E02B4BD3F81C339B1B294AD5
:1010B000D2F818134A7A02FB03F2002AB8BF1F3293
:1010C0005211B2F5967FB4BF10464FF49670294A7C
:1010D0009042B8BF1046CE7C1E4AD2F8B44106FBFF
:1010E0000343B3F5C81FA8BF4FF4C813224CA34253
:1010F000B8BF2346C2F8B4311A46002BBCBF03F573
:10110000FF521F3200EB6234487F0FF0F1FC0646BD
:10111000019829460FF038FC014630460FF03CFD9F
:101120004FF06C510FF038FD0FF0FCFE9628A8BF71
:1011300096206FF095039842B8BF1846231A00E036
:101140000023044AC2F8B831019FC2F81473D5E0F5
:101150000000C8427801002020220020BD378635DB
:101160001C220020D40000200024744924FAFFFF30
:101170000CFEFFFFD4FEFFFF0000E7FFAA4B9B68B9
:1011800013F0800F00F0BA80A84BD3F82033002B67
:1011900035D0A64C002635462BE0D4F8200305F0C8
:1011A000D5F8D4F824331B7813B1012B03D005E014
:1011B00004F012F803E004F059F900E02846C0B149
:1011C000D4F83033C4F83433994B1B68C4F8303347
:1011D000D4F8743143F02003C4F8743194F84433E4
:1011E000012B0EBF84F84463012384F844330EF0CE
:1011F000DBF8D4F8200305F0AFF80028CDD18B4BF5
:1012000093F828335A1E042A78D8DFE802F0030343
:1012100003512D00854AD2F82423127812B1012AF5
:101220001BD01CE0013B012B19D8804CD4F82003C3
:10123000002104F079FF94F829237E4B03EB02137D
:101240005B68C4F84C33D4F8200304F5527104F001
:1012500063FF04200DF08AF901E00DF095F90022FA
:10126000724BC3F82C2349E0704BD3F82C23013286
:10127000C3F82C2393F829230132D2B26E49A1FB83
:101280000201890801EB8101521A83F82923684A77
:101290001268C3F83023002283F8542393F8802186
:1012A00022F0020283F8802101200DF05FF925E091
:1012B0005F4B1A685D4BD3F83033D21A40F6C41333
:1012C0009A421BD9594BD3F8742122F02002C3F85B
:1012D000742105200DF04AF910E0544BD3F8743115
:1012E00013F0100F0AD0554804F0C6FE06E04E4B2E
:1012F0009B6813F4003F01D00AF072FF4B4BD3F808
:10130000BC31052B03DD0022484BC3F8BC2104F09F
:101310007DFE4B4B1860444B9B8933B1434AD2F856
:101320005823821A002AC1F24081404C0344C4F879
:101330005833D4F8885102953B4B5B79019304F5FF
:101340005B75D4F86033284698472846294694F8B8
:1013500072230AF079F93B4B1B88002B01F0CE81F8
:10136000D4F874331B78039304F55E740026354675
:10137000DFF8D0B0BBF80030B3F57A7F03D100239B
:10138000314AB3502361294B03F55B7203F56D734A
:10139000505FF2580244F2500FF0AAFB80460094CE
:1013A000276901372761012F04D160602060002781
:1013B000A76020E0D4F800A051460FF0E3FA814680
:1013C00038460FF095FB014648460FF099FC014660
:1013D00050460FF0D9FA07466060404639460FF094
:1013E000D1FA014648460FF0D7FBA1680FF0CCFABE
:1013F000E0602760A0600D4A02F55B7100236B522C
:1014000002F57072AB52BBF80030012B44D1009F43
:10141000386901281ADD01380FF06AFB0146F868C7
:101420000FF06EFC13E000BF501C0020780100207C
:10143000341C0020BC3D0108CDCCCCCCD400002015
:1014400018220020242200202C050020059810F0EE
:1014500039FE0746039858B10FF04AFB39460FF0A2
:1014600039FD28B14FF47A726E4B1A8001F046B9FB
:101470006D4B03F5707203F56D73F35803F5FA7352
:101480006A4F87FB0371DB17C3EBA113AB520A2032
:101490000F2101220AF0D8FA023504361434062D41
:1014A0007FF468AF5F4B1A88013A1A8001F026B9C1
:1014B00001F55B7201F570709C5A185A201A985207
:1014C0000233062BF4D1A2F55B73D3F8743113F019
:1014D000020F00F05F83A2F55B7404F57575D4F814
:1014E000CC33284698472846294694F8DA230AF050
:1014F000ABF8B4F87E31002B58D0002319461846BB
:1015000022461F46B2F87E41B4F5C87F04BF02F5FB
:1015100077740F5102F5777502F5757433F904E0AD
:101520004E5976444E511F53D2F8E84324F81070B8
:101530000130043102330328E4D1A5F57773B3F801
:101540007E31012B2CD1A5F57773D3F8E823D3F89E
:10155000DC03C830364981FB00E4C017C0EBE4105F
:101560001080D3F8E003C83081FB0054C017C0EBF3
:10157000E4105080D3F8E433C83381FB0361DB17F8
:10158000C3EBE1112B4B5B88CB1A93800023029FA6
:10159000A7F85C30A7F85E300CF0F6FC0EF03AFBD2
:1015A000214BB3F87E21013AA3F87E21224B9B68A0
:1015B00013F0040F00F0AA801B4BB3F88241322CC9
:1015C00014D1D3F8E8231188A3F8EC135188A3F8B9
:1015D000EE139288A3F8F023029DB5F85C20A3F8DF
:1015E000F423B5F85E20A3F8F62301E0002C5ED0CA
:1015F000002319461A460C489E46322C1ED100F58F
:101600007E7600F575755F5F8F5123F805E0D0F8A1
:10161000E85325F812E0013204310233032AECD1F9
:1016200041E000BF2422002078010020D34D621049
:101630001F85EB5100000020501C002000F57E7635
:1016400000F5757533F905C08F5967448F5123F83C
:1016500005E0D0F8E85325F812E0013204310233F6
:10166000032ACAD1012C1ED1A6F57E73002283F86D
:101670008421012283F87A21022283F87D21D3F884
:10168000E823B3F8EC131180B3F8EE135180B3F8EC
:10169000F0139180B3F8F423029EA6F85C20B3F80F
:1016A000F633A6F85E30013CC14BA3F88241C04B33
:1016B00093F87B3153B3BE4B002283F87B21D3F8E0
:1016C000E813D3F8F843BB4880FB0475E417C4EB78
:1016D00025140C80D3F8FC4380FB04E5E417C4EB2D
:1016E00025144C80D3F8003480FB0340DB17C3EB98
:1016F0002010B14B5B88C31A8B80029DA5F85C203B
:10170000A5F85E200CF040FC0EF084FAA84CD4F84A
:10171000E833B4F8D4131A888A1AA4F8D423B4F896
:10172000D6135A888A1AA4F8D623B4F8D8239B88EB
:10173000D31AA4F8D83304F069FC0546D4F804346D
:10174000C31A039318460FF0CFF90490D4F8081485
:101750000FF022FA8346C4F80454D4F80C440094E1
:1017600000252C462F46924E4FF07E5A06F55B73AD
:10177000185F0FF0BDF9014658460FF00DFA07ABA0
:101780005851DDF800E09EF8000038B30FF0B0F9D2
:10179000014650460FF0B4FA814606F5826850467D
:1017A00049460FF0EFF855F808100FF0F5F90290E0
:1017B00006F57573185F0FF09BF9014648460FF068
:1017C000EBF9014602980FF0DFF848F8050006F241
:1017D0001C480FF0A7FB28F8040005E006F21C43A4
:1017E00006F57572A25AE25206F21C43E35E03FB51
:1017F000037702340435062CB8D1642606FB07F6BD
:101800006D4B5B8803FB03F396FBF3F6684C04F225
:10181000244007A905F0BAF9D4F80C546868A6F179
:1018200049039BB23B2B25D84FF07E510FF0ACF80B
:1018300001464FF07E500FF063FA824604F21A47D9
:101840000024A7F21A4909F22446A05969680FF04A
:10185000A3F9804637F9020F0FF04AF901464046D6
:101860000FF092F8014650460FF096F930510434CB
:101870000C2CE8D14E4BD3F82C64B3F930040FF0A4
:1018800037F9014630460FF043FB38B1484B93F827
:10189000802142F0080283F8802106E0444B93F84F
:1018A000802122F0080283F88021414CD4F82804DA
:1018B000314610F07DFA8046C4F83404D4F824345C
:1018C00003F10049D4F82874D4F82C64384639461A
:1018D0000FF062F90746304631460FF05DF90146D8
:1018E00038460FF051F810F0EDFB0146484610F075
:1018F0005FFA0646C4F8380440460EF069FD2AA394
:10190000D3E900230EF0B8FD0EF0E8FF10F084F9E3
:10191000A4F8F00230460EF05BFD23A3D3E90023C8
:101920000EF0AAFD0EF0DAFF10F076F9A4F8F2023C
:10193000D4F8743113F0080F40D004F23C4007A9EA
:1019400005F024F9A8684FF07E510FF01DF801460C
:101950004FF07E500FF0D4F9824604F5E177002471
:10196000A7F5E17909F23C46A059A9680FF014F9EE
:10197000804637F9020F0FF0BBF8014640460FF0E2
:1019800003F8014650460FF007F9305104340C2C8F
:10199000E8D1A6F23C4404F23C4005F0A3F9A4F8D7
:1019A000780146E0AFF300803B597E90A9E7814083
:1019B000780100201F85EB5100000020BA4C201D4B
:1019C00007A905F0E3F86668A568E4683046314683
:1019D0000FF0E2F80646284629460FF0DDF80146EA
:1019E00030460EF0D1FF0546204621460FF0D4F8D0
:1019F000014628460EF0C8FF10F064FB0546059925
:101A00000FF05EFA78B9A84C606829460FF078F9B3
:101A10006060A06829460FF073F9A060E06829466D
:101A20000FF06EF9E060A14805F05CF9A04BA3F857
:101A3000780104989F490FF0AFF806469C4CD4F803
:101A4000343403F100430A93D4F8383403F10043EB
:101A50000B93B4F978010FF04BF800F100400EF051
:101A6000B7FC8FA3D3E900230EF006FD0EF036FF7E
:101A70000C90B4F91C040FF03BF80D90B4F91E045F
:101A80000FF036F80E90B4F920040FF031F80F90F3
:101A90000DA80AA905F07AF8D4F80C345B78012B6C
:101AA00025D1854B1B7813F0040F11D1D4F848349D
:101AB0001846002BB8BF03F13F00A3EBA0100FF0B6
:101AC00017F80F990EF060FF0FF02CFAC4F84804D5
:101AD000774BD3F848040028B8BF3F3080110FF08F
:101AE00007F801460F980EF04DFF0F9008E06E4B7F
:101AF00058880EF0FDFF01460F980EF043FF0F903F
:101B00006B4CD4F84C543046D4F850140EF03CFFD3
:101B1000014630460FF0F4F806460F9829460EF0BD
:101B200031FF014630460FF037F8014628460EF0E7
:101B30002BFF0646C4F84C04D4F8F8720D9810F048
:101B40006BF8D4F85454297803F02CFA3844C4F8CC
:101B5000F802D4F8FC720E9810F05EF8297803F0C1
:101B600021FA3844C4F8FC02D4F80073304610F06F
:101B700053F8697803F016FA3844C4F800034F4B61
:101B80001A68039D2A441A60D4F804330133C4F858
:101B9000043307E0464B0022A3F8D423A3F8D6234E
:101BA000A3F8D823424BB3F86C23A3F85824B3F816
:101BB0006E23A3F85A24019E012E10D1B3F95E14AE
:101BC000B3F9702302EB41023D4981FB0271A1EBA5
:101BD000E27292B2A3F85C24A3F85E2404E0344BD2
:101BE000B3F87023A3F85C2404F010FA354B1860A6
:101BF0002F4CD4F86434C31AA4F86034C4F86404D5
:101C000005F03CF9012384F89C31D4F8103113F429
:101C1000801F59D0B4F88C4104F080039BB2002B94
:101C20006DD1254B1B7813F0040F22D003F02CFF4D
:101C300018B91F4B93F8683463B11D4B4FF0000E79
:101C4000C3F86CE4002283F870240120164908745C
:101C500083F86824164DD5F88831181D197808F0D6
:101C6000A7F944F08004A5F88C41012385F871346C
:101C700045E00F4BD3F86C0405990FF021F90028CB
:101C80003DD10CF081F90DF0C5FF094B0020C3F8E0
:101C90006C04002283F870240122034B1A742EE096
:101CA000399D52A246DF913F000000200400002031
:101CB00078010020BD378635282200202022002010
:101CC0005655555518220020B54BB3F88C4104F0F9
:101CD00080039BB233B103F093FE24F08004B04B39
:101CE000A3F88C41AF4B1B7813F0040F07D1AC4B1A
:101CF00093F871341BB10122A94B83F86824A84BD7
:101D0000D3F8745115F0080F47D0B3F8B03103F190
:101D1000450292B28A2A3BD8A14AB2F88C2102F03D
:101D2000040292B2002A33D09D4AB2F87811B2F878
:101D30009821891A89B28AB210B210F1B30FBCBFD0
:101D400001F5B47292B211B2B329C4BFA2F5B47254
:101D500092B2954991F8EC00914991F8801111F0F7
:101D6000080F1AD041B2494202FB01F28C4912B26B
:101D7000D1F88801007B00FB02F28C4880FB024016
:101D80001044D217C2EB20129B1AA1F8B03104E024
:101D9000834BB3F87821A3F8982115F0140F00F0C5
:101DA0009D807F4BB3F88C3103F40273002B00F05D
:101DB00095807B4B93F8803113F0100F0CD0784B4B
:101DC000D3F8B821784991F92501B3F8AE1100FB99
:101DD0000212A3F8AE2181E0714BD3F8883193F859
:101DE0002021002A40D06E4AB2F8B211B2F8A80100
:101DF00002B293F81F310CB2A41A002CB8BF64428F
:101E00009C4212DD664A0024C2F8B441012482F8E3
:101E100072448AB209B200B28142C4BF5B429BB233
:101E200013445F4AA2F8B23158E05D4B93F8723424
:101E30003BB15B4BD3F8A411C3F8A011002183F888
:101E40007214574BD3F8B8311A445749B1F8D0300F
:101E5000B1F8D2109A4203DB8A42B4BF13460B4654
:101E60004F4AA2F8B23139E04D49B1F9A821B1F990
:101E7000B211891A81EAE170A0EBE17093F81F3189
:101E800098420BDD464B01EBD1714910C3F81C138E
:101E9000012183F8731483F872140DE0404B93F81A
:101EA00072344BB13E4BD3F8A411C3F8A0110021FA
:101EB00083F8731483F87214394BD3F8B8111144B2
:101EC000394AB2F8D030B2F8D220994203DB9142BD
:101ED000B4BF0B461346324AA2F8B231304BD3F8A6
:101EE000884194F82461002E6AD0B3F88C3113F045
:101EF000030F65D02A4BB3F8B2710197D3F824943D
:101F0000D3F82884D3F82C74384639460EF044FEB2
:101F10008246484649460EF03FFE814640464146CD
:101F20000EF03AFE014648460EF02EFD8046404631
:101F300051460EF029FD10F0C5F8014638460EF066
:101F4000DFFE07461A490EF0CFFF98BB38460FF068
:101F5000DFFE134BD3F874140EF01EFE0FF05CFE80
:101F6000B0F5617FA8BF4FF461700EF01FFA0AA3AD
:101F7000D3E900230EF0AAFB0EF0B0FC0FF08AFEAE
:101F8000074630460EF0B4FD39460EF005FE0FF060
:101F900043FE80B20FE000BFA2EB0FE5DD169640D6
:101FA0007801002028220020501C00208988888881
:101FB0008FC2753C0020019A0244A14BA3F8B221C4
:101FC00015F0200F0DD09E4BB3F88C3103F0300389
:101FD0003BB19B4B93F8803113F0010F01D00CF013
:101FE000F7F9984B1D68201D04F15001964BB3F88A
:101FF000F62004F15C03A847914B93F87834013B39
:10200000142B00F2E781DFE813F04200E501E5015F
:1020100015005300E501E5010F01E501E501E501CA
:10202000E501E5017900E501E501E501E501E501ED
:102030009601B7010420022104F06EFD804CB4F833
:10204000806400FB06F087B20420012104F064FDE7
:10205000B4F87E5400FB057087B2042004F06CFDD8
:102060007A4C384420810520022104F055FD00FB04
:1020700006F086B20520012104F04EFD00FB05604C
:1020800085B2052004F058FD28446081A2E10520B6
:10209000012104F041FD6A4BB3F8803400FB03F0EA
:1020A00084B2052004F048FD2044684B588191E13A
:1020B000634CD4F88474002004F03EFD634D97F91E
:1020C0000630B4F9F22202FB03F3614E86FB0312E1
:1020D000DB17C3EB221318442880012004F02CFDE9
:1020E00097F90E30B4F9F02202FB03F386FB0326C6
:1020F000DB17C3EB2613184468806BE1554B1B7844
:1021000013F0040F06D14E4BD3F888349A884F4B06
:10211000DA810EE04A4BB3F9B221D3F888140B8868
:1021200049889A4203DB9142B4BF0B461346474AA3
:10213000D381464BDA89484B1A80414BD3F88C3413
:102140001C78002C37D0022004F0F6FC3C4BD3F86E
:102150008424B2F91030518A984203DB0BB29842C2
:10216000B8BF0346364DD5F890144989CB1A98B2BA
:10217000B5F8943406B21DB2AE4204DD23443048B3
:10218000A0F8943407E000B21DB2A84203DA1B1B8A
:102190002B48A0F8943492F91630294AB2F99424C5
:1021A00002FB03F32A4A82FB0342DB17C3EB6213F1
:1021B0001944264B9980224BB3F88C3103F4807379
:1021C0009BB263B11E4AB2F8AC11204BD980198181
:1021D000B2F8B0115981B2F8AE219A8192E2184A50
:1021E000B2F87C14194BD9801981B2F88014598146
:1021F000B2F87E249A8185E208EBC40393F9063095
:10220000B5F9062002FB03F387FB03E6DB17C3EBFC
:102210006616EE80204604F08FFC3044E8800134DE
:102220000235072CE8D1D5E00A4B1B7813F0040FD8
:1022300014D1034BD3F888349A88044BDA811CE01C
:1022400078010020D8000020501C0020C40000208D
:102250001F85EB5128220020381C0020AD4BB3F91C
:10226000B221D3F888140B8849889A4203DB914243
:10227000B4BF0B461346A84AD381A74BDA89A74BB4
:102280001A80A44BB3F88C3103F480739BB213B360
:102290000320012104F040FC9E4CB4F8AE6100FB29
:1022A00006F087B20320022104F036FCB4F8AC51EA
:1022B000994C00FB0570E0800420012104F02CFC07
:1022C00000FB06F086B20420022104F025FC00FB8E
:1022D0000560208121E00320012104F01DFC8D4CCC
:1022E000B4F87E6400FB06F087B20320022104F0FC
:1022F00013FCB4F87C54884C00FB0570E08004208B
:10230000012104F009FC00FB06F086B20420022142
:1023100004F002FC00FB05602081032004F00CFCAB
:102320007D4CE3881844E080042004F005FC2389F8
:10233000184420814EE00420012104F0EDFB754D8E
:10234000B5F87E3400FB03F086B2734C268104207E
:1023500004F0F2FB304420810520012104F0DCFB75
:10236000B5F87C3400FB03F085B26581052004F0EC
:10237000E3FB284460812DE0664BB3F880A4684DF0
:1023800003244FF002094FF001081F46204649463A
:1023900004F0C2FB00FB0AF086B22046414604F07E
:1023A000BBFBC4F1060323F001033B44B3F87C34C8
:1023B00000FB036086B22E80204604F0BDFB304453
:1023C00025F8020B0134072CE0D1524BB3F8B221AF
:1023D000524B1A80534B9B6813F0200F00F09981E9
:1023E000002004F0A9FB05464B4C2080012004F09E
:1023F000A3FB6080474BD3F8103113F0800F00F03F
:102400008881444BD3F898341B7813F0020F24D002
:10241000404BD3F8844494F90E20B3F9F01201FB39
:1024200002F2414981FB0276D217C2EB261292B228
:1024300094F906406442B3F9F23203FB04F381FBE2
:1024400003E1DB17C3EB211189B2334B541A254446
:102450001D800A44104458805BE12E4BD3F884441D
:102460002D4A94F90610B3F9F26206FB01F62E49E3
:1024700081FB06E7F617C6EB27163544158094F95D
:102480000E40B3F9F03203FB04F381FB0341DB1789
:10249000C3EB2113184450803BE1B1F90200E25E26
:1024A000E5186D88904203DB2AB28242A8BF02463B
:1024B00021F8022F0833402BEFD1164BD3F89C3470
:1024C000002B70D0134B93F87834013B142B63D856
:1024D000DFE803F01562620B436262396262626296
:1024E000625062626262624650000B4C0020218999
:1024F00003F096FB0120618903F092FB53E0054B4A
:10250000D3F8A0345B788BB10020034B598903F0DA
:1025100087FB48E078010020C4000020381C002020
:10252000CA000020501C00201F85EB517C4B1B78FB
:1025300013F0040F4FF000001ABF7A4B598901467F
:1025400003F06EFB2FE0774C0020E18803F068FB7E
:102550000120218903F064FB25E004F009FB22E05F
:10256000704C0020218903F05BFB0120618903F09E
:1025700057FB18E06B4C0020E18803F051FB012071
:10258000218903F04DFB0220618903F049FB032000
:10259000A18903F045FB06E0634B9B6813F0200F15
:1025A00001D004F0E5FA04F0B5FA604B1B7833B9BA
:1025B0005D4B9B6813F4806F01D00CF001F95C4B0C
:1025C000D3F8A40400283DF4AAAD5A4BDA6882F08F
:1025D0000102DA6003F0BEFD60B1574B1B68544A3C
:1025E000D2F8A8249A4205D2534B1A686432504B51
:1025F000C3F8A8244E4C08E0D4F8A40403F0A6FEC7
:102600000146D4F8A40403F0BBFED4F8A40403F0FC
:10261000A3FE0028F0D1FDF782BD484B1B68FDF7F3
:1026200078BE464B1B68FDF77BBE414B0022C3F8CA
:102630009021C3F89421C3F8AC24C3F8B024C3F8A4
:10264000B4240026C3F8B864C3F8BC64C3F8C064FB
:102650001746FDF759BF012302E0022300E00323E0
:10266000DCB2621E304B83F8C4250BF08DFC09F000
:102670005FFB02202821224609F0E6F9FEF753B855
:102680002F4A1278002A7EF411A8FEF71AB8284CB7
:10269000D4F88831BDF83410B3F85C200A44A3F8AC
:1026A0005C20BDF83610B3F85E200A44A3F85E2023
:1026B0000BF06AFC0DF0AEFA002384F87131FEF7DE
:1026C00032B81B4BD3F81041FEF7FCB815F0100FD1
:1026D0003EF41DAEFEF79CB94FF0FF32194B1A6065
:1026E000134BD3F8F432F61AFEF7A9BB104B93F84C
:1026F0007334002B7EF4D7ACFEF7B0BC00230C493A
:10270000FEF7D6BE0A4BD3F88484064D03240E4F41
:1027100072E5074BD3F884440C490023BDE600BFA3
:1027200028220020C4000020501C00202622002067
:102730007801002000080140341C002018220020ED
:1027400000000020D40000201F85EB51C2000020B3
:102750002DE9F04F9BB0894B894A1A6000225A60DC
:1027600002F040FC18B909F0CBFE0BF00DFC09F0AB
:10277000DFFA844B997B00230493059306934FF46F
:10278000E0130793804B1A6842F480321A609A690A
:1027900042F010029A611A46136803F4003305935D
:1027A000049B01330493059B1BB9049BB3F5A06FF5
:1027B000F2D1754B1B6813F4003F02D0022306933D
:1027C0001DE0714B1A6842F001021A600023049365
:1027D0006D4A136803F002030593049B01330493CD
:1027E000059B1BB9049BB3F5A06FF2D1664B1B6828
:1027F00013F0020F02D00123069300E0FEE7634BC3
:102800001A6842F010021A601A6822F003021A6075
:102810001A6842F002021A60A3F580535A685A609F
:102820005A685A605A6842F480625A60584A10687E
:1028300020F070401060574C57480460586820F4EE
:102840007C105860136843F000431360534BDA6800
:1028500022F40042DA609B6813F4004F05D0504A1E
:102860004D4B1A604FF4801301E04FF4E0130793CF
:10287000069B012B19D0022B1CD171B1079BB3F51C
:10288000801F03D14FF4A013079306E0079BB3F515
:10289000E01F04BF4FF4001307933B4B5968079A9E
:1028A0000A4342F480325A6004E0374B5A6842F4DB
:1028B00060125A60344B1A6842F080721A601A46ED
:1028C000136813F0007FFBD02F4B5A6822F00302ED
:1028D0005A605A6842F002025A601A46536803F07E
:1028E0000C03082BFAD10193274B5B6803F00C0310
:1028F000042B06D0082B09D023BB264A294B1A608B
:1029000023E0254B1A68274B1A601EE01E4B5968BE
:102910005A68C1F38343023312F4803F05D1224A3F
:1029200002FB03F31F4A13600FE0174A526812F4C8
:10293000003F194A126818BF520802FB03F3194AF4
:10294000136002E0134A174B1A600F4B5A68C2F328
:102950000312114B1A4492F804A05FFA8AFA114A42
:10296000116821FA0AFAC2F800A01B68094A9342CA
:102970001ED101220D4B1A7020E000BF5806002026
:10298000816A0008501C0020001002400020024014
:102990000410014000127A001400002000100140D1
:1029A000001BB700E000002000093D0029220020A4
:1029B000A74A934202D10222A64B1A70DFF8DC929A
:1029C000A54BC9F80C30A54CA36943F00103A361E2
:1029D000636A43F080736362A36943F01C03A361DD
:1029E00000278DF82A701AAD4FF6FF7325F8403D89
:1029F0009B48294603F016F9DFF88C8240462946A9
:102A000003F010F99748294603F00CF9964B5A68E1
:102A100042F000725A60284608F098FB934A0A9BDD
:102A2000A2FB03139B0C924EB360924AA2FB0A32A4
:102A30009209013A904B5A60F02289F823209F6056
:102A400007221A60642003F00BFB8C483946902261
:102A50000EF07DFE4FF40073ADF8283010238DF892
:102A60002A3001238DF82B304046294603F0DAF84E
:102A7000E36943F00703E361A36943F4006343F0B0
:102A80000C03A36106F10B0306F11A013A4603F8A1
:102A9000012F8B42FBD1764BFF221A775A779A7718
:102AA000DA770AAC764B0FCB84E80F006B4B9A6950
:102AB00042F008029A619A6942F008029A61A3F50D
:102AC000823308221A6110221A610A980BA903F0B6
:102AD000A9F80C980DA903F0A5F85E4B1B78012B03
:102AE00001F2698401F07FBC002003F0E7FA0AAC30
:102AF000644B93E8030084E80300584B9A6942F062
:102B000008029A610A980BA903F08CF80DF0EEF810
:102B10009F238DF8243000238DF825308DF8263042
:102B20008DF82730322003F09BFA4FF48052564B39
:102B30005A61A3F554439B8905254FF47A7309A97B
:102B40002046FF26514A26E011B14C1C0F780AE0BE
:102B50000C46374607E0591E89B21BB94B4803F0B3
:102B60002DF91AE00B46118911F0020FF3D097816D
:102B700007E0591E89B21BB9444803F01FF90CE065
:102B80000B46118911F0010FF3D09189C9B208B138
:102B9000017001302146013DD6D14FF480523A4BAD
:102BA0001A619DF829209DF82A301B0243EA02424F
:102BB0009DF82B301A43364B9A4217D0324C4FF4C3
:102BC00080556561314E3046F5210DF0E7F830460D
:102BD000FF210DF0E3F88DF828002561702805D15C
:102BE00001F0C0BA03261B4B1E7006E0194B1E787D
:102BF000032E02D0012005F02DFE264B986800F42C
:102C00000065254A0021134643F8041B5160043334
:102C100043F8041B196002238DF826308DF8271025
:102C20001023ADF82430042313700123937007237D
:102C3000D37010F4004F33D01223ADF82430134674
:102C400001221A715A719A710722DA71022428E05E
:102C5000001BB700292200200005FA0500100240E1
:102C600000080140001001400000014083DE1B43CA
:102C700058060020D34D621010E000E0741A0020C6
:102C8000843E0108943E0108000C014000380040D9
:102C900015202000501C0020B802002000ED00E0AC
:102CA0000124012E0FD9BDF8243043F02003ADF8E4
:102CB0002430604B05221A72621C5C7201219972E9
:102CC0000721D972D4B25C4809A908F09DFA85B1F0
:102CD0001AA9022321F8443D584808F095FA554BAB
:102CE00009221A73621C5C73012199730721D9733D
:102CF000D4B2534B5A6942F001025A619A6942F4C4
:102D000000729A614F4808F04BFB4F4B0A934F4BB0
:102D10000B9300230C930D940E93022C28BF802359
:102D20000F934FF4807310934FF48063119320231B
:102D300012934FF40053139300261496414D2846E6
:102D40000AA908F00DFB2B6843F001032B60404BF0
:102D50005A6822F4702222F48072012C94BF002160
:102D6000012142EA01225A6099683A4A0A4042F433
:102D7000602242F002029A60DA6A22F47002611E56
:102D8000C9B242EA0152DA6230460122294F1F24B9
:102D9000072600EB070E9EF8021000296BD0C15DDC
:102DA000551CEDB29EF803C0092910D9D3F80C8048
:102DB000A1F10A0E0EEB4E0E06FA0EF928EA0908EA
:102DC0000CFA0EFE48EA0E0EC3F80CE00DE0D3F844
:102DD000108001EB410E06FA0EF928EA09080CFAF8
:102DE0000EFE48EA0E0EC3F810E0062A0FD8D3F8FC
:102DF00034E0013A02EB820204FA02FC2EEA0C0EE5
:102E000001FA02F24EEA02025A632A4633E00C2A21
:102E100022D8D3F830E0073A02EB820204FA02FC2F
:102E20002EEA0C0E01FA02F24EEA02021A632A4658
:102E300021E000BFB802002000080140000C014062
:102E400000100240080002404C240140C80200204B
:102E500000240140FDF7F1FFD3F82CE00D3A02EB1E
:102E6000820204FA02FC2EEA0C0E01FA02F24EEA89
:102E70000202DA622A46043010288AD1B64B9A68D8
:102E800042F480729A609A6842F001029A609A68ED
:102E900042F008029A601A46936813F0080FFBD1BB
:102EA000AD4B9A6842F004029A601A46936813F098
:102EB000040FFBD1A84B9A6842F4A0029A60A74B7A
:102EC000B3F8E600002841F08781B3F9E830002B21
:102ED00041F08281A14BB3F9EA30002B41F07C81B3
:102EE0009E4B9B6813F4003F64D0142003F0B8F8A5
:102EF000AE2005F09BFCA42005F098FC322003F0E6
:102F0000AFF8202005F092FC022005F08FFCA120F4
:102F100005F08CFCC82005F089FCA62005F086FC95
:102F2000812005F083FCAF2005F080FC142003F025
:102F300097F8AF2005F07AFC142003F091F8A62052
:102F400005F074FCAE2005F071FC202005F06EFC4D
:102F5000002005F06BFCB02005F068FC402005F077
:102F600065FC002005F062FC102005F05FFC4FF4CA
:102F700080640025284605F027FC013CA4B2002C03
:102F8000F8D1812005F052FCC82005F04FFCAF209D
:102F900005F04CFC724C734B236204F124000021B9
:102FA0000C220EF0D4FB09F01BF903F02FF86E4B46
:102FB0000344E3626D4B1A6842F00E021A60674BDD
:102FC000B3F8EE4093F8ED70694B1B68B3F85AB054
:102FD0000022684B1A70684B1D78012D674B03F176
:102FE0000C0298BF1A465E4B1A630AF0C5FD0090AA
:102FF000002801F0BE81624B624A1A60624A5A6040
:10300000624ADA60BB2C04D90122614B1A7501F0C7
:103010007EB9612C04D902225D4B1A7501F077B993
:10302000292C04D903225A4B1A7501F070B9132CBC
:1030300004D90422564B1A7501F069B9092C8CBFCA
:1030400005220622524B1A7501F061B9374689F8FC
:1030500000A0092F00F2F480DFE817F01100110042
:103060003400BB00DB00F200F200F200F2000A00C4
:103070003E4B1A6822F002021A6001F057B9012D86
:1030800027D81AAB03F840AD53203146012205F092
:10309000E7FC002801F047819DF82830E52B41F03E
:1030A00042812F4B83F834603A4B23603A4B636084
:1030B000042389F80030012388F800309F4241F052
:1030C0003281C8E0022D354BA3F10C0238BF134604
:1030D00000E0324B224A13630AF04EFD002878D0FC
:1030E000682006210A460AAB05F0BAFC9DF82D209F
:1030F00002F001029DF82B3003F001035B0043EA6C
:1031000082029DF8293003F0010313430FD0012BF5
:1031100003D1134B83F8356046E0022B04D1012222
:103120000F4B83F835203FE0052002F0CFFF6820E9
:103130000C21012209AB05F093FC9DF8243013F01B
:103140000F0302D1052002F0C1FF042B28D1044B4C
:1031500083F8356028E000BF00240140501C0020A7
:10316000580600205E1D0020404B4C00EC02002061
:1031700000030020EA040020292200200C3E010860
:10318000D4040020A97F000851D3000890C1793DE4
:10319000140000207DD600083DD40008183E010828
:1031A0000122CB4B83F83520CA4B2360CA4B6360A6
:1031B000C74B93F83530002B14BF6E236F23237257
:1031C000022388F80030012389F80030022F01F033
:1031D000AD80012D1DD81AAB03F840AD1C200D2188
:1031E000012205F03DFCA0B19DF828302A2B01D02A
:1031F0001A2B0ED1B94A2260B94A6260B44A82F8E9
:103200003630022389F80030032388F800309F42CB
:1032100021D01AAB03F840AD18203146012205F049
:103220001FFC68B19DF82830FB2B09D1AD4B236002
:10323000AD4B6360042388F80030012389F8003027
:1032400098F800303BB9002F7FF400AFA74B1A6805
:1032500022F002021A60012D06D1A54805F0A8FC53
:103260004FF40052A34B5A610A2002F0F9FE772076
:10327000A021012209AB05F0F3FB002801F07180C9
:1032800077201E2101220AF045F94FF42F6002F049
:10329000DBFE002425468E4E8DF828508DF82950EF
:1032A000A4F160017720C9B202220AAB05F0D8FB75
:1032B0009DF828209DF8293043EA022206F13803C0
:1032C000E2520234102CE7D1383BB3F8465005F0F7
:1032D0000F0405F47F45A3F846500120002319464A
:1032E0007B4F019E21F001023A44128F002A18BF41
:1032F000002011F0010F1ABFD2B2534083EA12230B
:1033000001F01BB813F4004F18BF83F4C0535B00E7
:10331000013AF7D101311029E4D125436C4AA2F8D2
:103320004650002841F01D80C3F303339C4201F056
:10333000078001F016B86E4805F03AFC4FF480445F
:10334000ADF8244004238DF826306A4D284609A99B
:1033500002F068FC4FF400532B61674B5A6922F46A
:1033600070625A615A6942F400725A610A940023E9
:103370008DF82C3008238DF82D3001248DF82E4047
:103380000AA807F0A5FF28238DF820300F238DF819
:1033900021308DF822308DF8234008A808F090F8ED
:1033A000142002F05DFE7720D021224609AB05F003
:1033B00057FB9DF82430464A82F85F300321A2F87B
:1033C0006810552B40F0A6807720D121224609AB0A
:1033D00005F046FB9DF824303D4C03F00F0284F8C5
:1033E00060201B0984F861307720AA2116220AABDD
:1033F00005F036FB9DF828209DF8293043EA02238A
:10340000A4F848309DF82A209DF82B3043EA022387
:10341000A4F84A309DF82C209DF82D3043EA022371
:10342000A4F84C309DF82E209DF82F3043EA02235B
:10343000A4F84E309DF830209DF8313043EA022345
:10344000A4F850309DF832209DF8333043EA02232F
:10345000A4F852309DF834209DF8353043EA022319
:10346000A4F854309DF836209DF8373043EA022303
:10347000A4F856309DF838209DF8393043EA0223ED
:10348000A4F858309DF83A209DF83B3043EA0223D7
:10349000A4F85A309DF83C209DF83D3043EA0223C1
:1034A000A4F85C30012384F86C30144B41F2707244
:1034B0001A8046F678125A80114A5A60114A9A6068
:1034C000114ADA60114A1A61114A5A612BE000BFB1
:1034D00058060020718B000811D30008C5D50008DC
:1034E00091D3000859D60008F5D30008EC0200205B
:1034F0009C3E0108001001400000014060030020D4
:10350000917F0008D5D20008697F000881D20008A9
:103510004D4A00084FF40052B94B5A61B94B1A6832
:1035200022F004021A60B84B93F8E2300BB1B74AAC
:103530001370B54B93F8E3300BB1B54A1370B24B2F
:1035400093F8E4300BB1B34A1370AE4B1B6813F021
:10355000020F02D0B04B1B689847B04B1B689847CE
:103560001AAB002203F8402D1E200A21012205F08B
:1035700077FA38B19DF82830482B03D10322A54BA8
:103580001A7004E09F4B1A6822F008021A609D4BE3
:103590001B6813F0080F1BD00FFA8BFB64259BFBF5
:1035A000F5F420460DF0A4FA064605FB14B000B26F
:1035B0000DF09EFA9A490DF0EFFA014630460DF0F3
:1035C000E3F998490DF0E8FA974B186700F0D4BE7C
:1035D0000022954B1A6700F0CFBEE36883F010031A
:1035E000E360E36883F00803E360284602F038FDF7
:1035F000384602F063FD284602F032FD002002F05A
:103600005DFD731E13F0FF06E7D1884B08221A6197
:1036100010221A61864B1B6893F90C000CF0C6FE51
:1036200073A3D3E900230CF027FF0DF057F90EF038
:10363000BDFA05467F4C20880DF05AFA29460DF058
:10364000ABFA0EF0E9FA7C4B188020880DF050FAA6
:1036500001467A480DF054FB79490DF051FB794B46
:1036600018606E4BD8680CF0B3FE61A3D3E9002359
:103670000CF002FF60A3D3E900230CF0FDFE0DF077
:103680002DF9714B1860604B5A7970490A7003F13B
:103690001000654948676E4901EBC20292F8A51017
:1036A0006C4A11609B6813F0200F02D00122694B15
:1036B0001A60544B1B6813F0080F00F01881102299
:1036C0005A4B5A61644B1B78022B34BF4FF4805124
:1036D0004FF4804134BF08241446604A9069204367
:1036E0009061ADF8241002228DF8272004228DF875
:1036F0002620434A4D48012B88BF104609A902F0F5
:1037000091FA322002F0ACFC1E200021112209F0B7
:1037100001FF1E200121602209F0FCFE642002F05E
:103720009FFC0AA80AF0ECF90A2700242546264641
:103730004FF01E0ADFF82891DFF8F0805046022192
:10374000012209F0E7FE322002F08AFC0AA80AF002
:10375000D7F9BDF928201644BDF92A100D44BDF94A
:103760002C301C449142B8BF0A469A42B8BF134657
:103770004B4509DBD8F80C3083F01003C8F80C3047
:10378000013FDBD1012700E000271E20002112228B
:1037900009F0C0FE4FF00A084FF01E0BDFF8C0A082
:1037A000DFF8889058460221012209F0B3FE32204A
:1037B00002F056FC0AA80AF0A3F9BDF92820B61AAF
:1037C000BDF92A106D1ABDF92C30E41A9142B8BF28
:1037D0000A469A42B8BF1346534543DBD9F80C302A
:1037E00083F01003C9F80C30B8F10108DAD13AE0DF
:1037F000399D52A246DF913F000000A0F7C6B03EBF
:1038000000100140EC020020501C0020EA040020BF
:10381000520500202722002040050020D40400206B
:103820008988883C0000204158060020000C014097
:103830008405002002000020A80500200AE81C41A1
:1038400000401C468004002080050020F005002078
:103850000C3E01081406002029220020001002401E
:1038600001F0FFFF0027DFF8488330460DF040F9F4
:103870000146BE480DF044FA20F00040C8F8180098
:1038800028460DF035F90146B8480DF039FA20F018
:103890000040C8F81C0020460DF02AF90146B44843
:1038A0000DF02EFA20F00040C8F820001E20002164
:1038B000702209F02FFE1E200121202209F02AFE8D
:1038C0001E200221002209F025FE642002F0C8FB20
:1038D0003FB94FF07E52C8F81820C8F81C20C8F82D
:1038E00020201022A34B1A610122A34B1A704023FF
:1038F000ADF8283010238DF82A3002238DF82B30B4
:103900009C480AA902F08EF900229C4B1A604FF0E5
:10391000FF329B4B9A679B4B03F180019A4A43F815
:10392000042F8B42FBD1964C0025E567F022974B84
:1039300083F82220C4F8A050C4F8C850C4F8C4507A
:10394000934BC4F8CC30143BC4F8D030914E304681
:103950000E21102207F0EAFD304629462A4605F0DE
:1039600087FB8D4BC4F8D43004F1D8008B4902F0AA
:10397000A5F9304604F1D4012A4604F085FB8848B5
:10398000C4F8E00002F09EFA04F1E400FF211622E0
:103990000DF0DDFE012384F8FA3084F8E450814B09
:1039A0001B6813F0020F08D0012184F8E5100321F1
:1039B00084F8FA10022184F8E61013F0040F09D0FD
:1039C0006F4A92F8FA10481C82F8FA000A44032160
:1039D00082F8E41013F00A0F15D0694B93F8FA201F
:1039E0009918042081F8E400511CC9B2194405203B
:1039F00081F8E400D11C83F8FA100232D2B21344E9
:103A0000062283F8E420684B9B6813F0200F09D04E
:103A10005B4A92F8FA10481C82F8FA000A4407211F
:103A200082F8E41013F0800F0FD0554A92F8FA1084
:103A30005018092480F8E440881C82F8FA0001310B
:103A4000C9B20A440A2182F8E410574A5279082A76
:103A500001D00E2A09D14A4A92F8FA10481C82F87D
:103A6000FA000A440B2182F8E410454991F8FA2043
:103A7000501CC0B281F8FA0011440C2481F8E440D3
:103A800013F0040F07D03E49023281F8FA200144B6
:103A9000102281F8E4203A4991F8FA20501CC0B273
:103AA00081F8FA001144122481F8E4403E4991F86B
:103AB000411100290CBF002103F0010139B1304947
:103AC000023281F8FA200144132281F8E4202C49C3
:103AD00091F8FA20501CC0B281F8FA001144142465
:103AE00081F8E44013F4007F07D0254B023283F8BD
:103AF000FA200344152283F8E4202C480021982260
:103B00000DF025FE0027DFF8A890DFF89CB009F142
:103B10002C05DBF82C31C9F830304FF000080124B7
:103B20004FF4964A2046294609F0A4F90646002893
:103B300040F02D84B8F1000F40F02E84C9F830A079
:103B4000A046EFE707F101085FFA88F84C2202FB74
:103B500007F7164C3C44204600210DF0F8FD134AAF
:103B6000D651012384F84A304746D2E700406F46D9
:103B700001C05E46000C014056030020AC1B002033
:103B800058060020AC1B00203800002000ED00E0AB
:103B9000382C0140E8570108195D00081995000804
:103BA000781D0020EC020020501C0020540700204B
:103BB00014000020B649B74BD3F83031CB63022054
:103BC000383109F057F9B44BC3F894010023159329
:103BD000169317931893ADF86430AE4B5B790E2BA8
:103BE00001D0082B02D101238DF85D30A94B9B68D1
:103BF00013F4005F25D10025A84C04F178072E4668
:103C000004F11803E85C022809D004F128031946DE
:103C10001A78824207D01033BB42F8D102E004F197
:103C2000180100E031460AF0D3FA83681B78012BB3
:103C300004D01035602DE3D10023009300998DF856
:103C40005710944B9A68C2F340018DF85810C2F394
:103C500080118DF85910C2F340318DF85410C2F321
:103C6000C0318DF85610C2F300418DF85A1002F0A1
:103C700001018DF855108A490968003118BF0121EA
:103C80008DF85B108749096891F87011C1F38001C4
:103C90008DF85C10B3F8DE10ADF85E10B3F8E030CC
:103CA000ADF860304FF47A73ADF8623012F4805F93
:103CB00004D0784BB3F8DA30ADF86230B1F5FA7F62
:103CC00084BF0023ADF862307248B0F81811ADF827
:103CD0006410714B90F8204183F8984100F587708B
:103CE000C3F89C01704CC3F8A0410024A3F8A6417E
:103CF00083F8A84103F5D0746C4D2C60C3F8AC4137
:103D00006B4B18606B4B03F1240023F8021F8342B6
:103D1000FBD16949694B196012F0080F7ED05D4BE9
:103D200093F81631042B70D8DFE803F003032F4D0E
:103D30005E007BB1012B1AD1574B032283F8B021CF
:103D4000072283F8B121012283F8B2210C2283F8E3
:103D5000B4210CE0504B022283F8B021032283F8F7
:103D6000B121002283F8B221072283F8B421082070
:103D7000534909F07FF8484BC3F8B801514AC3F8DA
:103D8000BC21031C18BF012340E008204E4909F064
:103D900071F8414BC3F8C0013E4BB3F81811A1F5BF
:103DA000777149000022494BD1500432302AFBD1AF
:103DB000394B474AC3F8BC210C2283F8B421031CB9
:103DC00018BF012322E00820424909F053F8324A83
:103DD000C2F8C401404BC2F8BC31102382F8B431A0
:103DE000031C18BF012311E008203C4909F042F8E8
:103DF000294AC2F8C8013A4BC2F8BC31082382F8FC
:103E0000B431031C18BF012300E0002333B908209C
:103E100001F0D8F80022204BC3F8BC211D4B9B6851
:103E200013F4804F06D01C4A082182F8B4112D49A2
:103E3000C2F8BC1103F0010203F4005142F2010088
:103E400003420DD0284C1448C0F8BC4119B10820D9
:103E5000114981F8B4011AB10C210F4A82F8B4114A
:103E60000D4A92F8B411043982F8B51113F0800F9D
:103E70007BD01E4BC2F8CC31D96800231C4A3BE0F2
:103E80000133DBB2042B37D900221A4B5A703AE0C7
:103E900014000020501C0020580600200C3E010891
:103EA0001406002000030020683F0108E4020020FF
:103EB0007C0100208E020020F80700207C020020F8
:103EC000903F0108CDAE00089C3F0108A0010020F2
:103ED00099AF0008A83F010889AF0008B43F010866
:103EE00075AF0008ADAF0008B9AF0008781D00201D
:103EF000BC3D0108A004002002EB0310406888428A
:103F0000BED19C4A53709C4C9C4B236000200AF00D
:103F10002DFB9B4B1A68974B9A6000225A602368CE
:103F20001B7893420CBF012203229649914B58788B
:103F3000954B03EB00135B684B600A70102008F090
:103F400099FF924B186018B9802001F03BF802E00D
:103F500001200AF00BFB8E4B186800F5B9728D4BEF
:103F6000C3F8D021043001F09DFC8B4B9B6813F407
:103F7000007F0ED013F4005F14BF884888480BF010
:103F800053FE884B1A6842F010021A600022864BDA
:103F90001A60814B9B6813F4806F71D0042007F086
:103FA00031FC014604200AF013F920B143681B7A62
:103FB00003F0010300E00023764A82F8D431764B07
:103FC0009B6813F4806F0AD0042007F01BFC0146A5
:103FD00004200AF0FDF8003018BF012000E00020A6
:103FE0006C4B83F8D501D3F8D8311A78032A45D819
:103FF000DFE802F002062D31664AC2F8DC313DE00E
:10400000644CC4F8E0312C2704F5F27000213A46E4
:104010000DF09DFB7C2684F8E4618E2384F8E53165
:10402000E02384F8E7317D2584F80F5204F504700D
:1040300000213A460DF08BFB84F810628A2384F845
:104040001132A02384F8133284F83B5216E0514A0F
:10405000C2F83C3212E04F4AC2F840320024484DC8
:10406000286880B2A1B201F02BF801340B2CF7D1F3
:10407000484B0022C3F84422C3F8482208F06CFFE2
:1040800001F0C4FF494B1860434B5B79052B03D10A
:104090004FF4C872464B1A804FF47A72454B1A801F
:1040A000C822454B1A80454B1A7842F008021A7014
:1040B000434B1A7822F002021A70364B03F5137143
:1040C000404A1160D3F84C32002B40F06F81002041
:1040D0003D4908F097FE3B4B186067E1284602F027
:1040E0004FF914F8011F0029F8D12B4B9B6813F0EE
:1040F000020F29D0354A274BC3F84C2A2824019DAA
:1041000002F07EFE204601F0ABFF013DF8D1214BCD
:1041100093F8500A204B93F80511884208D34A00BF
:104120000223904205D301330A44082BF9D100E061
:104130000123DBB2264A1370174A92F8062102FBCC
:1041400003F3144AA2F8523A134B9B6813F4003F4E
:1041500000F061810F4B93F8272042F0010283F8B1
:10416000272058E11B4B1B78022B7EF43FADFEF756
:1041700039BD00BFA00400209C040020761D002053
:10418000341C0020C0040020BC3D0108980400201D
:104190000003002058060020501C0020C03F0108EA
:1041A000CC3F0108EC020020D4000020DC050020F8
:1041B000F6020020242200201C220020F802002009
:1041C000282200201C06002058000020541D00203A
:1041D000DC000020292200200022934B83F850208D
:1041E00000B20CF0E3F88EA3D3E900230CF044F9FD
:1041F0000CF074FB06468D4CB4F9E8000CF0D6F8D0
:1042000087A3D3E900230CF037F90CF067FB0546D0
:10421000B4F9EA000CF0CAF881A3D3E900230CF04A
:104220002BF90CF05BFB044630460DF0BFFC074653
:1042300030460DF02FFD804628460DF0B7FC0646AF
:1042400028460DF027FD054620460DF0AFFC8246BE
:1042500020460DF01FFD8146384651460CF09CFC6F
:104260000090384649460CF097FC02904046514673
:104270000CF092FC0390404649460CF08DFC8346BE
:104280006B4C304651460CF087FCC4F8540A06F1DA
:10429000004148460CF080FCC4F8580AC4F85C5A47
:1042A000284603990CF078FC014602980CF06CFB50
:1042B000C4F8600A284659460CF06EFC0146009886
:1042C0000CF060FBC4F8640A08F1004130460CF0C1
:1042D00063FCC4F8680A284600990CF05DFC0146AE
:1042E00058460CF04FFBC4F86C0A284602990CF0B3
:1042F00053FC014603980CF047FBC4F8700A38469B
:1043000031460CF049FCC4F8740AFEF7E9BD0122FD
:10431000484B1A70DFF860910026B246DFF85C81E6
:10432000454CFEF794BE454BFEF7D4BE98F80030DE
:10433000002B3EF48BAEFEF78EBF3246FEF7E2BF97
:104340003F4B42F210721A805A803E4A5A603E4AEF
:104350009A603E4ADA603E4A1A613E4A5A61FFF765
:10436000E2B8334B93F86C30002B3EF4E4AFFFF728
:10437000DAB8032001F0AAFE374B10225A61082256
:104380001A610A261C4619250127FFF726B9012FB5
:104390003FF6BFABFFF7D6BB022001F0CDFD244BAB
:1043A000C3F8940100287FF411AC03E42B4B1D6883
:1043B0002B4C5F2192E64FF48053ADF82830102348
:1043C0008DF82A3002238DF82B30264B9A6942F063
:1043D00004029A6124480AA901F024FC234A244BD0
:1043E0001A60FEF781BB4FF48053ADF828301423D8
:1043F0008DF82A3002238DF82B301A4B9A6942F03F
:1044000004029A6118480AA901F00CFC194A184BD9
:104410001A60FEF769BB1BB0BDE8F08FAFF30080F8
:10442000399D52A246DF913F14000020501C00200D
:1044300058060020EA040020400500200C3E010838
:1044400060030020597F000861D20008497F0008FE
:1044500071D20008C5480008000C01401C0600206D
:10446000F857010800100240000801401D5E0008D6
:104470002C220020395E0008520500202A2200204C
:10448000024B9A8801329A80704700BFF8070020DB
:10449000074B1A68074BB3F90400117853780B44A3
:1044A00003EB83039842D4BF00200120704700BF74
:1044B00034170020F8070020064BB3F90400064B20
:1044C0001B681B7803EB83039842D4BF00200120B4
:1044D000704700BFF80700203417002010B50446CD
:1044E000FFF7EAFF002814BF2046002000F001007B
:1044F00010BD00BF0122014B1A727047F80700205F
:10450000014B187A704700BFF8070020034BB3F93E
:104510000400D0F1010038BF00207047F8070020E8
:104520000022014B9A807047F80700202DE9F00126
:10453000884228BF012404D2012400264FF030080D
:104540000AE001FB04F4B0FBF4F58D42F9D21F46FA
:10455000ECB1F2E71F463B46B0FBF4F504FB150057
:10456000B4FBF1F41EB9002D01DC002CF2D15F1C6C
:10457000092D06DD002A0CBF4FF0570C4FF0370C09
:1045800000E0C44665441D700136002CE3D10023D1
:104590003B70BDE8F00170472DE9F001884228BF6B
:1045A000012404D2012400264FF030080AE001FB68
:1045B00004F4B0FBF4F58D42F9D21F46ECB1F2E7FA
:1045C0001F463B46B0FBF4F504FB1500B4FBF1F4C9
:1045D0001EB9002D01DC002CF2D15F1C092D06DD77
:1045E000002A0CBF4FF0570C4FF0370C00E0C446C8
:1045F00065441D700136002CE3D100233B70BDE8FB
:10460000F001704738B505461446B0FBF2F010B122
:10461000FFF7F8FF0146B5FBF4F304FB1354034B1B
:104620001B5D084600F8013B38BD00BFFC57010880
:1046300003685A1C02601970704700BF2DE9F041F1
:1046400005460E46069F002B0CBF4FF020084FF08A
:1046500030083B784BB1002A1CDD3B46013A13F889
:10466000010F10B1002AF9D114E0541E002A06DD12
:1046700028464146B047013CB4F1FF3FF8D13978B4
:1046800051B13C462846B04714F8011F0029F9D122
:10469000BDE8F0813978F4E7BDE8F081F0B4047842
:1046A000E4B10022134617462E2C03D10133B9B1D1
:1046B000C418675402EB820255002A46C45CA4F178
:1046C0003006F6B2092E9CBFA5F1300212190E2B4E
:1046D00008D80133C45C002CE6D105E0002004E0DA
:1046E000104602E0002000E01046F0BC704700BF1A
:1046F000F0B4384B1D6801786B185B7813F0040F29
:1047000012D000F10F0398425FD2431C00F1100653
:1047100001E0B3425BD01C4613F8011B6A185278C3
:1047200012F0040FF5D100E00446231A022B11DD2C
:10473000421CA21A002305E01BB103EB83035B00BC
:10474000DBB2013A10F8016B303E3344DBB2022A8F
:10475000F2DC00E00023A0420ED2002204E01AB1F5
:1047600002EB82025200D2B210F8016B303E3244AA
:10477000D2B2A042F3D100E000222E2915D101349B
:104780000420002101EB8101490089B22678AF198C
:104790007F7817F0040F03D001343039314489B2E7
:1047A000013810F0FF00EDD100E000210A4800FBC5
:1047B00002F2642000FB01210848A0FB0120084A06
:1047C00002FB03F303EB900002E0002000E0002076
:1047D000F0BC70470C01002040420F00ABAAAAAA0F
:1047E0008096980010B40346026B5AB1C268016CFF
:1047F000541A4069005DC0B20139002908BF114652
:1048000019640AE0016A4269505CC0B20131DA6899
:10481000B1FBF2F402FB14121A625DF8044B70470C
:10482000436B13B190F844007047826A436A9A421E
:1048300014BF002001207047036B3BB15968036926
:10484000013B026C881A1840C0B270470369013BF3
:10485000C169026A881A1840C0B27047426A806A09
:10486000824214BF00200120704700BF10B443797A
:1048700013F0010F0ED0036AC2699A420CD042694C
:10488000D15C0133C268B3FBF2F402FB1433036260
:10489000084602E0002000E000205DF8044B70476D
:1048A000437913F0010F09D0C269036AD21AC368B1
:1048B000B2FBF3F003FB1020C0B27047002070473A
:1048C000704700BF2DE9F00F84B003908C465B4E1B
:1048D00073895B4A1768A7EB03274FEAE779B28829
:1048E000002545EA124514043289A2FB070102FBA8
:1048F0000911C20942EA4162CB11A01845EB03013C
:10490000CDE900017288002545EA5245D403F288BA
:10491000A7FB020102FB0911020A42EA01620B1223
:1049200014EB020A45EB030BB289A7FB020102FB61
:104930000911C20D42EA4122CB1512F5FA6643F184
:104940000007B6F5FA6F77F1000157DA02FB03F4BE
:10495000A2FB020101EB44018D0045EA9075840041
:10496000001941EB05014D104FEA3004DDE90089E3
:10497000B8EB040869EB0509CDE90089840844EA2D
:1049800081748D10BAEB040A6BEB050B2D484FF0C8
:10499000FF31864277EB010930DA40F6AC50002156
:1049A000121843EB010302FB03F1A2FB022303EB0A
:1049B0004103544263EB4305E90041EA5471E000CE
:1049C000801841EB0301DDE90045241845EB0105A2
:1049D000CDE90045941843EB0305A90041EA947121
:1049E000A000001941EB0501801841EB03014910BB
:1049F0004FEA3000BAEB000A6BEB010B124B1A685E
:104A0000A2FB0A0102FB0B11420D42EAC1224B1527
:104A1000DDE90089B2EB080263EB0903D00B40EA41
:104A20004340039B03B11860BCF1000F01D0CCF8E8
:104A3000006004B0BDE8F00F704700BF9006002092
:104A4000E817002024FAFFFFEC1700202DE9F00101
:104A5000364B1C88364B5A89A41A1A8902FB04F477
:104A6000E413B3F91250ED02B3F91420224495FB7C
:104A7000F2F22244DA6102EB820676000836361141
:104A8000A2F57A6202FB02F52D13B3F90EC00CFBFE
:104A900005FCB3F9028008FB02F8B3F92040B3F932
:104AA000047007FB02F2B3F90C7007FB05F52D1437
:104AB00005EB62370237BF1007F50047DA8802FBC3
:104AC00007F7FF0B4FEAE82202EBEC22B3F90030C4
:104AD00002EB8302A2400232164D2D68A5EBA20222
:104AE0004CF2503545FA04F404FB02F4002CA7BF45
:104AF0006300B3FBF7F3B4FBF7F35B001A1202FB9E
:104B000002F240F6DE3404FB02F20B4C04FB03F429
:104B1000241404EB224202F6CF6203EB221300B10D
:104B2000036001B10E60BDE8F0017047F817002086
:104B3000A0060020F417002043E3FFFF044B1B787E
:104B400013F0040F03D023F00403014A13707047DD
:104B50002822002030B587B005460C46002300937C
:104B60000193029300210CF0D3F920B12846364975
:104B70000BF00AFF03E0284633490BF003FF3349EB
:104B80000CF00AF80CF0CEF9054685EAE570A0EBCA
:104B9000E57000280BDA2D238DF80C3040420DF122
:104BA0000D010A22FFF72EFD0023037005E003A983
:104BB0000A22FFF727FD00230370002DACBF20233E
:104BC0002D238DF8003003A80CF002FE01280BD134
:104BD00030238DF801308DF802308DF803306846AF
:104BE00003A90CF0DBFD14E0022809D130238DF875
:104BF00001308DF80230684603A90CF0CFFD08E0C3
:104C0000032804BF30238DF80130684603A90CF057
:104C1000C5FD68460CF0DCFD0338C5B22046694688
:104C20002A460CF0FFFD0023635520460CF0D0FD12
:104C3000074B1B882352204600A929440CF0AEFDE7
:104C4000204607B030BD00BF6F12033A00007A441F
:104C5000245801082DE9F843024610F8013B202BA7
:104C6000FAD0092BF8D02D2B02D10246554F04E083
:104C70002B2B08BF01324FF07E571478A4F130037C
:104C8000DBB2092B1AD8551C0026DFF83C813046D0
:104C900041460BF081FF0646A4F130000BF028FFDF
:104CA000014630460BF070FE06462A4615F8014BC9
:104CB000A4F13003DBB2092BE9D900E000262E2C49
:104CC00024D1501C5378A3F13001C9B209291CD852
:104CD000951C3D4CA046A3F130000BF009FF214686
:104CE0000CF00EF8014630460BF04EFE064620460C
:104CF00041460BF051FF04462A4615F8013BA3F14B
:104D00003001C9B20929E6D900E00246137803F060
:104D1000DF03452B4BD153782D2B03D102324FF0BB
:104D2000010805E02B2B14BF013202324FF00008BE
:104D30001378A3F13001C9B209292FD8002404EB5C
:104D4000840403EB4404303C12F8013FA3F130012A
:104D5000C9B20929F3D9B4F59A7F28BF4FF49A74E0
:104D6000072C0FD925464FF07E51DFF8609008469A
:104D700049460BF011FF0146083D072DF7D804F016
:104D8000070401E04FF07E5154B10F4D084629460B
:104D90000BF002FF0146013CF8D101E04FF07E51DB
:104DA000B8F1000F05D030460BF0AAFF04E04FF039
:104DB0007E5130460BF0F0FE39460BF0EDFEBDE8BB
:104DC000F88300BF000080BF0000204120BCBE4C23
:104DD0002DE9F04F87B08146884614461F460026CD
:104DE000D9E0252903D001344846C047D3E0627892
:104DF000302A02D00234B24603E0A27803344FF0E6
:104E0000010AA2F13003DBB2092B21D8354605E0B7
:104E100005EB850503EB450514F8012BA2F13003E2
:104E2000DBB2092B02D8A2F130030EE0A2F161033C
:104E3000DBB2052B02D8A2F1570306E0A2F1410331
:104E4000DBB2052B05D8A2F137030A2BE0D900E02D
:104E500035466C2A03BF2278013401233346632A86
:104E600000F0848008D8252A00F09280582A5AD071
:104E7000002A00F094808EE0732A7DD002D8642A44
:104E800022D088E0752A02D0782A4CD083E04BB13A
:104E900007F1040B38680A21324603ABFFF77CFBAD
:104EA0005F4608E007F1040B38680A21324603AB7D
:104EB000FFF73CFB5F4603AB0093484641462A465A
:104EC0005346FFF7BBFB66E093B107F1040B38686C
:104ED000002806DA40422D238DF80C300DF10D0329
:104EE00000E003AB0A213246FFF756FB5F4611E0B4
:104EF00007F1040B3868002806DA40422D238DF8AC
:104F00000C300DF10D0300E003AB0A213246FFF730
:104F10000DFB5F4603AB0093484641462A46534685
:104F2000FFF78CFB37E063B107F1040B3868102101
:104F3000582A14BF0022012203ABFFF72DFB5F4666
:104F40000BE007F1040B38681021582A14BF002227
:104F5000012203ABFFF7EAFA5F4603AB0093484632
:104F600041462A465346FFF769FB14E03D1D48467B
:104F70003978C0472F460EE007F1040A3B680093DA
:104F8000484641462A463346FFF758FB574602E05B
:104F900048462521C047217800297FF422AF07B079
:104FA000BDE8F08F80EAE073A3EBE0738B4207DB90
:104FB000002801DD401A7047002802DA08447047D3
:104FC00000207047024B9A6822EA00009860704700
:104FD000501C0020024B9A6810439860704700BF35
:104FE000501C0020134B1B78512B1AD1114B5B889E
:104FF000B3F5B96F17D10F4B1B79BE2B15D10D4BE4
:1050000093F8C535EF2B12D100200A4B0A4913F84B
:10501000012B50408B42FAD1D0F1010038BF002063
:105020007047002070470020704700207047002024
:10503000704700BF00F80108C8FD010810B485B032
:105040000091ADF8060010238DF80830BDF8063049
:10505000ADF809300098CDF80B000DF107020DF105
:105060000E00002312F8011F0B448242FAD133F0E4
:10507000FF0205D0DAB202EB132333F0FF04F9D1BB
:10508000DB438DF80F300B4B1A68531C03F00703FA
:10509000094909688B4209D0084901EBC20204ACF6
:1050A00014E9030082E80300024A136005B05DF8CA
:1050B000044B7047A00800209C080020D411002059
:1050C00030B441EA0041134B1C68621C1A60CCB139
:1050D000601E4008104B53F820305A1AB2F5803F3A
:1050E00012DB0D4D09E0421E520855F822305C1AC1
:1050F000B4F5803F09DB0446104645F8243000280B
:10510000F1D102E0204600E02046034B43F8201096
:1051100030BC7047F0180020F418002070B400284C
:10512000B8BF4042114D85FB0032C317C3EBA252FA
:105130000F4C04FB0200C0EB0010830085FB0360F2
:10514000DE17C6EBA05002EB820202EB820200EBFC
:1051500082020A8004FB0033064A82FB0302DB174B
:10516000C3EBA2134B8070BC704700BF6BCA5F6B70
:10517000806967FFD34D6210094B1B786BB1094BF7
:105180001B685B7823B1084B1868C0F3C0407047B8
:10519000064B1878C0F3800070470120704700BFAD
:1051A0002C0800203008002088020020282200203F
:1051B00008B508480CF00CFBC0B2142808D8054903
:1051C0002022431CDBB20A54152B01D01846F8E705
:1051D00008BD00BF5017002070B50446A0F10A03B7
:1051E000222B00F21E81DFE813F0CF001C011C010E
:1051F000CF001C011C011C011C011C011C011C0115
:105200001C011C011C011C011C011C011C011C01B6
:105210001C011C011C011C011C011C011C012300A0
:105220001C011C011C011C011C0129001C0129007E
:10523000864B002018705870987070BD834B5A7858
:105240001A44002111711D7855BBD9741B79472B65
:1052500040F088807D4B5B79502B21D17B4B9B7933
:10526000472B0DD1794BDB79472B09D1774B1B7A33
:10527000412B05D1754B0122DA745B79502B0FD18C
:10528000724B9B79522B0BD1704BDB794D2B07D195
:105290006E4B1B7A432B03D102226C4BDA7461E014
:1052A0006A4BDB7C012B02D0022B41D05AE0AB1EB3
:1052B000072B57D8DFE803F0040A1319222E5635BE
:1052C000624E301DFFF714FA70614BE05F4B1B79A3
:1052D000532B47D15D4B5A6952425A6142E05B4EB3
:1052E000301DFFF705FAB0613CE0584B1B79572B96
:1052F00038D1564B9A6952429A6133E0534B1B792D
:10530000302B534B1A788CBF42F0020222F002027B
:105310001A7027E04D4E301D0021FFF7BFF930779E
:1053200020E04A4E301D0021FFF7B8F9F08319E064
:10533000072D02D0082D0FD014E0444E301D01215E
:10534000FFF7ACF941F2184303FB00F0414AA2FB1E
:1053500000139B09338405E03C4E301D0121FFF70B
:105360009DF97084394B01351D7000225A702A2C2A
:1053700004D1012283F82420002070BD334B9A7899
:1053800054409C70002070BD304B93F82430002BAB
:105390003BD02E4B1B79402B04D9A3F137021201CD
:1053A000D2B202E01B0103F0F002284B5B79402BE4
:1053B0008CBF373B303BDBB21344244A9278DBB2DC
:1053C0009A4224D1214BDB7C012B02D0022B13D03B
:1053D0001FE01F4B1B7813F0020F1CD01E4A1B4B03
:1053E0005969116099695160197F1C4A1170DA8BF3
:1053F0001B4B1A8001200FE0144B198C194A1180A5
:105400005A8C194B1A80002006E0002004E000208E
:1054100002E0002000E0012000220C4B83F8242051
:1054200070BD0A4B5B780E2B04D8084A591C51708A
:1054300013441871054B93F824302BB9034B9A7819
:1054400054409C70002070BD002070BDD010002022
:10545000F8020020D34D62108C120020CC040020F2
:1054600094120020961200205E160020F0B49D4B8E
:1054700093F82530082B00F27A81DFE803F011055C
:105480001C283B4D6D8E9C00622805D10222954B55
:1054900083F82520002092E10022924B83F82520FA
:1054A000B52840F066818F4B93F82520013283F8B0
:1054B0002520002083E18B4B032283F8252083F8ED
:1054C000260083F8270083F82800002077E1854B29
:1054D000042283F8252093F827200244D2B283F8CF
:1054E000272093F828100A4483F8282083F82900FD
:1054F000002064E17B4B052283F8252093F82720C8
:105500000244D2B283F8272093F828100A4483F883
:1055100028205885002052E1724B062283F825206E
:1055200093F827200244D2B283F8272093F828105A
:105530000A4483F828205B8D03EB002080B2B0F58D
:10554000007F684B91BF588500225A8583F825203B
:105550000020644B988532E1624B93F82720024487
:10556000D2B283F8272093F828100A4483F8282021
:105570009B8DC72B03D85B4A1A4482F83000013355
:105580009BB2584A9385528D9A4240F0F48007228C
:10559000544B83F82520002011E1524B082283F858
:1055A000252093F82730834200F0E78000204D4B00
:1055B00083F8250003E14B4B002283F8252093F864
:1055C0002830834240F0DB80464B93F82930023B81
:1055D0002E2B00F2C680DFE803F0183AC4C448C49A
:1055E000C4C4C4C4C4C4C4C4C4C460C4C4C4C4C4DF
:1055F000C4C4C4C4C4C4C4C4C4C4C4C4C4C4C4C46B
:10560000C4C4C4C4C4C4C4C47100374A354B596B44
:105610005160996B11601A6C344981FB0201D217F9
:10562000C2EBA111324A118093F8F8302BB1314B03
:105630001A7842F002021A7004E02E4B1A7822F017
:1056400002021A700122274B83F8F9207DE0254BD6
:1056500093F8353013F0010F00F09880214B93F848
:105660003430032B40F092808BE01E4B93F83B309C
:1056700013F0010F00F094801A4B93F83A30032B8B
:1056800040F08E8096E0174B93F85F101A4A117025
:10569000B3F85C20194B1A8053E0124B5A6C18492E
:1056A0000A809A6C174981FB0201D217C2EB2131A3
:1056B000154A1180012283F8FA2042E0094B93F841
:1056C0003430124A1370102B2CD910220F4B1A7041
:1056D0000E4B1F780E4A00230E4E0F4D0F4C1048F4
:1056E00023E000BFD01000208C120020D34D6210A8
:1056F00094120020F8020020CC040020E4000020D6
:1057000096120020AD8BDB685E160020601600202C
:10571000001100206416002074160020841600205A
:1057200094160020002BD3D10BE0117A9955517AB1
:105730005955D17A195512F80C1F19540133BB422F
:10574000F3DB204B93F8F9306BB11E4B93F8FA3032
:105750005BB11C4B002283F8F92083F8FA2001206A
:105760002DE000202BE0002029E0002027E0002091
:1057700025E0002023E0002021E000201FE00020A1
:105780001DE001220F4B83F8F820DAE700220D4BD1
:1057900083F8F8200C4B1A7822F002021A70D0E736
:1057A0000022084B83F8F820074B1A7822F00202F7
:1057B0001A7068E70122034B83F8F82063E7F0BC16
:1057C000704700BFD0100020F802002010B50BF089
:1057D0008FF9044600210BF09BFB38B120460A49A3
:1057E0000BF08EFA09490BF0D7F907E004F10040FD
:1057F00005490BF085FA05490BF0CEF90CF0D6F906
:10580000034B186010BD00BF8096184B35FA8E3CD4
:10581000BC000020F8B50C461E4613680068181A34
:105820000BF066F9054630682368C01A0BF060F982
:10583000184B19680BF0B0F90446284629460BF0BE
:10584000ABF90746204621460BF0A6F90646384636
:1058500031460BF099F80CF035FC0F490BF09CF930
:105860000BF086FB069B186005F1004021460CF00A
:105870009FFA0A490BF090F909490BF085F80BF0F3
:1058800051FB0028BCBF00F50C40A030079B1860FE
:10589000F8BD00BFBC0000202C7D8E3FA00CB3459E
:1058A00000A00C4670B504461F4D00790BF01CF9A2
:1058B0001E490BF025FA2860A07B0BF015F91B4957
:1058C0000BF01EFA68601A4EEE601A4D60790BF00C
:1058D0000BF919490BF014FA2860E07B0BF004F97E
:1058E00012490BF00DFA6860607E0BF0FDF8134969
:1058F0000BF006FAA860EE60114DA0790BF0F4F8F9
:105900000D490BF0FDF92860207C0BF0EDF80749FC
:105910000BF0F6F96860A07E0BF0E6F807490BF093
:10592000EFF9A860EE6070BDA81900200000C84221
:105930000000FA44BC1900200000204100007A4415
:10594000301A002044F250639842C4BFA0F50C40C6
:10595000A038034B9842BCBF00F50C40A030704704
:10596000B0B9FFFF2DE9F84305460E4614469946A7
:105970005068281A0BF0BCF831680BF0C1F90746E3
:105980002061D6F80080A6681B4B1B6898780BF046
:10599000ABF80AF01DFD16A3D3E900230AF06CFD55
:1059A00002460B46002015490AF090FE0AF096FFC9
:1059B000014640460AF0E8FF014640460BF0A0F9D8
:1059C0008046384631460AF0DDFF014640460BF07E
:1059D000E3F8014630460AF0D7FF20616560A06019
:1059E000D9F808100BF0D8F80BF09CFABDE8F88352
:1059F000182D4454FB211940280800200000F03FD6
:105A0000F8B51A4B1C78631EDBB2012B20D8184B5B
:105A10001D68184B1E782E44174F786817490BF0F5
:105A2000BBF80BF0A5FAB072B86815490BF0B4F8E2
:105A30000BF09EFA307528780BF05AF801460AF000
:105A4000A3FF0BF095FAA870AB7A2B732B7DAB7587
:105A5000032C06D10022054B1A700122094B1A7043
:105A6000F8BD084B1A7801321A70F8BDE80500201D
:105A7000A0150020821500209415002000007A4413
:105A80009A99993F10000020034B1878D0F101003B
:105A900038BF0020704700BFE8050020F0B41E4B5F
:105AA0001B6A002B35D0013B1B490B6251F8237058
:105AB00051F820301A7922F001021A714200531C69
:105AC0000D6AAB4222D20232AA420DD251F82340D3
:105AD00051F82260B4F800C03488C4EB0C0424B23E
