:020000040800F2
:10000000005000205D18010809190108B10201081B
:10001000091901080919010809190108000000005F
:1000200000000000000000000000000009190108A5
:100030000919010800000000A5010108A10201083A
:100040000919010809190108091901080919010804
:1000500009190108091901080919010869010108AC
:1000600009190108091901080919010809190108E4
:1000700009190108091901081901010809190108DC
:100080007101010809190108091901080919010874
:100090000919010809190108091901086101010874
:1000A00009190108E5FF00080919010809000108FC
:1000B000C5FF0008A1FF00087DFF0008210201081C
:1000C00011020108190201080902010809190108B1
:1000D00009190108C90001082D00010809190108C2
:1000E0002902010809190108091901080000000086
:1000F0000000000000000000000000000000000000
:0C01000000000000000000005FF808F1A3
:100110002DE9804891B002F033FB0022964B1A7013
:10012000964B9C6814F0080F00F0CE80924B5B68F1
:100130001B7A042B00F2C580DFE803F003030658A6
:100140008B008D4B1A7ABDE08B4B5B7A002B49D02C
:10015000894B00225A7293F8223013F0080F43D1D2
:10016000854B9A89C2F30A029A62DA68C2F3CA22FC
:10017000DA62D9891A7C02F00102920242EA9112F3
:100180001A631A8AC2F34A025A631A69C2F30A321C
:100190009A63598A1A7D02F00302520242EAD1128E
:1001A000DA639A8AC2F38A021A645A69C2F34A323B
:1001B0005A64DA7D197E01F0070142EA01229A644D
:1001C0001A8BC2F3CA02DA649A69C2F38A321A65D8
:1001D000D97E1A7F02F00F02D20142EA51025A651B
:1001E00001226FE000226DE000226BE0624B93F889
:1001F000583043B3604B002283F8582093F85D30A9
:10020000012B22D15C4B93F88130102B0BD910229B
:10021000594B83F88120584991F8816001F15C03C2
:100220008031002203E0002BF5D101224AE0DD7885
:10023000187940EA052041F8040F01320233D0B2A8
:100240008642F4D803E000223CE000223AE001229A
:1002500038E0494B93F8C4305BB3474B002283F836
:10026000C42093F8C830A82B25D1434B93F8DB303A
:100270001BBB434E1546A6F1DC0707EB450393F87D
:10028000CB0093F8CC3003EB002010F057F936A3E5
:10029000D3E9002310F0F2FA35A3D3E9002310F0DC
:1002A0000FF810F0D3FB46F8040F0135082DE4D108
:1002B00005E0002206E0002204E0002202E0012224
:1002C00000E000222C4B1A7014F4804F0CD02A4B03
:1002D00093F800312BB10022274B83F80021012233
:1002E00000E00022244B1A70234B1B78002B02F0F5
:1002F000B08114F4807F02F0B0811F4CD4F8043137
:100300001B681B6898471F4B1B68227832B91A4A32
:10031000D2F808219A1A002AC0F2A38303F59C435D
:100320002033154AC2F80831144B9B6813F4807FC0
:1003300004D0D2F804311B681B6998470F4B9B68A7
:1003400042F201021A421FD10B4B1B7823B30A4C15
:10035000D4F804311B681B68984705F0D1FF0023CF
:10036000237019E0AFF300809A99999999991940EF
:10037000000000000070774070010020581C002031
:100380004C02002020220020B54B93F80C210132B2
:1003900083F80C2105F0B4FFB24B9B6813F4805F27
:1003A00007D0AF4BD3F8103113F0010F01D10DF08E
:1003B0000FFEAD4B1C68AA4B5B681B7CD3B1A84DEC
:1003C00005EB4303B3F91601A0F57A70B0F57A7F17
:1003D000A8BF4FF47A7020EAE07010F061FCA349E6
:1003E00010F066FDA24910F0AFFC10F099FEA5F8E0
:1003F00014014CE09B4B9B6813F4004F47D0984B83
:10040000D3F83C31E31A002B41DB954B04F59C42B9
:100410002032C3F83C2193F8452103EB4202B2F8A5
:10042000500180B293F85831013303F00F038C4D23
:1004300085F85831DBB2EE1810F032FC8D4910F01F
:1004400037FD10F06DFE86F85C0105F25B1305F2D6
:100450006B10002213F8011F0A4492B28342F9D1B3
:1004600012B2002AB8BF0F3210116428A8BF64204E
:1004700020EAE07010F014FC7F4910F019FD7C496F
:1004800010F062FC10F04CFE754BA3F81401754B94
:100490009B6813F4807F15D0784B9C420CD9704B2D
:1004A000D3F86C311B681B6A984728B96C4BD3F89A
:1004B0006C311B685B6A9847694BD3F86C311B68D9
:1004C0005B699847674BB3F8DC209B6813F4805F47
:1004D0000ED0634BB3F91E316249B1F81811881A76
:1004E000834210DD0A449342C2F2BB8001270BE035
:1004F0005B4BB3F91E215B4BB3F81A319A42C2F23F
:10050000B080012700E00127564B93F8216193F852
:1005100022E1B3F81A51B3F81C41514800F58B722F
:1005200000F58F7000239B0832F9021FA942C4BF57
:1005300063F07F03DBB2A142B8BF43F040038242C5
:10054000F1D1474A92F870219A4209D1444A92F86F
:100550007121F92A08D80132414981F8712103E05B
:1005600000213F4A82F871113D4A82F87031444BB4
:100570001B78DBB9D2F8103113F0010F08D0AFB9F6
:10058000404B1B7813F0010F10D00BF065FE0DE00F
:100590003C4B1B7813F0040F08D0BEF1000F02D0C3
:1005A0000DF016FD02E00FB90DF012FD2C4B93F883
:1005B0007131142B40F0B780003618BF0126314B43
:1005C0001B7813F0040F15D02D4B1B78002B00F077
:1005D000AA80234B93F870315F2B02D10DF0F8FC09
:1005E000A1E0002E00F09F807D2B40F09C800DF05C
:1005F000EFFC98E01A4B93F87031572B0FD14FF462
:100600007A72214B1A80164BD3F8743113F0080F0D
:1006100040F089800022124BA3F8782183E0114A30
:10062000926812F0040F36D05A2B34D10C4B93F849
:100630007A313BB10A4B002283F87A21012283F8F8
:100640007B2170E0064A92F87C3183F0010382F846
:100650007C31DBB10222024B83F87D2163E000BFD5
:1006600070010020581C00202022002000007A4445
:1006700000C07F44CDCC23420000C842404B4C0018
:1006800000000020302200202C2200200322AC4B4E
:1006900083F87D2147E05D2B01F0F9875B2B01F0AA
:1006A000F8875E2B42F0088001F0F5BF6F2B02D176
:1006B0000BF0D2FD37E026B17E2B02D10BF0CCFD42
:1006C00031E0972B05D14FF4C8729D4BA3F87E21E2
:1006D00029E0A72B07D19A4B93F8802142F004021E
:1006E00083F880211FE000220D92BB2B04D102234E
:1006F000ADF8363001F0E7BFB72B05D14FF6FE73EA
:10070000ADF8363001F0DFBFBE2B04D10223ADF8C7
:10071000343001F0D8BFBD2B05D14FF6FE73ADF8D4
:10072000343001F0D0BF874BD3F808C01CF0040F61
:1007300044D0834B93F87C31CBB1834B1B7813F0BF
:10074000040F14D07E4BB3F91E217E4BB3F81A313F
:100750009A420CDD7A4BD3F8103113F0010F06D119
:10076000774B3222A3F88221002283F87C21744B3C
:10077000D3F8103113F4803F10D0714B93F88431CB
:100780003BB96F4B93F87A311BB932226C4BA3F80B
:10079000822101226A4B83F884210FE0684B93F891
:1007A0007A315BB1684B1B7813F0040F06D1644BB0
:1007B000002283F87A21012283F87B21604AD2F853
:1007C00088417D340023C2F8103115464FF0010EE8
:1007D0004FF4617740F63306E2189178D078814281
:1007E00025D2527805EB4202B2F92021B2F5617FA1
:1007F00003DBB242A8BF324600E03A4692B201EBB8
:10080000810101EB810101F561718A420FDB00EB8F
:10081000800000EB800000F56170824207DAE15C45
:100820000EFA01F1D5F810210A43C5F8102104335E
:10083000A02BD1D1424BD3F8103113F0020F09D1C4
:100840001CF4807F1FD03E4BD3F86C311B689B6833
:100850009847C0B13A4BD3F8743113F0020F12D05D
:10086000374BB3F88C3113F0010F41F04687344A0F
:100870000021C2F89011C2F8941143F00103A2F8CC
:100880008C3101F03ABF2E4BB3F88C2122F00101DC
:10089000A3F88C11D3F8104114F0040F12D08BB2CE
:1008A0002749A1F88C3102F0020292B28AB90A46B5
:1008B0000021C2F89011C2F8941143F00203A2F88B
:1008C0008C3106E01E4BB3F88C2122F00202A3F813
:1008D0008C211B4BB3F88C3113F0030F4FF0100138
:1008E0001A4A14BF51611161154AD2F8745115F0BA
:1008F0000A0F3CD014F0100F0DD003F0040292B296
:1009000072B90F4A43F00403A2F88C31B2F878317F
:10091000A2F8983104E023F00403094AA2F88C31CC
:1009200014F0200F14D0064BB3F88C3103F04002C2
:1009300092B2A2B943F04003014AA2F88C310EE012
:1009400070010020581C002030220020000C0140C3
:10095000BD4BB3F88C2122F04002A3F88C2114F097
:10096000400F04D0B84BB3F87821A3F89A2115F0C2
:10097000200F01D00FF05CF914F4006FB24BB3F804
:100980008C2114BF42F4807222F48072A3F88C216F
:10099000AE4B5B79082B01D00E2B06D1AA4BB3F8D6
:1009A0008C2122F04002A3F88C21A74B93F89C31B4
:1009B000002B00F0AC8415F0040F01F0A38614F0B6
:1009C000080F08D1A04BB3F88C2122F00802A3F83D
:1009D0008C2101F097BE9C4BB3F88C2102F00803E8
:1009E0009BB2002B41F08E86974B42F00802A3F891
:1009F0008C21D3F8A421C3F8A021B3F8B221A3F825
:100A0000A8210022C3F8B421C3F8B82101F07ABEAE
:100A100014F4001F08D18C4BB3F88C2122F400721F
:100A2000A3F88C2100F073BC874BB3F88C2102F43F
:100A300000739BB2002B40F06A84834B42F4007237
:100A4000A3F88C21D3F8A421C3F8A021B3F8B221D4
:100A5000A3F8A8210022C3F8B421C3F8B82100F0FC
:100A600056BC7949D1F8BC21501CC1F8BC01052AFB
:100A700000F24484DFE812F00600A40031041701FC
:100A800082033B04704AD2F8742112F0080F00F080
:100A900035846D4AD2F8C0219A1A002AC0F22E84F9
:100AA00003F5C334A034684DC5F8C04105F5E276BE
:100AB00030460DF0FFFE30463146654B1A780BF09C
:100AC00099F995F8801111F0040F1AD02B46C5F84A
:100AD000CC4100225D4E15469019A0F8FE5003F55A
:100AE000E270105A03F5E877D05303F5EC77D05352
:100AF0000232062AF0D121F00401A7F5EC7383F845
:100B00008011514B93F8DE31B3B14F4A4F4BB2F8DD
:100B1000C401B3F8FE10411AA2F8C411B2F8C6011C
:100B2000B3F80011411AA2F8C611B2F8C811B3F80F
:100B30000231CB1AA2F8C831434BD3F8CC31002B89
:100B400000F0DC83E31A434A93421FD8424BDA6831
:100B500082F00802DA6000233B4A02F5E271595A3A
:100B600002F5E8701C5E08B28442C4BF02F5E8706A
:100B7000195202F5EC701C5E08B28442BCBF02F54B
:100B8000EC7019520233062BE7D1B7E300232E4A4B
:100B9000C2F8CC312D481C1802F5E8715D5E02F5F3
:100BA000EC71595E294401EBD1714910A4F8FE1093
:100BB0000233062BEFD105F017FA0FF0F9F89DE399
:100BC000214AD2F8742112F0040F00F097831E4AD4
:100BD000D2F8E0219A1A002AC0F290831A4AC2F889
:100BE000E03192F8E431012B15D013B1022B35D04E
:100BF00084E3154CD4F8F0319847D4F8F431984791
:100C0000012384F8E431B4F8EA21D4F8E031134444
:100C1000C4F8E03172E30C4CD4F8F8319847D4F8BA
:100C2000EC319847B4F8E821D4F8E0311344C4F823
:100C3000E031D4F8FC3104F5007004F501719847F7
:100C4000022384F8E43159E370010020581C00208D
:100C50002F2200207FC3C901000C01407A4B0022E3
:100C600083F8E421D3F80842D3F80012D3F80C0239
:100C7000421CD3F810321B789A4204D10122724BE5
:100C800083F814220022704B03EB8000C0F8181286
:100C9000214403EB8200D0F81802091AC3F80C2291
:100CA000C3F808122AE3684AD2F8742112F0040F3C
:100CB00003D0654991F8141219B912F0100F00F021
:100CC0001D83614AD2F8D8525D1B46F2A7129542A5
:100CD00040F214835C4AC2F8D8325C4B1E88002E66
:100CE00036D01346D2F8DC22D3F810120978013935
:100CF000D3F80832B3FBF1F31146002AB8BFD11D77
:100D0000A2EBE1021344504AC2F8DC321846002B31
:100D1000B8BFD81DC0100FF0C3FF4D4910F0C8F880
:100D20004C4911F02FF90146474C4FF07E500FF01F
:100D300001FF494910F008F810F0CCF9C4F8E002BE
:100D4000013E424B1E800022C4F8E422C4F8E8228F
:100D50003D4CD4F8106230780138D4F80832B3FB37
:100D6000F0F00FF099FF3A4910F0A2F8394911F06C
:100D700009F901464FF07E500FF0DCFE36490FF0C6
:100D8000E3FF11F031F880467668D4F8EC020FF0FA
:100D900087FF31460FF0D8FF0746D4F8E002C0EBDA
:100DA00008000FF07DFF80464FF07E5031460FF077
:100DB000C1FE014640460FF0C7FF014638460FF01E
:100DC000BBFE11F011F80646B4F9F022002AB8BFB4
:100DD0005242B4F9F232002BB8BF5B429A42ACBF28
:100DE00014461C46A4B21D4B186823B2FA2B01F31B
:100DF0008F840FF055FF074620B20FF051FF0146D8
:100E000017480FF097FE014638460FF09DFF144932
:100E100010F04EF810F05EF90446104B1860431EB7
:100E2000C62B06D8084B361AC3F8F462C3F8EC0296
:100E30003EE0054BD3F8F432F61A002812DC024BE0
:100E4000C3F8EC6234E000BF7001002024220020CF
:100E500080E6C547B1DC423ED048874AC800002042
:100E600000006144C0F596700FF01AFFB84910F009
:100E70001FF8074620460FF013FF014638460FF0D3
:100E800063FF044630460FF00BFF06464FF07E50DE
:100E900039460FF04FFE014630460FF055FF014630
:100EA00020460FF049FE10F015F9AA4BC3F8EC02EA
:100EB000A94F38680FF0F0FE0646A8490FF044FF2E
:100EC0008246A44CD4F800030FF0EAFE8046D4F822
:100ED00004030FF0E5FE014640460FF0E9FF0290E3
:100EE000D4F808130FF030FF014630460FF02CFF06
:100EF0000390D4F8E482D4F810620196D6F80C90EE
:100F0000D4F8EC624FF07C510FF01EFF01465046C2
:100F10000FF01AFF8346504641460FF015FF014679
:100F200058460FF009FED4F8E8120FF005FE4946C6
:100F30000FF00AFF824630460FF0B2FE83464FF0B4
:100F40007E5049460FF0F6FD014658460FF0FCFE74
:100F5000014650460FF0F0FD8146C4F8E8020398C0
:100F600041460FF0E9FD8046C4F8E4020023C4F8CE
:100F7000F832C4F8FC32C4F80033C4F804333B60E0
:100F8000774B1B88002B40F0B981764B1B68013BE7
:100F9000C62B02D8C4F8A46105E0484610F09AF8C0
:100FA0006C4BC3F8A4016B4CD4F80C03301A0FF04F
:100FB00077FE6D490FF0C8FE074628460FF06CFE1D
:100FC000014638460FF074FF10F084F8C4F80C6343
:100FD00040F2DC539842A8BF1846644A9042B8BF1A
:100FE00010460A2103F074FF0746019EB56840468B
:100FF00029460FF0A9FE064638460FF051FE074677
:101000004FF07E5029460FF095FD014638460FF00F
:101010009BFE014630460FF08FFDC4F8E40210F04D
:10102000E3FE0646052103F053FFC4F81003D4F88D
:101030001453B4F8F02202F21F3292B240F23E632F
:101040009A427DD8B4F8F22202F21F3292B240F2F4
:101050003E639A4241F26683002372E03D4CD4F82D
:10106000A021D4F8A431D31AB3F5FA7FA8BF4FF466
:10107000FA733F488342A8BF18460A2103F028FFAD
:10108000D4F81833DB7803FB00F00028B8BF7F30BA
:10109000C311B3F5967FA8BF4FF49673354A9342B8
:1010A000B8BF134602E02B4BD3F81C339B1B294AD5
:1010B000D2F818134A7A02FB03F2002AB8BF1F3293
:1010C0005211B2F5967FB4BF10464FF49670294A7C
:1010D0009042B8BF1046CE7C1E4AD2F8B44106FBFF
:1010E0000343B3F5C81FA8BF4FF4C813224CA34253
:1010F000B8BF2346C2F8B4311A46002BBCBF03F573
:10110000FF521F3200EB6234487F0FF0C9FD0646E4
:10111000029829460FF010FD014630460FF014FEEC
:101120004FF06C510FF010FE0FF0D4FF9628A8BFBF
:1011300096206FF095039842B8BF1846231A00E036
:101140000023044AC2F8B831029FC2F81473D5E0F4
:101150000000C8427001002028220020BD378635DB
:1011600024220020C80000200024744924FAFFFF34
:101170000CFEFFFFD4FEFFFF0000E7FFAA4B9B68B9
:1011800013F0800F00F0BA80A84BD3F82033002B67
:1011900035D0A64C002635462BE0D4F820030CF0C1
:1011A0001BFBD4F824331B7813B1012B03D005E0CB
:1011B00003F0A8FF03E004F0EFF800E02846C0B118
:1011C000D4F83033C4F83433994B1B68C4F8303347
:1011D000D4F8743143F02003C4F8743194F84433E4
:1011E000012B0EBF84F84463012384F844330EF0CE
:1011F000A9F9D4F820030CF0F5FA0028CDD18B4BD7
:1012000093F828335A1E042A78D8DFE802F0030343
:1012100003512D00854AD2F82423127812B1012AF5
:101220001BD01CE0013B012B19D8804CD4F82003C3
:1012300000210CF0BFF994F829237E4B03EB021335
:101240005B68C4F84C33D4F8200304F552710CF0F9
:10125000A9F9042005F0BAF901E005F0C5F900226A
:10126000724BC3F82C2349E0704BD3F82C23013286
:10127000C3F82C2393F829230132D2B26E49A1FB83
:101280000201890801EB8101521A83F82923684A77
:101290001268C3F83023002283F8542393F8802186
:1012A00022F0020283F88021012005F08FF925E069
:1012B0005F4B1A685D4BD3F83033D21A40F6C41333
:1012C0009A421BD9594BD3F8742122F02002C3F85B
:1012D0007421052005F07AF910E0544BD3F87431ED
:1012E00013F0100F0AD055480CF00CF906E04E4BE5
:1012F0009B6813F4003F01D009F022F94B4BD3F85F
:10130000BC31052B03DD0022484BC3F8BC210CF097
:10131000C3F84B4B1860444B9B8933B1434AD2F816
:101320005823821A002AC1F28581404C0344C4F834
:101330005833D4F8885103953B4B5B79029304F5FD
:101340005B75D4F86033284698472846294694F8B8
:1013500072230AF04FFD3B4B1B88002B01F0EA8102
:10136000D4F874331B78049304F55E740026354674
:10137000DFF8D0B0BBF80030B3F57A7F03D100239B
:10138000314AB3502361294B03F55B7203F56D734A
:10139000505FF2580244F2500FF082FC80460194F4
:1013A000276901372761012F04D160602060002781
:1013B000A76020E0D4F800A051460FF0BBFB8146A7
:1013C00038460FF06DFC014648460FF071FD0146AE
:1013D00050460FF0B1FB07466060404639460FF0BB
:1013E000A9FB014648460FF0AFFCA1680FF0A4FB33
:1013F000E0602760A0600D4A02F55B7100236B522C
:1014000002F57072AB52BBF80030012B44D1019F42
:10141000386901281ADD01380FF042FC0146F868EE
:101420000FF046FD13E000BF581C002070010020A3
:101430003C1C00208C3F0108CDCCCCCCC800002047
:10144000202200202C22002024050020002010F063
:1014500021FF0746049858B10FF022FC39460FF0DF
:1014600011FE28B14FF47A726E4B1A8001F062B906
:101470006D4B03F5707203F56D73F35803F5FA7352
:101480006A4F87FB0371DB17C3EBA113AB520A2032
:101490000F2101220AF0B0FE023504361434062D65
:1014A0007FF468AF5F4B1A88013A1A8001F042B9A5
:1014B00001F55B7201F570709C5A185A201A985207
:1014C0000233062BF4D1A2F55B73D3F8743113F019
:1014D000020F00F05F83A2F55B7404F57575D4F814
:1014E000CC33284698472846294694F8DA230AF050
:1014F00081FCB4F87E31002B58D0002319461846E1
:1015000022461F46B2F87E41B4F5C87F04BF02F5FB
:1015100077740F5102F5777502F5757433F904E0AD
:101520004E5976444E511F53D2F8E84324F81070B8
:101530000130043102330328E4D1A5F57773B3F801
:101540007E31012B2CD1A5F57773D3F8E823D3F89E
:10155000DC03C830364981FB00E4C017C0EBE4105F
:101560001080D3F8E003C83081FB0054C017C0EBF3
:10157000E4105080D3F8E433C83381FB0361DB17F8
:10158000C3EBE1112B4B5B88CB1A93800023039FA5
:10159000A7F85C30A7F85E3004F026FD0EF008FCDA
:1015A000214BB3F87E21013AA3F87E21224B9B68A0
:1015B00013F0040F00F0AA801B4BB3F88241322CC9
:1015C00014D1D3F8E8231188A3F8EC135188A3F8B9
:1015D000EE139288A3F8F023039DB5F85C20A3F8DE
:1015E000F423B5F85E20A3F8F62301E0002C5ED0CA
:1015F000002319461A460C489E46322C1ED100F58F
:101600007E7600F575755F5F8F5123F805E0D0F8A1
:10161000E85325F812E0013204310233032AECD1F9
:1016200041E000BF2C22002070010020D34D621049
:101630001F85EB5100000020581C002000F57E762D
:1016400000F5757533F905C08F5967448F5123F83C
:1016500005E0D0F8E85325F812E0013204310233F6
:10166000032ACAD1012C1ED1A6F57E73002283F86D
:101670008421012283F87A21022283F87D21D3F884
:10168000E823B3F8EC131180B3F8EE135180B3F8EC
:10169000F0139180B3F8F423039EA6F85C20B3F80E
:1016A000F633A6F85E30013CC14BA3F88241C04B33
:1016B00093F87B3153B3BE4B002283F87B21D3F8E0
:1016C000E813D3F8F843BB4880FB0475E417C4EB78
:1016D00025140C80D3F8FC4380FB04E5E417C4EB2D
:1016E00025144C80D3F8003480FB0340DB17C3EB98
:1016F0002010B14B5B88C31A8B80039DA5F85C203A
:10170000A5F85E2004F070FC0EF052FBA84CD4F853
:10171000E833B4F8D4131A888A1AA4F8D423B4F896
:10172000D6135A888A1AA4F8D623B4F8D8239B88EB
:10173000D31AA4F8D8330BF0AFFE0546D4F804341E
:10174000C31A049318460FF0A7FA0590D4F80814AA
:101750000FF0FAFA8346C4F80454D4F80C44019408
:1017600000252C462F46924E4FF07E5A06F55B73AD
:10177000185F0FF095FA014658460FF0E5FA07ABEF
:101780005851DDF804E09EF8000038B30FF088FAF5
:10179000014650460FF08CFB814606F582685046A4
:1017A00049460FF0C7F955F808100FF0CDFA03902D
:1017B00006F57573185F0FF073FA014648460FF08F
:1017C000C3FA014603980FF0B7F948F8050006F28E
:1017D0001C480FF07FFC28F8040005E006F21C43CB
:1017E00006F57572A25AE25206F21C43E35E03FB51
:1017F000037702340435062CB8D1642606FB07F6BD
:101800006D4B5B8803FB03F396FBF3F6684C04F225
:10181000244007A90CF0A2FAD4F80C546868A6F189
:1018200049039BB23B2B25D84FF07E510FF084F932
:1018300001464FF07E500FF03BFB824604F21A4700
:101840000024A7F21A4909F22446A05969680FF04A
:101850007BFA804637F9020F0FF022FA0146404624
:101860000FF06AF9014650460FF06EFA3051043419
:101870000C2CE8D14E4BD3F82C64B3F930040FF0A4
:101880000FFA014630460FF01BFC38B1484B93F875
:10189000802142F0080283F8802106E0444B93F84F
:1018A000802122F0080283F88021414CD4F82804DA
:1018B000314610F065FB8046C4F83404D4F8243473
:1018C00003F10049D4F82874D4F82C64384639461A
:1018D0000FF03AFA0746304631460FF035FA014626
:1018E00038460FF029F910F0D5FC0146484610F0B3
:1018F00047FB0646C4F8380440460EF041FE2AA3D2
:10190000D3E900230EF090FE0FF0C0F810F06CFA4F
:10191000A4F8F00230460EF033FE23A3D3E90023EF
:101920000EF082FE0FF0B2F810F05EFAA4F8F202A8
:10193000D4F8743113F0080F40D004F23C4007A9EA
:101940000CF00CFAA8684FF07E510FF0F5F8014644
:101950004FF07E500FF0ACFA824604F5E177002498
:10196000A7F5E17909F23C46A059A9680FF0ECF916
:10197000804637F9020F0FF093F9014640460FF009
:10198000DBF8014650460FF0DFF9305104340C2CDF
:10199000E8D1A6F23C4404F23C400CF08BFAA4F8E7
:1019A000780146E0AFF300803B597E90A9E7814083
:1019B000700100201F85EB5100000020BC4C201D51
:1019C00007A90CF0CBF96668A568E4683046314693
:1019D0000FF0BAF90646284629460FF0B5F9014638
:1019E00030460FF0A9F80546204621460FF0ACF925
:1019F000014628460FF0A0F810F04CFC05460021E7
:101A00000FF036FB78B9AA4C606829460FF050FAFF
:101A10006060A06829460FF04BFAA060E068294694
:101A20000FF046FAE060A3480CF044FAA24BA3F88A
:101A300078010598A1490FF087F906469E4CD4F825
:101A4000343403F100430A93D4F8383403F10043EB
:101A50000B93B4F978010FF023F900F100400EF078
:101A60008FFD91A3D3E900230EF0DEFD0FF00EF8F9
:101A70000C90B4F91C040FF013F90D90B4F91E0486
:101A80000FF00EF90E90B4F920040FF009F90F9041
:101A90000DA80AA90CF062F9D4F80C345B78012B7C
:101AA00025D1874B1B7813F0040F11D1D4F848349B
:101AB0001846002BB8BF03F13F00A3EBA0100FF0B6
:101AC000EFF80F990FF038F80FF004FBC4F8480452
:101AD000794BD3F848040028B8BF3F3080110FF08D
:101AE000DFF801460F980FF025F80F9008E0704BD3
:101AF00058880FF0D5F801460F980FF01BF80F909B
:101B00006D4CD4F84C543046D4F850140FF014F8FF
:101B1000014630460FF0CCF906460F9829460FF0E3
:101B200009F8014630460FF00FF9014628460FF03C
:101B300003F80646C4F84C04D4F8F8720D9810F077
:101B400053F9D4F85454297803F0C2F93844C4F84E
:101B5000F802D4F8FC720E9810F046F9297803F0D8
:101B6000B7F93844C4F8FC02D4F80073304610F0DA
:101B70003BF9697803F0ACF93844C4F80003514BE1
:101B80001A68049D2A441A60D4F804330133C4F857
:101B9000043307E0484B0022A3F8D423A3F8D6234C
:101BA000A3F8D823444BB3F86C23A3F85824B3F814
:101BB0006E23A3F85A24029E012E10D1B3F95E14AD
:101BC000B3F9702302EB41023F4981FB0271A1EBA3
:101BD000E27292B2A3F85C24A3F85E2404E0364BD0
:101BE000B3F87023A3F85C240BF056FC374B186055
:101BF000314CD4F86434C31AA4F86034C4F86404D3
:101C000004F01CFF012384F89C31D4F8103113F444
:101C1000801F5DD0B4F88C4104F080039BB2002B90
:101C200040F0AA80264B1B7813F0040F23D0224BE0
:101C300093F868341BB1204B93F8693463B11E4BA1
:101C40004FF0000EC3F86CE4002283F868240120F2
:101C50001749087483F86924174DD5F88831181D81
:101C600019780BF04FFA44F08004A5F88C41012359
:101C700085F8703480E0104BD3F86C0400210FF02D
:101C8000F7F9002878D104F0AFF90EF091F80A4B7B
:101C90000020C3F86C04002283F868240122044B5E
:101CA0001A7469E0AFF30080399D52A246DF913F7C
:101CB000000000200400002070010020BD378635A0
:101CC0003022002028220020565555552022002081
:101CD000914BB3F88C3103F080039BB2002B3ED0C4
:101CE0008D4B93F86844631EDBB2012B22D88A4ED9
:101CF000D6F8745496F878742F44D6F8800487493F
:101D00000FF022F80FF00CFAB872D6F88404844968
:101D10000FF01AF80FF004FA387528780EF0C0FFAB
:101D200001460EF009FF0FF0FBF9A870AB7A2B7398
:101D30002B7DAB75032C07D10022774B83F86824E9
:101D40000122784B1A7403E0764B1A7C01321A7424
:101D5000714BB3F88C2122F08002A3F88C21724BD6
:101D60001B7813F0040F07D16B4B93F870341BB141
:101D70000122694B83F86924674BD3F8745115F03D
:101D8000080F47D0B3F8B03103F1450292B28A2A66
:101D90003BD8614AB2F88C2102F0040292B2002AC8
:101DA00033D05D4AB2F87811B2F89821891A89B215
:101DB0008AB210B210F1B30FBCBF01F5B47292B287
:101DC00011B2B329C4BFA2F5B47292B2574991F8C7
:101DD000EC00514991F8801111F0080F1AD041B26E
:101DE000494202FB01F24C4912B2D1F88801007B52
:101DF00000FB02F24E4880FB02401044D217C2EBB7
:101E000020129B1AA1F8B03104E0434BB3F87821BB
:101E1000A3F8982115F0140F00F0AC803E4BB3F8F6
:101E20008C3103F40273002B00F0A4803A4B93F83A
:101E3000803113F0100F0CD0374BD3F8B8213B4949
:101E400091F92501B3F8AE1100FB0212A3F8AE21FF
:101E500090E0314BD3F8883193F82021002A40D00C
:101E60002D4AB2F8B211B2F8A80102B293F81F31AC
:101E70000CB2A41A002CB8BF64429C4212DD264A60
:101E80000024C2F8B441012482F888448AB209B21D
:101E900000B28142C4BF5B429BB213441E4AA2F807
:101EA000B23167E01C4B93F888343BB11A4BD3F83E
:101EB000A411C3F8A011002183F88814164BD3F89D
:101EC000B8311A441949B1F8D030B1F8D2109A4259
:101ED00003DB8A42B4BF13460B460F4AA2F8B23165
:101EE00048E00D49B1F9A821B1F9B211891A81EA86
:101EF000E170A0EBE17093F81F3198421ADD064BB8
:101F000001EBD1714910C3F81C13012183F8891426
:101F100083F888141CE000BF7001002000007A44A0
:101F20009A99993F0000002030220020581C002080
:101F300089888888B44B93F888344BB1B24BD3F876
:101F4000A411C3F8A011002183F8891483F8881420
:101F5000AD4BD3F8B8111144AC4AB2F8D030B2F856
:101F6000D220994203DB9142B4BF0B461346A64AE6
:101F7000A2F8B231A44BD3F8884194F82461002E22
:101F80005BD0B3F88C3113F0030F56D09E4BB3F8EF
:101F9000B2710297D3F82494D3F82884D3F82C7420
:101FA000384639460EF0D0FE8246484649460EF085
:101FB000CBFE8146404641460EF0C6FE01464846ED
:101FC0000EF0BAFD8046404651460EF0B5FD10F0C9
:101FD00061F9014638460EF06BFF07468C490FF059
:101FE0005BF820BB38460FF07BFF874BD3F88C148F
:101FF0000EF0AAFE0FF0F8FEB0F5617FA8BF4FF417
:1020000061700EF0ABFA7EA3D3E900230EF036FC2C
:102010000EF03CFD0FF026FF074630460EF040FE66
:1020200039460EF091FE0FF0DFFE80B200E0002096
:10203000029A0244744BA3F8B22115F0200F0DD080
:10204000714BB3F88C3103F030033BB16E4B93F816
:10205000803113F0010F01D004F0EAF96D4B1D68D7
:10206000201D04F15001694BB3F8F62004F15C0324
:10207000A847654B93F89034013B142B00F2ED8197
:10208000DFE813F04200EB01EB0115005300EB0118
:10209000EB012301EB01EB01EB01EB01EB0179001B
:1020A000EB01EB01EB01EB01EB019C01BD01042015
:1020B00002210BF019FE544CB4F8986400FB06F0B2
:1020C00087B2042001210BF00FFEB4F8965400FBF8
:1020D000057087B204200BF017FE4F4C3844208166
:1020E000052002210BF000FE00FB06F086B2052061
:1020F00001210BF0F9FD00FB056085B205200BF016
:1021000003FE28446081A8E1052001210BF0ECFDCD
:102110003D4BB3F8983400FB03F084B205200BF07C
:10212000F3FD20443C4B588197E1374CD4F89C7424
:1021300000200BF0E9FD384D97F90630B4F9F22292
:1021400002FB03F3354E86FB0312DB17C3EB2213AE
:102150001844288001200BF0D7FD97F90E30B4F910
:10216000F02202FB03F386FB0326DB17C3EB2613E7
:102170001844688071E12A4B1B7813F0040F06D1D4
:10218000214BD3F8A0349A88234BDA810EE01E4B02
:10219000B3F9B221D3F8A0140B8849889A4203DB23
:1021A0009142B4BF0B4613461B4AD3811A4BDA89BE
:1021B0001C4B1A80144BD3F8A4341C78002C4BD041
:1021C00002200BF0A1FD104BD3F89C24B2F9103083
:1021D000518A984203DB0BB29842B8BF03460A4DBE
:1021E000D5F8A8144989CB1A98B2B5F8AC3406B220
:1021F0001DB2AE4218DD23440348A0F8AC341BE006
:10220000A2EB0FE5DD16964070010020581C00205F
:102210008FC2753CCC000020B80000201F85EB5118
:1022200030220020401C002000B21DB2A84203DA78
:102230001B1BBB48A0F8AC3492F91630B84AB2F96F
:10224000AC2402FB03F3B74A82FB0342DB17C3EB68
:1022500062131944B44B9980B14BB3F88C3103F439
:1022600080739BB263B1AE4AB2F8AC11AE4BD98069
:102270001981B2F8B0115981B2F8AE219A815DE2AC
:10228000A74AB2F89414A84BD9801981B2F89814CF
:102290005981B2F896249A8150E208EBC40393F96D
:1022A0000630B5F9062002FB03F387FB03E6DB17D4
:1022B000C3EB6616EE8020460BF026FD3044E88026
:1022C00001340235072CE8D1C7E0984B1B7813F096
:1022D000040F06D1924BD3F8A0349A88924BDA813E
:1022E0000EE08F4BB3F9B221D3F8A0140B884988C4
:1022F0009A4203DB9142B4BF0B4613468A4AD3810C
:10230000894BDA898A4B1A80854BB3F88C3103F4F8
:1023100080739BB213B3032001210BF0E5FC804CCA
:10232000B4F8AE6100FB06F087B2032002210BF087
:10233000DBFCB4F8AC517C4C00FB0570E080042061
:1023400001210BF0D1FC00FB06F086B20420022133
:102350000BF0CAFC00FB0560208121E00320012175
:102360000BF0C2FC6E4CB4F8966400FB06F087B22A
:10237000032002210BF0B8FCB4F894546A4C00FB23
:102380000570E080042001210BF0AEFC00FB06F09C
:1023900086B2042002210BF0A7FC00FB056020811F
:1023A00003200BF0B1FC604CE3881844E08004206B
:1023B0000BF0AAFC2389184420814EE0042001215F
:1023C0000BF092FC564DB5F8963400FB03F086B244
:1023D000554C268104200BF097FC304420810520C9
:1023E00001210BF081FCB5F8943400FB03F085B2B9
:1023F000658105200BF088FC284460812DE0484B66
:10240000B3F898A44B4D03244FF002094FF0010894
:102410001F46204649460BF067FC00FB0AF086B2D7
:10242000204641460BF060FCC4F1060323F0010393
:102430003B44B3F8943400FB036086B22E80204600
:102440000BF062FC304425F8020B0134072CE0D17C
:10245000334BB3F8B221364B1A80374B9B6813F0DD
:10246000200F00F0728100200BF04EFC05462E4C30
:10247000208001200BF048FC6080294BD3F81031FC
:1024800013F0800F00F06181254BD3F8B0341B7836
:1024900013F0020F24D0224BD3F89C4494F90E2061
:1024A000B3F9F01201FB02F21E4981FB0276D2174A
:1024B000C2EB261292B294F906406442B3F9F232AA
:1024C00003FB04F381FB03E1DB17C3EB211189B2AA
:1024D000154B541A25441D800A441044588034E199
:1024E0000F4BD3F89C44104A94F90610B3F9F262EA
:1024F00006FB01F60B4981FB06E7F617C6EB27162C
:102500003544158094F90E40B3F9F03203FB04F31F
:1025100081FB0341DB17C3EB21131844508014E106
:10252000700100201F85EB51B800002030220020F0
:10253000401C0020BE000020581C0020B1F9020001
:10254000E25EE5186D88904203DB2AB28242A8BFA2
:10255000024621F8022F0833402BEFD17E4BD3F8EF
:10256000B434002B64D07C4B93F89034013B142B93
:1025700057D8DFE803F01556560B3756562D5656EA
:102580005656564456565656563A4400734C0020FA
:10259000218903F08FFA0120618903F08BFA47E06B
:1025A0006D4BD3F8B8345B782BB100206B4B598955
:1025B00003F080FA3CE06A4B1B7813F0040F4FF0F5
:1025C00000001ABF654B5989014603F073FA2FE0EA
:1025D000624C0020E18803F06DFA0120218903F0AC
:1025E00069FA25E00BF0ACFB22E05C4C002021896D
:1025F00003F060FA0120618903F05CFA18E0574C9F
:102600000020E18803F056FA0120218903F052FAF4
:102610000220618903F04EFA0320A18903F04AFAEF
:1026200006E0504B9B6813F0200F01D00BF088FBA5
:102630000BF058FB4C4B1B78002B7DF46EAD494BD7
:102640009B6813F4806F3DF468AD0CF087F9FDF7DB
:1026500064BD464B1B68FDF75ABE444B1B68FDF733
:102660005DBE3D4B0022C3F89021C3F89421C3F80E
:10267000BC24C3F8C024C3F8C4240026C3F8C8642B
:10268000C3F8CC64C3F8D0641746FDF73DBF0123FF
:1026900002E0022300E00323DCB2621E314B83F828
:1026A000C42503F0A1FC07F0F1FC022028212246FA
:1026B00009F0A2FDFEF737B82D4A1278002A7DF402
:1026C000F5AFFDF7FEBF244CD4F88831BDF83410C7
:1026D000B3F85C200A44A3F85C20BDF83610B3F8C8
:1026E0005E200A44A3F85E2003F07EFC0DF060FB40
:1026F000002384F87131FEF716B8174BD3F8104158
:10270000FEF7E0B815F0100F3EF401AEFEF780B909
:102710004FF0FF32174B1A600F4BD3F8F432F61A12
:10272000FEF78DBB0C4B93F88934002B7EF4BBACC9
:10273000FEF794BC00230849FEF7BABE064BD3F857
:102740009C84064D03240C4FA7E5034BD3F89C440F
:102750000A490023F2E600BF70010020B800002003
:1027600030220020581C00202E2200202022002091
:1027700000000020C80000201F85EB51B60000209B
:102780002DE9F04F9BB0894B894A1A6000225A60AC
:1027900002F0BEFB18B908F065F803F025FC07F05D
:1027A00075FC844B997B00230493059306934FF4A7
:1027B000E0130793804B1A6842F480321A609A69DA
:1027C00042F010029A611A46136803F4003305932D
:1027D000049B01330493059B1BB9049BB3F5A06FC5
:1027E000F2D1754B1B6813F4003F02D0022306930D
:1027F0001DE0714B1A6842F001021A600023049335
:102800006D4A136803F002030593049B013304939C
:10281000059B1BB9049BB3F5A06FF2D1664B1B68F7
:1028200013F0020F02D00123069300E0FEE7634B92
:102830001A6842F010021A601A6822F003021A6045
:102840001A6842F002021A60A3F580535A685A606F
:102850005A685A605A6842F480625A60584A10684E
:1028600020F070401060574C57480460586820F4BE
:102870007C105860136843F000431360534BDA68D0
:1028800022F40042DA609B6813F4004F05D0504AEE
:102890004D4B1A604FF4801301E04FF4E01307939F
:1028A000069B012B19D0022B1CD171B1079BB3F5EC
:1028B000801F03D14FF4A013079306E0079BB3F5E5
:1028C000E01F04BF4FF4001307933B4B5968079A6E
:1028D0000A4342F480325A6004E0374B5A6842F4AB
:1028E00060125A60344B1A6842F080721A601A46BD
:1028F000136813F0007FFBD02F4B5A6822F00302BD
:102900005A605A6842F002025A601A46536803F04D
:102910000C03082BFAD10193274B5B6803F00C03DF
:10292000042B06D0082B09D023BB264A294B1A605A
:1029300023E0254B1A68274B1A601EE01E4B59688E
:102940005A68C1F38343023312F4803F05D1224A0F
:1029500002FB03F31F4A13600FE0174A526812F498
:10296000003F194A126818BF520802FB03F3194AC4
:10297000136002E0134A174B1A600F4B5A68C2F3F8
:102980000312114B1A4492F804A05FFA8AFA114A12
:10299000116821FA0AFAC2F800A01B68094A93429A
:1029A0001ED101220D4B1A7020E000BF60060020EE
:1029B00051DC0008581C002000100240002002409A
:1029C0000410014000127A001400002000100140A1
:1029D000001BB700D400002000093D003122002078
:1029E000A74A934202D10222A64B1A70DFF8DC926A
:1029F000A54BC9F80C30A54CA36943F00103A361B2
:102A0000636A43F080736362A36943F01C03A361AC
:102A100000278DF82A701AAD4FF6FF7325F8403D58
:102A20009B48294603F048F8DFF88C824046294647
:102A300003F042F89748294603F03EF8964B5A684F
:102A400042F000725A60284608F0E4FF934A0A9B5D
:102A5000A2FB03139B0C924EB360924AA2FB0A3274
:102A60009209013A904B5A60F02289F823209F6026
:102A700007221A6064200AF039FD8C4839469022FA
:102A80000EF04DFF4FF40073ADF8283010238DF891
:102A90002A3001238DF82B304046294603F00CF8EC
:102AA000E36943F00703E361A36943F4006343F080
:102AB0000C03A36106F10B0306F11A013A4603F871
:102AC000012F8B42FBD1764BFF221A775A779A77E8
:102AD000DA770AAC764B0FCB84E80F006B4B9A6920
:102AE00042F008029A619A6942F008029A61A3F5DD
:102AF000823308221A6110221A610A980BA902F087
:102B0000DBFF0C980DA902F0D7FF5E4B1B78012B61
:102B100001F24E8401F064BC00200AF015FD0AACFD
:102B2000644B93E8030084E80300584B9A6942F031
:102B300008029A610A980BA902F0BEFF0DF0A4F9F1
:102B40009F238DF8243000238DF825308DF8263012
:102B50008DF8273032200AF0C9FC4FF48052564BD2
:102B60005A61A3F554439B8905254FF47A7309A94B
:102B70002046FF26514A26E011B14C1C0F780AE08E
:102B80000C46374607E0591E89B21BB94B4803F083
:102B90001BF81AE00B46118911F0020FF3D0978150
:102BA00007E0591E89B21BB9444803F00DF80CE048
:102BB0000B46118911F0010FF3D09189C9B208B108
:102BC000017001302146013DD6D14FF480523A4B7D
:102BD0001A619DF829209DF82A301B0243EA02421F
:102BE0009DF82B301A43364B9A4217D0324C4FF493
:102BF00080556561314E3046F5210DF09DF9304626
:102C0000FF210DF099F98DF828002561702805D174
:102C100001F0ADBA03261B4B1E7006E0194B1E785F
:102C2000032E02D0012005F0F7FC264B986800F433
:102C30000065254A0021134643F8041B5160043304
:102C400043F8041B196002238DF826308DF82710F5
:102C50001023ADF82430042313700123937007234D
:102C6000D37010F4004F33D01223ADF82430134644
:102C700001221A715A719A710722DA71022428E02E
:102C8000001BB700312200200005FA0500100240A9
:102C900000080140001001400000014083DE1B439A
:102CA00060060020D34D621010E000E07C1A002086
:102CB0005440010864400108000C01400038004005
:102CC00015202000581C0020B002002000ED00E07C
:102CD0000124012E0FD9BDF8243043F02003ADF8B4
:102CE0002430604B05221A72621C5C7201219972B9
:102CF0000721D972D4B25C4809A908F0E9FE85B170
:102D00001AA9022321F8443D584808F0E1FE554B2A
:102D100009221A73621C5C73012199730721D9730C
:102D2000D4B2534B5A6942F001025A619A6942F493
:102D300000729A614F4808F097FF4F4B0A934F4B30
:102D40000B9300230C930D940E93022C28BF802329
:102D50000F934FF4807310934FF4806311932023EB
:102D600012934FF40053139300261496414D2846B6
:102D70000AA908F059FF2B6843F001032B60404B70
:102D80005A6822F4702222F48072012C94BF002130
:102D9000012142EA01225A6099683A4A0A4042F403
:102DA000602242F002029A60DA6A22F47002611E26
:102DB000C9B242EA0152DA6230460122294F1F2489
:102DC000072600EB070E9EF8021000296BD0C15DAC
:102DD000551CEDB29EF803C0092910D9D3F80C8018
:102DE000A1F10A0E0EEB4E0E06FA0EF928EA0908BA
:102DF0000CFA0EFE48EA0E0EC3F80CE00DE0D3F814
:102E0000108001EB410E06FA0EF928EA09080CFAC7
:102E10000EFE48EA0E0EC3F810E0062A0FD8D3F8CB
:102E200034E0013A02EB820204FA02FC2EEA0C0EB4
:102E300001FA02F24EEA02025A632A4633E00C2AF1
:102E400022D8D3F830E0073A02EB820204FA02FCFF
:102E50002EEA0C0E01FA02F24EEA02021A632A4628
:102E600021E000BFB002002000080140000C01403A
:102E700000100240080002404C240140C002002023
:102E800000240140FDF7F1FFD3F82CE00D3A02EBEE
:102E9000820204FA02FC2EEA0C0E01FA02F24EEA59
:102EA0000202DA622A46043010288AD1B64B9A68A8
:102EB00042F480729A609A6842F001029A609A68BD
:102EC00042F008029A601A46936813F0080FFBD18B
:102ED000AD4B9A6842F004029A601A46936813F068
:102EE000040FFBD1A84B9A6842F4A0029A60A74B4A
:102EF000B3F8E600002841F07181B3F9E830002B07
:102F000041F06C81A14BB3F9EA30002B41F06681AE
:102F10009E4B9B6813F4003F64D014200AF0E6FA3D
:102F2000AE2008F0FBFAA42008F0F8FA32200AF0EC
:102F3000DDFA202008F0F2FA022008F0EFFAA120D2
:102F400008F0ECFAC82008F0E9FAA62008F0E6FA42
:102F5000812008F0E3FAAF2008F0E0FA14200AF02C
:102F6000C5FAAF2008F0DAFA14200AF0BFFAA6205A
:102F700008F0D4FAAE2008F0D1FA202008F0CEFAFA
:102F8000002008F0CBFAB02008F0C8FA402008F082
:102F9000C5FA002008F0C2FA102008F0BFFA4FF47A
:102FA00080640025284608F087FA013CA4B2002C72
:102FB000F8D1812008F0B2FAC82008F0AFFAAF20AB
:102FC00008F0ACFA724C734B236204F12400002128
:102FD0000C220EF0A4FC07F0B3FA0AF05DFA6E4B77
:102FE0000344E3626D4B1A6842F00E021A60674BAD
:102FF000B3F8EE4093F8ED70694B1B68B3F85AB024
:103000000022684B1A70684B1D78012D674B03F145
:103010000C0298BF1A465E4B1A630BF087FC0090B7
:10302000002801F0A881624B624A1A60624A5A6025
:10303000624ADA60BB2C04D90122614B1A7501F097
:1030400068B9612C04D902225D4B1A7501F061B98F
:10305000292C04D903225A4B1A7501F05AB9132CA2
:1030600004D90422564B1A7501F053B9092C8CBFB0
:1030700005220622524B1A7501F04BB9374689F8E2
:1030800000A0092F00F2F480DFE817F01100110012
:103090003400BB00DB00F200F200F200F2000A0094
:1030A0003E4B1A6822F002021A6001F041B9012D6C
:1030B00027D81AAB03F840AD53203146012205F062
:1030C000B1FB002801F031819DF82830E52B41F05B
:1030D0002C812F4B83F834603A4B23603A4B63606A
:1030E000042389F80030012388F800309F4241F022
:1030F0001C81C8E0022D354BA3F10C0238BF1346EA
:1031000000E0324B224A13630BF010FC002878D009
:10311000682006210A460AAB05F084FB9DF82D20A5
:1031200002F001029DF82B3003F001035B0043EA3B
:1031300082029DF8293003F0010313430FD0012BC5
:1031400003D1134B83F8356046E0022B04D10122F2
:103150000F4B83F835203FE005200AF0FDF9682089
:103160000C21012209AB05F05DFB9DF8243013F022
:103170000F0302D105200AF0EFF9042B28D1044BEC
:1031800083F8356028E000BF00240140581C00206F
:1031900060060020661D0020404B4C00E402002029
:1031A000F8020020E204002031220020DC3F010868
:1031B000CC04002081AC000805E1000890C1793DF5
:1031C0001400002031E40008F1E10008E83F0108A4
:1031D0000122CB4B83F83520CA4B2360CA4B636076
:1031E000C74B93F83530002B14BF6E236F23237227
:1031F000022388F80030012389F80030022F01F003
:103200009780012D1DD81AAB03F840AD1C200D216D
:10321000012205F007FBA0B19DF828302A2B01D030
:103220001A2B0ED1B94A2260B94A6260B44A82F8B8
:103230003630022389F80030032388F800309F429B
:1032400021D01AAB03F840AD18203146012205F019
:10325000E9FA68B19DF82830FB2B09D1AD4B23600A
:10326000AD4B6360042388F80030012389F80030F7
:1032700098F800303BB9002F7FF400AFA74B1A68D5
:1032800022F002021A60012D06D1A54805F072FB5A
:103290004FF40052A34B5A610A200AF027F9772015
:1032A000A021012209AB05F0BDFA002801F05B80E6
:1032B00077201E2101220BF007F84FF42F600AF04F
:1032C00009F9002425468E4E8DF828508DF8295096
:1032D000A4F160017720C9B202220AAB05F0A2FA7C
:1032E0009DF828209DF8293043EA022206F1380390
:1032F000E2520234102CE7D1383BB3F8465005F0C7
:103300000F0405F47F45A3F8465001200023194619
:103310007B4F019E21F001023A44128F002A18BF10
:10332000002011F0010F1ABFD2B2534083EA1223DA
:1033300001F005B813F4004F18BF83F4C0535B00CD
:10334000013AF7D101311029E4D125436C4AA2F8A2
:103350004650002841F00780C3F303339C4200F03D
:10336000F18701F000B86E4805F004FB4FF480448B
:10337000ADF8244004238DF826306A4D284609A96B
:1033800002F09AFB4FF400532B61674B5A6922F409
:1033900070625A615A6942F400725A610A940023B9
:1033A0008DF82C3008238DF82D3001248DF82E4017
:1033B0000AA808F0F1FB28238DF820300F238DF8A0
:1033C00021308DF822308DF8234008A808F0DCFC6D
:1033D00014200AF08BF87720D021224609AB05F0A3
:1033E00021FA9DF82430464A82F85F300321A2F882
:1033F0006810552B40F0A6807720D121224609ABDA
:1034000005F010FA9DF824303D4C03F00F0284F8CB
:1034100060201B0984F861307720AA2116220AABAC
:1034200005F000FA9DF828209DF8293043EA022390
:10343000A4F848309DF82A209DF82B3043EA022357
:10344000A4F84A309DF82C209DF82D3043EA022341
:10345000A4F84C309DF82E209DF82F3043EA02232B
:10346000A4F84E309DF830209DF8313043EA022315
:10347000A4F850309DF832209DF8333043EA0223FF
:10348000A4F852309DF834209DF8353043EA0223E9
:10349000A4F854309DF836209DF8373043EA0223D3
:1034A000A4F856309DF838209DF8393043EA0223BD
:1034B000A4F858309DF83A209DF83B3043EA0223A7
:1034C000A4F85A309DF83C209DF83D3043EA022391
:1034D000A4F85C30012384F86C30144B41F2707214
:1034E0001A8046F678125A80114A5A60114A9A6038
:1034F000114ADA60114A1A61114A5A612BE000BF81
:103500006006002035890008C5E0000879E300085E
:1035100045E100080DE40008A9E10008E4020020EC
:103520006C400108001001400000014058030020D9
:1035300069AC000889E0000841AC000835E00008EB
:10354000914900084FF40052B94B5A61B94B1A68BF
:1035500022F004021A60B84B93F8E2300BB1B74A7C
:103560001370B54B93F8E3300BB1B54A1370B24BFF
:1035700093F8E4300BB1B34A1370AE4B1B6813F0F1
:10358000020F02D0B04B1B689847B04B1B6898479E
:103590001AAB002203F8402D1E200A21012205F05B
:1035A00041F938B19DF82830482B03D10322A54BAF
:1035B0001A7004E09F4B1A6822F008021A609D4BB3
:1035C0001B6813F0080F1BD00FFA8BFB64259BFBC5
:1035D000F5F420460DF064FB064605FB14B000B27E
:1035E0000DF05EFB9A490DF0AFFB014630460DF041
:1035F000A3FA98490DF0A8FB974B186700F0BEBEE0
:103600000022954B1A6700F0B9BEE36883F01003FF
:10361000E360E36883F00803E360284609F066FF8F
:10362000384609F091FF284609F060FF002009F0B4
:103630008BFF731E13F0FF06E7D1884B08221A6137
:1036400010221A61864B1B6893F90C000CF086FF60
:1036500073A3D3E900230CF0E7FF0DF017FA0EF087
:103660008DFB05467F4C20880DF01AFB29460DF096
:103670006BFB0EF0B9FB7C4B188020880DF010FB23
:1036800001467A480DF014FC79490DF011FC794B94
:1036900018606E4BD8680CF073FF61A3D3E9002368
:1036A0000CF0C2FF60A3D3E900230CF0BDFF0DF0C6
:1036B000EDF9714B1860604B5A7970490A7003F14B
:1036C0001000654948676E4901EBC20292F8A510E7
:1036D0006C4A11609B6813F0200F02D00122694BE5
:1036E0001A60544B1B6813F0080F00F01881102269
:1036F0005A4B5A61644B1B78022B34BF4FF48051F4
:103700004FF4804134BF08241446604A9069204336
:103710009061ADF8241002228DF8272004228DF844
:103720002620434A4D48012B88BF104609A902F0C4
:10373000C3F9322009F0DAFE1E20002111220AF01E
:10374000C3FD1E20012160220AF0BEFD642009F0A5
:10375000CDFE0AA80BF0AEF80A270024254626461F
:103760004FF01E0ADFF82891DFF8F0805046022162
:1037700001220AF0A9FD322009F0B8FE0AA80BF0D8
:1037800099F8BDF928201644BDF92A100D44BDF959
:103790002C301C449142B8BF0A469A42B8BF134627
:1037A0004B4509DBD8F80C3083F01003C8F80C3017
:1037B000013FDBD1012700E000271E20002112225B
:1037C0000AF082FD4FF00A084FF01E0BDFF8C0A090
:1037D000DFF888905846022101220AF075FD322058
:1037E00009F084FE0AA80BF065F8BDF92820B61A86
:1037F000BDF92A106D1ABDF92C30E41A9142B8BFF8
:103800000A469A42B8BF1346534543DBD9F80C30F9
:1038100083F01003C9F80C30B8F10108DAD13AE0AE
:10382000399D52A246DF913F000000A0F7C6B03E8E
:1038300000100140E4020020581C0020E204002097
:103840004A0500202F22002038050020CC0400204B
:103850008988883C0000204160060020000C01405F
:103860007C05002002000020A00500200AE81C4181
:1038700000401C4678040020780500200006002047
:10388000DC3F010824060020312200200010024005
:1038900001F0FFFF0027DFF8488330460DF000FA03
:1038A0000146BE480DF004FB20F00040C8F81800A7
:1038B00028460DF0F5F90146B8480DF0F9FA20F068
:1038C0000040C8F81C0020460DF0EAF90146B44853
:1038D0000DF0EEFA20F00040C8F820001E20002174
:1038E00070220AF0F1FC1E20012120220AF0ECFCDB
:1038F0001E20022100220AF0E7FC642009F0F6FDF8
:103900003FB94FF07E52C8F81820C8F81C20C8F8FC
:1039100020201022A34B1A610122A34B1A704023CE
:10392000ADF8283010238DF82A3002238DF82B3083
:103930009C480AA902F0C0F800229C4B1A604FF084
:10394000FF329B4B9A679B4B03F180019A4A43F8E5
:10395000042F8B42FBD1964C0025E567F022974B54
:1039600083F82220C4F8A050C4F8C850C4F8C4504A
:10397000934BC4F8CC30143BC4F8D030914E304651
:103980000E21102205F0EAFA304629462A4605F0B3
:10399000F3F98D4BC4F8D43004F1D8008B4902F010
:1039A000D7F8304604F1D4012A4607F00BFA8848CC
:1039B000C4F8E00009F0CCFC04F1E400FF21162279
:1039C0000DF0ADFF012384F8FA3084F8E450814B08
:1039D0001B6813F0020F08D0012184F8E5100321C1
:1039E00084F8FA10022184F8E61013F0040F09D0CD
:1039F0006F4A92F8FA10481C82F8FA000A44032130
:103A000082F8E41013F00A0F15D0694B93F8FA20EE
:103A10009918042081F8E400511CC9B2194405200A
:103A200081F8E400D11C83F8FA100232D2B21344B8
:103A3000062283F8E420684B9B6813F0200F09D01E
:103A40005B4A92F8FA10481C82F8FA000A440721EF
:103A500082F8E41013F0800F0FD0554A92F8FA1054
:103A60005018092480F8E440881C82F8FA000131DB
:103A7000C9B20A440A2182F8E410574A5279082A46
:103A800001D00E2A09D14A4A92F8FA10481C82F84D
:103A9000FA000A440B2182F8E410454991F8FA2013
:103AA000501CC0B281F8FA0011440C2481F8E440A3
:103AB00013F0040F07D03E49023281F8FA20014486
:103AC000102281F8E4203A4991F8FA20501CC0B243
:103AD00081F8FA001144122481F8E4403E4991F83B
:103AE000411100290CBF002103F0010139B1304917
:103AF000023281F8FA200144132281F8E4202C4993
:103B000091F8FA20501CC0B281F8FA001144142434
:103B100081F8E44013F4007F07D0254B023283F88C
:103B2000FA200344152283F8E4202C48002198222F
:103B30000DF0F5FE0027DFF8A890DFF89CB009F142
:103B40002C05DBF82C31C9F830304FF00008012487
:103B50004FF4964A2046294604F032FB06460028D8
:103B600040F01784B8F1000F40F01884C9F830A075
:103B7000A046EFE707F101085FFA88F84C2202FB44
:103B800007F7164C3C44204600210DF0C8FE134AAE
:103B9000D651012384F84A304746D2E700406F46A9
:103BA00001C05E46000C01404E030020B41B002003
:103BB00060060020B41B00203800002000ED00E06B
:103BC000382C0140B8590108E1AF0008FDC60008D3
:103BD000801D0020E4020020581C00205C0700200B
:103BE00014000020B649B74BD3F83031CB63022024
:103BF000383104F0E5FAB44BC3F89401002315936F
:103C0000169317931893ADF86430AE4B5B790E2B77
:103C100001D0082B02D101238DF85D30A94B9B68A0
:103C200013F4005F25D10025A84C04F178072E4637
:103C300004F11803E85C022809D004F128031946AE
:103C40001A78824207D01033BB42F8D102E004F167
:103C5000180100E0314602F0F1FA83681B78012B6D
:103C600004D01035602DE3D10023009300998DF826
:103C70005710944B9A68C2F340018DF85810C2F364
:103C800080118DF85910C2F340318DF85410C2F3F1
:103C9000C0318DF85610C2F300418DF85A1002F071
:103CA00001018DF855108A490968003118BF0121BA
:103CB0008DF85B108749096891F87011C1F3800194
:103CC0008DF85C10B3F8DE10ADF85E10B3F8E0309C
:103CD000ADF860304FF47A73ADF8623012F4805F63
:103CE00004D0784BB3F8DA30ADF86230B1F5FA7F32
:103CF00084BF0023ADF862307248B0F81811ADF8F7
:103D00006410714B90F8204183F8984100F587705A
:103D1000C3F89C01704CC3F8A0410024A3F8A6414D
:103D200083F8A84103F5D0746C4D2C60C3F8AC4106
:103D30006B4B18606B4B03F1240023F8021F834286
:103D4000FBD16949694B196012F0080F7ED05D4BB9
:103D500093F81631042B70D8DFE803F003032F4DDE
:103D60005E007BB1012B1AD1574B032283F8B0219F
:103D7000072283F8B121012283F8B2210C2283F8B3
:103D8000B4210CE0504B022283F8B021032283F8C7
:103D9000B121002283F8B221072283F8B421082040
:103DA000534904F00DFA484BC3F8B801514AC3F81F
:103DB000BC21031C18BF012340E008204E4904F039
:103DC000FFF9414BC3F8C0013E4BB3F81811A1F500
:103DD000777149000022494BD1500432302AFBD17F
:103DE000394B474AC3F8BC210C2283F8B421031C89
:103DF00018BF012322E00820424904F0E1F9324AC9
:103E0000C2F8C401404BC2F8BC31102382F8B4316F
:103E1000031C18BF012311E008203C4904F0D0F92D
:103E2000294AC2F8C8013A4BC2F8BC31082382F8CB
:103E3000B431031C18BF012300E0002333B908206C
:103E400001F056F80022204BC3F8BC211D4B9B68A3
:103E500013F4804F06D01C4A082182F8B4112D4972
:103E6000C2F8BC1103F0010203F4005142F2010058
:103E700003420DD0284C1448C0F8BC4119B10820A9
:103E8000114981F8B4011AB10C210F4A82F8B4111A
:103E90000D4A92F8B411043982F8B51113F0800F6D
:103EA0007BD01E4BC2F8CC31D96800231C4A3BE0C2
:103EB0000133DBB2042B37D900221A4B5A703AE097
:103EC00014000020581C002060060020DC3F010880
:103ED00024060020F802002038410108DC020020FE
:103EE00074010020860200200008002074020020D7
:103EF0006041010879B500086C4101089801002073
:103F000045B600087841010835B60008844101082B
:103F100021B6000859B6000865B60008801D0020CB
:103F20008C3F01089804002002EB0310406888428F
:103F3000BED1924A5370924C924B2360002002F003
:103F400045FB914B1A688D4B9A6000225A6023689A
:103F50001B7893420CBF012203228C49874B58786F
:103F60008B4B03EB00135B684B600A70102004F06E
:103F700027F9884B186018B9802000F0B9FF02E0DB
:103F8000012002F023FB844B186800F5B972834BC3
:103F9000C3F8D021043001F01BFC814B9B6813F463
:103FA000007F0ED013F4005F14BF7E487E480BF0F4
:103FB00009FF7E4B1A6842F010021A6000227C4B07
:103FC0001A60774B9B6813F4806F76D0042007F05B
:103FD000EFFF0146042002F031F920B143681B7A5B
:103FE00003F0010300E000236C4A82F8D4316C4BEB
:103FF0009B6813F4806F0AD0042007F0D9FF0146B4
:10400000042002F01BF9003018BF012000E000205E
:10401000624B83F8D501D3F8D8311A78032A4AD8ED
:10402000DFE802F002062D315C4AC2F8DC3142E0E2
:104030005A4CC4F8E0312C2704F5F27000213A46BE
:104040000DF06DFC7C2684F8E4618E2384F8E53164
:10405000E02384F8E7317D2584F80F5204F50470DD
:1040600000213A460DF05BFC84F810628A2384F844
:104070001132A02384F8133284F83B521BE0474AE4
:10408000C2F83C3217E0454AC2F8403200243E4DA7
:10409000286880B2A1B200F0A9FF01340B2CF7D13F
:1040A0003E4B0022C3F84422C3F848224149C3F8DA
:1040B000541283F8502204F02FF909F0EDF93E4B29
:1040C0001860374B5B79052B03D14FF4C8723B4B1B
:1040D0001A804FF47A723A4B1A80C822394B1A80F0
:1040E000394B1A7842F008021A70384B1A7822F0CD
:1040F00002021A702A4B9B6813F0020F29D0344A2F
:10410000264BC3F858222824019D02F059FC204672
:1041100009F0ECF9013DF8D1204B93F85C02204BFB
:1041200093F80511884208D34A000223824205D839
:1041300001330A44082BF9D100E00123DBB2254A00
:104140001370174A92F8062102FB03F3134AA2F8F0
:104150005E32134B9B6813F4003F00F059810F4B04
:1041600093F8272042F0010283F8272050E11A4BF0
:104170001B78022B7EF452ADFEF74CBD9804002054
:10418000940400207E1D00203C1C0020B804002068
:104190008C3F010890040020F802002060060020F7
:1041A000581C0020904101089C410108E4020020B5
:1041B000C800002009A00008D4050020EE0200205D
:1041C0002C22002024220020F00200203022002097
:1041D0005C1D0020D0000020312200200022904BE6
:1041E00083F8442000B20CF0B9F98BA3D3E9002383
:1041F0000CF01AFA0CF04AFC06468A4CB4F9E800B6
:104200000CF0ACF984A3D3E900230CF00DFA0CF008
:104210003DFC0546B4F9EA000CF0A0F97EA3D3E911
:1042200000230CF001FA0CF031FC044630460DF08E
:10423000A5FD074630460DF015FE804628460DF0D8
:104240009DFD064628460DF00DFE054620460DF064
:1042500095FD824620460DF005FE814638465146C2
:104260000CF072FD0090384649460CF06DFD02904E
:10427000404651460CF068FD0390404649460CF01C
:1042800063FD8346684C304651460CF05DFDC4F832
:10429000600206F1004148460CF056FDC4F8640285
:1042A000C4F86852284603990CF04EFD0146029866
:1042B0000CF042FCC4F86C02284659460CF044FD50
:1042C000014600980CF036FCC4F8700208F1004179
:1042D00030460CF039FDC4F87402284600990CF001
:1042E00033FD014658460CF025FCC4F878022846F8
:1042F00002990CF029FD014603980CF01DFCC4F84E
:104300007C02384631460CF01FFDC4F88002FEF7EF
:10431000FFBD0122454B1A70DFF84C910026B246D2
:10432000DFF84881424CFEF7AABE424BFEF7EABED8
:1043300098F80030002B3EF4A1AEFEF7A4BF324641
:10434000FEF7F8BF3C4B42F210721A805A803B4A8B
:104350005A603B4A9A603B4ADA603B4A1A613B4AE0
:104360005A61FFF7F8B8304B93F86C30002B3EF4ED
:10437000FAAFFFF7F0B8032009F0EEF8344B102243
:104380005A6108221A610A261C4619250127FFF7DF
:104390003CB9012F3FF6D5ABFFF7ECBB022009F08B
:1043A00011F8214BC3F8940100287FF427AC19E4DD
:1043B0004FF48053ADF8283010238DF82A300223B3
:1043C0008DF82B30234B9A6942F004029A612248FF
:1043D0000AA901F071FB214A214B1A60FEF79CBB30
:1043E0004FF48053ADF8283014238DF82A3002237F
:1043F0008DF82B30174B9A6942F004029A611648E7
:104400000AA901F059FB174A154B1A60FEF784BB45
:104410001BB0BDE8F08F00BF399D52A246DF913F2F
:1044200014000020581C002060060020E204002038
:1044300038050020DC3F01085803002031AC00089B
:1044400015E0000821AC000825E000080948000834
:10445000000C01400010024000080140FDD100089E
:104460003422002019D200084A0500203222002000
:104470002DE9F001884228BF012404D2012400263E
:104480004FF030080AE001FB04F4B0FBF4F58D4274
:10449000F9D21F46ECB1F2E71F463B46B0FBF4F5FC
:1044A00004FB1500B4FBF1F41EB9002D01DC002C57
:1044B000F2D15F1C092D06DD002A0CBF4FF0570C0E
:1044C0004FF0370C00E0C44665441D700136002CE7
:1044D000E3D100233B70BDE8F00170472DE9F00106
:1044E000884228BF012404D2012400264FF030085E
:1044F0000AE001FB04F4B0FBF4F58D42F9D21F464B
:10450000ECB1F2E71F463B46B0FBF4F504FB1500A7
:10451000B4FBF1F41EB9002D01DC002CF2D15F1CBC
:10452000092D06DD002A0CBF4FF0570C4FF0370C59
:1045300000E0C44665441D700136002CE3D1002321
:104540003B70BDE8F001704738B505461446B0FB36
:10455000F2F010B1FFF7F8FF0146B5FBF4F304FBEE
:104560001354034B1B5D084600F8013B38BD00BFE8
:10457000C859010803685A1C02601970704700BFCF
:104580002DE9F04105460E46069F002B0CBF4FF06B
:1045900020084FF030083B784BB1002A1CDD3B4629
:1045A000013A13F8010F10B1002AF9D114E0541E9A
:1045B000002A06DD28464146B047013CB4F1FF3FE2
:1045C000F8D1397851B13C462846B04714F8011F5C
:1045D0000029F9D1BDE8F0813978F4E7BDE8F08130
:1045E000F0B40478E4B10022134617462E2C03D110
:1045F0000133B9B1C418675402EB820255002A4650
:10460000C45CA4F13006F6B2092E9CBFA5F13002BD
:1046100012190E2B08D80133C45C002CE6D105E03A
:10462000002004E0104602E0002000E01046F0BC4C
:10463000704700BFF0B4384B1D6801786B185B7889
:1046400013F0040F12D000F10F0398425FD2431C05
:1046500000F1100601E0B3425BD01C4613F8011BC9
:104660006A18527812F0040FF5D100E00446231ABC
:10467000022B11DD421CA21A002305E01BB103EB43
:1046800083035B00DBB2013A10F8016B303E334428
:10469000DBB2022AF2DC00E00023A0420ED20022AC
:1046A00004E01AB102EB82025200D2B210F8016BA0
:1046B000303E3244D2B2A042F3D100E000222E2993
:1046C00015D101340420002101EB8101490089B298
:1046D0002678AF197F7817F0040F03D001343039F2
:1046E000314489B2013810F0FF00EDD100E0002123
:1046F0000A4800FB02F2642000FB01210848A0FBED
:104700000120084A02FB03F303EB900002E00020C3
:1047100000E00020F0BC70470001002040420F0084
:10472000ABAAAAAA8096980010B40346026B5AB1AD
:10473000C268016C541A4069005DC0B20139002999
:1047400008BF114619640AE0016A4269505CC0B2B0
:104750000131DA68B1FBF2F402FB14121A625DF85F
:10476000044B7047436B13B190F844007047826A62
:10477000436A9A4214BF002001207047036B3BB18B
:1047800059680369013B026C881A1840C0B270472F
:104790000369013BC169026A881A1840C0B27047B8
:1047A000426A806A824214BF00200120704700BF25
:1047B00010B4437913F0010F0ED0036AC2699A4214
:1047C0000CD04269D15C0133C268B3FBF2F402FB46
:1047D00014330362084602E0002000E000205DF888
:1047E000044B7047437913F0010F09D0C269036A83
:1047F000D21AC368B2FBF3F003FB1020C0B27047BB
:1048000000207047704700BF2DE9F00F84B003907F
:104810008C465B4E73895B4A1768A7EB03274FEA08
:10482000E779B288002545EA124514043289A2FBD3
:10483000070102FB0911C20942EA4162CB11A0182B
:1048400045EB0301CDE900017288002545EA524598
:10485000D403F288A7FB020102FB0911020A42EA13
:1048600001620B1214EB020A45EB030BB289A7FBA2
:10487000020102FB0911C20D42EA4122CB1512F5D9
:10488000FA6643F10007B6F5FA6F77F1000157DADF
:1048900002FB03F4A2FB020101EB44018D0045EA97
:1048A00090758400001941EB05014D104FEA30046A
:1048B000DDE90089B8EB040869EB0509CDE9008959
:1048C000840844EA81748D10BAEB040A6BEB050B83
:1048D0002D484FF0FF31864277EB010930DA40F680
:1048E000AC500021121843EB010302FB03F1A2FBC1
:1048F000022303EB4103544263EB4305E90041EA21
:104900005471E000801841EB0301DDE900452418F3
:1049100045EB0105CDE90045941843EB0305A900DB
:1049200041EA9471A000001941EB0501801841EBA8
:10493000030149104FEA3000BAEB000A6BEB010BA0
:10494000124B1A68A2FB0A0102FB0B11420D42EA4C
:10495000C1224B15DDE90089B2EB080263EB0903C4
:10496000D00B40EA4340039B03B11860BCF1000F39
:1049700001D0CCF8006004B0BDE8F00F704700BF74
:10498000980600209018002024FAFFFF94180020B9
:104990002DE9F001364B1C88364B5A89A41A1A8926
:1049A00002FB04F4E413B3F91250ED02B3F914203E
:1049B000224495FBF2F22244DA6102EB8206760091
:1049C00008363611A2F57A6202FB02F52D13B3F90F
:1049D0000EC00CFB05FCB3F9028008FB02F8B3F92A
:1049E0002040B3F9047007FB02F2B3F90C7007FB27
:1049F00005F52D1405EB62370237BF1007F50047A8
:104A0000DA8802FB07F7FF0B4FEAE82202EBEC2201
:104A1000B3F9003002EB8302A2400232164D2D683A
:104A2000A5EBA2024CF2503545FA04F404FB02F463
:104A3000002CA7BF6300B3FBF7F3B4FBF7F35B00F5
:104A40001A1202FB02F240F6DE3404FB02F20B4CB7
:104A500004FB03F4241404EB224202F6CF6203EBBE
:104A6000221300B1036001B10E60BDE8F001704790
:104A7000A0180020A80600209C18002043E3FFFF98
:104A800030B587B005460C4600230093019302938E
:104A900000210CF015FB20B1284636490CF04CF8EB
:104AA00003E0284633490CF045F833490CF04CF943
:104AB0000CF010FB054685EAE570A0EBE5700028D8
:104AC0000BDA2D238DF80C3040420DF10D010A2236
:104AD000FFF73AFD0023037005E003A90A22FFF760
:104AE00033FD00230370002DACBF20232D238DF850
:104AF000003003A80CF054FF01280BD130238DF8AF
:104B000001308DF802308DF80330684603A90CF0AF
:104B10002DFF14E0022809D130238DF801308DF8E3
:104B20000230684603A90CF021FF08E0032804BF07
:104B300030238DF80130684603A90CF017FF684652
:104B40000CF02EFF0338C5B2204669462A460CF009
:104B500051FF0023635520460CF022FF074B1B88B2
:104B60002352204600A929440CF000FF204607B03C
:104B700030BD00BF6F12033A00007A44F0590108BB
:104B80002DE9F843024610F8013B202BFAD0092BFF
:104B9000F8D02D2B02D10246554F04E02B2B08BF35
:104BA00001324FF07E571478A4F13003DBB2092BA9
:104BB0001AD8551C0026DFF83C81304641460CF0DF
:104BC000C3F80646A4F130000CF06AF801463046FE
:104BD0000BF0B2FF06462A4615F8014BA4F130034C
:104BE000DBB2092BE9D900E000262E2C24D1501C81
:104BF0005378A3F13001C9B209291CD8951C3D4C4A
:104C0000A046A3F130000CF04BF821460CF050F90F
:104C1000014630460BF090FF0646204641460CF018
:104C200093F804462A4615F8013BA3F13001C9B2B6
:104C30000929E6D900E00246137803F0DF03452B8B
:104C40004BD153782D2B03D102324FF0010805E0F0
:104C50002B2B14BF013202324FF000081378A3F15E
:104C60003001C9B209292FD8002404EB840403EBD6
:104C70004404303C12F8013FA3F13001C9B20929C4
:104C8000F3D9B4F59A7F28BF4FF49A74072C0FD943
:104C900025464FF07E51DFF86090084649460CF0FB
:104CA00053F80146083D072DF7D804F0070401E04A
:104CB0004FF07E5154B10F4D084629460CF044F890
:104CC0000146013CF8D101E04FF07E51B8F1000FF0
:104CD00005D030460CF0ECF804E04FF07E51304641
:104CE0000CF032F839460CF02FF8BDE8F88300BF1D
:104CF000000080BF0000204120BCBE4C2DE9F04FD9
:104D000087B08146884614461F460026D9E02529EB
:104D100003D001344846C047D3E06278302A02D03D
:104D20000234B24603E0A27803344FF0010AA2F144
:104D30003003DBB2092B21D8354605E005EB8505AC
:104D400003EB450514F8012BA2F13003DBB2092B6C
:104D500002D8A2F130030EE0A2F16103DBB2052B11
:104D600002D8A2F1570306E0A2F14103DBB2052B02
:104D700005D8A2F137030A2BE0D900E035466C2AAA
:104D800003BF2278013401233346632A00F0848074
:104D900008D8252A00F09280582A5AD0002A00F01C
:104DA00094808EE0732A7DD002D8642A22D088E0D5
:104DB000752A02D0782A4CD083E04BB107F1040B5E
:104DC00038680A21324603ABFFF788FB5F4608E0EC
:104DD00007F1040B38680A21324603ABFFF748FBA2
:104DE0005F4603AB0093484641462A465346FFF7C9
:104DF000C7FB66E093B107F1040B3868002806DAB8
:104E000040422D238DF80C300DF10D0300E003AB73
:104E10000A213246FFF762FB5F4611E007F1040BFF
:104E20003868002806DA40422D238DF80C300DF149
:104E30000D0300E003AB0A213246FFF719FB5F4682
:104E400003AB0093484641462A465346FFF798FB7A
:104E500037E063B107F1040B38681021582A14BFFA
:104E60000022012203ABFFF739FB5F460BE007F19D
:104E7000040B38681021582A14BF0022012203AB0A
:104E8000FFF7F6FA5F4603AB0093484641462A46D1
:104E90005346FFF775FB14E03D1D48463978C0477F
:104EA0002F460EE007F1040A3B680093484641464E
:104EB0002A463346FFF764FB574602E04846252161
:104EC000C047217800297FF422AF07B0BDE8F08FFA
:104ED00080EAE073A3EBE0738B4207DB002801DD7F
:104EE000401A7047002802DA0844704700207047D3
:104EF000024B9A6822EA000098607047581C002014
:104F0000024B9A6810439860704700BF581C0020FD
:104F1000134B1B78512B1AD1114B5B88B3F5B96F2A
:104F200017D10F4B1B79BE2B15D10D4B93F8C535FF
:104F3000EF2B12D100200A4B0A4913F8012B5040E5
:104F40008B42FAD1D0F1010038BF00207047002019
:104F5000704700207047002070470020704700BF56
:104F600000F80108C8FD010810B485B00091ADF843
:104F7000060010238DF80830BDF80630ADF8093072
:104F80000098CDF80B000DF107020DF10E00002383
:104F900012F8011F0B448242FAD133F0FF0205D010
:104FA000DAB202EB132333F0FF04F9D1DB438DF8BF
:104FB0000F300B4B1A68531C03F0070309490968AB
:104FC0008B4209D0084901EBC20204AC14E903008A
:104FD00082E80300024A136005B05DF8044B704795
:104FE000A8080020A4080020F813002030B441EAEB
:104FF0000041134B1C68621C1A60CCB1601E400853
:10500000104B53F820305A1AB2F5803F12DB0D4D89
:1050100009E0421E520855F822305C1AB4F5803F70
:1050200009DB0446104645F824300028F1D102E09F
:10503000204600E02046034B43F8201030BC704768
:10504000F8180020FC18002070B40028B8BF4042B7
:10505000114D85FB0032C317C3EBA2520F4C04FB6A
:105060000200C0EB0010830085FB0360DE17C6EB77
:10507000A05002EB820202EB820200EB82020A8065
:1050800004FB0033064A82FB0302DB17C3EBA213C7
:105090004B8070BC704700BF6BCA5F6B806967FF55
:1050A000D34D6210094B1B786BB1094B1B685B78C1
:1050B00023B1084B1868C0F3C0407047064B1878FE
:1050C000C0F3800070470120704700BF3408002003
:1050D00038080020800200203022002008B508484F
:1050E0000CF05EFCC0B2142808D805492022431CED
:1050F000DBB20A54152B01D01846F8E708BD00BFF3
:105100005414002070B50446A0F10A03222B00F2CB
:105110001E81DFE813F0CF001C011C01CF001C0131
:105120001C011C011C011C011C011C011C011C0197
:105130001C011C011C011C011C011C011C011C0187
:105140001C011C011C011C011C0123001C011C0171
:105150001C011C011C0129001C012900864B002098
:1051600018705870987070BD834B5A781A4400219B
:1051700011711D7855BBD9741B79472B40F088807D
:105180007D4B5B79502B21D17B4B9B79472B0DD1EC
:10519000794BDB79472B09D1774B1B7A412B05D112
:1051A000754B0122DA745B79502B0FD1724B9B79CE
:1051B000522B0BD1704BDB794D2B07D16E4B1B7AE9
:1051C000432B03D102226C4BDA7461E06A4BDB7C27
:1051D000012B02D0022B41D05AE0AB1E072B57D82F
:1051E000DFE803F0040A1319222E5635624E301DF3
:1051F000FFF720FA70614BE05F4B1B79532B47D1CF
:105200005D4B5A6952425A6142E05B4E301DFFF7D6
:1052100011FAB0613CE0584B1B79572B38D1564BF3
:105220009A6952429A6133E0534B1B79302B534BAE
:105230001A788CBF42F0020222F002021A7027E0B4
:105240004D4E301D0021FFF7CBF9307720E04A4E5C
:10525000301D0021FFF7C4F9F08319E0072D02D0BB
:10526000082D0FD014E0444E301D0121FFF7B8F98E
:1052700041F2184303FB00F0414AA2FB00139B09D3
:10528000338405E03C4E301D0121FFF7A9F97084FD
:10529000394B01351D7000225A702A2C04D101228D
:1052A00083F82420002070BD334B9A7854409C70C2
:1052B000002070BD304B93F82430002B3BD02E4B98
:1052C0001B79402B04D9A3F137021201D2B202E0BC
:1052D0001B0103F0F002284B5B79402B8CBF373B5E
:1052E000303BDBB21344244A9278DBB29A4224D199
:1052F000214BDB7C012B02D0022B13D01FE01F4B74
:105300001B7813F0020F1CD01E4A1B4B5969116009
:1053100099695160197F1C4A1170DA8B1B4B1A80F6
:1053200001200FE0144B198C194A11805A8C194B2B
:105330001A80002006E0002004E0002002E00020A7
:1053400000E0012000220C4B83F8242070BD0A4BA2
:105350005B780E2B04D8084A591C517013441871FD
:10536000054B93F824302BB9034B9A7854409C702A
:10537000002070BD002070BDE4080020F002002075
:10538000D34D6210F40A0020C4040020FC0A00205F
:10539000FE0A0020AA130020F0B49D4B93F825309C
:1053A000082B00F27A81DFE803F011051C283B4D41
:1053B0006D8E9C00622805D10222954B83F8252032
:1053C000002092E10022924B83F82520B52840F07E
:1053D00066818F4B93F82520013283F82520002029
:1053E00083E18B4B032283F8252083F8260083F882
:1053F000270083F82800002077E1854B042283F8FA
:10540000252093F827200244D2B283F8272093F86E
:1054100028100A4483F8282083F82900002064E13A
:105420007B4B052283F8252093F827200244D2B233
:1054300083F8272093F828100A4483F828205885F9
:10544000002052E1724B062283F8252093F8272092
:105450000244D2B283F8272093F828100A4483F834
:1054600028205B8D03EB002080B2B0F5007F684BF5
:1054700091BF588500225A8583F825200020644B6F
:10548000988532E1624B93F827200244D2B283F828
:10549000272093F828100A4483F828209B8DC72BD7
:1054A00003D85B4A1A4482F8300001339BB2584A51
:1054B0009385528D9A4240F0F4800722544B83F832
:1054C0002520002011E1524B082283F8252093F873
:1054D0002730834200F0E78000204D4B83F8250001
:1054E00003E14B4B002283F8252093F828308342B8
:1054F00040F0DB80464B93F82930023B2E2B00F224
:10550000C680DFE803F0183AC4C448C4C4C4C4C4A5
:10551000C4C4C4C4C4C460C4C4C4C4C4C4C4C4C4AF
:10552000C4C4C4C4C4C4C4C4C4C4C4C4C4C4C4C43B
:10553000C4C4C4C47100374A354B596B5160996B70
:1055400011601A6C344981FB0201D217C2EBA11120
:10555000324A118093F8F8302BB1314B1A7842F06F
:1055600002021A7004E02E4B1A7822F002021A701E
:105570000122274B83F8F9207DE0254B93F8353045
:1055800013F0010F00F09880214B93F83430032B77
:1055900040F092808BE01E4B93F83B3013F0010FEC
:1055A00000F094801A4B93F83A30032B40F08E8031
:1055B00096E0174B93F85F101A4A1170B3F85C200D
:1055C000194B1A8053E0124B5A6C18490A809A6C96
:1055D000174981FB0201D217C2EB2131154A118014
:1055E000012283F8FA2042E0094B93F83430124A42
:1055F0001370102B2CD910220F4B1A700E4B1F78E2
:105600000E4A00230E4E0F4D0F4C104823E000BFF2
:10561000E4080020F40A0020D34D6210FC0A0020A8
:10562000F0020020C4040020D8000020FE0A002060
:10563000AD8BDB68AA130020AC13002014090020F6
:10564000B0130020C0130020D0130020E01300206E
:10565000002BD3D10BE0117A9955517A5955D17A53
:10566000195512F80C1F19540133BB42F3DB204BC0
:1056700093F8F9306BB11E4B93F8FA305BB11C4BC9
:10568000002283F8F92083F8FA2001202DE0002081
:105690002BE0002029E0002027E0002025E000206A
:1056A00023E0002021E000201FE000201DE0012277
:1056B0000F4B83F8F820DAE700220D4B83F8F8202F
:1056C0000C4B1A7822F002021A70D0E70022084B25
:1056D00083F8F820074B1A7822F002021A7068E764
:1056E0000122034B83F8F82063E7F0BC704700BF4A
:1056F000E4080020F002002010B50BF0D1FA0446B7
:1057000000210BF0DDFC38B120460A490BF0D0FB3C
:1057100009490BF019FB07E004F1004005490BF0C3
:10572000C7FB05490BF010FB0CF028FB034B18607E
:1057300010BD00BF8096184B35FA8E3CB00000209B
:10574000F8B50C461E4613680068181A0BF0A8FA44
:10575000054630682368C01A0BF0A2FA184B196886
:105760000BF0F2FA0446284629460BF0EDFA0746FC
:10577000204621460BF0E8FA0646384631460BF043
:10578000DBF90CF087FD0F490BF0DEFA0BF0C8FCDB
:10579000069B186005F1004021460CF0F1FB0A4918
:1057A0000BF0D2FA09490BF0C7F90BF093FC002873
:1057B000BCBF00F50C40A030079B1860F8BD00BFCF
:1057C000B00000202C7D8E3FA00CB34500A00C46FD
:1057D00070B504461F4D00790BF05EFA1E490BF0C0
:1057E00067FB2860A07B0BF057FA1B490BF060FBAE
:1057F00068601A4EEE601A4D60790BF04DFA194947
:105800000BF056FB2860E07B0BF046FA12490BF0D8
:105810004FFB6860607E0BF03FFA13490BF048FBCA
:10582000A860EE60114DA0790BF036FA0D490BF02F
:105830003FFB2860207C0BF02FFA07490BF038FB68
:105840006860A07E0BF028FA07490BF031FBA860D6
:10585000EE6070BDB01900200000C8420000FA449C
:10586000C41900200000204100007A44381A0020AA
:1058700044F250639842C4BFA0F50C40A038034BDB
:105880009842BCBF00F50C40A0307047B0B9FFFF94
:105890002DE9F84305460E46144699465068281AE5
:1058A0000BF0FEF931680BF003FB07462061D6F8D8
:1058B0000080A6681C4B1B6898780BF0EDF90AF085
:1058C0005FFE17A3D3E900230AF0AEFE02460B46A3
:1058D000002016490AF0D2FF0BF0D8F801464046E6
:1058E0000BF02AF9014640460BF0E2FA80463846B2
:1058F00031460BF01FF9014640460BF025FA0146F0
:1059000030460BF019F920616560A060D9F80810E5
:105910000BF01AFA0BF0DEFBBDE8F883AFF3008062
:10592000182D4454FB211940300800200000F03F9E
:10593000F0B41E4B1B6A002B35D0013B1B490B6298
:1059400051F8237051F820301A7922F001021A71AF
:105950004200531C0D6AAB4222D20232AA420DD23F
:1059600051F8234051F82260B4F800C03488C4EBE9
:105970000C0424B213EA240338BF134651F8232041
:105980003E881488341B24B2002C09DD41F8202005
:105990005A00541CAC4202D218462346DDE7184692
:1059A000024B43F82070F0BC704700BFE0060020B7
:1059B00010B50B4B1C6A94B11B6883420AD104E0FA
:1059C00052F8041F814207D100E000231846FFF778
:1059D000AFFF10BD024A00230133A342F0D110BD36
:1059E000E00600202DE9F84306468846038A8589AB
:1059F000ADB21D403ED04FF00047B5FA85F327FA0F
:105A000003F2D24391B2318215401B3B042B2FD8B5
:105A1000DFE803F0272019120300B6F82C901FFAD4
:105A200089F9D8F820401CB3236820464946984796
:105A30006468002CF8D11BE0D8F80000B18E036830
:105A400089B2984714E0D8F80400318F036889B20E
:105A500098470DE0D8F80800B18F036889B29847DD
:105A600006E0D8F80C00B6F84010036889B29847F1
:105A7000002DC2D1BDE8F883800A0C4B98420CD0AF
:105A800003D8B0F5801F0ED00BE0094B984206D02A
:105A90004933984205D10020704702207047032007
:105AA0007047FF2070470120704700BF01001000C1
:105AB00002001000704700BF2DE9F00300230F27FC
:105AC0004FF0010C0A881A4112F0010F28D0DA08B1
:105AD0008D7805F00F0803F00704A40050F8229019
