:020000040800F2
:1000000000500020CD140108791501085DFF00089B
:10001000791501087915010879150108000000001B
:100020000000000000000000000000007915010839
:10003000791501080000000075FE00084DFF00085A
:100040007915010879150108791501087915010854
:1000500079150108791501087915010839FE00089C
:100060007915010879150108791501087915010834
:100070007915010879150108E9FD000879150108CD
:1000800041FE000879150108791501087915010864
:1000900079150108791501087915010831FE000864
:1000A000791501087915010879150108D9FC0008AE
:1000B000B9FC000895FC000871FC0008CDFE0008A2
:1000C000BDFE0008C5FE0008B5FE00087915010850
:1000D0007915010899FD0008FDFC00087915010853
:1000E000D5FE000879150108791501080000000007
:1000F0000000000000000000000000000000000000
:0C01000000000000000000005FF808F1A3
:100110002DE9804891B002F013FD00228F4B1A7038
:100120008F4B9B6813F0080F00F095808B4A526844
:10013000127A032A00F28C80DFE802F002020557EF
:10014000864A117A85E0854A527A002A49D0834A44
:100150000021517292F8222012F0080F43D17F4AF9
:100160009189C1F30A019162D168C1F3CA21D162B8
:10017000D089117C01F00101890241EA90111163DB
:10018000118AC1F34A0151631169C1F30A319163C4
:10019000508A117D01F00301490241EAD011D16377
:1001A000918AC1F38A0111645169C1F34A315164E2
:1001B000D17D107E00F0070041EA00219164118B8F
:1001C000C1F3CA01D1649169C1F38A311165D07E4E
:1001D000117F01F00F01C90141EA50015165012170
:1001E00037E0002135E0002133E05C4A92F85820E6
:1001F00042B35A4A002182F8581092F85D20012A31
:1002000022D1564A92F88120102A0BD91021534A44
:1002100082F88110514890F8816000F15C028030D2
:10022000002103E0002AF5D1012112E0D5781479EC
:1002300044EA052440F8044F01310232CCB2B44202
:10024000F4D303E0002104E0002102E0012100E0FA
:100250000021424A117013F4804F0CD03F4A92F8AB
:10026000C4202AB100213D4A82F8C410012100E0D7
:1002700000213A4A1170394A1278002A02F0B583F7
:1002800013F4807F02F0AD83344CD4F8C8301B687F
:100290001B689847334B1B68227832B92F4AD2F833
:1002A000CC209A1A002AC0F27D8303F59C432033A8
:1002B0002A4AC2F8CC302A4B9B6813F4807F04D0C2
:1002C000D2F8C8301B681B699847254B9B6842F2DF
:1002D00001021A420DD1214B1B7893B11F4CD4F867
:1002E000C8301B681B6898470DF0B0FE00232370D0
:1002F00007E01A4B93F8D020013283F8D0200DF09C
:10030000A5FE174B9B6813F4805F05D0134B93F841
:10031000D4300BB905F0D0FB124B1C680F4B5B6857
:100320001B7C2BB30D4D05EB4303B3F9EA00A0F59D
:100330007A70B0F57A7FA8BF4FF47A7020EAE07047
:1003400010F0F6FA084910F0FBFB084910F044FBE6
:1003500010F02EFDA5F8EA0057E000BF28010020AC
:10036000B81F0020B824002000007A4400C07F4459
:10037000B94B9B6813F4004F47D0B84BD3F81031FA
:10038000E31A002B41DBB54B04F59C422032C3F845
:10039000102193F8192103EB4202B2F8240180B234
:1003A00093F82C31013303F00F03AC4D85F82C3159
:1003B000DBB2EE1810F0BCFAA94910F0C1FB10F046
:1003C000F7FC86F8300105F22F1305F23F100022EA
:1003D00013F8011F0A4492B28342F9D112B2002AE3
:1003E000B8BF0F3210116428A8BF642020EAE07063
:1003F00010F09EFA9B4910F0A3FB9B4910F0ECFA19
:1004000010F0D6FC954BA3F8EA00934B9B6813F4CD
:10041000807F15D0954B9C420CD9904BD3F840313E
:100420001B681B6A984728B98C4BD3F840311B686E
:100430005B6A9847894BD3F840311B685B699847E2
:10044000854BB3F8DC209B6813F4805F0FD0834B9F
:10045000B3F9F2308049B1F81811881A834212DDDD
:100460000A449342C2F2C5824FF0010E0DE07B4B6D
:10047000B3F9F220784BB3F81A319A42C2F2B9823A
:100480004FF0010E01E04FF0010E7448D0F84461C6
:10049000714B93F82171B3F81A51B3F81C4100F174
:1004A000EA02F23000239B0832F9021FA942C4BFBE
:1004B00063F07F03DBB2A142B8BF43F04003824246
:1004C000F1D1664A92F848219A4209D1634A92F8DA
:1004D0004921F92A08D80132604981F8492103E00D
:1004E00000215E4A82F849115C4981F84831D6F80A
:1004F0008030A3B191F8D43053B1BEF1000F0ED1CA
:100500005B4B1B7813F0010F09D008F015FE06E0D5
:10051000574B1B7813F0040F01D005F0CDFA4F4B69
:1005200093F84931142B40F0B680003718BF0127EB
:100530004F4B1B7813F0040F1AD0D6F8803033B924
:10054000464B93F848315F2B01D105F0B5FA002FE7
:1005500000F0A180D6F88030002B40F09C803F4B0B
:1005600093F848317D2B40F0968005F0A5FA92E093
:100570003A4B93F84831572B0FD14FF47A723D4BD9
:100580001A80364BD3F84C3113F0080F40F08380BB
:100590000022324BA3F850217DE02F4A926812F0DE
:1005A000040F1FD05A2B1DD12C4B93F852313BB165
:1005B0002A4B002283F85221012283F853216AE05A
:1005C000264A92F8543183F0010382F8543123B162
:1005D0000222224B83F855215DE003221F4B83F852
:1005E000552158E05D2B02F01A825B2B02F0198234
:1005F0005E2B42F0298202F016BA6F2B42F02B825A
:1006000008F09AFD47E07E2B02D108F095FD42E00C
:10061000972B05D14FF4C872104BA3F856213AE03E
:10062000A72B07D10D4B93F8582142F0040283F811
:10063000582130E000220D92BB2B04D10223ADF8EB
:10064000363002F00DBAB72B16D14FF6FE73ADF867
:10065000363002F005BA00BFB81F00202801002084
:10066000CDCC23420000C84200C07F44404B4C0028
:10067000C9240020C4240020BE2B04D10223ADF8DD
:10068000343002F0EDB9BD2B05D14FF6FE73ADF855
:10069000343002F0E5B99B4B9E6816F0040F40D051
:1006A000994B93F85431BBB1984B1B7813F0040F5E
:1006B00012D0954BB3F9F220924BB3F81A319A420B
:1006C0000ADD914B93F8D43033B98F4B3222A3F823
:1006D0005A21002283F854218B4B93F8E43083B1E4
:1006E000894B93F85C313BB9874B93F852311BB976
:1006F0003222854BA3F85A210122834B83F85C21D7
:100700000FE0814B93F852315BB1804B1B7813F0B3
:10071000040F06D17C4B002283F85221012283F87A
:100720005321794BD3F8442193F86131002B02F027
:10073000B181774D03EB4303A3F103086FF003018D
:100740000023184640F2A46C40F2135E35F8024FC5
:10075000A4F215591FFA89F9B9F5C77F8CBF4FF07C
:1007600000094FF001095F1C09FA07F924B264453A
:10077000D4BF4FF0000A4FF0010A9F1C0AFA07F796
:1007800049EA07077445CCBF002401249C403C4340
:10079000032998BF24042043434502F07C8103339E
:1007A0000131182BD2D102F076B952F8041F084259
:1007B0000CBF0021012103F8011FA342F5D1524BC8
:1007C00093F8D5304BB916F4807F1DD04E4BD3F83B
:1007D00040311B689B689847B0B14B4BD3F84C3104
:1007E00013F0020F10D0484BB3F8623113F0010F31
:1007F00027D1454A0021C2F86411C2F8681143F0BC
:100800000103A2F862311CE03F4BB3F8622122F0F1
:100810000101A3F8621193F8D63093B18BB23A4933
:10082000A1F8623102F0020292B28AB90A460021AE
:10083000C2F86411C2F8681143F00203A2F86231F1
:1008400006E0314BB3F8622122F00202A3F86221E4
:100850002D4BB3F8623113F0030F4FF010012D4A06
:1008600014BF51611161284AD2F84C4114F00A0FAB
:1008700036D092F8D8206AB103F0040292B272B96D
:10088000214A43F00403A2F86231B2F85031A2F8D1
:100890006C3104E023F004031B4AA2F862311A4BC6
:1008A00093F8D93063B1184BB3F8623103F04002CA
:1008B00092B262B943F04003134AA2F8623106E0F3
:1008C000114BB3F8622122F04002A3F862210E4BD3
:1008D00093F8DA3023B10C4BB3F85021A3F86E2112
:1008E00014F0200F01D006F053FE074B93F8DF30D1
:1008F00093B1054BB3F8622142F48072A3F86221F0
:1009000011E000BFB81F002028010020C9240020EA
:100910001A020020000C0140AF4BB3F8622122F410
:100920008072A3F86221AD4B5B79082B01D00E2BAE
:1009300006D1A94BB3F8622122F04002A3F862214C
:10094000A54B93F87031002B00F0C38314F0040F13
:1009500000F0BF83A04B93F8D730DBB19E4BB3F8C8
:10096000622102F008039BB2002B40F0B2839A4B45
:1009700042F00802A3F86221D3F87821C3F8742169
:10098000B3F88621A3F87C210022C3F88821C3F89C
:100990008C219EE3904BB3F8622122F00802A3F869
:1009A000622196E38C49D1F89021501CC1F8900146
:1009B000042A00F28583DFE812F00500A500190182
:1009C0007A037203844AD2F84C2112F0080F00F027
:1009D0007783814AD2F894219A1A002AC0F2708350
:1009E00003F5C334A0347C4DC5F8944105F5CC76AD
:1009F00030460DF021F830463146794B1A7806F032
:100A0000E5FB95F8585115F0040F1CD0A6F5CC73F2
:100A1000C3F8A0410022714F16461946D319A3F816
:100A2000FE6001F5CC73D35A01F5D270135201F573
:100A3000D67013520232062AF0D125F00405A0F533
:100A4000D67383F85851644B93F8B231B3B1624A0C
:100A5000624BB2F89801B3F8FE10411AA2F898114F
:100A6000B2F89A01B3F80011411AA2F89A11B2F83B
:100A70009C11B3F80231CB1AA2F89C31564BD3F833
:100A8000A031002B00F01C83E31A564A93421FD872
:100A9000554BDA6882F00802DA6000234E4A02F50C
:100AA000CC71595A02F5D2701C5E08B28442C4BFA0
:100AB00002F5D270195202F5D6701C5E08B284425B
:100AC000BCBF02F5D67019520233062BE7D1F7E20C
:100AD0000023414AC2F8A03140481C1802F5D271E7
:100AE0005D5E02F5D671595E294401EBD171491062
:100AF000A4F8FE100233062BEFD106F081FF07F0B9
:100B00008BFBDDE2344AD2F84C2112F0040F00F0E6
:100B1000D782314AD2F8B4219A1A002AC0F2D08280
:100B20002D4AC2F8B43192F8B831012B15D013B167
:100B3000022B2BD0C4E2284CD4F8C4319847D4F807
:100B4000C8319847012384F8B831B4F8BE21D4F8ED
:100B5000B4311344C4F8B431B2E21F4CD4F8CC31F0
:100B60009847D4F8C0319847B4F8BC21D4F8B431D0
:100B70001344C4F8B431D4F8D03104F5EA7004F564
:100B8000EC719847022384F8B83199E2124B0022A5
:100B900083F8B821D3F8DC41D3F8D411D3F8E001BD
:100BA000421CD3F8E4311B789A4204D101220A4B4B
:100BB00083F8E8210022084B03EB8000C0F8EC1119
:100BC000214403EB8200D0F8EC01091AC3F8E021BC
:100BD000C3F8DC1174E200BF28010020B81F002018
:100BE000C72400207FC3C901000C0140B44AD2F8D9
:100BF0004C2112F0040F00F06382B14A92F8E82110
:100C0000002A00F05D82AE4AD2F8AC629E1B46F22A
:100C1000A712964240F25482A94AC2F8AC32A94BBC
:100C20001D88002D36D01346D2F8B022D3F8E41137
:100C300009780139D3F8DC31B3FBF1F31146002A0E
:100C4000B8BFD11DA2EBE10213449D4AC2F8B032F5
:100C50001846002BB8BFD81DC0100FF069FE9A4986
:100C60000FF06EFF994910F0C5FF0146944C4FF00C
:100C70007E500FF0A7FD96490FF0AEFE10F072F80F
:100C8000C4F8B402013D8F4B1D800022C4F8B82285
:100C9000C4F8BC228A4CD4F8E45128780138D4F83E
:100CA000DC31B3FBF0F00FF03FFE87490FF048FF57
:100CB000864910F09FFF01464FF07E500FF082FDF5
:100CC00083490FF089FE10F0C7FE80466D68D4F8A6
:100CD000C0020FF02DFE29460FF07EFE0746D4F825
:100CE000B402C0EB08000FF023FE80464FF07E50A8
:100CF00029460FF067FD014640460FF06DFE0146A4
:100D000038460FF061FD10F0A7FE0546B4F9C42285
:100D1000002AB8BF5242B4F9C632002BB8BF5B42BA
:100D20009A42ACBF14461C46A4B26A4B186823B260
:100D3000FA2B01F3B7860FF0FBFD074620B20FF048
:100D4000F7FD014664480FF03DFD014638460FF0BF
:100D500043FE61490FF0F4FE10F004F804465D4BC9
:100D60001860431EC62B06D8554B2D1AC3F8C8521F
:100D7000C3F8C0022FE0524BD3F8C832ED1A002856
:100D800003DC4F4BC3F8C05225E0C0F596700FF05E
:100D9000CFFD52490FF0D4FE074620460FF0C8FDA4
:100DA000014638460FF018FE044628460FF0C0FDF5
:100DB00005464FF07E5039460FF004FD01462846A7
:100DC0000FF00AFE014620460FF0FEFC0FF0CAFFAE
:100DD0003B4BC3F8C002424F38680FF0A5FD0546F3
:100DE00040490FF0F9FD8246354CD4F8D4020FF09B
:100DF0009FFD8046D4F8D8020FF09AFD0146404688
:100E00000FF09EFE0190D4F8DC120FF0E5FD0146D4
:100E100028460FF0E1FD0390D4F8B882D4F8E451ED
:100E20000295D5F80C90D4F8C0524FF07C510FF0D9
:100E3000D3FD014650460FF0CFFD83465046414654
:100E40000FF0CAFD014658460FF0BEFCD4F8BC12A4
:100E50000FF0BAFC49460FF0BFFD824628460FF05E
:100E600067FD83464FF07E5049460FF0ABFC0146CC
:100E700058460FF0B1FD014650460FF0A5FC8146E3
:100E8000C4F8BC02039841460FF09EFC8046C4F8AB
:100E9000B8020023C4F8CC32C4F8D032C4F8D4323B
:100EA000C4F8D8323B60074B1B88002B40F0088108
:100EB000084B1B68013BC62B16D8C4F8785119E0C3
:100EC00028010020BC24002080E6C547B1DC423E5A
:100ED000D048874AAC000020000061440000C842AE
:100EE000C0240020BD37863548460FF03BFFA24B9B
:100EF000C3F87801A04CD4F8E002281A0FF018FDCE
:100F00009E490FF069FD074630460FF00DFD014682
:100F100038460FF015FE0FF025FFC4F8E05240F2FE
:100F2000DC539842A8BF1846954A9042B8BF104675
:100F30000A2104F0A1FD0746029EB56840462946F5
:100F40000FF04AFD064638460FF0F2FC07464FF018
:100F50007E5029460FF036FC014638460FF03CFD26
:100F6000014630460FF030FCC4F8B80210F074FDB2
:100F70000546052104F080FDC4F8E402D4F8E862D7
:100F8000B4F8C42202F21F3292B240F23E639A4297
:100F90007DD8B4F8C62202F21F3292B240F23E630C
:100FA0009A4241F28985002372E0734CD4F874218F
:100FB000D4F87831D31AB3F5FA7FA8BF4FF4FA7397
:100FC00070488342A8BF18460A2104F055FDD4F8A2
:100FD000EC32DB7803FB00F00028B8BF7F30C31190
:100FE000B3F5967FA8BF4FF49673674A9342B8BF94
:100FF000134602E0604BD3F8F032581B5E4BD3F837
:10100000EC22537A03FB00F3002BB8BF1F335B11B4
:10101000B3F5967FB4BF1D464FF496755A4B9D426B
:10102000B8BF1D46D47C5449D1F8883104FB003444
:10103000B4F5C81FA8BF4FF4C814544B9C42B8BFA6
:101040001C46C1F88841507F0FF072FC074601989A
:1010500031460FF0B9FB014638460FF0BDFC4FF0AA
:101060006C510FF0B9FC0FF07DFE9628A8BF9620BA
:101070006FF095039842B8BF1846281A2346002CF3
:10108000BCBF04F5FF531F3300EB633300E00023C4
:10109000394AC2F88C31019FC2F8E87210E03C4B2B
:1010A0009B6813F0800F0BD009F07AFF08E0324BF9
:1010B000D3F84C3113F0100F02D0364808F086F800
:1010C0002D4BD3F89031042B03DD00222A4BC3F8BB
:1010D000902107F0CBFF304B18602D4B9B8933B12B
:1010E000254AD2F8F422821A002AC1F25F82224CE9
:1010F0001844C4F8F402D4F844510395244B5B79A6
:10110000019304F54275D4F8FC32284698472846E6
:10111000294694F80E2306F059F8204B1B88002B23
:1011200001F0D284D4F810331B78049304F545748D
:1011300000263546DFF864B0BBF80030B3F57A7F9F
:1011400003D10023164AB35023610B4B03F54272BF
:1011500003F55473505FF2580244F2500FF0E8FB6D
:1011600080460294276901372761012F1AD16060F8
:1011700020600027A76036E0280100200024744981
:1011800024FAFFFF0CFEFFFFD4FEFFFF0000E7FF85
:10119000B81F0020AC000020B8240020C424002088
:1011A00078040020D4F800A051460FF00BFB8146D4
:1011B00038460FF0BDFB014648460FF0C1FC014622
:1011C00050460FF001FB07466060404639460FF07D
:1011D000F9FA014648460FF0FFFBA1680FF0F4FA58
:1011E000E0602760A060834A02F5427100236B52E1
:1011F00002F55772AB52BBF80030012B34D1DDF849
:1012000008A0DAF81000012808DD01380FF090FB83
:101210000146DAF80C000FF093FC00E0002010F01B
:1012200071FE0746049858B10FF082FB39460FF063
:1012300071FD28B14FF47A726F4B1A8001F044BCF3
:101240006C4B03F5577203F55473F35803F5FA73B7
:101250006A4F87FB0371DB17C3EBA113AB520A2064
:101260000F21012207F038FF023504361434062D11
:101270007FF462AF604B1A88013A1A8001F024BCF7
:1012800001F5427201F557709C5A185A201A98526B
:101290000233062BF4D1A2F54273D3F84C3113F08C
:1012A000020F00F06383A2F5427404F55C75D4F874
:1012B0006833284698472846294694F8762305F04F
:1012C00085FFB4F85631002B58D000231946184634
:1012D00022461F46B2F85641B4F5C87F04BF02F556
:1012E0005E740F5102F55E7502F55C7433F904E02B
:1012F0004E5976444E511F53D2F8844324F810704F
:101300000130043102330328E4D1A5F55E73B3F84C
:101310005631012B2CD1A5F55E73D3F88423D3F875
:101320007803C830364981FB00A4C017C0EBE41035
:101330001080D3F87C03C83081FB00E4C017C0EBF9
:10134000E4105080D3F88033C83381FB0301DB17EE
:10135000C3EBE1112B4B1B88CB1A93800023039C1A
:10136000A4F85C30A4F85E3006F04AFB06F054FFA7
:10137000204BB3F85621013AA3F85621224B9B6823
:1013800013F0040F00F0AA801A4BB3F85A41322C24
:1013900014D1D3F884231188A3F888135188A3F8B3
:1013A0008A139288A3F88C23039DB5F85C20A3F8D8
:1013B0009023B5F85E20A3F8922301E0002C5ED0C4
:1013C000002319461A460B489E46322C1ED100F5C2
:1013D000657600F55C755F5F8F5123F805E0D0F806
:1013E000845325F812E0013204310233032AECD190
:1013F00041E000BF28010020C4240020D34D62102A
:101400001F85EB5100000020B81F002000F5657615
:1014100000F55C7533F905C08F5967448F5123F887
:1014200005E0D0F8845325F812E00132043102338C
:10143000032ACAD1012C1ED1A6F56573002283F8B8
:101440005C21012283F85221022283F85521D3F82E
:101450008423B3F888131180B3F88A135180B3F84A
:101460008C139180B3F89023039EA6F85C20B3F808
:101470009233A6F85E30013CC34BA3F85A41C24BED
:1014800093F8533153B3C04B002283F85321D3F860
:101490008413D3F89443BD4880FB0475E417C4EB70
:1014A00025140C80D3F8984380FB04A5E417C4EB03
:1014B00025144C80D3F89C3380FB03E0DB17C3EB8F
:1014C0002010B34B1B88C31A8B80039CA4F85C20AC
:1014D000A4F85E2006F094FA06F09EFEAA4CD4F81A
:1014E0008433B4F870131A888A1AA4F87023B4F8F5
:1014F00072135A888A1AA4F87223B4F874239B884A
:10150000D31AA4F8743307F0B1FD0546D4F8A0331C
:10151000C31A049318460FF007FA0590D4F8A413E1
:101520000FF05AFA8246C4F8A053D4F8A8430294A4
:1015300000252C462F46944E4FF07E5B06F54273F5
:10154000185F0FF0F5F9014650460FF045FA07AB6A
:101550005851DDF808E09EF8000038B30FF0E8F9C4
:10156000014658460FF0ECFA814606F56B7858466E
:1015700049460FF027F955F808100FF02DFA03909F
:1015800006F55C73185F0FF0D3F9014648460FF07B
:1015900023FA014603980FF017F948F8050006F5FD
:1015A0006E780FF0DFFB28F8040005E006F56E7397
:1015B00006F55C72A25AE25206F56E73E35E03FB17
:1015C000037702340435062CB8D1642303FB07F7F4
:1015D0006F4B1B8803FB03F397FBF3F76A4C04F58F
:1015E000707007A904F01EF9D4F8A8536868493F41
:1015F000BFB23B2F25D84FF07E510FF0E5F80146E2
:101600004FF07E500FF09CFA824604F2B637002469
:10161000A7F2B63909F57076A05969680FF0DCF9C0
:10162000804637F9020F0FF083F9014640460FF06C
:10163000CBF8014650460FF0CFF9305104340C2C52
:10164000E8D1514BD3F8C863B3F9CC030FF070F96C
:10165000014630460FF07CFB38B14B4B93F85821D4
:1016600042F0080283F8582106E0474B93F85821CE
:1016700022F0080283F85821434CD4F8C4033146C1
:1016800010F0B6FA8046C4F8D003D4F8C03303F1A2
:101690000049D4F8C473D4F8C863384639460FF00B
:1016A0009BF98246384639460FF096F90746304690
:1016B00031460FF091F9014638460FF085F810F0E9
:1016C00021FC0146484610F093FA0646C4F8D403BC
:1016D00040460EF0BDFD2AA3D3E900230EF00CFE18
:1016E0000FF01CF810F0B8F9A4F8C40230460EF060
:1016F000AFFD23A3D3E900230EF0FEFD0FF00EF89B
:1017000010F0AAF9A4F8C602D4F84C3113F0080F6F
:1017100040D004F5767007A904F084F8A8684FF06B
:101720007E510FF051F801464FF07E500FF008FA4D
:10173000824604F5CB770024A7F5CB7909F57676B8
:10174000A059A9680FF048F9804637F9020F0FF049
:10175000EFF8014640460FF037F8014650460FF0CB
:101760003BF9305104340C2CE8D1A6F5767404F51D
:10177000767004F003F9A4F8500146E0AFF300805E
:101780003B597E90A9E78140280100201F85EB513D
:1017900000000020BC4C201D07A904F043F8666837
:1017A000A568E468304631460FF016F9064628462B
:1017B00029460FF011F9014630460FF005F80546AD
:1017C000204621460FF008F9014628460EF0FCFF9E
:1017D00010F098FB054600210FF092FA78B9AA4C58
:1017E000606829460FF0ACF96060A06829460FF0E8
:1017F000A7F9A060E06829460FF0A2F9E060A348CD
:1018000004F0BCF8A24BA3F850010598A1490FF0D1
:10181000E3F806469E4CD4F8D03303F100430A9314
:10182000D4F8D43303F100430B93B4F950010FF013
:101830007FF800F100400EF00BFD91A3D3E90023E7
:101840000EF05AFD0EF06AFF0C90B4F9B8030FF0D9
:101850006FF80D90B4F9BA030FF06AF80E90B4F96E
:10186000BC030FF065F80F900DA80AA903F0DAFF8A
:10187000D4F8A8335B78012B25D1874B1B7813F064
:10188000040F11D1D4F8E4331846002BB8BF03F18C
:101890003F00A3EBA0100FF04BF80F990EF094FF50
:1018A0000FF060FAC4F8E403794BD3F8E40300289E
:1018B000B8BF3F3080110FF03BF801460F980EF093
:1018C00081FF0F9008E0704B18880FF031F8014647
:1018D0000F980EF077FF0F906D4CD4F8E853304618
:1018E000D4F8EC130EF070FF014630460FF028F9E3
:1018F00006460F9829460EF065FF014630460FF068
:101900006BF8014628460EF05FFF0646C4F8E80370
:10191000D4F8CC720D9810F09FF8D4F8F0532978D1
:1019200004F0AAF83844C4F8CC02D4F8D0720E9867
:1019300010F092F8297804F09FF83844C4F8D002E7
:10194000D4F8D472304610F087F8697804F094F82F
:101950003844C4F8D402514B1A68049D2A441A60D2
:10196000D4F8D8320133C4F8D83207E0484B00220B
:10197000A3F87023A3F87223A3F87423444BB3F89D
:101980000823A3F8F423B3F80A23A3F8F623019E4F
:10199000012E10D1B3F9FA13B3F90C2302EB410273
:1019A0003F4981FB0271A1EBE27292B2A3F8F823E6
:1019B000A3F8FA2304E0364BB3F80C23A3F8F8237A
:1019C00007F054FB374B1860314CD4F80034C31A7D
:1019D000A4F8FC33C4F8000408F0CCFB012384F81D
:1019E000703194F8E830002B5ED0B4F8624104F016
:1019F00080039BB2002B72D1274B1B7813F0040F8E
:101A000023D0234B93F804341BB1214B93F80534B6
:101A100063B11F4B4FF0000AC3F808A4002283F8FB
:101A2000042401201849087483F80524184DD5F8BA
:101A30004431181D19780EF0BBF844F08004A5F865
:101A40006241012385F80C3449E0114BD3F80804B6
:101A500000210FF055F9002841D105F0D1FF06F023
:101A6000DBFB0B4B4FF0000EC3F808E4002283F8B9
:101A700004240122044B1A7431E000BFAFF300804C
:101A8000399D52A246DF913F000000200400002053
:101A900028010020BD378635C9240020C02400203D
:101AA00056555555B8240020B54BB3F8624104F0A3
:101AB00080039BB233B104F0ABFB24F08004B04B45
:101AC000A3F86241AF4B1B7813F0040F07D1AC4B66
:101AD00093F80C341BB10122A94B83F80524A84BC1
:101AE000D3F84C5115F0080F47D0B3F8843103F107
:101AF000450292B28A2A3BD8A14AB2F8622102F08A
:101B0000040292B2002A33D09D4AB2F85011B2F8C2
:101B10006C21891A89B28AB210B210F1B30FBCBF1E
:101B200001F5B47292B211B2B329C4BFA2F5B47276
:101B300092B2954991F8EC00914991F8581111F041
:101B4000080F1AD041B2494202FB01F28C4912B28D
:101B5000D1F84401007B00FB02F28C4880FB02407C
:101B60001044D217C2EB20129B1AA1F8843104E072
:101B7000834BB3F85021A3F86C2115F0040F00F04B
:101B80009E807F4BB3F8623103F008039BB2002BB9
:101B900000F095807A4B93F8583113F0100F0CD069
:101BA000774BD3F88C21784991F92401B3F882114D
:101BB00000FB0212A3F8822181E0714BD3F844317B
:101BC00093F8D720002A40D06D4AB2F88611B2F8B7
:101BD0007C0102B293F8D6300CB2A41A002CB8BF24
:101BE00064429C4212DD664A0024C2F88841012406
:101BF00082F80D448AB209B200B28142C4BF5B428E
:101C00009BB213445E4AA2F8863158E05C4B93F8CD
:101C10000D343BB15A4BD3F87811C3F8741100213D
:101C200083F80D14564BD3F88C311A445649B1F849
:101C3000D030B1F8D2109A4203DB8A42B4BF1346C7
:101C40000B464F4AA2F8863139E04D49B1F97C2163
:101C5000B1F98611891A81EAE170A0EBE17093F87D
:101C6000D63098420BDD464B01EBD1714910C3F8D9
:101C7000F012012183F80E1483F80D140DE0404B8F
:101C800093F80D344BB13E4BD3F87811C3F874116F
:101C9000002183F80E1483F80D14394BD3F88C11FE
:101CA0001144394AB2F8D030B2F8D220994203DB5D
:101CB0009142B4BF0B461346314AA2F88631304BED
:101CC000D3F8444194F8DA60002E69D0B3F8623159
:101CD00013F0030F64D02A4BB3F886710197D3F841
:101CE000C093D3F8C483D3F8C873384639460EF08E
:101CF00073FE8246484649460EF06EFE81464046D7
:101D000041460EF069FE014648460EF05DFD8046F4
:101D1000404651460EF058FD10F0F4F801463846A2
:101D20000EF00EFF07461A490EF0FEFF90BB384634
:101D30000FF00EFF124BD3F810140EF04DFE0FF003
:101D40008BFEB0F5617FA8BF4FF461700EF06EFAA4
:101D500009A3D3E900230EF0F9FB0EF0DFFC0FF02E
:101D6000B9FE074630460EF0E3FD39460EF034FE6C
:101D70000FF072FE80B20EE0A2EB0FE5DD1696408A
:101D800028010020C9240020B81F002089888888E5
:101D90008FC2753C0020019A0244A94BA3F886210A
:101DA00015F0200F0DD0A64BB3F8623103F03003CD
:101DB0003BB1A34B93F8583113F0010F01D00CF055
:101DC000DDF9A04B1D68201D04F150019E4BB3F8B6
:101DD000F62004F15C03A8479C4B93F80080B8F10F
:101DE000030F40F29686964BB3F91824B3F9841189
:101DF0000029B8BF49426FF063035B1A9A4204DBC3
:101E000001F164039342A8BF13468D4AA2F8183427
:101E100000F07FBE8A4DB5F986010EF089FD83463C
:101E2000B5F916040EF084FD8246B5F914040EF0DF
:101E30007FFD8146D5F81C440194B5F918640296DB
:101E400005F5846405F58565814E04EB0818584650
:101E500055F8081C0EF0C0FD07465046A1680EF06C
:101E6000BBFD014638460EF0AFFC0746484655F824
:101E7000041C0EF0B1FD014638460EF0A5FC0746E5
:101E8000DDF804E09EF900004042029901FB00F0F9
:101E90000EF04EFDE1680EF09FFD014638460EF053
:101EA00093FC0EF05FFF26F8020F10341035444506
:101EB000CDD1634B93F8E034013B142B00F2ED815C
:101EC000DFE813F04200EB01EB0115005300EB01DA
:101ED000EB012301EB01EB01EB01EB01EB017900DD
:101EE000EB01EB01EB01EB01EB019C01BD010420D7
:101EF000022103F06BFC524CB4F8186400FB06F0AE
:101F000087B20420012103F061FCB4F8165400FBF1
:101F1000057087B2042003F069FC4E4C38442081E0
:101F20000520022103F052FC00FB06F086B20520DA
:101F3000012103F04BFC00FB056085B2052003F096
:101F400055FC28446081A8E10520012103F03EFCF6
:101F50003B4BB3F8183400FB03F084B2052003F0C8
:101F600045FC20443B4B588197E1354CD4F8E47450
:101F7000002003F03BFC374D97F90630B4F9C62238
:101F800002FB03F3344E86FB03A2DB17C3EB2213E1
:101F900018442880012003F029FC97F90E30B4F989
:101FA000C42202FB03F386FB03E6DB17C3EB261315
:101FB0001844688071E1294B1B7813F0040F06D197
:101FC0001F4BD3F8E8349A88224BDA810EE01C4B81
:101FD000B3F98611D3F8E82413885288994203DBB9
:101FE0008A42B4BF13460B461A4AD381194BDA8989
:101FF0001B4B1A80124BD3F8EC341C78002C49D0C0
:10200000022003F0F3FB0E4BD3F8E434B3F91020B5
:10201000598A904203DB0AB29042B8BF0246084890
:10202000D0F8F01449898A1A95B2B0F8F4242EB287
:1020300010B2864216DD22440148A0F8F42419E0CB
:1020400028010020A8000020B81F00209C240020A8
:102050009E240020980000201F85EB51C9240020F9
:10206000A02400202DB210B2854203DA121BBC4816
:10207000A0F8F42493F91630B94AB2F9F42402FB1B
:1020800003F3B84A82FB0302DB17C3EB6213194464
:10209000B54B9980B24BB3F8623103F480739BB2B5
:1020A0006BB1AF4AB2F88011AF4BD9801981B2F849
:1020B00084115981B2F882219A8100F009BDA84AA1
:1020C000B2F81414A84BD9801981B2F818145981A8
:1020D000B2F816249A8100F0FBBC08EBC40393F914
:1020E0000630B5F9062002FB03F387FB0316DB1766
:1020F000C3EB6616EE80204603F078FB3044E880A0
:1021000001340235072CE8D1C7E0984B1B7813F057
:10211000040F06D1924BD3F8E8349A88924BDA81B7
:102120000EE08F4BB3F98611D3F8E8241388528858
:10213000994203DB8A42B4BF13460B468A4AD381D5
:10214000894BDA898A4B1A80854BB3F8623103F4E4
:1021500080739BB213B30320012103F037FB804C43
:10216000B4F8826100FB06F087B20320022103F07D
:102170002DFBB4F880517C4C00FB0570E0800420FE
:10218000012103F023FB00FB06F086B204200221AC
:1021900003F01CFB00FB0560208121E003200121EE
:1021A00003F014FB6E4CB4F8166400FB06F087B223
:1021B0000320022103F00AFBB4F814546A4C00FB1C
:1021C0000570E0800420012103F000FB00FB06F015
:1021D00086B20420022103F0F9FA00FB0560208199
:1021E000032003F003FB604CE3881844E0800420E4
:1021F00003F0FCFA2389184420814EE004200121D9
:1022000003F0E4FA564DB5F8163400FB03F086B23D
:10221000554C2681042003F0E9FA30442081052042
:10222000012103F0D3FAB5F8143400FB03F085B2B2
:102230006581052003F0DAFA284460812DE0484BDF
:10224000B3F818A44B4D03244FF002094FF00108D6
:102250001F462046494603F0B9FA00FB0AF086B251
:102260002046414603F0B2FAC4F1060323F001030D
:102270003B44B3F8143400FB036086B22E80204642
:1022800003F0B4FA304425F8020B0134072CE0D1F6
:10229000334BB3F88621364B1A80374B9B6813F0CB
:1022A000200F00F01D84002003F0A0FA05462E4CFC
:1022B0002080012003F09AFA6080294B93F8DB30EC
:1022C000002B00F00D84264BD3F8F8341B7813F064
:1022D000020F24D0224BD3F8E44494F90E20B3F932
:1022E000C41201FB02F21F4981FB0276D217C2EB36
:1022F000261292B294F906406442B3F9C63203FB47
:1023000004F381FB03A1DB17C3EB211189B2164B48
:10231000541A25441D800A4410445880E0E3104BB1
:10232000D3F8E444104A94F90610B3F9C66206FBE8
:1023300001F60C4981FB06E7F617C6EB2716354474
:10234000158094F90E40B3F9C43203FB04F381FB0A
:102350000341DB17C3EB211318445080C0E300BFD7
:10236000280100201F85EB5198000020C92400207F
:10237000A02400209E000020B81F0020B1F9020018
:10238000E25EE5186D88904203DB2AB28242A8BF64
:10239000024621F8022F0833402BEFD1A14BD3F88E
:1023A000F8341B7813F0040F19D09E4B93F8FC748B
:1023B000043FFFB2002404237DB2DFF86882EC42C0
:1023C0000AD45E1CF6B2381908EB4303C0B2B3F866
:1023D000EC1004F013F833460134042CEFD1924B87
:1023E0001988924B1E78012E0CD98F4B981E00EB4A
:1023F000460009B233F9022F9142B8BF114689B2A3
:102400008342F6D1002E65D0864BD3F8E804884A83
:10241000926802F48058B3F9F2C0D3F8F0E4D3F82C
:10242000009502F010020192824B1F7807F004071A
:10243000FFB2760000230DB27B4A4446884621460F
:102440004488A54205DDC8EB040433F802A05444D7
:102450009C52F1B1BEF80A40A4450DDD33F902A04B
:10246000B9F80240B0F802B0A24503DBDA45B4BFC8
:1024700054465C469C5223E033F902A08488B9F8A4
:1024800000B0A24503DBDA45B4BF54465C469C521B
:1024900016E033F902A00488B0F802B0A24503DBCD
:1024A000DA45B4BF54465C469C52BEF80C40A44585
:1024B00006DA019C14B904889C5201E084889C527D
:1024C0002FB9DFF860A10AF204541C5B9C5202335E
:1024D000B342B5D1534BD3F81C35002B64D0514BCC
:1024E00093F8E034013B142B57D8DFE803F015567E
:1024F000560B3756562D5656565656445656565621
:10250000563A44004C4C0020218903F077FF01200B
:10251000618903F073FF47E0424BD3F81C345B78CA
:102520002BB10020444B598903F068FF3CE0414B3C
:102530001B7813F0040F4FF000001ABF3E4B59896F
:10254000014603F05BFF2FE03B4C0020E18803F0E5
:1025500055FF0120218903F051FF25E003F05AFFC8
:1025600022E0354C0020218903F048FF01206189D9
:1025700003F044FF18E0304C0020E18803F03EFFF8
:102580000120218903F03AFF0220618903F036FF20
:102590000320A18903F032FF06E0254B9B6813F06E
:1025A000200F01D003F036FF03F0F2F8234B1B7825
:1025B00033B91F4B9B6813F4806F01D00CF0CCFA39
:1025C0001B4B9B6813F4803F3DF4A7AD1C4B1B785D
:1025D00013F0FF0F7DF4A1AD06F048FD0290114B02
:1025E000D3F82025821AD243D20F0592D3F824259E
:1025F000821AD243D20F0492D3F82835C31ADB4390
:10260000DB0F039313B30F4D00242646054800F259
:102610002C570D4BB3F800B093F802A0A91E7831E7
:1026200001911BE028010020A02400209C24002010
:10263000B81F0020C924002098000020C8240020D2
:10264000C6240020FE3B01087C520108049C002C9B
:10265000D9D1059D002DD6D1FDF75FBD5FFA86F972
:10266000A5F10208E31924F807B083F802A02B882B
:1026700003F4807292B2A2B903F400739BB2002BF0
:1026800048D0AE4B1B7813F0040F04EB0701AC4BA2
:102690000CBF33F8700F33F8740F9A78E0538A70D8
:1026A00038E048464146019A07F046FCDFF894E2DC
:1026B000BEF8623103F0400292B23AB14846414658
:1026C0009F4B03F18C0207F037FC23E003F0040278
:1026D00092B242B148464146DFF864E20EF1A002F0
:1026E00007F02AFC16E003F0020292B23AB1484623
:1026F0004146934B03F1B40207F01EFC0AE013F0CD
:10270000010F07D048464146DFF834E20EF1C80217
:1027100007F012FC013603340435542C9ED1039C7F
:1027200004B3884A029D05F5C333A033C2F82835A7
:1027300092F8803593B90122824B83F88025824B31
:102740009B6813F0020F02D004F01EFE00E0002090
:1027500000F001007B4B83F8810503E00022794BF8
:1027600083F88025774B93F8813523B3754B93F825
:102770008065002213467248744C754DC118498813
:1027800001F0800189B291B156B902EB040E014605
:1027900031F8DCCF8F7822F804C08EF8027006E0A2
:1027A0001119B5F800E0AF7822F804E08F70043317
:1027B0000332702BE2D1049E002E32D0614BB3F96C
:1027C00082110029B8BF4942624A82FB0170C917D1
:1027D000C1EB2011B3F98031002BB8BF5B4282FB03
:1027E00003A2DB17C3EB2213CAB2DBB29A4228BFA3
:1027F00013461BB1584A92FBF3F200E0564A514B84
:10280000029C2244C3F8242593F8823523B901227F
:102810004C4B83F882250DE000224A4B83F8822539
:1028200003E0484B93F8823523B94C4A454BC3F833
:1028300084255BE1464A434BC3F8842556E1E01802
:10284000408800F0400080B2002800F0B480B2F868
:10285000800106B2322E28DDD2F884C51E5D06F056
:102860000F0792F888E577450EDA92F889E5BEEB16
:10287000161F09DC01EB050EBCF800909CF80280E5
:1028800021F805908EF8028092F88AE577450CDBF6
:1028900092F88975B7EB161F07DC4E19BCF800E0FB
:1028A0009CF8027021F805E0B77000B210F1320F09
:1028B00026DAD2F884E5185D00F00F0692F88875E4
:1028C000BE420DDA92F88B75B7EB101F08DD4F1979
:1028D000BEF800809EF802C021F8058087F802C08B
:1028E00092F88A75BE420BDB92F88B65B6EB101F2F
:1028F00006DD4819BEF800709EF802604F538670DE
:10290000B2F8820106B2322E32DDD2F884C51E5DE5
:1029100006F00F0E92F88875BE4529DA360992F84E
:102920008975BE42C0F2E9804F19BCF800809CF85E
:1029300002E021F8058087F802E0DEE0C9240020EB
:10294000FC3B010828010020B81F0020540600208D
:102950007C5201081F85EB51400D0300DC3C01084F
:102960004E19BCF800E09CF8027021F805E0B77041
:1029700000B210F1320F1EDAD2F884E5185D00F0D3
:102980000F0792F88A65B74215DB000992F889654E
:10299000B042C0F2B8804E19BEF800C09EF8027076
:1029A00021F805C0B770AEE04819BEF800709EF877
:1029B00002604F53867004330331702B7FF43FAFB6
:1029C000059D45B1029E06F543435033544AC2F873
:1029D000203503F039FA07F0E1FA0BF0E3FFFDF7D9
:1029E0009CBB504B1B68FDF760BC4E4B1B68FDF752
:1029F00055BC4B4B0022C3F86421C3F86821C3F8CF
:102A00008C25C3F89025C3F894250027C3F8987542
:102A1000C3F89C75C3F8A0759646FDF736BD012432
:102A200002E0022400E00324E4B2621E3E4B83F87D
:102A3000E02404F0E5FF05F081F902202821224678
:102A400006F04AFBFDF727BED6F88020002A3DF4A9
:102A5000D4ADFDF7DDBD002F7DF4D5ADFDF7D8BDBC
:102A60002F4CD4F84431BDF83410B3F85C200A443C
:102A7000A3F85C20BDF83610B3F85E200A44A3F832
:102A80005E2004F0BDFF05F0C7FB002384F8493148
:102A9000FDF701BE00207C32214C04F1D303E83461
:102AA000FDF783BE4FF0FF32204B1A601C4BD3F86A
:102AB000C832ED1AFEF765B9194B93F80E34002BA6
:102AC0007EF498AAFEF771BA00231549FEF7D8BB29
:102AD000134BD3F8E484164D0324164FFFF7FDBAC9
:102AE0000F4BD3F8E4441449002347E400210B467C
:102AF000124C0B4A02F22C55A1E692F88B75BE429D
:102B0000BFF636AF2CE792F88B65B042BFF653AFF5
:102B10004AE7B8F1010F3FF67DA9FFF7CAB900BF38
:102B200028010020B8240020B81F0020AC0000209D
:102B3000980000201F85EB5196000020FC3B010807
:102B40002DE9F04FA3B07F4B7F4A1A6000225A60F4
:102B50007E4B1B8803F5FF3303F5FF739B027C4A12
:102B6000136003F0FBF818B904F0D0FD04F048FF3F
:102B700005F0E4F8774B997B0023089309930A93B7
:102B80004FF4E0130B93744B1A6842F480321A60CE
:102B90009A6942F010029A611A46136803F40033EE
:102BA0000993089B01330893099B1BB9089BB3F554
:102BB000A06FF2D1684B1B6813F4003F02D00223D0
:102BC0000A931DE0644B1A6842F001021A60002368
:102BD0000893614A136803F002030993089B0133C9
:102BE0000893099B1BB9089BB3F5A06FF2D15A4B10
:102BF0001B6813F0020F02D001230A9300E0FEE7E6
:102C0000564B1A6842F010021A601A6822F003024A
:102C10001A601A6842F002021A60A3F580535A68DB
:102C20005A605A685A605A6842F480625A604C4A44
:102C3000106820F0704010604A4C45484460586865
:102C400020F47C105860136843F000431360464B37
:102C5000DA6822F40042DA609B6813F4004F05D072
:102C6000424A3B4B5A604FF4801301E04FF4E013AB
:102C70000B930A9B012B19D0022B1CD171B10B9B1A
:102C8000B3F5801F03D14FF4A0130B9306E00B9B09
:102C9000B3F5E01F04BF4FF400130B932E4B59689C
:102CA0000B9A0A4342F480325A6004E02A4B5A6875
:102CB00042F460125A60284B1A6842F080721A601F
:102CC0001A46136813F0007FFBD0234B5A6822F09A
:102CD00003025A605A6842F002025A605C6804F0CB
:102CE0000C04082CFAD11C4B5B6803F00C03042B7A
:102CF00007D0082B0AD0002B3ED11A4A1C4B1A6071
:102D00003DE0134B5A681A4B1A6038E0124B596871
:102D10005A68C1F38343023312F4803F05D1154A48
:102D200002FB03F3124A136029E00B4A526812F4C3
:102D3000003F074A526818BF520802FB03F30C4ACF
:102D400013601CE0CC060020DD560008E0F7FF1FF2
:102D500014000020B81F0020001002400020024094
:102D60000410014000127A0000100140001BB7005F
:102D7000B400002000093D00B24AB34B1A60B34DC5
:102D80006B68C3F30313DFF800834344197AC9B2B5
:102D9000AD4B1A68CA401A60AD4AAE4BDA60AB69F7
:102DA00043F00103AB616B6A43F080736B62AB6904
:102DB00043F01C03AB6100238DF84A3022AE4FF67E
:102DC000FF7326F8403DA448314603F06FFBA34F44
:102DD0003846314603F06AFBA148314603F066FBF2
:102DE000A04B5A6842F000725A60DFF8B49209F1C1
:102DF00060030FCB86E80F00AB6943F00803AB61BB
:102E0000AB6943F00803AB6108233B6110233B61CE
:102E1000129813A903F04AFB149815A903F046FB76
:102E200009F1700999E8030086E80300AB6943F0F3
:102E30000403AB61D8F804208B4B9A4241F0D18552
:102E40009DF84E30142B41F0C38510238DF84E3081
:102E500001F0BEBD002002F007FB12AD834B93E8EA
:102E6000030085E80300794B9A6942F008029A61F1
:102E7000129813A903F01AFB284603F0B7FF7C4A07
:102E8000129BA2FB03039A0C7A4B9A606E4B1A6852
:102E9000794BA3FB02129209013A784B5A60F02158
:102EA0006C4A82F8231000259D6007271F600120CF
:102EB00009F006FD642006F003F9714B996801F4EE
:102EC0000066704A134643F8045B5560043343F8C8
:102ED000045B1D6002238DF83A301023ADF83830C2
:102EE0008DF83B500423137001239370D77011F4B5
:102EF000004F0AD01223ADF83830134601221A7160
:102F00005A719A71DF71022500E001255E4B5A6803
:102F1000554B9A420FD1BDF8383043F02003ADF83D
:102F20003830584B05221A726A1C5D720121997261
:102F30000721D972D5B248480EA903F0B5FF86B172
:102F400022A9022321F8503D444803F0ADFF4D4B28
:102F500009221A736A1C5D73012199730721D973C1
:102F6000D5B23A4B5A6942F001025A619A6942F469
:102F700000729A61454804F063F8454B1293454B43
:102F800013930023149315951693022D28BF8023C5
:102F900017934FF4807318934FF480631993202391
:102FA0001A934FF400531B9300271C97374E30465B
:102FB00012A904F025F8336843F001033360364B5F
:102FC0005A6822F4702222F48072012D94BF0021ED
:102FD000012142EA01225A609968304A0A4042F4CB
:102FE000602242F002029A60DA6A22F47002691EDC
:102FF000C9B242EA0152DA6238460122DFF884E0BF
:103000001F25072700EB0E0C9CF80210002900F08A
:103010008A8010F80E10561CF6B29CF8038009291D
:1030200040D9D3F80C90A1F10A0C0CEB4C0C07FA28
:103030000CFA29EA0A0908FA0CFC49EA0C0CC3F854
:103040000CC03DE000127A00B400002000100240E5
:103050000005FA0500ED00E000080140000C014009
:103060000010014000000140001BB700583D01085E
:1030700083DE1B43CC060020D34D621010E000E03D
:10308000B81F00203C02002014000020080002406D
:103090004C2401404C02002000240140FDF7F1FFC8
:1030A000E03C0108D3F8109001EB410C07FA0CFA50
:1030B00029EA0A0908FA0CFC49EA0C0CC3F810C00A
:1030C000062A0FD8D3F834C0013A02EB820205FA7F
:1030D00002F82CEA080C01FA02F24CEA02025A63E6
:1030E000324620E00C2A0FD8D3F830C0073A02EB62
:1030F000820205FA02F82CEA080C01FA02F24CEA04
:1031000002021A6332460EE0D3F82CC00D3A02EBED
:10311000820205FA02F82CEA080C01FA02F24CEAE3
:103120000202DA623246043010287FF46BAFA54BFE
:103130009A6842F480729A609A6842F001029A603A
:103140009A6842F008029A601A46936813F0080FD2
:10315000FBD19C4B9A6842F004029A601A4693682D
:1031600013F0040FFBD1974B9A6842F4A0029A60C7
:10317000954BB3F8E600002841F03C84B3F9E83001
:10318000002B41F03784904BB3F9EA30002B41F02B
:1031900031848E4B1A6842F00E021A608A4BB3F8E3
:1031A000EE5093F8ED808A4B1B68B3F85A700022FA
:1031B000884B1A700AF07CFC002801F0E184864BF1
:1031C000864A1A60864A5A60864ADA60142D21D0EF
:1031D00004D8052D28D00A2D21D016E0BC2D0AD008
:1031E000B5F5807F02D0622D0FD109E000227E4B21
:1031F0001A7601F09ABC01227B4B1A7601F095BC3D
:103200000222794B1A7601F090BC0322764B1A7693
:1032100001F08BBC0422744B1A7601F086BC0522A7
:10322000714B1A7601F081BC06226F4B1A7601F0C1
:103230007CBC694B6D4A1A606D4A5A606D4ADA600F
:103240004E2D09D05D2D0CD0362D14BF002240220A
:10325000694B1A7301F0A3BC8022674B1A7301F00B
:103260009EBCC022644B1A7301F099BC5A4B634A4E
:103270001A60634A5A60634A9A605A4ADA60622D59
:1032800014D004D80A2D20D0142D19D013E0BC2D51
:1032900007D0B5F5807F0ED10022534B5A7601F04E
:1032A0008EBC0122504B5A7601F089BC02224E4B53
:1032B0005A7601F084BC03224B4B5A7601F07FBC56
:1032C0000422494B5A7601F07ABC0522464B5A76C5
:1032D00001F075BCB0468AF800B0B8F1080F00F2F2
:1032E000EC80DFE818F0100010003200AF00D300CF
:1032F000EA00EA00EA000900344B1A6822F00202F0
:103300001A6001F068BC8DF848B0374B5A683E4BE4
:103310009A4216D053203146012212AB09F0D4FB59
:1033200078B19DF84830E52B0BD1334B5E73374BAA
:103330002B60374B6B60012389F8003004238AF837
:103340000030B8F1010F01F046840AF0B1FB00280B
:1033500078D0682006210A4612AB09F0B5FB9DF82B
:103360004D2002F001029DF84B3003F001035B0099
:1033700043EA82029DF8493003F0010313430DD064
:10338000012B02D11C4B9E7347E0022B03D101227B
:10339000194B9A7341E0052005F0F2FE68200C21DC
:1033A00001220EAB09F090FB9DF8383013F00F03AB
:1033B00002D1052005F0E4FE042B2BD10E4B9E73A9
:1033C0002BE000BF00240140B81F00207402002041
:1033D0006C0200203604002020040020C9E500080B
:1033E000F1D2000890C1793D14000020C1E6000828
:1033F00011D40008325C8F3DCC06002071E6000835
:103400006DD3000831D30008001BB70065E5000844
:1034100099D4000801227A4B9A737A4B2B607A4B2D
:103420006B60774B9B7B002B14BF6E236F232B723B
:10343000022389F8003001238AF80030B8F1020F26
:1034400001F0C9838DF848B0704B5A68704B9A42AE
:103450001CD01C200D21012212AB09F035FBA8B1B4
:103460009DF848302A2B01D01A2B0FD1694A2A60C7
:10347000694A6A60624AD373032389F800300223E1
:103480008AF80030B8F1030F01F0A58322AB03F8EE
:1034900040BD18203146012209F016FB68B19DF8A5
:1034A0004830FB2B09D15D4B2B605D4B6B600423D7
:1034B00089F8003001238AF8003099F8003043B9C8
:1034C000B8F1000F7FF406AF564B1A6822F00202E3
:1034D0001A604E4B5E684E4B9E4215D0524B9A6915
:1034E00042F010029A614FF40058ADF84880022370
:1034F0008DF84B3010238DF84A304C4D284612A9D8
:1035000002F0D4FFC5F814800A2005F0D9FD772019
:10351000A02101220EAB09F0D7FA002801F0658343
:1035200077201E2101220AF023F84FF42F6005F0C6
:10353000BBFD0025A846DFF8C8908DF848808DF8BF
:103540004980A5F160017720C9B2022212AB09F0CF
:10355000BBFA9DF848209DF8493043EA022209F160
:103560001003EA520235102DE7D1103BDD8B05F038
:103570000F0005F47F45DD8303F10E011E330122A8
:1035800031F802EFBEF1000F18BF00229942F7D1C7
:10359000002A41F02A8300231946DFF864E0A4469C
:1035A00011F0010F21F00102724419BF127C534047
:1035B000128A83EA122301F015BB13F4004F18BFDF
:1035C00083F4C0535B00013AF7D101311029E7D1F0
:1035D00005430B4AD583C3F30333984241F0058377
:1035E000134B42F210721A805A80124A5A60124AE1
:1035F0009A60124ADA60124A1A61124A5A6103E169
:10360000CC06002041540008B1D20008140000206C
:10361000001BB700ADE40008ADD3000841E5000889
:1036200051D4000874020020001002400010014034
:10363000E40200205DE4000801D200084DE4000827
:1036400011D20008C95100089C4B93F82030002B80
:1036500040F0DA8003F1804303F504339A6942F0C5
:1036600010029A614FF40058ADF8348002238DF8AF
:10367000373010238DF83630914D28460DA902F0D1
:1036800015FF4FF48046ADF8346004238DF83630D2
:1036900028460DA902F00AFFC5F81080894B5A6927
:1036A00022F470625A615A6942F400725A610E96AD
:1036B00000238DF83C3008238DF83D3001258DF82E
:1036C0003E500EA803F054FC28238DF830300F2311
:1036D0008DF831308DF832308DF833500CA803F06E
:1036E0003FFD142005F0ECFC7720D0212A460DF197
:1036F0001F0309F0E9F99DF81F30704A82F83B304A
:103700000321A2F84410552B78D17720D1212A46E5
:103710000DF11F0309F0D8F99DF81F30674D03F034
:103720000F0285F83C201B0985F83D307720AA213F
:10373000162212AB09F0C8F99DF848209DF84930CF
:1037400043EA0223AB849DF84A209DF84B3043EABC
:103750000223EB849DF84C209DF84D3043EA022370
:103760002B859DF84E209DF84F3043EA02236B8550
:103770009DF850209DF8513043EA0223AB859DF817
:1037800052209DF8533043EA0223EB859DF85420E4
:103790009DF8553043EA02232B869DF856209DF86C
:1037A000573043EA02236B869DF858209DF8593024
:1037B00043EA0223AB869DF85A209DF85B3043EA2A
:1037C0000223EB869DF85C209DF85D3043EA0223DE
:1037D0002B87012385F820303B4B41F270721A8011
:1037E00046F678125A80394A5A60394A9A60394AFC
:1037F000DA60394A1A61394A5A6105E04FF40052D9
:103800002F4B5A6101F0F5B9354B93F8E2300BB10B
:10381000344A1370324B93F8E3300BB1324A1370D1
:103820002F4B93F8E4300BB1304A1370304B1B68C8
:1038300013F0020F02D02F4B1B6898472E4B1B68CA
:10384000984722AB002203F8402D1E200A210122B6
:1038500009F03AF938B19DF84830482B03D10322DA
:10386000224B1A7004E0224B1A6822F008021A60F8
:103870001F4B1B6813F0080F1AD03FB2642697FB4A
:10388000F6F528460DF054F8804606FB157000B298
:103890000DF04EF819490DF09FF8014640460CF026
:1038A00093FF17490DF098F8044B986401F0ABB9F9
:1038B0000022024B9A6401F0A6B900BFCC0600209A
:1038C0000010014000000140E402002095E40008DF
:1038D00075D200086DE4000821D200085153000899
:1038E000B81F0020360400209E040020C7240020BA
:1038F000740200208C040020200400208988883C69
:1039000000002041EB6883F01003EB60EB6883F06C
:103910000803EB60304605F0D3FB404601F0A4FD00
:10392000304605F0CDFB002001F09EFD7B1E13F01C
:10393000FF07E7D1844B08221A6110221A61834BDA
:103940001B6893F90C000CF071FC7BA3D3E90023F6
:103950000CF0D2FC0CF0E2FE0EF048F806467C4D6E
:1039600028880CF0E5FF31460DF036F80EF074F8BB
:10397000784B188028880CF0DBFF014676480DF064
:10398000DFF876490DF0DCF8754B1860754BD86898
:103990000CF05EFC68A3D3E900230CF0ADFC68A337
:1039A000D3E900230CF0A8FC0CF0B8FE6E4B1860B5
:1039B0006E4B5A796E490A7003F110006D49C86464
:1039C0006D4901EBC20292F881106C4A11609B684C
:1039D00013F0200F02D00122684B1A60684B1B685D
:1039E00013F0080F00F022811022574B5A61654BEB
:1039F0005B68654A934213D1644B9A6942F00802AE
:103A00009A614FF48053ADF8383002238DF83B3083
:103A100004238DF83A304C480EA902F047FD0FE020
:103A20005B4A93420CD1594B9A6942F010029A6159
:103A300022A94FF4804321F8503D564802F036FD4C
:103A4000322005F03DFB1E200021112209F090FDDF
:103A50001E200121602209F08BFD642005F030FB5F
:103A600012A809F0E9FF4FF00A0800252E462F465C
:103A70004FF01E0BDFF820A1DFF8CC905846022152
:103A8000012209F075FD322005F01AFB12A809F099
:103A9000D3FFBDF948201744BDF94A100E44BDF9C3
:103AA0004C301D449142B8BF0A469A42B8BF1346F3
:103AB000534509DBD9F80C3083F01003C9F80C30FA
:103AC000B8F10108DAD102E04FF0000801E04FF050
:103AD00001081E200021122209F04AFD4FF00A09B8
:103AE0004FF01E0BDFF860A058460221012209F0BA
:103AF0003FFD322005F0E4FA12A809F09DFFBDF960
:103B00004820BF1ABDF94A10761ABDF94C30ED1A9B
:103B10009142B8BF0A469A42B8BF13461E48834234
:103B20003CDBDAF80C3083F01003CAF80C30B9F142
:103B30000109D9D134E000BF399D52A246DF913F3F
:103B4000000000A0F7C6B03E000C0140D0040020E9
:103B500000000020F40400200AE81C4100401C463C
:103B60000404002020040020CC040020B81F002002
:103B700008060020CC060020E03C01084406002096
:103B8000740200201400002000127A00001002408D
:103B9000001BB7000010014001F0FFFF4FF00008CC
:103BA000DFF8409338460CF0C3FE0146BB480CF0EA
:103BB000C7FF20F00040C9F81C0030460CF0B8FEEA
:103BC0000146B6480CF0BCFF20F00040C9F82000C8
:103BD00028460CF0ADFE0146B1480CF0B1FF20F0D4
:103BE0000040C9F824001E200021702209F0C0FC0A
:103BF0001E200121202209F0BBFC1E2002210022F0
:103C000009F0B6FC642005F05BFAB8F1000F07D1AB
:103C10004FF07E52C9F81C20C9F82020C9F8242092
:103C20001022A04B1A6101229F4B1A7000229F4B59
:103C30001A609F4B03F180019E4A43F8042F8B4288
:103C4000FBD19D4D00262E65F0229C4B83F822204F
:103C50009B483146C0220DF09AFC4FF44073ADF8FA
:103C6000483010238DF84A3002238DF84B308D48B0
:103C700012A902F01BFC934BDA6942F00702DA61E9
:103C80009A6942F4006242F00C029A61EE67A3F571
:103C90006343C83BC5F88030143BC5F884308A4F75
:103CA00038463146012208F073FF38463146324625
:103CB00009F092F838463146844A334609F0E8F86C
:103CC00005F18800824902F09FFC8248C5F8900007
:103CD00005F028F905F19400FF2115220DF057FC9D
:103CE000012385F8A93085F894607B4B1B6813F09D
:103CF000020F08D0012185F89510032185F8A9103D
:103D0000022185F8961013F0040F09D06A4A92F840
:103D1000A910481C82F8A9000A44032182F89410D3
:103D200013F00A0F15D0644B93F8A92099180420BA
:103D300081F89400511CC9B21944052081F89400FF
:103D4000D11C83F8A9100232D2B21344062283F8A0
:103D50009420624B9B6813F0200F09D0564A92F8CA
:103D6000A910481C82F8A9000A44072182F894107F
:103D700013F0800F0FD0504A92F8A910501809255F
:103D800080F89450881C82F8A9000131C9B20A4415
:103D90000A2182F89410514A5279082A01D00E2A39
:103DA00009D1454A92F8A910481C82F8A9000A4492
:103DB0000B2182F89410404991F8A920501CC0B200
:103DC00081F8A90011440C2581F8945013F0040FD8
:103DD00007D03949023281F8A9200144102281F824
:103DE0009420354991F8A920501CC0B281F8A9004F
:103DF0001144122581F89450384991F84111002955
:103E00000CBF002303F001033BB12B4B023283F8BC
:103E1000A9200344132283F89420274890F8A9305E
:103E20005A1C80F8A9200344142283F89420AC3053
:103E3000002198220DF0ABFB4FF00009DFF89CB099
:103E4000DBF82C214FF0000A554601260327009588
:103E5000304629463B4608F0ADFA8046002840F03F
:103E6000DE86BAF1000F40F0E0864FF49642B2468B
:103E7000EDE709F10106F6B24C2202FB09F9184DF3
:103E80004D44284600210DF082FB154941F8098078
:103E9000012385F84A30B146D2E700BF00406F46A3
:103EA00001C05E46000C0140DA0200202C1F0020F9
:103EB0002C1F00203C000020CC06002000ED00E07C
:103EC000C41D002000100240183E0108656500086E
:103ED00019630008E020002074020020B81F0020B1
:103EE0007807002014000020002100910220B26811
:103EF000032308F05FFABA4BC3F8440100231D9373
:103F00001E931F932093ADF88430B64B5B790E2B34
:103F100001D0082B02D101238DF87C30B14B9B6876
:103F200013F4005F23D10026AF4D05F1600837463A
:103F3000705D022809D005F1100319461A788242F3
:103F400006D010334345F8D101E0294600E0394658
:103F500003F08EFE83681B78012B03D01036602E91
:103F6000E6D101E0012300E000238DF877309D4A7F
:103F70009368C3F380118DF87810C3F340318DF846
:103F80007410C3F3C0318DF87610C3F300418DF87F
:103F9000791003F001018DF8751094480068003025
:103FA00018BF01208DF87A009148006890F826012A
:103FB000C0F380008DF87B00B2F8DE00ADF87E0023
:103FC000B2F8E020ADF880204FF47A72ADF882208C
:103FD00013F4805F04D0834BB3F8DA30ADF882304D
:103FE000B0F5FA7F84BF0023ADF882307D4AB2F885
:103FF0001831ADF884307A4B92F8202183F84821AB
:104000000022A3F84C219DF87C30934214BF022378
:10401000134601B10133744A02EB8303D3F848011C
:104020000188CAB20B0A4FF6FF75A94200F0218140
:1040300002900027BB46DFF8C881694D05F5CC70BA
:1040400003900AE0029A32F8021F0292CAB20B0AE7
:104050004FF6FF70814200F00C819DF8771021B17E
:10406000911EC9B2012940F2FE809DF8781029B155
:10407000A2F10A01C9B2032940F2F5804FEA021AFF
:1040800008EB0A069DF8791029B158F80A1059482A
:10409000814200F0E8809DF8761011B1012A00F00D
:1040A000E280022B05D19DF87410002908BF00237F
:1040B00003E0012B08BF9DF875309DF87A1049B1D7
:1040C0009DF87C1031B9A2F1080101F0FF0101292E
:1040D00098BF04239DF87B1039B19DF87C1021B95D
:1040E000043AD2B2032A40F2A780012B31D14FF01B
:1040F000000985F85091C5F85491C5F85891C5F854
:104100005C91C5F89091FF2385F8943185F895313D
:1041100085F8969185F8979185F89891C5F8A461EE
:104120007068F27BB368ADF848308DF84A200223FE
:104130008DF84B3012A902F0B9F958F80A00317B1A
:104140004A4609F029F830464946012208F020FD88
:1041500089E0022B29D1FAB21201039B13444FF0DC
:10416000000983F8029083F80A905F704FF0010015
:1041700003998854DE607068F27BB368ADF848300C
:104180008DF84A2002238DF84B3012A902F08EF9E7
:1041900058F80A00317B4A4608F0FEFF304649468F
:1041A000012208F0F5FC01375DE0032B42D1BDF898
:1041B0007E30B3F5FA7F25D995F84D910E4AB2FBC2
:1041C000F3F23046082192B2BDF8823008F050FD7B
:1041D00005EB8909C9F81802084B836024E000BF89
:1041E000CC060020B81F0020E03C01084406002057
:1041F0006C0200200004004000127A00995100086F
:104200008052010895F84D91A54AB2FBF3F2304671
:10421000012192B2BDF8823008F02AFD05EB890930
:10422000C9F818029F4B836095F84D31013385F82A
:104230004D3118E0042B16D195F84C91BDF8803023
:10424000974A92FBF3F23046012192B2BDF88430D6
:1042500008F00EFD05EB8909C9F8480295F84C31C4
:10426000013385F84C310BF1010BBBF10E0F7FF4DC
:10427000E9AE8D4B93F84C218C4B1A708C4B1B780C
:10428000162B20D1884BDD6C286800210CF038FDFE
:10429000002800F0D7842FE0DBF84C305E19585925
:1042A00051460CF02DFD38BB05EB090796E80F00D1
:1042B00087E80F0098F80030013388F80030103597
:1042C000C02DE9D118E07B4A02EBC30292F880309E
:1042D00079490B70D2F8847077B16BB14FEA031C47
:1042E0000025DFF824E205EB0E067B190FCB86E8EC
:1042F0000F0010356545F6D1704B9B6813F4805F55
:1043000021D06D4B1B789A1ED2B2FD2A1BD86C4E61
:10431000A6F1080505EB03184FF07C57A86839464D
:104320000CF05AFBA86056F8040C39460CF054FB0C
:1043300046F8040CE86839460CF04EFBE86010368D
:1043400010354545EAD15A4B1B78082B01D00E2B6E
:1043500005D15C4B1A7842F010021A7004E0594BF8
:104360001A7822F010021A7003F0FAFB4E4B564AEC
:10437000C3F868225549C3F86C120021A3F87212E1
:1043800083F8741203F51B7151480160C3F8781269
:10439000504B1A605189504B03F1240223F8021F3D
:1043A0009342FBD14D4A4E4B1A60444B9B6813F02D
:1043B000080F00F0B480414B93F81631032B00F244
:1043C000A580DFE803F0020233567BB1012B1AD13E
:1043D000354B032283F87C22072283F87D220122B9
:1043E00083F87E220C223F4B1A700CE02E4B0222E7
:1043F00083F87C22032283F87D22002283F87E2228
:104400000722384B1A7000230093082036494FF4D6
:10441000E132012307F0CEFF234BC3F88002334A79
:10442000C3F88422031C18BF012370E0012300930A
:1044300008202F492F4A052307F0BCFF1A4BC3F869
:1044400088021E4BB3F81811A1F5777149002A4A6A
:1044500002F1300342F8041F9A42FBD1274A124B63
:10446000C3F884220C221F4B1A70031C18BF0123AF
:104470004DE000230093082021494FF4E13201234D
:1044800007F098FF084BC3F88C021E4AC3F8842239
:104490001022144B1A70031C18BF012337E000BF11
:1044A00040420F0089510008CC060020240600205D
:1044B00008060020E03C01089C240020B81F0020D2
:1044C0005005002080020020C6200020383E010850
:1044D000680200202C010020120200203809002070
:1044E000F001002088020020496700086566000886
:1044F00015680008A08601004C0100201D67000817
:10450000996700080D67000848050020002333B9AB
:10451000082001F01BFC0022B34BC3F88422B34BEC
:104520009B6813F4804F06D00821B14A1170B1493D
:10453000AD4AC2F8841203F0010203F4005142F2C2
:10454000010003420BD0AC4DA748C0F8845211B112
:104550000820A749087012B10C21A54A1170A44A7D
:1045600011780439517013F0800F4ED0A34B9E4A3E
:10457000C2F89032D9680023A14A08E00133DBB2C7
:10458000042B04D90022984B83F8952208E002EB13
:104590000310D0F884018842F0D1934A82F8953212
:1045A000914D984EC5F8B062002009F09FFE964BE1
:1045B0001B68C5F89C320023C5F898323378002B6D
:1045C00095F895228E4B03EB02134FF000010091FA
:1045D0004FF01000D3F884210CBF0123032307F010
:1045E000E9FEC5F8B40218B9802001F0AFFB02E083
:1045F000012009F07BFE854B186800F594727A4B18
:10460000C3F8B822043001F055FD784B9B6813F4D1
:10461000007F0ED013F4005F14BF7D487D4805F085
:1046200007FD7D4B1A6842F010021A6000227B4B96
:104630001A606E4B9B6813F4803F00F01481784F32
:10464000BB6943F00403BB614023ADF8303018234D
:104650008DF8333003238DF8323072480CA902F004
:1046600023FCFB6943F00203FB616F4B1A686F4B3D
:10467000B2FBF3F2013A92B26D4D2B8823F45C73D6
:104680001B041B0C2B801D23AB852A854FF00108D2
:10469000A5F814806023ADF83830ADF83A800026D4
:1046A000ADF83E60ADF8406028460EA902F058FB18
:1046B0002B8B23F008031B041B0C43F008032B83F4
:1046C000B5F844306FEA43436FEA53439BB2A5F811
:1046D00044307B6943EA08037B61A7F69477384648
:1046E00002F0AEFC534B1293534B13934FF010094F
:1046F000CDF8509040F2CA23159316968023179355
:104700004FF48073189319961A964FF400531B9325
:104710001C96384612A902F073FCAB899BB243F495
:104720000073AB813B6843F002033B608DF834902B
:104730008DF8358002238DF836308DF837800DA83E
:1047400002F00EFD3D4A3E4B19889B78B018B152DD
:1047500083700336542EF9D10AF024F90023374927
:10476000374A108892785D185852AA700333542B38
:10477000F9D10AF017F9002319461A46314E905D17
:1047800005098D42A8BF691C00F00F009842A8BF20
:10479000431C0432702AF2D1134A82F8861582F83B
:1047A00087355A08013AD2B222F001002649087032
:1047B00026490A7012F0010F05D00132013B9A42DE
:1047C000A8BF1A460A70084B93F886255308013B88
:1047D000DBB223F001001E49087013F0010F3BD13A
:1047E0001C4A13703FE000BFCC060020B81F002019
:1047F00088020020316700083D670008E0200020A3
:10480000E03C0108DD200020B41F00206C020020E5
:10481000B03E0108BC3E010874020020AC0000203C
:104820000010024000080140B400002000366E0174
:104830000004004034040040880900205406002091
:10484000C83E0108FC3B0108B0060020B20600206B
:10485000B3060020B10600200133013A9342B8BFED
:104860001A46B74B1A70B74B9B6813F4806F62D02F
:10487000042002F09FFD0146042003F0F9F920B165
:1048800043681B7A03F0010300E00023AE4A82F87C
:104890008835AC4B9B6813F4806F0AD0042002F07B
:1048A00089FD0146042003F0E3F9003018BF012020
:1048B00000E00020A44B83F88905D3F88C351A78E2
:1048C000032A36D8DFE802F002062E329E4AC2F8EA
:1048D00090352EE09C4DC5F894354FF02C0805F529
:1048E000B360002142460CF052FE7C2785F8987593
:1048F0008E2385F89935E02385F89B357D2685F84C
:10490000C36505F2C450002142460CF040FE85F814
:10491000C4758A2385F8C535A02385F8C73585F881
:10492000EF6506E0884AC2F8F03502E0864AC2F830
:10493000F43507F0CBFD04F099FB844B1860814BF4
:104940005B79052B03D14FF4C872814B1A804FF469
:104950007A72804B1A80C8227F4B1A807F4B1A785C
:1049600042F008021A707E4B1A7822F002021A7086
:10497000744B9B6813F0020F00F07681794A724BFA
:10498000C3F8F825282505F0B5FB284604F098FB68
:10499000013CF8D16C4B93F8FC056A4B93F8051178
:1049A000884208D34A000223904205D301330A44C7
:1049B000082BF9D100E00123DBB26B4A1370614A86
:1049C00092F8062102FB03F35F4AA2F8FE354BE1A1
:1049D000129813A901F06AFD644A654B1A60FEF74C
:1049E00039BA129813A901F061FD624A604B1A604E
:1049F000FEF730BA0022604B83F8302000B20BF093
:104A000015FC4DA3D3E900230BF076FC0BF086FEDA
:104A100007464C4DB5F9E8000BF008FC46A3D3E976
:104A200000230BF069FC0BF079FE0646B5F9EA00AD
:104A30000BF0FCFB40A3D3E900230BF05DFC0BF073
:104A40006DFE054638460CF0D1FF804638460DF025
:104A500041F8814630460CF0C9FF074630460DF05C
:104A600039F8064628460CF0C1FF834628460DF06B
:104A700031F88246404659460BF0AEFF0290404660
:104A800051460BF0A9FF0390484659460BF0A4FF8E
:104A90000490484651460BF09FFF05902A4D38463A
:104AA00059460BF099FFC5F8000607F10041504642
:104AB0000BF092FFC5F80406C5F808663046049965
:104AC0000BF08AFF014603980BF07EFEC5F80C063A
:104AD000304605990BF080FF014602980BF072FEFC
:104AE000C5F8100609F1004138460BF075FFC5F80E
:104AF0001406304602990BF06FFF014605980BF043
:104B000061FEC5F81806304603990BF065FF0146B3
:104B100004980BF059FEC5F81C06404639460BF0C8
:104B20005BFFC5F82006FEF734BB0122134B1A7059
:104B300048E000BFAFF30080399D52A246DF913FAD
:104B4000B1060020B81F0020CC0600202805002058
:104B50007E020020C4240020BC240020800200200B
:104B6000C9240020BC200020B0000020994C00087F
:104B7000CC240020B54C000814000020360400208E
:104B8000192004F09DFA68200F21012212AB07F0D2
:104B90009BFF9DF84830D32B05D1FEF74ABB01227D
:104BA000334B1A700EE0192004F08AFA68201521A0
:104BB000002208F0DDFC00287EF458AB20E0012242
:104BC0002B4B1A70DFF8C8A00026B346DFF8C4905C
:104BD000284DFEF780BB99F80030002B3EF47AABED
:104BE000FEF777BC6246FEF7E8BC234B9E427EF49C
:104BF0002BAD224B1A6822F004021A60FEF704BEA5
:104C0000032004F0BDFA1E4B10225A6108221A61DB
:104C10000A271D4619264FF00108FEF773BEB9F1A9
:104C2000010F3FF60DA9FFF724B9164DD5F8906096
:104C3000022004F0B1F9C5F8440100287FF45EA910
:104C4000FFF752B9104E95E80F0086E80F000F4BA2
:104C50001A7801321A701025DFF828B04FF0000AD8
:104C6000B1469846FFF718BB23B0BDE8F08F00BFF0
:104C7000360400208C040020001BB70074020020C2
:104C8000000C0140CC060020480500209C24002098
:104C90009E040020CA24002020B14FF48052044B0F
:104CA0001A6170474FF48052014B5A61704700BF40
:104CB0000008014020B14FF48052044B5A61704704
:104CC0004FF48052014B1A61704700BF0008014049
:104CD00003280ED8114B1B689A888A4209D2DB88B8
:104CE0008B4206D90E4B012202FA00F01A781043CB
:104CF00018700B4B1B780F2B0ED10022084B1A702B
:104D0000084B9B881AB2142A03DD143B054A938092
:104D100070470022034B9A80704700BFB00D0020FF
:104D2000F00C002038090020024B9A8801329A804A
:104D3000704700BF38090020074B1A68074BB3F9CA
:104D40000400117853780B4403EB83039842D4BFDB
:104D500000200120704700BFB00D0020380900205E
:104D6000064BB3F90400064B1B681B7803EB830367
:104D70009842D4BF00200120704700BF38090020AE
:104D8000B00D002010B50446FFF7EAFF002814BF5D
:104D90002046002000F0010010BD00BF0122014BA1
:104DA0001A72704738090020014B187A704700BF0B
:104DB00038090020034BB3F90400D0F1010038BFDB
:104DC00000207047380900200022014B9A8070476C
:104DD000380900202DE9F001884228BF012404D2BF
:104DE000012400264FF030080AE001FB04F4B0FB78
:104DF000F4F58D42F9D21F46ECB1F2E71F463B466F
:104E0000B0FBF4F504FB1500B4FBF1F41EB9002D62
:104E100001DC002CF2D15F1C092D06DD002A0CBF3D
:104E20004FF0570C4FF0370C00E0C44665441D703E
:104E30000136002CE3D100233B70BDE8F001704740
:104E40002DE9F001884228BF012404D20124002664
:104E50004FF030080AE001FB04F4B0FBF4F58D429A
:104E6000F9D21F46ECB1F2E71F463B46B0FBF4F522
:104E700004FB1500B4FBF1F41EB9002D01DC002C7D
:104E8000F2D15F1C092D06DD002A0CBF4FF0570C34
:104E90004FF0370C00E0C44665441D700136002C0D
:104EA000E3D100233B70BDE8F001704738B50546FB
:104EB0001446B0FBF2F010B1FFF7F8FF0146B5FB66
:104EC000F4F304FB1354034B1B5D084600F8013B4D
:104ED00038BD00BF445401082DE9F04105460E4697
:104EE000069F002B0CBF4FF020084FF030083B7896
:104EF0004BB1002A1CDD3B46013A13F8010F10B1FB
:104F0000002AF9D114E0541E002A06DD2846414645
:104F1000B047013CB4F1FF3FF8D1397851B13C467C
:104F20002846B04714F8011F0029F9D1BDE8F081E7
:104F30003978F4E7BDE8F08110B40346026B5AB14A
:104F4000C268016C541A4069005DC0B20139002981
:104F500008BF114619640AE0016A4269505CC0B298
:104F60000131DA68B1FBF2F402FB14121A625DF847
:104F7000044B7047436B13B190F844007047826A4A
:104F8000436A9A4214BF002001207047036B3BB173
:104F900059680369013B026C881A1840C0B2704717
:104FA0000369013BC169026A881A1840C0B27047A0
:104FB000426A806A824214BF00200120704700BF0D
:104FC0004171704710B504468160094BB3FBF1F3A2
:104FD000C0F83832002343EA11430A041046194648
:104FE000044A00230BF004FFC4F83C0210BD00BFCC
:104FF0000040420F40420F0010B4437913F0010FFC
:105000000ED0036AC2699A420CD04269D15C013366
:10501000C268B3FBF2F402FB14330362084602E0F9
:10502000002000E000205DF8044B7047437913F046
:10503000010F09D0C269036AD21AC368B2FBF3F048
:1050400003FB1020C0B2704700207047837A013301
:10505000DBB283720A2B08D9837823B94278002106
:10506000024B23F81210002383727047C80D0020F2
:1050700010B43C4B9A68186C014499608A1ADA6043
:10508000596040F68C239A4248D9364B187893F9E8
:105090004530984211D1031FDBB2082B0DD8314B9C
:1050A00093F84630182B04D801332E4A82F8463044
:1050B00007E02C4B83F8440003E00022294B83F8DF
:1050C0004620284B93F9443098421ED1254B93F843
:1050D0004730D3B148B1244B244A03EB800453F842
:1050E000041F22F8021FA342F9D10B2809DC431E3A
:1050F0001F4901EB43031631002223F8022F8B4294
:10510000FBD11C4B1A7801321A70164B012283F81E
:10511000472083F8450000221A7020E0114B93F8D5
:105120004730E3B1A2F2EF2140F2DA5399420AD8B4
:105130000C4B1B780B2B06D80A49181D41F8202070
:1051400001330B700BE00749002381F8473001F170
:105150000C033C31002243F8042F8B42FBD15DF855
:10516000044B70471C08002028080020C60D0020B2
:10517000C80D00204C190020024B1A6C013211445A
:10518000196470471C080020024B53F820301B683C
:1051900019807047E4080020084B53F820301A6843
:1051A000A1F57A719B8803FB01F1054B83FB010399
:1051B000C917C1EBA31189B211807047E408002020
:1051C000D34D6210704700BF2DE9F00F84B00390FB
:1051D0008C465B4E73895B4A1768A7EB03274FEA3F
:1051E000E779B288002545EA124514043289A2FB0A
:1051F000070102FB0911C20942EA4162CB11A01862
:1052000045EB0301CDE900017288002545EA5245CE
:10521000D403F288A7FB020102FB0911020A42EA49
:1052200001620B1214EB020A45EB030BB289A7FBD8
:10523000020102FB0911C20D42EA4122CB1512F50F
:10524000FA6643F10007B6F5FA6F77F1000157DA15
:1052500002FB03F4A2FB020101EB44018D0045EACD
:1052600090758400001941EB05014D104FEA3004A0
:10527000DDE90089B8EB040869EB0509CDE900898F
:10528000840844EA81748D10BAEB040A6BEB050BB9
:105290002D484FF0FF31864277EB010930DA40F6B6
:1052A000AC500021121843EB010302FB03F1A2FBF7
:1052B000022303EB4103544263EB4305E90041EA57
:1052C0005471E000801841EB0301DDE9004524182A
:1052D00045EB0105CDE90045941843EB0305A90012
:1052E00041EA9471A000001941EB0501801841EBDF
:1052F000030149104FEA3000BAEB000A6BEB010BD7
:10530000124B1A68A2FB0A0102FB0B11420D42EA82
:10531000C1224B15DDE90089B2EB080263EB0903FA
:10532000D00B40EA4340039B03B11860BCF1000F6F
:1053300001D0CCF8006004B0BDE8F00F704700BFAA
:10534000DC0600201C19002024FAFFFF2019002091
:105350002DE9F001364B1C88364B5A89A41A1A895C
:1053600002FB04F4E413B3F91250ED02B3F9142074
:10537000224495FBF2F22244DA6102EB82067600C7
:1053800008363611A2F57A6202FB02F52D13B3F945
:105390000EC00CFB05FCB3F9028008FB02F8B3F960
:1053A0002040B3F9047007FB02F2B3F90C7007FB5D
:1053B00005F52D1405EB62370237BF1007F50047DE
:1053C000DA8802FB07F7FF0B4FEAE82202EBEC2238
:1053D000B3F9003002EB8302A2400232164D2D6871
:1053E000A5EBA2024CF2503545FA04F404FB02F49A
:1053F000002CA7BF6300B3FBF7F3B4FBF7F35B002C
:105400001A1202FB02F240F6DE3404FB02F20B4CED
:1054100004FB03F4241404EB224202F6CF6203EBF4
:10542000221300B1036001B10E60BDE8F0017047C6
:105430002C190020F00600202819002043E3FFFF6C
:10544000074B1B7813B1012B05D070474FF4006256
:10545000044B1A8070474FF48052024B1A807047F9
:10546000DA0600200000002008B5024B1B689847B0
:1054700008BD00BFCC24002008B503685B699847CD
:1054800008BD00BF08B503681B69984708BD00BF89
:105490000FB42DE9F04F87B010AF57F8044B0597C4
:1054A000784BD3F80090784BD3F800800026D9E0F1
:1054B000252903D001344846C047D3E06278302A1A
:1054C00002D00234B24603E0A27803344FF0010A5E
:1054D000A2F13003DBB2092B21D8354605E005EBFC
:1054E000850503EB450514F8012BA2F13003DBB26F
:1054F000092B02D8A2F130030EE0A2F16103DBB266
:10550000052B02D8A2F1570306E0A2F14103DBB25A
:10551000052B05D8A2F137030A2BE0D900E0354668
:105520006C2A03BF2278013401233346632A00F03A
:10553000848008D8252A00F09280582A5AD0002A60
:1055400000F094808EE0732A7DD002D8642A22D0A5
:1055500088E0752A02D0782A4CD083E04BB107F15D
:10556000040B38680A21324602ABFFF769FC5F463C
:1055700008E007F1040B38680A21324602ABFFF756
:1055800029FC5F4602AB0093484641462A465346F3
:10559000FFF7A2FC66E093B107F1040B386800281E
:1055A00006DA40422D238DF808300DF1090300E0A2
:1055B00002AB0A213246FFF743FC5F4611E007F1D8
:1055C000040B3868002806DA40422D238DF8083095
:1055D0000DF1090300E002AB0A213246FFF7FAFBA6
:1055E0005F4602AB0093484641462A465346FFF7C2
:1055F00073FC37E063B107F1040B38681021582AB7
:1056000014BF0022012202ABFFF71AFC5F460BE039
:1056100007F1040B38681021582A14BF0022012218
:1056200002ABFFF7D7FB5F4602AB0093484641460B
:105630002A465346FFF750FC14E03D1D4846397892
:10564000C0472F460EE007F1040A3B680093484626
:1056500041462A463346FFF73FFC574602E048469C
:105660002521C047217800297FF422AF074C20680C
:10567000FFF708FF0028FAD007B0BDE8F04F04B0EC
:10568000704700BFD0060020CC0600204C18002038
:1056900008B50368DB68984708BD00BF08B5036814
:1056A0009B68984708BD00BF08B503685B689847CA
:1056B00008BD00BF10B5054C02E02068FFF7EEFF03
:1056C0002068FFF7F1FF0028F7D110BDC01C0020B3
:1056D00008B503681B68984708BD00BF08B5024BB2
:1056E0001868FFF7F5FF08BD4C18002008B5014603
:1056F000044B1A8802441A80034B1868FFF7E8FF2E
:1057000008BD00BF4A1900207C18002038B50546A6
:10571000044C20685E21FFF7DBFF20682946FFF775
:10572000D7FF38BDA81C002010B501465E2809D15E
:105730000C4C20685D21FFF7CBFF20683E21FFF76E
:10574000C7FF10BD5D2808D1064C2068FFF7C0FFD9
:1057500020683D21FFF7BCFF10BD024B1868FFF722
:10576000B7FF10BDA81C002010B50446C0B2FFF75B
:10577000DBFFC4F30720FFF7D7FF10BD08B5034BCD
:1057800018685E21FFF7A4FF08BD00BFA81C002019
:10579000F8B50B4B1B7893B100240A4F0A4E084D05
:1057A00037F8141056F8243023B10B2C02D89B681C
:1057B000204698470134E4B22B78A342F0D8F8BDD4
:1057C0009C240020A0240020E4080020064B1B6835
:1057D00003EBC00090F906300B40002B0CBF0120FA
:1057E0004FF0FF30704700BF0C0600200A4B1A68CC
:1057F00002EBC002D379FF2B07D008490978994200
:1058000003D9074A32F8130004E00728D4BF908870
:1058100040F2DC5000B270470C06002088020020E5
:10582000140200202DE9F04F87B004468A46D0F8D4
:1058300000904768836801930D6828460CF0D6F8FD
:10584000009028460CF046F98046DAF804502846C5
:105850000CF0CCF8064628460CF03CF90546DAF880
:1058600008A050460CF0C2F8834650460CF032F9BE
:105870008246584600990BF0AFF8029050460099C6
:105880000BF0AAF80390404659460BF0A5F8049097
:10589000404651460BF0A0F80590584631460BF0B3
:1058A0009BF849460BF098F88346049829460BF07C
:1058B00093F803990AF088FF39460BF08DF80146FA
:1058C00058460AF081FF8346029829460BF084F877
:1058D000014605980AF076FF01990BF07DF8014624
:1058E00058460AF071FF206006F1004051460BF067
:1058F00073F849460BF070F88246059829460BF07C
:105900006BF8014602980AF05DFF39460BF064F827
:10591000014650460AF058FF8246039829460BF08C
:105920005BF804990AF050FF01990BF055F8014615
:1059300050460AF049FF6060284649460BF04CF893
:10594000054608F1004031460BF046F839460BF0A9
:1059500043F8014628460AF037FF054630460099CD
:105960000BF03AF8014601980BF036F8014628464C
:105970000AF02AFFA06007B0BDE8F08F2DE9F84FCC
:105980000446394E376838460CF030F8054638463C
:105990000CF0A0F88046766830460CF027F8824676
:1059A00030460CF097F80646D4F80490A7682846CD
:1059B00049460BF011F88346404639460BF00CF887
:1059C000014658460AF0FEFE8346504621680BF019
:1059D00003F80446484641460AF0FEFF31460AF005
:1059E000FBFF014620460AF0EFFE044638463146EA
:1059F0000AF0F2FF29460AF0EFFF014620460AF0BE
:105A0000E3FE014658460CF0F3F818490AF0E4FFAB
:105A10000AF01EFC12A3D3E900230AF097FD044606
:105A20000D46134B18680AF013FC02460B4620463D
:105A300029460AF0AFFA00220E4B0AF087FD0AF061
:105A40006DFE0CF009F883B213F4004F1CBF00F593
:105A5000B4739BB218B2BDE8F88F00BFAFF30080FB
:105A6000182D4454FB210940F80400200000E144B3
:105A7000140700200000244080EAE073A3EBE073E9
:105A80008B4207DB002801DD401A7047002802DA4C
:105A90000844704700207047054B1B7813F0040F33
:105AA0001DBF044B1888C0F3C0100020704700BF12
:105AB000C92400208A020020044B1B7813F0040F35
:105AC00003D023F00403014A13707047C924002057
:105AD00030B587B005460C4600230093019302932E
